{
  "_format": "hh-sol-artifact-1",
  "contractName": "Game",
  "sourceName": "contracts/Game.sol",
  "abi": [
    {
      "inputs": [
        {
          "internalType": "string[]",
          "name": "names",
          "type": "string[]"
        },
        {
          "internalType": "string[]",
          "name": "imageUris",
          "type": "string[]"
        },
        {
          "internalType": "uint256[]",
          "name": "hps",
          "type": "uint256[]"
        },
        {
          "internalType": "uint256[]",
          "name": "damages",
          "type": "uint256[]"
        },
        {
          "internalType": "uint256[]",
          "name": "crits",
          "type": "uint256[]"
        },
        {
          "internalType": "uint256[]",
          "name": "heals",
          "type": "uint256[]"
        },
        {
          "internalType": "string[]",
          "name": "bossNames",
          "type": "string[]"
        },
        {
          "internalType": "string[]",
          "name": "bossImageUris",
          "type": "string[]"
        },
        {
          "internalType": "uint256[]",
          "name": "bossHps",
          "type": "uint256[]"
        },
        {
          "internalType": "uint256[]",
          "name": "bossDamage",
          "type": "uint256[]"
        }
      ],
      "stateMutability": "nonpayable",
      "type": "constructor"
    },
    {
      "inputs": [
        {
          "internalType": "address",
          "name": "have",
          "type": "address"
        },
        {
          "internalType": "address",
          "name": "want",
          "type": "address"
        }
      ],
      "name": "OnlyCoordinatorCanFulfill",
      "type": "error"
    },
    {
      "anonymous": false,
      "inputs": [
        {
          "indexed": true,
          "internalType": "address",
          "name": "owner",
          "type": "address"
        },
        {
          "indexed": true,
          "internalType": "address",
          "name": "approved",
          "type": "address"
        },
        {
          "indexed": true,
          "internalType": "uint256",
          "name": "tokenId",
          "type": "uint256"
        }
      ],
      "name": "Approval",
      "type": "event"
    },
    {
      "anonymous": false,
      "inputs": [
        {
          "indexed": true,
          "internalType": "address",
          "name": "owner",
          "type": "address"
        },
        {
          "indexed": true,
          "internalType": "address",
          "name": "operator",
          "type": "address"
        },
        {
          "indexed": false,
          "internalType": "bool",
          "name": "approved",
          "type": "bool"
        }
      ],
      "name": "ApprovalForAll",
      "type": "event"
    },
    {
      "anonymous": false,
      "inputs": [
        {
          "indexed": true,
          "internalType": "address",
          "name": "from",
          "type": "address"
        },
        {
          "indexed": true,
          "internalType": "address",
          "name": "to",
          "type": "address"
        },
        {
          "indexed": true,
          "internalType": "uint256",
          "name": "tokenId",
          "type": "uint256"
        }
      ],
      "name": "Transfer",
      "type": "event"
    },
    {
      "inputs": [
        {
          "internalType": "address",
          "name": "to",
          "type": "address"
        },
        {
          "internalType": "uint256",
          "name": "tokenId",
          "type": "uint256"
        }
      ],
      "name": "approve",
      "outputs": [],
      "stateMutability": "nonpayable",
      "type": "function"
    },
    {
      "inputs": [
        {
          "internalType": "address",
          "name": "owner",
          "type": "address"
        }
      ],
      "name": "balanceOf",
      "outputs": [
        {
          "internalType": "uint256",
          "name": "",
          "type": "uint256"
        }
      ],
      "stateMutability": "view",
      "type": "function"
    },
    {
      "inputs": [
        {
          "internalType": "uint256",
          "name": "",
          "type": "uint256"
        }
      ],
      "name": "bosses",
      "outputs": [
        {
          "internalType": "string",
          "name": "name",
          "type": "string"
        },
        {
          "internalType": "string",
          "name": "imageUri",
          "type": "string"
        },
        {
          "internalType": "uint256",
          "name": "hp",
          "type": "uint256"
        },
        {
          "internalType": "uint256",
          "name": "maxHp",
          "type": "uint256"
        },
        {
          "internalType": "uint256",
          "name": "damage",
          "type": "uint256"
        }
      ],
      "stateMutability": "view",
      "type": "function"
    },
    {
      "inputs": [],
      "name": "currentBoss",
      "outputs": [
        {
          "internalType": "string",
          "name": "name",
          "type": "string"
        },
        {
          "internalType": "string",
          "name": "imageUri",
          "type": "string"
        },
        {
          "internalType": "uint256",
          "name": "hp",
          "type": "uint256"
        },
        {
          "internalType": "uint256",
          "name": "maxHp",
          "type": "uint256"
        },
        {
          "internalType": "uint256",
          "name": "damage",
          "type": "uint256"
        }
      ],
      "stateMutability": "view",
      "type": "function"
    },
    {
      "inputs": [
        {
          "internalType": "uint256",
          "name": "",
          "type": "uint256"
        }
      ],
      "name": "defaultAttributes",
      "outputs": [
        {
          "internalType": "uint256",
          "name": "index",
          "type": "uint256"
        },
        {
          "internalType": "string",
          "name": "name",
          "type": "string"
        },
        {
          "internalType": "string",
          "name": "imageUri",
          "type": "string"
        },
        {
          "internalType": "uint256",
          "name": "hp",
          "type": "uint256"
        },
        {
          "internalType": "uint256",
          "name": "maxHp",
          "type": "uint256"
        },
        {
          "internalType": "uint256",
          "name": "damage",
          "type": "uint256"
        },
        {
          "internalType": "uint256",
          "name": "crit",
          "type": "uint256"
        },
        {
          "internalType": "uint256",
          "name": "heal",
          "type": "uint256"
        }
      ],
      "stateMutability": "view",
      "type": "function"
    },
    {
      "inputs": [
        {
          "internalType": "uint256",
          "name": "linkAmount",
          "type": "uint256"
        }
      ],
      "name": "fundSubscription",
      "outputs": [],
      "stateMutability": "nonpayable",
      "type": "function"
    },
    {
      "inputs": [
        {
          "internalType": "uint256",
          "name": "tokenId",
          "type": "uint256"
        }
      ],
      "name": "getApproved",
      "outputs": [
        {
          "internalType": "address",
          "name": "",
          "type": "address"
        }
      ],
      "stateMutability": "view",
      "type": "function"
    },
    {
      "inputs": [
        {
          "internalType": "address",
          "name": "owner",
          "type": "address"
        },
        {
          "internalType": "address",
          "name": "operator",
          "type": "address"
        }
      ],
      "name": "isApprovedForAll",
      "outputs": [
        {
          "internalType": "bool",
          "name": "",
          "type": "bool"
        }
      ],
      "stateMutability": "view",
      "type": "function"
    },
    {
      "inputs": [],
      "name": "mintCost",
      "outputs": [
        {
          "internalType": "uint256",
          "name": "",
          "type": "uint256"
        }
      ],
      "stateMutability": "view",
      "type": "function"
    },
    {
      "inputs": [],
      "name": "mintHero",
      "outputs": [],
      "stateMutability": "payable",
      "type": "function"
    },
    {
      "inputs": [],
      "name": "name",
      "outputs": [
        {
          "internalType": "string",
          "name": "",
          "type": "string"
        }
      ],
      "stateMutability": "view",
      "type": "function"
    },
    {
      "inputs": [
        {
          "internalType": "uint256",
          "name": "",
          "type": "uint256"
        }
      ],
      "name": "nftAttributes",
      "outputs": [
        {
          "internalType": "uint256",
          "name": "index",
          "type": "uint256"
        },
        {
          "internalType": "string",
          "name": "name",
          "type": "string"
        },
        {
          "internalType": "string",
          "name": "imageUri",
          "type": "string"
        },
        {
          "internalType": "uint256",
          "name": "hp",
          "type": "uint256"
        },
        {
          "internalType": "uint256",
          "name": "maxHp",
          "type": "uint256"
        },
        {
          "internalType": "uint256",
          "name": "damage",
          "type": "uint256"
        },
        {
          "internalType": "uint256",
          "name": "crit",
          "type": "uint256"
        },
        {
          "internalType": "uint256",
          "name": "heal",
          "type": "uint256"
        }
      ],
      "stateMutability": "view",
      "type": "function"
    },
    {
      "inputs": [
        {
          "internalType": "address",
          "name": "",
          "type": "address"
        },
        {
          "internalType": "uint256",
          "name": "",
          "type": "uint256"
        }
      ],
      "name": "nftHolders",
      "outputs": [
        {
          "internalType": "uint256",
          "name": "",
          "type": "uint256"
        }
      ],
      "stateMutability": "view",
      "type": "function"
    },
    {
      "inputs": [],
      "name": "owner",
      "outputs": [
        {
          "internalType": "address",
          "name": "",
          "type": "address"
        }
      ],
      "stateMutability": "view",
      "type": "function"
    },
    {
      "inputs": [
        {
          "internalType": "uint256",
          "name": "tokenId",
          "type": "uint256"
        }
      ],
      "name": "ownerOf",
      "outputs": [
        {
          "internalType": "address",
          "name": "",
          "type": "address"
        }
      ],
      "stateMutability": "view",
      "type": "function"
    },
    {
      "inputs": [
        {
          "internalType": "uint256",
          "name": "requestId",
          "type": "uint256"
        },
        {
          "internalType": "uint256[]",
          "name": "randomWords",
          "type": "uint256[]"
        }
      ],
      "name": "rawFulfillRandomWords",
      "outputs": [],
      "stateMutability": "nonpayable",
      "type": "function"
    },
    {
      "inputs": [
        {
          "internalType": "address",
          "name": "from",
          "type": "address"
        },
        {
          "internalType": "address",
          "name": "to",
          "type": "address"
        },
        {
          "internalType": "uint256",
          "name": "tokenId",
          "type": "uint256"
        }
      ],
      "name": "safeTransferFrom",
      "outputs": [],
      "stateMutability": "nonpayable",
      "type": "function"
    },
    {
      "inputs": [
        {
          "internalType": "address",
          "name": "from",
          "type": "address"
        },
        {
          "internalType": "address",
          "name": "to",
          "type": "address"
        },
        {
          "internalType": "uint256",
          "name": "tokenId",
          "type": "uint256"
        },
        {
          "internalType": "bytes",
          "name": "_data",
          "type": "bytes"
        }
      ],
      "name": "safeTransferFrom",
      "outputs": [],
      "stateMutability": "nonpayable",
      "type": "function"
    },
    {
      "inputs": [
        {
          "internalType": "address",
          "name": "operator",
          "type": "address"
        },
        {
          "internalType": "bool",
          "name": "approved",
          "type": "bool"
        }
      ],
      "name": "setApprovalForAll",
      "outputs": [],
      "stateMutability": "nonpayable",
      "type": "function"
    },
    {
      "inputs": [
        {
          "internalType": "uint256",
          "name": "_mintCost",
          "type": "uint256"
        }
      ],
      "name": "setMintCost",
      "outputs": [],
      "stateMutability": "nonpayable",
      "type": "function"
    },
    {
      "inputs": [
        {
          "internalType": "address",
          "name": "_owner",
          "type": "address"
        }
      ],
      "name": "setOwner",
      "outputs": [],
      "stateMutability": "nonpayable",
      "type": "function"
    },
    {
      "inputs": [
        {
          "internalType": "bytes4",
          "name": "interfaceId",
          "type": "bytes4"
        }
      ],
      "name": "supportsInterface",
      "outputs": [
        {
          "internalType": "bool",
          "name": "",
          "type": "bool"
        }
      ],
      "stateMutability": "view",
      "type": "function"
    },
    {
      "inputs": [],
      "name": "symbol",
      "outputs": [
        {
          "internalType": "string",
          "name": "",
          "type": "string"
        }
      ],
      "stateMutability": "view",
      "type": "function"
    },
    {
      "inputs": [
        {
          "internalType": "uint256",
          "name": "tokenId",
          "type": "uint256"
        }
      ],
      "name": "tokenURI",
      "outputs": [
        {
          "internalType": "string",
          "name": "",
          "type": "string"
        }
      ],
      "stateMutability": "view",
      "type": "function"
    },
    {
      "inputs": [
        {
          "internalType": "address",
          "name": "from",
          "type": "address"
        },
        {
          "internalType": "address",
          "name": "to",
          "type": "address"
        },
        {
          "internalType": "uint256",
          "name": "tokenId",
          "type": "uint256"
        }
      ],
      "name": "transferFrom",
      "outputs": [],
      "stateMutability": "nonpayable",
      "type": "function"
    }
  ],
  "bytecode": "0x60a060405273271682deb8c4e0901d1a1550ad2e64d568e69909600860006101000a81548173ffffffffffffffffffffffffffffffffffffffff021916908373ffffffffffffffffffffffffffffffffffffffff16021790555073514910771af9ca656af840dff83e8264ecf986ca600960006101000a81548173ffffffffffffffffffffffffffffffffffffffff021916908373ffffffffffffffffffffffffffffffffffffffff1602179055507fff8dedfbfa60af186cf3c830acbc32c05aae823045ae5ea7da1e45fbfaba4f9260001b600a556000601755348015620000e757600080fd5b5060405162005ac138038062005ac183398181016040528101906200010d919062000d33565b600860009054906101000a900473ffffffffffffffffffffffffffffffffffffffff166040518060400160405280600681526020017f4865726f657300000000000000000000000000000000000000000000000000008152506040518060400160405280600481526020017f4865726f000000000000000000000000000000000000000000000000000000008152508160009080519060200190620001b4929190620008d9565b508060019080519060200190620001cd929190620008d9565b5050508073ffffffffffffffffffffffffffffffffffffffff1660808173ffffffffffffffffffffffffffffffffffffffff16815250505088518a5114801562000218575087518951145b801562000226575086518851145b801562000234575085518751145b801562000242575084518651145b62000284576040517f08c379a00000000000000000000000000000000000000000000000000000000081526004016200027b9062000fe6565b60405180910390fd5b8251845114801562000297575081518351145b8015620002a5575080518251145b620002e7576040517f08c379a0000000000000000000000000000000000000000000000000000000008152600401620002de906200107e565b60405180910390fd5b60005b84518110156200044b5760116040518060a00160405280878481518110620003175762000316620010a0565b5b602002602001015181526020018684815181106200033a5762000339620010a0565b5b602002602001015181526020018584815181106200035d576200035c620010a0565b5b6020026020010151815260200184848151811062000380576200037f620010a0565b5b60200260200101518152602001848481518110620003a357620003a2620010a0565b5b602002602001015181525090806001815401808255809150506001900390600052602060002090600502016000909190919091506000820151816000019080519060200190620003f5929190620008d9565b50602082015181600101908051906020019062000414929190620008d9565b50604082015181600201556060820151816003015560808201518160040155505080806200044290620010fe565b915050620002ea565b5060005b8a518110156200061b57600e6040518061010001604052808381526020018d8481518110620004835762000482620010a0565b5b602002602001015181526020018c8481518110620004a657620004a5620010a0565b5b602002602001015181526020018b8481518110620004c957620004c8620010a0565b5b602002602001015181526020018b8481518110620004ec57620004eb620010a0565b5b602002602001015181526020018a84815181106200050f576200050e620010a0565b5b60200260200101518152602001898481518110620005325762000531620010a0565b5b60200260200101518152602001888481518110620005555762000554620010a0565b5b60200260200101518152509080600181540180825580915050600190039060005260206000209060080201600090919091909150600082015181600001556020820151816001019080519060200190620005b1929190620008d9565b506040820151816002019080519060200190620005d0929190620008d9565b50606082015181600301556080820151816004015560a0820151816005015560c0820151816006015560e08201518160070155505080806200061290620010fe565b9150506200044f565b5062000633600d6200075a60201b620018fc1760201c565b33601860006101000a81548173ffffffffffffffffffffffffffffffffffffffff021916908373ffffffffffffffffffffffffffffffffffffffff160217905550600860009054906101000a900473ffffffffffffffffffffffffffffffffffffffff16600660006101000a81548173ffffffffffffffffffffffffffffffffffffffff021916908373ffffffffffffffffffffffffffffffffffffffff160217905550600960009054906101000a900473ffffffffffffffffffffffffffffffffffffffff16600760006101000a81548173ffffffffffffffffffffffffffffffffffffffff021916908373ffffffffffffffffffffffffffffffffffffffff1602179055506200074a6200077060201b60201c565b50505050505050505050620012a9565b6001816000016000828254019250508190555050565b600660009054906101000a900473ffffffffffffffffffffffffffffffffffffffff1673ffffffffffffffffffffffffffffffffffffffff1663a21a23e46040518163ffffffff1660e01b81526004016020604051808303816000875af1158015620007e0573d6000803e3d6000fd5b505050506040513d601f19601f8201168201806040525081019062000806919062001190565b600b60006101000a81548167ffffffffffffffff021916908367ffffffffffffffff160217905550600660009054906101000a900473ffffffffffffffffffffffffffffffffffffffff1673ffffffffffffffffffffffffffffffffffffffff16637341c10c600b60009054906101000a900467ffffffffffffffff16306040518363ffffffff1660e01b8152600401620008a392919062001218565b600060405180830381600087803b158015620008be57600080fd5b505af1158015620008d3573d6000803e3d6000fd5b50505050565b828054620008e79062001274565b90600052602060002090601f0160209004810192826200090b576000855562000957565b82601f106200092657805160ff191683800117855562000957565b8280016001018555821562000957579182015b828111156200095657825182559160200191906001019062000939565b5b5090506200096691906200096a565b5090565b5b80821115620009855760008160009055506001016200096b565b5090565b6000604051905090565b600080fd5b600080fd5b600080fd5b6000601f19601f8301169050919050565b7f4e487b7100000000000000000000000000000000000000000000000000000000600052604160045260246000fd5b620009ed82620009a2565b810181811067ffffffffffffffff8211171562000a0f5762000a0e620009b3565b5b80604052505050565b600062000a2462000989565b905062000a328282620009e2565b919050565b600067ffffffffffffffff82111562000a555762000a54620009b3565b5b602082029050602081019050919050565b600080fd5b600080fd5b600067ffffffffffffffff82111562000a8e5762000a8d620009b3565b5b62000a9982620009a2565b9050602081019050919050565b60005b8381101562000ac657808201518184015260208101905062000aa9565b8381111562000ad6576000848401525b50505050565b600062000af362000aed8462000a70565b62000a18565b90508281526020810184848401111562000b125762000b1162000a6b565b5b62000b1f84828562000aa6565b509392505050565b600082601f83011262000b3f5762000b3e6200099d565b5b815162000b5184826020860162000adc565b91505092915050565b600062000b7162000b6b8462000a37565b62000a18565b9050808382526020820190506020840283018581111562000b975762000b9662000a66565b5b835b8181101562000be557805167ffffffffffffffff81111562000bc05762000bbf6200099d565b5b80860162000bcf898262000b27565b8552602085019450505060208101905062000b99565b5050509392505050565b600082601f83011262000c075762000c066200099d565b5b815162000c1984826020860162000b5a565b91505092915050565b600067ffffffffffffffff82111562000c405762000c3f620009b3565b5b602082029050602081019050919050565b6000819050919050565b62000c668162000c51565b811462000c7257600080fd5b50565b60008151905062000c868162000c5b565b92915050565b600062000ca362000c9d8462000c22565b62000a18565b9050808382526020820190506020840283018581111562000cc95762000cc862000a66565b5b835b8181101562000cf6578062000ce1888262000c75565b84526020840193505060208101905062000ccb565b5050509392505050565b600082601f83011262000d185762000d176200099d565b5b815162000d2a84826020860162000c8c565b91505092915050565b6000806000806000806000806000806101408b8d03121562000d5a5762000d5962000993565b5b60008b015167ffffffffffffffff81111562000d7b5762000d7a62000998565b5b62000d898d828e0162000bef565b9a505060208b015167ffffffffffffffff81111562000dad5762000dac62000998565b5b62000dbb8d828e0162000bef565b99505060408b015167ffffffffffffffff81111562000ddf5762000dde62000998565b5b62000ded8d828e0162000d00565b98505060608b015167ffffffffffffffff81111562000e115762000e1062000998565b5b62000e1f8d828e0162000d00565b97505060808b015167ffffffffffffffff81111562000e435762000e4262000998565b5b62000e518d828e0162000d00565b96505060a08b015167ffffffffffffffff81111562000e755762000e7462000998565b5b62000e838d828e0162000d00565b95505060c08b015167ffffffffffffffff81111562000ea75762000ea662000998565b5b62000eb58d828e0162000bef565b94505060e08b015167ffffffffffffffff81111562000ed95762000ed862000998565b5b62000ee78d828e0162000bef565b9350506101008b015167ffffffffffffffff81111562000f0c5762000f0b62000998565b5b62000f1a8d828e0162000d00565b9250506101208b015167ffffffffffffffff81111562000f3f5762000f3e62000998565b5b62000f4d8d828e0162000d00565b9150509295989b9194979a5092959850565b600082825260208201905092915050565b7f4f6e65206f662074686520676976656e204e46542064656661756c742061727260008201527f617973206973206f6464206c656e677468000000000000000000000000000000602082015250565b600062000fce60318362000f5f565b915062000fdb8262000f70565b604082019050919050565b60006020820190508181036000830152620010018162000fbf565b9050919050565b7f4f6e65206f662074686520676976656e20626f73732064656661756c7420617260008201527f72617973206973206f6464206c656e6774680000000000000000000000000000602082015250565b60006200106660328362000f5f565b9150620010738262001008565b604082019050919050565b60006020820190508181036000830152620010998162001057565b9050919050565b7f4e487b7100000000000000000000000000000000000000000000000000000000600052603260045260246000fd5b7f4e487b7100000000000000000000000000000000000000000000000000000000600052601160045260246000fd5b60006200110b8262000c51565b91507fffffffffffffffffffffffffffffffffffffffffffffffffffffffffffffffff820362001140576200113f620010cf565b5b600182019050919050565b600067ffffffffffffffff82169050919050565b6200116a816200114b565b81146200117657600080fd5b50565b6000815190506200118a816200115f565b92915050565b600060208284031215620011a957620011a862000993565b5b6000620011b98482850162001179565b91505092915050565b620011cd816200114b565b82525050565b600073ffffffffffffffffffffffffffffffffffffffff82169050919050565b60006200120082620011d3565b9050919050565b6200121281620011f3565b82525050565b60006040820190506200122f6000830185620011c2565b6200123e602083018462001207565b9392505050565b7f4e487b7100000000000000000000000000000000000000000000000000000000600052602260045260246000fd5b600060028204905060018216806200128d57607f821691505b602082108103620012a357620012a262001245565b5b50919050565b6080516147f5620012cc60003960008181610a1b0152610a6f01526147f56000f3fe6080604052600436106101665760003560e01c8063775bb50e116100d1578063b88d4fde1161008a578063c87b56dd11610064578063c87b56dd1461056d578063d4b5d603146105aa578063e9200337146105ee578063e985e9c5146105f857610166565b8063b88d4fde146104f0578063bdb4b84814610519578063c10606531461054457610166565b8063775bb50e146103dc5780638545f4ea14610419578063856f8c35146104425780638da5cb5b1461047157806395d89b411461049c578063a22cb465146104c757610166565b8063204597e011610123578063204597e01461028b57806323b872dd146102cc57806342842e0e146102f55780636352211e1461031e5780636a9081521461035b57806370a082311461039f57610166565b806301ffc9a71461016b57806306fdde03146101a8578063081812fc146101d3578063095ea7b31461021057806313af4035146102395780631fe543e314610262575b600080fd5b34801561017757600080fd5b50610192600480360381019061018d9190612d24565b610635565b60405161019f9190612d6c565b60405180910390f35b3480156101b457600080fd5b506101bd610717565b6040516101ca9190612e20565b60405180910390f35b3480156101df57600080fd5b506101fa60048036038101906101f59190612e78565b6107a9565b6040516102079190612ee6565b60405180910390f35b34801561021c57600080fd5b5061023760048036038101906102329190612f2d565b61082e565b005b34801561024557600080fd5b50610260600480360381019061025b9190612f6d565b610945565b005b34801561026e57600080fd5b50610289600480360381019061028491906130e2565b610a19565b005b34801561029757600080fd5b506102b260048036038101906102ad9190612e78565b610ad9565b6040516102c395949392919061314d565b60405180910390f35b3480156102d857600080fd5b506102f360048036038101906102ee91906131ae565b610c2f565b005b34801561030157600080fd5b5061031c600480360381019061031791906131ae565b610c8f565b005b34801561032a57600080fd5b5061034560048036038101906103409190612e78565b610caf565b6040516103529190612ee6565b60405180910390f35b34801561036757600080fd5b50610382600480360381019061037d9190612e78565b610d60565b604051610396989796959493929190613201565b60405180910390f35b3480156103ab57600080fd5b506103c660048036038101906103c19190612f6d565b610ec8565b6040516103d3919061328d565b60405180910390f35b3480156103e857600080fd5b5061040360048036038101906103fe9190612f2d565b610f7f565b604051610410919061328d565b60405180910390f35b34801561042557600080fd5b50610440600480360381019061043b9190612e78565b610fb0565b005b34801561044e57600080fd5b5061045761104a565b60405161046895949392919061314d565b60405180910390f35b34801561047d57600080fd5b5061048661117e565b6040516104939190612ee6565b60405180910390f35b3480156104a857600080fd5b506104b16111a4565b6040516104be9190612e20565b60405180910390f35b3480156104d357600080fd5b506104ee60048036038101906104e991906132d4565b611236565b005b3480156104fc57600080fd5b50610517600480360381019061051291906133c9565b61124c565b005b34801561052557600080fd5b5061052e6112ae565b60405161053b919061328d565b60405180910390f35b34801561055057600080fd5b5061056b60048036038101906105669190612e78565b6112b4565b005b34801561057957600080fd5b50610594600480360381019061058f9190612e78565b611441565b6040516105a19190612e20565b60405180910390f35b3480156105b657600080fd5b506105d160048036038101906105cc9190612e78565b61169c565b6040516105e5989796959493929190613201565b60405180910390f35b6105f66117f4565b005b34801561060457600080fd5b5061061f600480360381019061061a919061344c565b611868565b60405161062c9190612d6c565b60405180910390f35b60007f80ac58cd000000000000000000000000000000000000000000000000000000007bffffffffffffffffffffffffffffffffffffffffffffffffffffffff1916827bffffffffffffffffffffffffffffffffffffffffffffffffffffffff1916148061070057507f5b5e139f000000000000000000000000000000000000000000000000000000007bffffffffffffffffffffffffffffffffffffffffffffffffffffffff1916827bffffffffffffffffffffffffffffffffffffffffffffffffffffffff1916145b80610710575061070f82611912565b5b9050919050565b606060008054610726906134bb565b80601f0160208091040260200160405190810160405280929190818152602001828054610752906134bb565b801561079f5780601f106107745761010080835404028352916020019161079f565b820191906000526020600020905b81548152906001019060200180831161078257829003601f168201915b5050505050905090565b60006107b48261197c565b6107f3576040517f08c379a00000000000000000000000000000000000000000000000000000000081526004016107ea9061355e565b60405180910390fd5b6004600083815260200190815260200160002060009054906101000a900473ffffffffffffffffffffffffffffffffffffffff169050919050565b600061083982610caf565b90508073ffffffffffffffffffffffffffffffffffffffff168373ffffffffffffffffffffffffffffffffffffffff16036108a9576040517f08c379a00000000000000000000000000000000000000000000000000000000081526004016108a0906135f0565b60405180910390fd5b8073ffffffffffffffffffffffffffffffffffffffff166108c86119e8565b73ffffffffffffffffffffffffffffffffffffffff1614806108f757506108f6816108f16119e8565b611868565b5b610936576040517f08c379a000000000000000000000000000000000000000000000000000000000815260040161092d90613682565b60405180910390fd5b61094083836119f0565b505050565b601860009054906101000a900473ffffffffffffffffffffffffffffffffffffffff1673ffffffffffffffffffffffffffffffffffffffff163373ffffffffffffffffffffffffffffffffffffffff16146109d5576040517f08c379a00000000000000000000000000000000000000000000000000000000081526004016109cc906136ee565b60405180910390fd5b80601860006101000a81548173ffffffffffffffffffffffffffffffffffffffff021916908373ffffffffffffffffffffffffffffffffffffffff16021790555050565b7f000000000000000000000000000000000000000000000000000000000000000073ffffffffffffffffffffffffffffffffffffffff163373ffffffffffffffffffffffffffffffffffffffff1614610acb57337f00000000000000000000000000000000000000000000000000000000000000006040517f1cf993f4000000000000000000000000000000000000000000000000000000008152600401610ac292919061370e565b60405180910390fd5b610ad58282611aa9565b5050565b60118181548110610ae957600080fd5b9060005260206000209060050201600091509050806000018054610b0c906134bb565b80601f0160208091040260200160405190810160405280929190818152602001828054610b38906134bb565b8015610b855780601f10610b5a57610100808354040283529160200191610b85565b820191906000526020600020905b815481529060010190602001808311610b6857829003601f168201915b505050505090806001018054610b9a906134bb565b80601f0160208091040260200160405190810160405280929190818152602001828054610bc6906134bb565b8015610c135780601f10610be857610100808354040283529160200191610c13565b820191906000526020600020905b815481529060010190602001808311610bf657829003601f168201915b5050505050908060020154908060030154908060040154905085565b610c40610c3a6119e8565b82611bb9565b610c7f576040517f08c379a0000000000000000000000000000000000000000000000000000000008152600401610c76906137a9565b60405180910390fd5b610c8a838383611c97565b505050565b610caa8383836040518060200160405280600081525061124c565b505050565b6000806002600084815260200190815260200160002060009054906101000a900473ffffffffffffffffffffffffffffffffffffffff169050600073ffffffffffffffffffffffffffffffffffffffff168173ffffffffffffffffffffffffffffffffffffffff1603610d57576040517f08c379a0000000000000000000000000000000000000000000000000000000008152600401610d4e9061383b565b60405180910390fd5b80915050919050565b600e8181548110610d7057600080fd5b9060005260206000209060080201600091509050806000015490806001018054610d99906134bb565b80601f0160208091040260200160405190810160405280929190818152602001828054610dc5906134bb565b8015610e125780601f10610de757610100808354040283529160200191610e12565b820191906000526020600020905b815481529060010190602001808311610df557829003601f168201915b505050505090806002018054610e27906134bb565b80601f0160208091040260200160405190810160405280929190818152602001828054610e53906134bb565b8015610ea05780601f10610e7557610100808354040283529160200191610ea0565b820191906000526020600020905b815481529060010190602001808311610e8357829003601f168201915b5050505050908060030154908060040154908060050154908060060154908060070154905088565b60008073ffffffffffffffffffffffffffffffffffffffff168273ffffffffffffffffffffffffffffffffffffffff1603610f38576040517f08c379a0000000000000000000000000000000000000000000000000000000008152600401610f2f906138cd565b60405180910390fd5b600360008373ffffffffffffffffffffffffffffffffffffffff1673ffffffffffffffffffffffffffffffffffffffff168152602001908152602001600020549050919050565b60106020528160005260406000208181548110610f9b57600080fd5b90600052602060002001600091509150505481565b601860009054906101000a900473ffffffffffffffffffffffffffffffffffffffff1673ffffffffffffffffffffffffffffffffffffffff163373ffffffffffffffffffffffffffffffffffffffff1614611040576040517f08c379a0000000000000000000000000000000000000000000000000000000008152600401611037906136ee565b60405180910390fd5b8060178190555050565b601280600001805461105b906134bb565b80601f0160208091040260200160405190810160405280929190818152602001828054611087906134bb565b80156110d45780601f106110a9576101008083540402835291602001916110d4565b820191906000526020600020905b8154815290600101906020018083116110b757829003601f168201915b5050505050908060010180546110e9906134bb565b80601f0160208091040260200160405190810160405280929190818152602001828054611115906134bb565b80156111625780601f1061113757610100808354040283529160200191611162565b820191906000526020600020905b81548152906001019060200180831161114557829003601f168201915b5050505050908060020154908060030154908060040154905085565b601860009054906101000a900473ffffffffffffffffffffffffffffffffffffffff1681565b6060600180546111b3906134bb565b80601f01602080910402602001604051908101604052809291908181526020018280546111df906134bb565b801561122c5780601f106112015761010080835404028352916020019161122c565b820191906000526020600020905b81548152906001019060200180831161120f57829003601f168201915b5050505050905090565b6112486112416119e8565b8383611efd565b5050565b61125d6112576119e8565b83611bb9565b61129c576040517f08c379a0000000000000000000000000000000000000000000000000000000008152600401611293906137a9565b60405180910390fd5b6112a884848484612069565b50505050565b60175481565b601860009054906101000a900473ffffffffffffffffffffffffffffffffffffffff1673ffffffffffffffffffffffffffffffffffffffff163373ffffffffffffffffffffffffffffffffffffffff1614611344576040517f08c379a000000000000000000000000000000000000000000000000000000000815260040161133b906136ee565b60405180910390fd5b600760009054906101000a900473ffffffffffffffffffffffffffffffffffffffff1673ffffffffffffffffffffffffffffffffffffffff16634000aea0600860009054906101000a900473ffffffffffffffffffffffffffffffffffffffff1683600b60009054906101000a900467ffffffffffffffff166040516020016113cd9190613910565b6040516020818303038152906040526040518463ffffffff1660e01b81526004016113fa93929190613980565b6020604051808303816000875af1158015611419573d6000803e3d6000fd5b505050506040513d601f19601f8201168201806040525081019061143d91906139d3565b5050565b60606000600f6000848152602001908152602001600020604051806101000160405290816000820154815260200160018201805461147e906134bb565b80601f01602080910402602001604051908101604052809291908181526020018280546114aa906134bb565b80156114f75780601f106114cc576101008083540402835291602001916114f7565b820191906000526020600020905b8154815290600101906020018083116114da57829003601f168201915b50505050508152602001600282018054611510906134bb565b80601f016020809104026020016040519081016040528092919081815260200182805461153c906134bb565b80156115895780601f1061155e57610100808354040283529160200191611589565b820191906000526020600020905b81548152906001019060200180831161156c57829003601f168201915b50505050508152602001600382015481526020016004820154815260200160058201548152602001600682015481526020016007820154815250509050600061166b82602001516115d9866120c5565b84604001516115eb86606001516120c5565b6115f887608001516120c5565b6116058860a001516120c5565b61160f60326120c5565b61161c8a60c001516120c5565b61162660326120c5565b6116338c60e001516120c5565b61163d60326120c5565b6040516020016116579b9a99989796959493929190613dcc565b604051602081830303815290604052612225565b90506000816040516020016116809190613f35565b6040516020818303038152906040529050809350505050919050565b600f6020528060005260406000206000915090508060000154908060010180546116c5906134bb565b80601f01602080910402602001604051908101604052809291908181526020018280546116f1906134bb565b801561173e5780601f106117135761010080835404028352916020019161173e565b820191906000526020600020905b81548152906001019060200180831161172157829003601f168201915b505050505090806002018054611753906134bb565b80601f016020809104026020016040519081016040528092919081815260200182805461177f906134bb565b80156117cc5780601f106117a1576101008083540402835291602001916117cc565b820191906000526020600020905b8154815290600101906020018083116117af57829003601f168201915b5050505050908060030154908060040154908060050154908060060154908060070154905088565b60006017541115611844576017543414611843576040517f08c379a000000000000000000000000000000000000000000000000000000000815260040161183a90613fa3565b60405180910390fd5b5b6000611850600d6123bc565b905061185b816123ca565b611865600d6118fc565b50565b6000600560008473ffffffffffffffffffffffffffffffffffffffff1673ffffffffffffffffffffffffffffffffffffffff16815260200190815260200160002060008373ffffffffffffffffffffffffffffffffffffffff1673ffffffffffffffffffffffffffffffffffffffff16815260200190815260200160002060009054906101000a900460ff16905092915050565b6001816000016000828254019250508190555050565b60007f01ffc9a7000000000000000000000000000000000000000000000000000000007bffffffffffffffffffffffffffffffffffffffffffffffffffffffff1916827bffffffffffffffffffffffffffffffffffffffffffffffffffffffff1916149050919050565b60008073ffffffffffffffffffffffffffffffffffffffff166002600084815260200190815260200160002060009054906101000a900473ffffffffffffffffffffffffffffffffffffffff1673ffffffffffffffffffffffffffffffffffffffff1614159050919050565b600033905090565b816004600083815260200190815260200160002060006101000a81548173ffffffffffffffffffffffffffffffffffffffff021916908373ffffffffffffffffffffffffffffffffffffffff160217905550808273ffffffffffffffffffffffffffffffffffffffff16611a6383610caf565b73ffffffffffffffffffffffffffffffffffffffff167f8c5be1e5ebec7d5bd14f71427d1e84f3dd0314c0f7b2291e5b200ac8c7c3b92560405160405180910390a45050565b6000600c60008481526020019081526020016000206040518060400160405290816000820160009054906101000a900473ffffffffffffffffffffffffffffffffffffffff1673ffffffffffffffffffffffffffffffffffffffff1673ffffffffffffffffffffffffffffffffffffffff1681526020016001820154815250509050600c6000848152602001908152602001600020600080820160006101000a81549073ffffffffffffffffffffffffffffffffffffffff0219169055600182016000905550506000600e8054905083600081518110611b8c57611b8b613fc3565b5b6020026020010151611b9e9190614021565b9050611bb38260000151836020015183612521565b50505050565b6000611bc48261197c565b611c03576040517f08c379a0000000000000000000000000000000000000000000000000000000008152600401611bfa906140c4565b60405180910390fd5b6000611c0e83610caf565b90508073ffffffffffffffffffffffffffffffffffffffff168473ffffffffffffffffffffffffffffffffffffffff161480611c7d57508373ffffffffffffffffffffffffffffffffffffffff16611c65846107a9565b73ffffffffffffffffffffffffffffffffffffffff16145b80611c8e5750611c8d8185611868565b5b91505092915050565b8273ffffffffffffffffffffffffffffffffffffffff16611cb782610caf565b73ffffffffffffffffffffffffffffffffffffffff1614611d0d576040517f08c379a0000000000000000000000000000000000000000000000000000000008152600401611d0490614156565b60405180910390fd5b600073ffffffffffffffffffffffffffffffffffffffff168273ffffffffffffffffffffffffffffffffffffffff1603611d7c576040517f08c379a0000000000000000000000000000000000000000000000000000000008152600401611d73906141e8565b60405180910390fd5b611d8783838361280f565b611d926000826119f0565b6001600360008573ffffffffffffffffffffffffffffffffffffffff1673ffffffffffffffffffffffffffffffffffffffff1681526020019081526020016000206000828254611de29190614237565b925050819055506001600360008473ffffffffffffffffffffffffffffffffffffffff1673ffffffffffffffffffffffffffffffffffffffff1681526020019081526020016000206000828254611e39919061426b565b92505081905550816002600083815260200190815260200160002060006101000a81548173ffffffffffffffffffffffffffffffffffffffff021916908373ffffffffffffffffffffffffffffffffffffffff160217905550808273ffffffffffffffffffffffffffffffffffffffff168473ffffffffffffffffffffffffffffffffffffffff167fddf252ad1be2c89b69c2b068fc378daa952ba7f163c4a11628f55a4df523b3ef60405160405180910390a4611ef8838383612814565b505050565b8173ffffffffffffffffffffffffffffffffffffffff168373ffffffffffffffffffffffffffffffffffffffff1603611f6b576040517f08c379a0000000000000000000000000000000000000000000000000000000008152600401611f629061430d565b60405180910390fd5b80600560008573ffffffffffffffffffffffffffffffffffffffff1673ffffffffffffffffffffffffffffffffffffffff16815260200190815260200160002060008473ffffffffffffffffffffffffffffffffffffffff1673ffffffffffffffffffffffffffffffffffffffff16815260200190815260200160002060006101000a81548160ff0219169083151502179055508173ffffffffffffffffffffffffffffffffffffffff168373ffffffffffffffffffffffffffffffffffffffff167f17307eab39ab6107e8899845ad3d59bd9653f200f220920489ca2b5937696c318360405161205c9190612d6c565b60405180910390a3505050565b612074848484611c97565b61208084848484612819565b6120bf576040517f08c379a00000000000000000000000000000000000000000000000000000000081526004016120b69061439f565b60405180910390fd5b50505050565b60606000820361210c576040518060400160405280600181526020017f30000000000000000000000000000000000000000000000000000000000000008152509050612220565b600082905060005b6000821461213e578080612127906143bf565b915050600a826121379190614407565b9150612114565b60008167ffffffffffffffff81111561215a57612159612f9f565b5b6040519080825280601f01601f19166020018201604052801561218c5781602001600182028036833780820191505090505b5090505b60008514612219576001826121a59190614237565b9150600a856121b49190614021565b60306121c0919061426b565b60f81b8183815181106121d6576121d5613fc3565b5b60200101907effffffffffffffffffffffffffffffffffffffffffffffffffffffffffffff1916908160001a905350600a856122129190614407565b9450612190565b8093505050505b919050565b60606000825190506000810361224d57604051806020016040528060008152509150506123b7565b6000600360028361225e919061426b565b6122689190614407565b60046122749190614438565b90506000602082612285919061426b565b67ffffffffffffffff81111561229e5761229d612f9f565b5b6040519080825280601f01601f1916602001820160405280156122d05781602001600182028036833780820191505090505b5090506000604051806060016040528060408152602001614780604091399050600181016020830160005b868110156123745760038101905062ffffff818a015116603f8160121c168401518060081b905060ff603f83600c1c1686015116810190508060081b905060ff603f8360061c1686015116810190508060081b905060ff603f831686015116810190508060e01b905080845260048401935050506122fb565b50600386066001811461238e576002811461239e576123a9565b613d3d60f01b60028303526123a9565b603d60f81b60018303525b508484525050819450505050505b919050565b600081600001549050919050565b60405180604001604052803373ffffffffffffffffffffffffffffffffffffffff16815260200182815250600c6000600660009054906101000a900473ffffffffffffffffffffffffffffffffffffffff1673ffffffffffffffffffffffffffffffffffffffff16635d3b1d30600a54600b60009054906101000a900467ffffffffffffffff166003620186a060016040518663ffffffff1660e01b8152600401612479959493929190614584565b6020604051808303816000875af1158015612498573d6000803e3d6000fd5b505050506040513d601f19601f820116820180604052508101906124bc91906145ec565b815260200190815260200160002060008201518160000160006101000a81548173ffffffffffffffffffffffffffffffffffffffff021916908373ffffffffffffffffffffffffffffffffffffffff1602179055506020820151816001015590505050565b6000600e828154811061253757612536613fc3565b5b9060005260206000209060080201604051806101000160405290816000820154815260200160018201805461256b906134bb565b80601f0160208091040260200160405190810160405280929190818152602001828054612597906134bb565b80156125e45780601f106125b9576101008083540402835291602001916125e4565b820191906000526020600020905b8154815290600101906020018083116125c757829003601f168201915b505050505081526020016002820180546125fd906134bb565b80601f0160208091040260200160405190810160405280929190818152602001828054612629906134bb565b80156126765780601f1061264b57610100808354040283529160200191612676565b820191906000526020600020905b81548152906001019060200180831161265957829003601f168201915b5050505050815260200160038201548152602001600482015481526020016005820154815260200160068201548152602001600782015481525050905060405180610100016040528082600001518152602001826020015181526020018260400151815260200182606001518152602001826060015181526020018260a0015181526020018260c0015181526020018260e00151815250600f6000858152602001908152602001600020600082015181600001556020820151816001019080519060200190612746929190612c15565b506040820151816002019080519060200190612763929190612c15565b50606082015181600301556080820151816004015560a0820151816005015560c0820151816006015560e08201518160070155905050601060008573ffffffffffffffffffffffffffffffffffffffff1673ffffffffffffffffffffffffffffffffffffffff16815260200190815260200160002083908060018154018082558091505060019003906000526020600020016000909190919091505561280984846129a0565b50505050565b505050565b505050565b600061283a8473ffffffffffffffffffffffffffffffffffffffff166129be565b15612993578373ffffffffffffffffffffffffffffffffffffffff1663150b7a026128636119e8565b8786866040518563ffffffff1660e01b81526004016128859493929190614619565b6020604051808303816000875af19250505080156128c157506040513d601f19601f820116820180604052508101906128be919061467a565b60015b612943573d80600081146128f1576040519150601f19603f3d011682016040523d82523d6000602084013e6128f6565b606091505b50600081510361293b576040517f08c379a00000000000000000000000000000000000000000000000000000000081526004016129329061439f565b60405180910390fd5b805181602001fd5b63150b7a0260e01b7bffffffffffffffffffffffffffffffffffffffffffffffffffffffff1916817bffffffffffffffffffffffffffffffffffffffffffffffffffffffff191614915050612998565b600190505b949350505050565b6129ba8282604051806020016040528060008152506129e1565b5050565b6000808273ffffffffffffffffffffffffffffffffffffffff163b119050919050565b6129eb8383612a3c565b6129f86000848484612819565b612a37576040517f08c379a0000000000000000000000000000000000000000000000000000000008152600401612a2e9061439f565b60405180910390fd5b505050565b600073ffffffffffffffffffffffffffffffffffffffff168273ffffffffffffffffffffffffffffffffffffffff1603612aab576040517f08c379a0000000000000000000000000000000000000000000000000000000008152600401612aa2906146f3565b60405180910390fd5b612ab48161197c565b15612af4576040517f08c379a0000000000000000000000000000000000000000000000000000000008152600401612aeb9061475f565b60405180910390fd5b612b006000838361280f565b6001600360008473ffffffffffffffffffffffffffffffffffffffff1673ffffffffffffffffffffffffffffffffffffffff1681526020019081526020016000206000828254612b50919061426b565b92505081905550816002600083815260200190815260200160002060006101000a81548173ffffffffffffffffffffffffffffffffffffffff021916908373ffffffffffffffffffffffffffffffffffffffff160217905550808273ffffffffffffffffffffffffffffffffffffffff16600073ffffffffffffffffffffffffffffffffffffffff167fddf252ad1be2c89b69c2b068fc378daa952ba7f163c4a11628f55a4df523b3ef60405160405180910390a4612c1160008383612814565b5050565b828054612c21906134bb565b90600052602060002090601f016020900481019282612c435760008555612c8a565b82601f10612c5c57805160ff1916838001178555612c8a565b82800160010185558215612c8a579182015b82811115612c89578251825591602001919060010190612c6e565b5b509050612c979190612c9b565b5090565b5b80821115612cb4576000816000905550600101612c9c565b5090565b6000604051905090565b600080fd5b600080fd5b60007fffffffff0000000000000000000000000000000000000000000000000000000082169050919050565b612d0181612ccc565b8114612d0c57600080fd5b50565b600081359050612d1e81612cf8565b92915050565b600060208284031215612d3a57612d39612cc2565b5b6000612d4884828501612d0f565b91505092915050565b60008115159050919050565b612d6681612d51565b82525050565b6000602082019050612d816000830184612d5d565b92915050565b600081519050919050565b600082825260208201905092915050565b60005b83811015612dc1578082015181840152602081019050612da6565b83811115612dd0576000848401525b50505050565b6000601f19601f8301169050919050565b6000612df282612d87565b612dfc8185612d92565b9350612e0c818560208601612da3565b612e1581612dd6565b840191505092915050565b60006020820190508181036000830152612e3a8184612de7565b905092915050565b6000819050919050565b612e5581612e42565b8114612e6057600080fd5b50565b600081359050612e7281612e4c565b92915050565b600060208284031215612e8e57612e8d612cc2565b5b6000612e9c84828501612e63565b91505092915050565b600073ffffffffffffffffffffffffffffffffffffffff82169050919050565b6000612ed082612ea5565b9050919050565b612ee081612ec5565b82525050565b6000602082019050612efb6000830184612ed7565b92915050565b612f0a81612ec5565b8114612f1557600080fd5b50565b600081359050612f2781612f01565b92915050565b60008060408385031215612f4457612f43612cc2565b5b6000612f5285828601612f18565b9250506020612f6385828601612e63565b9150509250929050565b600060208284031215612f8357612f82612cc2565b5b6000612f9184828501612f18565b91505092915050565b600080fd5b7f4e487b7100000000000000000000000000000000000000000000000000000000600052604160045260246000fd5b612fd782612dd6565b810181811067ffffffffffffffff82111715612ff657612ff5612f9f565b5b80604052505050565b6000613009612cb8565b90506130158282612fce565b919050565b600067ffffffffffffffff82111561303557613034612f9f565b5b602082029050602081019050919050565b600080fd5b600061305e6130598461301a565b612fff565b9050808382526020820190506020840283018581111561308157613080613046565b5b835b818110156130aa57806130968882612e63565b845260208401935050602081019050613083565b5050509392505050565b600082601f8301126130c9576130c8612f9a565b5b81356130d984826020860161304b565b91505092915050565b600080604083850312156130f9576130f8612cc2565b5b600061310785828601612e63565b925050602083013567ffffffffffffffff81111561312857613127612cc7565b5b613134858286016130b4565b9150509250929050565b61314781612e42565b82525050565b600060a08201905081810360008301526131678188612de7565b9050818103602083015261317b8187612de7565b905061318a604083018661313e565b613197606083018561313e565b6131a4608083018461313e565b9695505050505050565b6000806000606084860312156131c7576131c6612cc2565b5b60006131d586828701612f18565b93505060206131e686828701612f18565b92505060406131f786828701612e63565b9150509250925092565b600061010082019050613217600083018b61313e565b8181036020830152613229818a612de7565b9050818103604083015261323d8189612de7565b905061324c606083018861313e565b613259608083018761313e565b61326660a083018661313e565b61327360c083018561313e565b61328060e083018461313e565b9998505050505050505050565b60006020820190506132a2600083018461313e565b92915050565b6132b181612d51565b81146132bc57600080fd5b50565b6000813590506132ce816132a8565b92915050565b600080604083850312156132eb576132ea612cc2565b5b60006132f985828601612f18565b925050602061330a858286016132bf565b9150509250929050565b600080fd5b600067ffffffffffffffff82111561333457613333612f9f565b5b61333d82612dd6565b9050602081019050919050565b82818337600083830152505050565b600061336c61336784613319565b612fff565b90508281526020810184848401111561338857613387613314565b5b61339384828561334a565b509392505050565b600082601f8301126133b0576133af612f9a565b5b81356133c0848260208601613359565b91505092915050565b600080600080608085870312156133e3576133e2612cc2565b5b60006133f187828801612f18565b945050602061340287828801612f18565b935050604061341387828801612e63565b925050606085013567ffffffffffffffff81111561343457613433612cc7565b5b6134408782880161339b565b91505092959194509250565b6000806040838503121561346357613462612cc2565b5b600061347185828601612f18565b925050602061348285828601612f18565b9150509250929050565b7f4e487b7100000000000000000000000000000000000000000000000000000000600052602260045260246000fd5b600060028204905060018216806134d357607f821691505b6020821081036134e6576134e561348c565b5b50919050565b7f4552433732313a20617070726f76656420717565727920666f72206e6f6e657860008201527f697374656e7420746f6b656e0000000000000000000000000000000000000000602082015250565b6000613548602c83612d92565b9150613553826134ec565b604082019050919050565b600060208201905081810360008301526135778161353b565b9050919050565b7f4552433732313a20617070726f76616c20746f2063757272656e74206f776e6560008201527f7200000000000000000000000000000000000000000000000000000000000000602082015250565b60006135da602183612d92565b91506135e58261357e565b604082019050919050565b60006020820190508181036000830152613609816135cd565b9050919050565b7f4552433732313a20617070726f76652063616c6c6572206973206e6f74206f7760008201527f6e6572206e6f7220617070726f76656420666f7220616c6c0000000000000000602082015250565b600061366c603883612d92565b915061367782613610565b604082019050919050565b6000602082019050818103600083015261369b8161365f565b9050919050565b7f43616c6c6572206d757374206265206f776e6572000000000000000000000000600082015250565b60006136d8601483612d92565b91506136e3826136a2565b602082019050919050565b60006020820190508181036000830152613707816136cb565b9050919050565b60006040820190506137236000830185612ed7565b6137306020830184612ed7565b9392505050565b7f4552433732313a207472616e736665722063616c6c6572206973206e6f74206f60008201527f776e6572206e6f7220617070726f766564000000000000000000000000000000602082015250565b6000613793603183612d92565b915061379e82613737565b604082019050919050565b600060208201905081810360008301526137c281613786565b9050919050565b7f4552433732313a206f776e657220717565727920666f72206e6f6e657869737460008201527f656e7420746f6b656e0000000000000000000000000000000000000000000000602082015250565b6000613825602983612d92565b9150613830826137c9565b604082019050919050565b6000602082019050818103600083015261385481613818565b9050919050565b7f4552433732313a2062616c616e636520717565727920666f7220746865207a6560008201527f726f206164647265737300000000000000000000000000000000000000000000602082015250565b60006138b7602a83612d92565b91506138c28261385b565b604082019050919050565b600060208201905081810360008301526138e6816138aa565b9050919050565b600067ffffffffffffffff82169050919050565b61390a816138ed565b82525050565b60006020820190506139256000830184613901565b92915050565b600081519050919050565b600082825260208201905092915050565b60006139528261392b565b61395c8185613936565b935061396c818560208601612da3565b61397581612dd6565b840191505092915050565b60006060820190506139956000830186612ed7565b6139a2602083018561313e565b81810360408301526139b48184613947565b9050949350505050565b6000815190506139cd816132a8565b92915050565b6000602082840312156139e9576139e8612cc2565b5b60006139f7848285016139be565b91505092915050565b600081905092915050565b7f7b226e616d65223a202200000000000000000000000000000000000000000000600082015250565b6000613a41600a83613a00565b9150613a4c82613a0b565b600a82019050919050565b6000613a6282612d87565b613a6c8185613a00565b9350613a7c818560208601612da3565b80840191505092915050565b7f202d2d204e465420233a20000000000000000000000000000000000000000000600082015250565b6000613abe600b83613a00565b9150613ac982613a88565b600b82019050919050565b7f222c20226465736372697074696f6e223a202241204865726f204e465420746860008201527f6174206c65747320796f7520706c6179204d6f6e7374657220536c617965722160208201527f222c2022696d616765223a202200000000000000000000000000000000000000604082015250565b6000613b56604d83613a00565b9150613b6182613ad4565b604d82019050919050565b7f222c202261747472696275746573223a205b207b202274726169745f7479706560008201527f223a20224865616c746820506f696e7473222c202276616c7565223a20000000602082015250565b6000613bc8603d83613a00565b9150613bd382613b6c565b603d82019050919050565b7f2c20226d61785f76616c7565223a000000000000000000000000000000000000600082015250565b6000613c14600e83613a00565b9150613c1f82613bde565b600e82019050919050565b7f7d2c207b202274726169745f74797065223a202241747461636b2044616d616760008201527f65222c202276616c7565223a2000000000000000000000000000000000000000602082015250565b6000613c86602d83613a00565b9150613c9182613c2a565b602d82019050919050565b7f7d2c207b202274726169745f74797065223a2022437269746963616c2044616d60008201527f616765204368616e6365222c202276616c7565223a2000000000000000000000602082015250565b6000613cf8603683613a00565b9150613d0382613c9c565b603682019050919050565b7f7d2c207b202274726169745f74797065223a20224865616c696e6720506f776560008201527f72222c202276616c7565223a2000000000000000000000000000000000000000602082015250565b6000613d6a602d83613a00565b9150613d7582613d0e565b602d82019050919050565b7f7d205d7d00000000000000000000000000000000000000000000000000000000600082015250565b6000613db6600483613a00565b9150613dc182613d80565b600482019050919050565b6000613dd782613a34565b9150613de3828e613a57565b9150613dee82613ab1565b9150613dfa828d613a57565b9150613e0582613b49565b9150613e11828c613a57565b9150613e1c82613bbb565b9150613e28828b613a57565b9150613e3382613c07565b9150613e3f828a613a57565b9150613e4a82613c79565b9150613e568289613a57565b9150613e6182613c07565b9150613e6d8288613a57565b9150613e7882613ceb565b9150613e848287613a57565b9150613e8f82613c07565b9150613e9b8286613a57565b9150613ea682613d5d565b9150613eb28285613a57565b9150613ebd82613c07565b9150613ec98284613a57565b9150613ed482613da9565b91508190509c9b505050505050505050505050565b7f646174613a6170706c69636174696f6e2f6a736f6e3b6261736536342c000000600082015250565b6000613f1f601d83613a00565b9150613f2a82613ee9565b601d82019050919050565b6000613f4082613f12565b9150613f4c8284613a57565b915081905092915050565b7f5061796d656e74206973206e6f7420636f727265637400000000000000000000600082015250565b6000613f8d601683612d92565b9150613f9882613f57565b602082019050919050565b60006020820190508181036000830152613fbc81613f80565b9050919050565b7f4e487b7100000000000000000000000000000000000000000000000000000000600052603260045260246000fd5b7f4e487b7100000000000000000000000000000000000000000000000000000000600052601260045260246000fd5b600061402c82612e42565b915061403783612e42565b92508261404757614046613ff2565b5b828206905092915050565b7f4552433732313a206f70657261746f7220717565727920666f72206e6f6e657860008201527f697374656e7420746f6b656e0000000000000000000000000000000000000000602082015250565b60006140ae602c83612d92565b91506140b982614052565b604082019050919050565b600060208201905081810360008301526140dd816140a1565b9050919050565b7f4552433732313a207472616e736665722066726f6d20696e636f72726563742060008201527f6f776e6572000000000000000000000000000000000000000000000000000000602082015250565b6000614140602583612d92565b915061414b826140e4565b604082019050919050565b6000602082019050818103600083015261416f81614133565b9050919050565b7f4552433732313a207472616e7366657220746f20746865207a65726f2061646460008201527f7265737300000000000000000000000000000000000000000000000000000000602082015250565b60006141d2602483612d92565b91506141dd82614176565b604082019050919050565b60006020820190508181036000830152614201816141c5565b9050919050565b7f4e487b7100000000000000000000000000000000000000000000000000000000600052601160045260246000fd5b600061424282612e42565b915061424d83612e42565b9250828210156142605761425f614208565b5b828203905092915050565b600061427682612e42565b915061428183612e42565b9250827fffffffffffffffffffffffffffffffffffffffffffffffffffffffffffffffff038211156142b6576142b5614208565b5b828201905092915050565b7f4552433732313a20617070726f766520746f2063616c6c657200000000000000600082015250565b60006142f7601983612d92565b9150614302826142c1565b602082019050919050565b60006020820190508181036000830152614326816142ea565b9050919050565b7f4552433732313a207472616e7366657220746f206e6f6e20455243373231526560008201527f63656976657220696d706c656d656e7465720000000000000000000000000000602082015250565b6000614389603283612d92565b91506143948261432d565b604082019050919050565b600060208201905081810360008301526143b88161437c565b9050919050565b60006143ca82612e42565b91507fffffffffffffffffffffffffffffffffffffffffffffffffffffffffffffffff82036143fc576143fb614208565b5b600182019050919050565b600061441282612e42565b915061441d83612e42565b92508261442d5761442c613ff2565b5b828204905092915050565b600061444382612e42565b915061444e83612e42565b9250817fffffffffffffffffffffffffffffffffffffffffffffffffffffffffffffffff048311821515161561448757614486614208565b5b828202905092915050565b6000819050919050565b6144a581614492565b82525050565b6000819050919050565b600061ffff82169050919050565b6000819050919050565b60006144e86144e36144de846144ab565b6144c3565b6144b5565b9050919050565b6144f8816144cd565b82525050565b6000819050919050565b600063ffffffff82169050919050565b600061453361452e614529846144fe565b6144c3565b614508565b9050919050565b61454381614518565b82525050565b6000819050919050565b600061456e61456961456484614549565b6144c3565b614508565b9050919050565b61457e81614553565b82525050565b600060a082019050614599600083018861449c565b6145a66020830187613901565b6145b360408301866144ef565b6145c0606083018561453a565b6145cd6080830184614575565b9695505050505050565b6000815190506145e681612e4c565b92915050565b60006020828403121561460257614601612cc2565b5b6000614610848285016145d7565b91505092915050565b600060808201905061462e6000830187612ed7565b61463b6020830186612ed7565b614648604083018561313e565b818103606083015261465a8184613947565b905095945050505050565b60008151905061467481612cf8565b92915050565b6000602082840312156146905761468f612cc2565b5b600061469e84828501614665565b91505092915050565b7f4552433732313a206d696e7420746f20746865207a65726f2061646472657373600082015250565b60006146dd602083612d92565b91506146e8826146a7565b602082019050919050565b6000602082019050818103600083015261470c816146d0565b9050919050565b7f4552433732313a20746f6b656e20616c7265616479206d696e74656400000000600082015250565b6000614749601c83612d92565b915061475482614713565b602082019050919050565b600060208201905081810360008301526147788161473c565b905091905056fe4142434445464748494a4b4c4d4e4f505152535455565758595a6162636465666768696a6b6c6d6e6f707172737475767778797a303132333435363738392b2fa2646970667358221220cf3c985afe6e49e0a1ec66c256b945137ef3894e8752e078b5de49de379022c464736f6c634300080d0033",
  "linkReferences": {},
  "deployedLinkReferences": {}
}