{
  "_format": "hh-sol-artifact-1",
  "contractName": "Game",
  "sourceName": "contracts/Game.sol",
  "abi": [
    {
      "inputs": [
        {
          "internalType": "string[]",
          "name": "names",
          "type": "string[]"
        },
        {
          "internalType": "string[]",
          "name": "uris",
          "type": "string[]"
        },
        {
          "internalType": "uint256[]",
          "name": "hps",
          "type": "uint256[]"
        },
        {
          "internalType": "uint256[]",
          "name": "damages",
          "type": "uint256[]"
        },
        {
          "internalType": "uint256[]",
          "name": "crits",
          "type": "uint256[]"
        },
        {
          "internalType": "uint256[]",
          "name": "heals",
          "type": "uint256[]"
        }
      ],
      "stateMutability": "nonpayable",
      "type": "constructor"
    },
    {
      "anonymous": false,
      "inputs": [
        {
          "indexed": true,
          "internalType": "address",
          "name": "owner",
          "type": "address"
        },
        {
          "indexed": true,
          "internalType": "address",
          "name": "approved",
          "type": "address"
        },
        {
          "indexed": true,
          "internalType": "uint256",
          "name": "tokenId",
          "type": "uint256"
        }
      ],
      "name": "Approval",
      "type": "event"
    },
    {
      "anonymous": false,
      "inputs": [
        {
          "indexed": true,
          "internalType": "address",
          "name": "owner",
          "type": "address"
        },
        {
          "indexed": true,
          "internalType": "address",
          "name": "operator",
          "type": "address"
        },
        {
          "indexed": false,
          "internalType": "bool",
          "name": "approved",
          "type": "bool"
        }
      ],
      "name": "ApprovalForAll",
      "type": "event"
    },
    {
      "anonymous": false,
      "inputs": [
        {
          "indexed": true,
          "internalType": "address",
          "name": "from",
          "type": "address"
        },
        {
          "indexed": true,
          "internalType": "address",
          "name": "to",
          "type": "address"
        },
        {
          "indexed": true,
          "internalType": "uint256",
          "name": "tokenId",
          "type": "uint256"
        }
      ],
      "name": "Transfer",
      "type": "event"
    },
    {
      "inputs": [
        {
          "internalType": "address",
          "name": "to",
          "type": "address"
        },
        {
          "internalType": "uint256",
          "name": "tokenId",
          "type": "uint256"
        }
      ],
      "name": "approve",
      "outputs": [],
      "stateMutability": "nonpayable",
      "type": "function"
    },
    {
      "inputs": [
        {
          "internalType": "address",
          "name": "owner",
          "type": "address"
        }
      ],
      "name": "balanceOf",
      "outputs": [
        {
          "internalType": "uint256",
          "name": "",
          "type": "uint256"
        }
      ],
      "stateMutability": "view",
      "type": "function"
    },
    {
      "inputs": [
        {
          "internalType": "uint256",
          "name": "",
          "type": "uint256"
        }
      ],
      "name": "defaultAttributes",
      "outputs": [
        {
          "internalType": "uint256",
          "name": "index",
          "type": "uint256"
        },
        {
          "internalType": "string",
          "name": "name",
          "type": "string"
        },
        {
          "internalType": "string",
          "name": "uri",
          "type": "string"
        },
        {
          "internalType": "uint256",
          "name": "hp",
          "type": "uint256"
        },
        {
          "internalType": "uint256",
          "name": "maxHp",
          "type": "uint256"
        },
        {
          "internalType": "uint256",
          "name": "damage",
          "type": "uint256"
        },
        {
          "internalType": "uint256",
          "name": "crit",
          "type": "uint256"
        },
        {
          "internalType": "uint256",
          "name": "heal",
          "type": "uint256"
        }
      ],
      "stateMutability": "view",
      "type": "function"
    },
    {
      "inputs": [
        {
          "internalType": "uint256",
          "name": "tokenId",
          "type": "uint256"
        }
      ],
      "name": "getApproved",
      "outputs": [
        {
          "internalType": "address",
          "name": "",
          "type": "address"
        }
      ],
      "stateMutability": "view",
      "type": "function"
    },
    {
      "inputs": [
        {
          "internalType": "address",
          "name": "owner",
          "type": "address"
        },
        {
          "internalType": "address",
          "name": "operator",
          "type": "address"
        }
      ],
      "name": "isApprovedForAll",
      "outputs": [
        {
          "internalType": "bool",
          "name": "",
          "type": "bool"
        }
      ],
      "stateMutability": "view",
      "type": "function"
    },
    {
      "inputs": [
        {
          "internalType": "uint256",
          "name": "attributesIndex",
          "type": "uint256"
        }
      ],
      "name": "mint",
      "outputs": [],
      "stateMutability": "payable",
      "type": "function"
    },
    {
      "inputs": [],
      "name": "mintCost",
      "outputs": [
        {
          "internalType": "uint256",
          "name": "",
          "type": "uint256"
        }
      ],
      "stateMutability": "view",
      "type": "function"
    },
    {
      "inputs": [],
      "name": "name",
      "outputs": [
        {
          "internalType": "string",
          "name": "",
          "type": "string"
        }
      ],
      "stateMutability": "view",
      "type": "function"
    },
    {
      "inputs": [
        {
          "internalType": "uint256",
          "name": "",
          "type": "uint256"
        }
      ],
      "name": "nftAttributes",
      "outputs": [
        {
          "internalType": "uint256",
          "name": "index",
          "type": "uint256"
        },
        {
          "internalType": "string",
          "name": "name",
          "type": "string"
        },
        {
          "internalType": "string",
          "name": "uri",
          "type": "string"
        },
        {
          "internalType": "uint256",
          "name": "hp",
          "type": "uint256"
        },
        {
          "internalType": "uint256",
          "name": "maxHp",
          "type": "uint256"
        },
        {
          "internalType": "uint256",
          "name": "damage",
          "type": "uint256"
        },
        {
          "internalType": "uint256",
          "name": "crit",
          "type": "uint256"
        },
        {
          "internalType": "uint256",
          "name": "heal",
          "type": "uint256"
        }
      ],
      "stateMutability": "view",
      "type": "function"
    },
    {
      "inputs": [
        {
          "internalType": "address",
          "name": "",
          "type": "address"
        },
        {
          "internalType": "uint256",
          "name": "",
          "type": "uint256"
        }
      ],
      "name": "nftHolders",
      "outputs": [
        {
          "internalType": "uint256",
          "name": "",
          "type": "uint256"
        }
      ],
      "stateMutability": "view",
      "type": "function"
    },
    {
      "inputs": [
        {
          "internalType": "uint256",
          "name": "tokenId",
          "type": "uint256"
        }
      ],
      "name": "ownerOf",
      "outputs": [
        {
          "internalType": "address",
          "name": "",
          "type": "address"
        }
      ],
      "stateMutability": "view",
      "type": "function"
    },
    {
      "inputs": [
        {
          "internalType": "address",
          "name": "from",
          "type": "address"
        },
        {
          "internalType": "address",
          "name": "to",
          "type": "address"
        },
        {
          "internalType": "uint256",
          "name": "tokenId",
          "type": "uint256"
        }
      ],
      "name": "safeTransferFrom",
      "outputs": [],
      "stateMutability": "nonpayable",
      "type": "function"
    },
    {
      "inputs": [
        {
          "internalType": "address",
          "name": "from",
          "type": "address"
        },
        {
          "internalType": "address",
          "name": "to",
          "type": "address"
        },
        {
          "internalType": "uint256",
          "name": "tokenId",
          "type": "uint256"
        },
        {
          "internalType": "bytes",
          "name": "_data",
          "type": "bytes"
        }
      ],
      "name": "safeTransferFrom",
      "outputs": [],
      "stateMutability": "nonpayable",
      "type": "function"
    },
    {
      "inputs": [
        {
          "internalType": "address",
          "name": "operator",
          "type": "address"
        },
        {
          "internalType": "bool",
          "name": "approved",
          "type": "bool"
        }
      ],
      "name": "setApprovalForAll",
      "outputs": [],
      "stateMutability": "nonpayable",
      "type": "function"
    },
    {
      "inputs": [
        {
          "internalType": "uint256",
          "name": "_mintCost",
          "type": "uint256"
        }
      ],
      "name": "setMintCost",
      "outputs": [],
      "stateMutability": "nonpayable",
      "type": "function"
    },
    {
      "inputs": [
        {
          "internalType": "address",
          "name": "_owner",
          "type": "address"
        }
      ],
      "name": "setOwner",
      "outputs": [],
      "stateMutability": "nonpayable",
      "type": "function"
    },
    {
      "inputs": [
        {
          "internalType": "bytes4",
          "name": "interfaceId",
          "type": "bytes4"
        }
      ],
      "name": "supportsInterface",
      "outputs": [
        {
          "internalType": "bool",
          "name": "",
          "type": "bool"
        }
      ],
      "stateMutability": "view",
      "type": "function"
    },
    {
      "inputs": [],
      "name": "symbol",
      "outputs": [
        {
          "internalType": "string",
          "name": "",
          "type": "string"
        }
      ],
      "stateMutability": "view",
      "type": "function"
    },
    {
      "inputs": [
        {
          "internalType": "uint256",
          "name": "tokenId",
          "type": "uint256"
        }
      ],
      "name": "tokenURI",
      "outputs": [
        {
          "internalType": "string",
          "name": "",
          "type": "string"
        }
      ],
      "stateMutability": "view",
      "type": "function"
    },
    {
      "inputs": [
        {
          "internalType": "address",
          "name": "from",
          "type": "address"
        },
        {
          "internalType": "address",
          "name": "to",
          "type": "address"
        },
        {
          "internalType": "uint256",
          "name": "tokenId",
          "type": "uint256"
        }
      ],
      "name": "transferFrom",
      "outputs": [],
      "stateMutability": "nonpayable",
      "type": "function"
    }
  ],
  "bytecode": "0x60806040526000600a553480156200001657600080fd5b506040516200464b3803806200464b83398181016040528101906200003c9190620007be565b6040518060400160405280600681526020017f4865726f657300000000000000000000000000000000000000000000000000008152506040518060400160405280600481526020017f4865726f000000000000000000000000000000000000000000000000000000008152508160009080519060200190620000c092919062000364565b508060019080519060200190620000d992919062000364565b50505084518651148015620000ef575083518551145b8015620000fd575082518451145b80156200010b575081518351145b801562000119575080518251145b6200015b576040517f08c379a000000000000000000000000000000000000000000000000000000000815260040162000152906200099b565b60405180910390fd5b60005b86518110156200032a576007604051806101000160405280838152602001898481518110620001925762000191620009bd565b5b60200260200101518152602001888481518110620001b557620001b4620009bd565b5b60200260200101518152602001878481518110620001d857620001d7620009bd565b5b60200260200101518152602001878481518110620001fb57620001fa620009bd565b5b602002602001015181526020018684815181106200021e576200021d620009bd565b5b60200260200101518152602001858481518110620002415762000240620009bd565b5b60200260200101518152602001848481518110620002645762000263620009bd565b5b60200260200101518152509080600181540180825580915050600190039060005260206000209060080201600090919091909150600082015181600001556020820151816001019080519060200190620002c092919062000364565b506040820151816002019080519060200190620002df92919062000364565b50606082015181600301556080820151816004015560a0820151816005015560c0820151816006015560e0820151816007015550508080620003219062000a1b565b9150506200015e565b506200034260066200034e60201b620015be1760201c565b50505050505062000acc565b6001816000016000828254019250508190555050565b828054620003729062000a97565b90600052602060002090601f016020900481019282620003965760008555620003e2565b82601f10620003b157805160ff1916838001178555620003e2565b82800160010185558215620003e2579182015b82811115620003e1578251825591602001919060010190620003c4565b5b509050620003f19190620003f5565b5090565b5b8082111562000410576000816000905550600101620003f6565b5090565b6000604051905090565b600080fd5b600080fd5b600080fd5b6000601f19601f8301169050919050565b7f4e487b7100000000000000000000000000000000000000000000000000000000600052604160045260246000fd5b62000478826200042d565b810181811067ffffffffffffffff821117156200049a57620004996200043e565b5b80604052505050565b6000620004af62000414565b9050620004bd82826200046d565b919050565b600067ffffffffffffffff821115620004e057620004df6200043e565b5b602082029050602081019050919050565b600080fd5b600080fd5b600067ffffffffffffffff8211156200051957620005186200043e565b5b62000524826200042d565b9050602081019050919050565b60005b838110156200055157808201518184015260208101905062000534565b8381111562000561576000848401525b50505050565b60006200057e6200057884620004fb565b620004a3565b9050828152602081018484840111156200059d576200059c620004f6565b5b620005aa84828562000531565b509392505050565b600082601f830112620005ca57620005c962000428565b5b8151620005dc84826020860162000567565b91505092915050565b6000620005fc620005f684620004c2565b620004a3565b90508083825260208201905060208402830185811115620006225762000621620004f1565b5b835b818110156200067057805167ffffffffffffffff8111156200064b576200064a62000428565b5b8086016200065a8982620005b2565b8552602085019450505060208101905062000624565b5050509392505050565b600082601f83011262000692576200069162000428565b5b8151620006a4848260208601620005e5565b91505092915050565b600067ffffffffffffffff821115620006cb57620006ca6200043e565b5b602082029050602081019050919050565b6000819050919050565b620006f181620006dc565b8114620006fd57600080fd5b50565b6000815190506200071181620006e6565b92915050565b60006200072e6200072884620006ad565b620004a3565b90508083825260208201905060208402830185811115620007545762000753620004f1565b5b835b818110156200078157806200076c888262000700565b84526020840193505060208101905062000756565b5050509392505050565b600082601f830112620007a357620007a262000428565b5b8151620007b584826020860162000717565b91505092915050565b60008060008060008060c08789031215620007de57620007dd6200041e565b5b600087015167ffffffffffffffff811115620007ff57620007fe62000423565b5b6200080d89828a016200067a565b965050602087015167ffffffffffffffff81111562000831576200083062000423565b5b6200083f89828a016200067a565b955050604087015167ffffffffffffffff81111562000863576200086262000423565b5b6200087189828a016200078b565b945050606087015167ffffffffffffffff81111562000895576200089462000423565b5b620008a389828a016200078b565b935050608087015167ffffffffffffffff811115620008c757620008c662000423565b5b620008d589828a016200078b565b92505060a087015167ffffffffffffffff811115620008f957620008f862000423565b5b6200090789828a016200078b565b9150509295509295509295565b600082825260208201905092915050565b7f4f6e65206f662074686520676976656e2064656661756c74206172726179732060008201527f6973206f6464206c656e67746800000000000000000000000000000000000000602082015250565b600062000983602d8362000914565b9150620009908262000925565b604082019050919050565b60006020820190508181036000830152620009b68162000974565b9050919050565b7f4e487b7100000000000000000000000000000000000000000000000000000000600052603260045260246000fd5b7f4e487b7100000000000000000000000000000000000000000000000000000000600052601160045260246000fd5b600062000a2882620006dc565b91507fffffffffffffffffffffffffffffffffffffffffffffffffffffffffffffffff820362000a5d5762000a5c620009ec565b5b600182019050919050565b7f4e487b7100000000000000000000000000000000000000000000000000000000600052602260045260246000fd5b6000600282049050600182168062000ab057607f821691505b60208210810362000ac65762000ac562000a68565b5b50919050565b613b6f8062000adc6000396000f3fe60806040526004361061011f5760003560e01c8063775bb50e116100a0578063b88d4fde11610064578063b88d4fde14610401578063bdb4b8481461042a578063c87b56dd14610455578063d4b5d60314610492578063e985e9c5146104d65761011f565b8063775bb50e1461032b5780638545f4ea1461036857806395d89b4114610391578063a0712d68146103bc578063a22cb465146103d85761011f565b806323b872dd116100e757806323b872dd1461021b57806342842e0e146102445780636352211e1461026d5780636a908152146102aa57806370a08231146102ee5761011f565b806301ffc9a71461012457806306fdde0314610161578063081812fc1461018c578063095ea7b3146101c957806313af4035146101f2575b600080fd5b34801561013057600080fd5b5061014b60048036038101906101469190612491565b610513565b60405161015891906124d9565b60405180910390f35b34801561016d57600080fd5b506101766105f5565b604051610183919061258d565b60405180910390f35b34801561019857600080fd5b506101b360048036038101906101ae91906125e5565b610687565b6040516101c09190612653565b60405180910390f35b3480156101d557600080fd5b506101f060048036038101906101eb919061269a565b61070c565b005b3480156101fe57600080fd5b50610219600480360381019061021491906126da565b610823565b005b34801561022757600080fd5b50610242600480360381019061023d9190612707565b6108f7565b005b34801561025057600080fd5b5061026b60048036038101906102669190612707565b610957565b005b34801561027957600080fd5b50610294600480360381019061028f91906125e5565b610977565b6040516102a19190612653565b60405180910390f35b3480156102b657600080fd5b506102d160048036038101906102cc91906125e5565b610a28565b6040516102e5989796959493929190612769565b60405180910390f35b3480156102fa57600080fd5b50610315600480360381019061031091906126da565b610b90565b60405161032291906127f5565b60405180910390f35b34801561033757600080fd5b50610352600480360381019061034d919061269a565b610c47565b60405161035f91906127f5565b60405180910390f35b34801561037457600080fd5b5061038f600480360381019061038a91906125e5565b610c78565b005b34801561039d57600080fd5b506103a6610d12565b6040516103b3919061258d565b60405180910390f35b6103d660048036038101906103d191906125e5565b610da4565b005b3480156103e457600080fd5b506103ff60048036038101906103fa919061283c565b6110f9565b005b34801561040d57600080fd5b50610428600480360381019061042391906129b1565b61110f565b005b34801561043657600080fd5b5061043f611171565b60405161044c91906127f5565b60405180910390f35b34801561046157600080fd5b5061047c600480360381019061047791906125e5565b611177565b604051610489919061258d565b60405180910390f35b34801561049e57600080fd5b506104b960048036038101906104b491906125e5565b6113d2565b6040516104cd989796959493929190612769565b60405180910390f35b3480156104e257600080fd5b506104fd60048036038101906104f89190612a34565b61152a565b60405161050a91906124d9565b60405180910390f35b60007f80ac58cd000000000000000000000000000000000000000000000000000000007bffffffffffffffffffffffffffffffffffffffffffffffffffffffff1916827bffffffffffffffffffffffffffffffffffffffffffffffffffffffff191614806105de57507f5b5e139f000000000000000000000000000000000000000000000000000000007bffffffffffffffffffffffffffffffffffffffffffffffffffffffff1916827bffffffffffffffffffffffffffffffffffffffffffffffffffffffff1916145b806105ee57506105ed826115d4565b5b9050919050565b60606000805461060490612aa3565b80601f016020809104026020016040519081016040528092919081815260200182805461063090612aa3565b801561067d5780601f106106525761010080835404028352916020019161067d565b820191906000526020600020905b81548152906001019060200180831161066057829003601f168201915b5050505050905090565b60006106928261163e565b6106d1576040517f08c379a00000000000000000000000000000000000000000000000000000000081526004016106c890612b46565b60405180910390fd5b6004600083815260200190815260200160002060009054906101000a900473ffffffffffffffffffffffffffffffffffffffff169050919050565b600061071782610977565b90508073ffffffffffffffffffffffffffffffffffffffff168373ffffffffffffffffffffffffffffffffffffffff1603610787576040517f08c379a000000000000000000000000000000000000000000000000000000000815260040161077e90612bd8565b60405180910390fd5b8073ffffffffffffffffffffffffffffffffffffffff166107a66116aa565b73ffffffffffffffffffffffffffffffffffffffff1614806107d557506107d4816107cf6116aa565b61152a565b5b610814576040517f08c379a000000000000000000000000000000000000000000000000000000000815260040161080b90612c6a565b60405180910390fd5b61081e83836116b2565b505050565b600b60009054906101000a900473ffffffffffffffffffffffffffffffffffffffff1673ffffffffffffffffffffffffffffffffffffffff163373ffffffffffffffffffffffffffffffffffffffff16146108b3576040517f08c379a00000000000000000000000000000000000000000000000000000000081526004016108aa90612cd6565b60405180910390fd5b80600b60006101000a81548173ffffffffffffffffffffffffffffffffffffffff021916908373ffffffffffffffffffffffffffffffffffffffff16021790555050565b6109086109026116aa565b8261176b565b610947576040517f08c379a000000000000000000000000000000000000000000000000000000000815260040161093e90612d68565b60405180910390fd5b610952838383611849565b505050565b6109728383836040518060200160405280600081525061110f565b505050565b6000806002600084815260200190815260200160002060009054906101000a900473ffffffffffffffffffffffffffffffffffffffff169050600073ffffffffffffffffffffffffffffffffffffffff168173ffffffffffffffffffffffffffffffffffffffff1603610a1f576040517f08c379a0000000000000000000000000000000000000000000000000000000008152600401610a1690612dfa565b60405180910390fd5b80915050919050565b60078181548110610a3857600080fd5b9060005260206000209060080201600091509050806000015490806001018054610a6190612aa3565b80601f0160208091040260200160405190810160405280929190818152602001828054610a8d90612aa3565b8015610ada5780601f10610aaf57610100808354040283529160200191610ada565b820191906000526020600020905b815481529060010190602001808311610abd57829003601f168201915b505050505090806002018054610aef90612aa3565b80601f0160208091040260200160405190810160405280929190818152602001828054610b1b90612aa3565b8015610b685780601f10610b3d57610100808354040283529160200191610b68565b820191906000526020600020905b815481529060010190602001808311610b4b57829003601f168201915b5050505050908060030154908060040154908060050154908060060154908060070154905088565b60008073ffffffffffffffffffffffffffffffffffffffff168273ffffffffffffffffffffffffffffffffffffffff1603610c00576040517f08c379a0000000000000000000000000000000000000000000000000000000008152600401610bf790612e8c565b60405180910390fd5b600360008373ffffffffffffffffffffffffffffffffffffffff1673ffffffffffffffffffffffffffffffffffffffff168152602001908152602001600020549050919050565b60096020528160005260406000208181548110610c6357600080fd5b90600052602060002001600091509150505481565b600b60009054906101000a900473ffffffffffffffffffffffffffffffffffffffff1673ffffffffffffffffffffffffffffffffffffffff163373ffffffffffffffffffffffffffffffffffffffff1614610d08576040517f08c379a0000000000000000000000000000000000000000000000000000000008152600401610cff90612cd6565b60405180910390fd5b80600a8190555050565b606060018054610d2190612aa3565b80601f0160208091040260200160405190810160405280929190818152602001828054610d4d90612aa3565b8015610d9a5780601f10610d6f57610100808354040283529160200191610d9a565b820191906000526020600020905b815481529060010190602001808311610d7d57829003601f168201915b5050505050905090565b6000600a541115610df457600a543414610df3576040517f08c379a0000000000000000000000000000000000000000000000000000000008152600401610dea90612ef8565b60405180910390fd5b5b6000610e006006611aaf565b9050600060078381548110610e1857610e17612f18565b5b90600052602060002090600802016040518061010001604052908160008201548152602001600182018054610e4c90612aa3565b80601f0160208091040260200160405190810160405280929190818152602001828054610e7890612aa3565b8015610ec55780601f10610e9a57610100808354040283529160200191610ec5565b820191906000526020600020905b815481529060010190602001808311610ea857829003601f168201915b50505050508152602001600282018054610ede90612aa3565b80601f0160208091040260200160405190810160405280929190818152602001828054610f0a90612aa3565b8015610f575780601f10610f2c57610100808354040283529160200191610f57565b820191906000526020600020905b815481529060010190602001808311610f3a57829003601f168201915b5050505050815260200160038201548152602001600482015481526020016005820154815260200160068201548152602001600782015481525050905060405180610100016040528082600001518152602001826020015181526020018260400151815260200182606001518152602001826060015181526020018260a0015181526020018260c0015181526020018260e0015181525060086000848152602001908152602001600020600082015181600001556020820151816001019080519060200190611027929190612382565b506040820151816002019080519060200190611044929190612382565b50606082015181600301556080820151816004015560a0820151816005015560c0820151816006015560e08201518160070155905050600960003373ffffffffffffffffffffffffffffffffffffffff1673ffffffffffffffffffffffffffffffffffffffff1681526020019081526020016000208290806001815401808255809150506001900390600052602060002001600090919091909150556110ea3383611abd565b6110f460066115be565b505050565b61110b6111046116aa565b8383611adb565b5050565b61112061111a6116aa565b8361176b565b61115f576040517f08c379a000000000000000000000000000000000000000000000000000000000815260040161115690612d68565b60405180910390fd5b61116b84848484611c47565b50505050565b600a5481565b606060006008600084815260200190815260200160002060405180610100016040529081600082015481526020016001820180546111b490612aa3565b80601f01602080910402602001604051908101604052809291908181526020018280546111e090612aa3565b801561122d5780601f106112025761010080835404028352916020019161122d565b820191906000526020600020905b81548152906001019060200180831161121057829003601f168201915b5050505050815260200160028201805461124690612aa3565b80601f016020809104026020016040519081016040528092919081815260200182805461127290612aa3565b80156112bf5780601f10611294576101008083540402835291602001916112bf565b820191906000526020600020905b8154815290600101906020018083116112a257829003601f168201915b5050505050815260200160038201548152602001600482015481526020016005820154815260200160068201548152602001600782015481525050905060006113a1826020015161130f86611ca3565b84604001516113218660600151611ca3565b61132e8760800151611ca3565b61133b8860a00151611ca3565b6113456032611ca3565b6113528a60c00151611ca3565b61135c6032611ca3565b6113698c60e00151611ca3565b6113736032611ca3565b60405160200161138d9b9a99989796959493929190613313565b604051602081830303815290604052611e03565b90506000816040516020016113b6919061347c565b6040516020818303038152906040529050809350505050919050565b60086020528060005260406000206000915090508060000154908060010180546113fb90612aa3565b80601f016020809104026020016040519081016040528092919081815260200182805461142790612aa3565b80156114745780601f1061144957610100808354040283529160200191611474565b820191906000526020600020905b81548152906001019060200180831161145757829003601f168201915b50505050509080600201805461148990612aa3565b80601f01602080910402602001604051908101604052809291908181526020018280546114b590612aa3565b80156115025780601f106114d757610100808354040283529160200191611502565b820191906000526020600020905b8154815290600101906020018083116114e557829003601f168201915b5050505050908060030154908060040154908060050154908060060154908060070154905088565b6000600560008473ffffffffffffffffffffffffffffffffffffffff1673ffffffffffffffffffffffffffffffffffffffff16815260200190815260200160002060008373ffffffffffffffffffffffffffffffffffffffff1673ffffffffffffffffffffffffffffffffffffffff16815260200190815260200160002060009054906101000a900460ff16905092915050565b6001816000016000828254019250508190555050565b60007f01ffc9a7000000000000000000000000000000000000000000000000000000007bffffffffffffffffffffffffffffffffffffffffffffffffffffffff1916827bffffffffffffffffffffffffffffffffffffffffffffffffffffffff1916149050919050565b60008073ffffffffffffffffffffffffffffffffffffffff166002600084815260200190815260200160002060009054906101000a900473ffffffffffffffffffffffffffffffffffffffff1673ffffffffffffffffffffffffffffffffffffffff1614159050919050565b600033905090565b816004600083815260200190815260200160002060006101000a81548173ffffffffffffffffffffffffffffffffffffffff021916908373ffffffffffffffffffffffffffffffffffffffff160217905550808273ffffffffffffffffffffffffffffffffffffffff1661172583610977565b73ffffffffffffffffffffffffffffffffffffffff167f8c5be1e5ebec7d5bd14f71427d1e84f3dd0314c0f7b2291e5b200ac8c7c3b92560405160405180910390a45050565b60006117768261163e565b6117b5576040517f08c379a00000000000000000000000000000000000000000000000000000000081526004016117ac90613510565b60405180910390fd5b60006117c083610977565b90508073ffffffffffffffffffffffffffffffffffffffff168473ffffffffffffffffffffffffffffffffffffffff16148061182f57508373ffffffffffffffffffffffffffffffffffffffff1661181784610687565b73ffffffffffffffffffffffffffffffffffffffff16145b80611840575061183f818561152a565b5b91505092915050565b8273ffffffffffffffffffffffffffffffffffffffff1661186982610977565b73ffffffffffffffffffffffffffffffffffffffff16146118bf576040517f08c379a00000000000000000000000000000000000000000000000000000000081526004016118b6906135a2565b60405180910390fd5b600073ffffffffffffffffffffffffffffffffffffffff168273ffffffffffffffffffffffffffffffffffffffff160361192e576040517f08c379a000000000000000000000000000000000000000000000000000000000815260040161192590613634565b60405180910390fd5b611939838383611f9a565b6119446000826116b2565b6001600360008573ffffffffffffffffffffffffffffffffffffffff1673ffffffffffffffffffffffffffffffffffffffff16815260200190815260200160002060008282546119949190613683565b925050819055506001600360008473ffffffffffffffffffffffffffffffffffffffff1673ffffffffffffffffffffffffffffffffffffffff16815260200190815260200160002060008282546119eb91906136b7565b92505081905550816002600083815260200190815260200160002060006101000a81548173ffffffffffffffffffffffffffffffffffffffff021916908373ffffffffffffffffffffffffffffffffffffffff160217905550808273ffffffffffffffffffffffffffffffffffffffff168473ffffffffffffffffffffffffffffffffffffffff167fddf252ad1be2c89b69c2b068fc378daa952ba7f163c4a11628f55a4df523b3ef60405160405180910390a4611aaa838383611f9f565b505050565b600081600001549050919050565b611ad7828260405180602001604052806000815250611fa4565b5050565b8173ffffffffffffffffffffffffffffffffffffffff168373ffffffffffffffffffffffffffffffffffffffff1603611b49576040517f08c379a0000000000000000000000000000000000000000000000000000000008152600401611b4090613759565b60405180910390fd5b80600560008573ffffffffffffffffffffffffffffffffffffffff1673ffffffffffffffffffffffffffffffffffffffff16815260200190815260200160002060008473ffffffffffffffffffffffffffffffffffffffff1673ffffffffffffffffffffffffffffffffffffffff16815260200190815260200160002060006101000a81548160ff0219169083151502179055508173ffffffffffffffffffffffffffffffffffffffff168373ffffffffffffffffffffffffffffffffffffffff167f17307eab39ab6107e8899845ad3d59bd9653f200f220920489ca2b5937696c3183604051611c3a91906124d9565b60405180910390a3505050565b611c52848484611849565b611c5e84848484611fff565b611c9d576040517f08c379a0000000000000000000000000000000000000000000000000000000008152600401611c94906137eb565b60405180910390fd5b50505050565b606060008203611cea576040518060400160405280600181526020017f30000000000000000000000000000000000000000000000000000000000000008152509050611dfe565b600082905060005b60008214611d1c578080611d059061380b565b915050600a82611d159190613882565b9150611cf2565b60008167ffffffffffffffff811115611d3857611d37612886565b5b6040519080825280601f01601f191660200182016040528015611d6a5781602001600182028036833780820191505090505b5090505b60008514611df757600182611d839190613683565b9150600a85611d9291906138b3565b6030611d9e91906136b7565b60f81b818381518110611db457611db3612f18565b5b60200101907effffffffffffffffffffffffffffffffffffffffffffffffffffffffffffff1916908160001a905350600a85611df09190613882565b9450611d6e565b8093505050505b919050565b606060008251905060008103611e2b5760405180602001604052806000815250915050611f95565b60006003600283611e3c91906136b7565b611e469190613882565b6004611e5291906138e4565b90506000602082611e6391906136b7565b67ffffffffffffffff811115611e7c57611e7b612886565b5b6040519080825280601f01601f191660200182016040528015611eae5781602001600182028036833780820191505090505b5090506000604051806060016040528060408152602001613afa604091399050600181016020830160005b86811015611f525760038101905062ffffff818a015116603f8160121c168401518060081b905060ff603f83600c1c1686015116810190508060081b905060ff603f8360061c1686015116810190508060081b905060ff603f831686015116810190508060e01b90508084526004840193505050611ed9565b506003860660018114611f6c5760028114611f7c57611f87565b613d3d60f01b6002830352611f87565b603d60f81b60018303525b508484525050819450505050505b919050565b505050565b505050565b611fae8383612186565b611fbb6000848484611fff565b611ffa576040517f08c379a0000000000000000000000000000000000000000000000000000000008152600401611ff1906137eb565b60405180910390fd5b505050565b60006120208473ffffffffffffffffffffffffffffffffffffffff1661235f565b15612179578373ffffffffffffffffffffffffffffffffffffffff1663150b7a026120496116aa565b8786866040518563ffffffff1660e01b815260040161206b9493929190613993565b6020604051808303816000875af19250505080156120a757506040513d601f19601f820116820180604052508101906120a491906139f4565b60015b612129573d80600081146120d7576040519150601f19603f3d011682016040523d82523d6000602084013e6120dc565b606091505b506000815103612121576040517f08c379a0000000000000000000000000000000000000000000000000000000008152600401612118906137eb565b60405180910390fd5b805181602001fd5b63150b7a0260e01b7bffffffffffffffffffffffffffffffffffffffffffffffffffffffff1916817bffffffffffffffffffffffffffffffffffffffffffffffffffffffff19161491505061217e565b600190505b949350505050565b600073ffffffffffffffffffffffffffffffffffffffff168273ffffffffffffffffffffffffffffffffffffffff16036121f5576040517f08c379a00000000000000000000000000000000000000000000000000000000081526004016121ec90613a6d565b60405180910390fd5b6121fe8161163e565b1561223e576040517f08c379a000000000000000000000000000000000000000000000000000000000815260040161223590613ad9565b60405180910390fd5b61224a60008383611f9a565b6001600360008473ffffffffffffffffffffffffffffffffffffffff1673ffffffffffffffffffffffffffffffffffffffff168152602001908152602001600020600082825461229a91906136b7565b92505081905550816002600083815260200190815260200160002060006101000a81548173ffffffffffffffffffffffffffffffffffffffff021916908373ffffffffffffffffffffffffffffffffffffffff160217905550808273ffffffffffffffffffffffffffffffffffffffff16600073ffffffffffffffffffffffffffffffffffffffff167fddf252ad1be2c89b69c2b068fc378daa952ba7f163c4a11628f55a4df523b3ef60405160405180910390a461235b60008383611f9f565b5050565b6000808273ffffffffffffffffffffffffffffffffffffffff163b119050919050565b82805461238e90612aa3565b90600052602060002090601f0160209004810192826123b057600085556123f7565b82601f106123c957805160ff19168380011785556123f7565b828001600101855582156123f7579182015b828111156123f65782518255916020019190600101906123db565b5b5090506124049190612408565b5090565b5b80821115612421576000816000905550600101612409565b5090565b6000604051905090565b600080fd5b600080fd5b60007fffffffff0000000000000000000000000000000000000000000000000000000082169050919050565b61246e81612439565b811461247957600080fd5b50565b60008135905061248b81612465565b92915050565b6000602082840312156124a7576124a661242f565b5b60006124b58482850161247c565b91505092915050565b60008115159050919050565b6124d3816124be565b82525050565b60006020820190506124ee60008301846124ca565b92915050565b600081519050919050565b600082825260208201905092915050565b60005b8381101561252e578082015181840152602081019050612513565b8381111561253d576000848401525b50505050565b6000601f19601f8301169050919050565b600061255f826124f4565b61256981856124ff565b9350612579818560208601612510565b61258281612543565b840191505092915050565b600060208201905081810360008301526125a78184612554565b905092915050565b6000819050919050565b6125c2816125af565b81146125cd57600080fd5b50565b6000813590506125df816125b9565b92915050565b6000602082840312156125fb576125fa61242f565b5b6000612609848285016125d0565b91505092915050565b600073ffffffffffffffffffffffffffffffffffffffff82169050919050565b600061263d82612612565b9050919050565b61264d81612632565b82525050565b60006020820190506126686000830184612644565b92915050565b61267781612632565b811461268257600080fd5b50565b6000813590506126948161266e565b92915050565b600080604083850312156126b1576126b061242f565b5b60006126bf85828601612685565b92505060206126d0858286016125d0565b9150509250929050565b6000602082840312156126f0576126ef61242f565b5b60006126fe84828501612685565b91505092915050565b6000806000606084860312156127205761271f61242f565b5b600061272e86828701612685565b935050602061273f86828701612685565b9250506040612750868287016125d0565b9150509250925092565b612763816125af565b82525050565b60006101008201905061277f600083018b61275a565b8181036020830152612791818a612554565b905081810360408301526127a58189612554565b90506127b4606083018861275a565b6127c1608083018761275a565b6127ce60a083018661275a565b6127db60c083018561275a565b6127e860e083018461275a565b9998505050505050505050565b600060208201905061280a600083018461275a565b92915050565b612819816124be565b811461282457600080fd5b50565b60008135905061283681612810565b92915050565b600080604083850312156128535761285261242f565b5b600061286185828601612685565b925050602061287285828601612827565b9150509250929050565b600080fd5b600080fd5b7f4e487b7100000000000000000000000000000000000000000000000000000000600052604160045260246000fd5b6128be82612543565b810181811067ffffffffffffffff821117156128dd576128dc612886565b5b80604052505050565b60006128f0612425565b90506128fc82826128b5565b919050565b600067ffffffffffffffff82111561291c5761291b612886565b5b61292582612543565b9050602081019050919050565b82818337600083830152505050565b600061295461294f84612901565b6128e6565b9050828152602081018484840111156129705761296f612881565b5b61297b848285612932565b509392505050565b600082601f8301126129985761299761287c565b5b81356129a8848260208601612941565b91505092915050565b600080600080608085870312156129cb576129ca61242f565b5b60006129d987828801612685565b94505060206129ea87828801612685565b93505060406129fb878288016125d0565b925050606085013567ffffffffffffffff811115612a1c57612a1b612434565b5b612a2887828801612983565b91505092959194509250565b60008060408385031215612a4b57612a4a61242f565b5b6000612a5985828601612685565b9250506020612a6a85828601612685565b9150509250929050565b7f4e487b7100000000000000000000000000000000000000000000000000000000600052602260045260246000fd5b60006002820490506001821680612abb57607f821691505b602082108103612ace57612acd612a74565b5b50919050565b7f4552433732313a20617070726f76656420717565727920666f72206e6f6e657860008201527f697374656e7420746f6b656e0000000000000000000000000000000000000000602082015250565b6000612b30602c836124ff565b9150612b3b82612ad4565b604082019050919050565b60006020820190508181036000830152612b5f81612b23565b9050919050565b7f4552433732313a20617070726f76616c20746f2063757272656e74206f776e6560008201527f7200000000000000000000000000000000000000000000000000000000000000602082015250565b6000612bc26021836124ff565b9150612bcd82612b66565b604082019050919050565b60006020820190508181036000830152612bf181612bb5565b9050919050565b7f4552433732313a20617070726f76652063616c6c6572206973206e6f74206f7760008201527f6e6572206e6f7220617070726f76656420666f7220616c6c0000000000000000602082015250565b6000612c546038836124ff565b9150612c5f82612bf8565b604082019050919050565b60006020820190508181036000830152612c8381612c47565b9050919050565b7f43616c6c6572206d757374206265206f776e6572000000000000000000000000600082015250565b6000612cc06014836124ff565b9150612ccb82612c8a565b602082019050919050565b60006020820190508181036000830152612cef81612cb3565b9050919050565b7f4552433732313a207472616e736665722063616c6c6572206973206e6f74206f60008201527f776e6572206e6f7220617070726f766564000000000000000000000000000000602082015250565b6000612d526031836124ff565b9150612d5d82612cf6565b604082019050919050565b60006020820190508181036000830152612d8181612d45565b9050919050565b7f4552433732313a206f776e657220717565727920666f72206e6f6e657869737460008201527f656e7420746f6b656e0000000000000000000000000000000000000000000000602082015250565b6000612de46029836124ff565b9150612def82612d88565b604082019050919050565b60006020820190508181036000830152612e1381612dd7565b9050919050565b7f4552433732313a2062616c616e636520717565727920666f7220746865207a6560008201527f726f206164647265737300000000000000000000000000000000000000000000602082015250565b6000612e76602a836124ff565b9150612e8182612e1a565b604082019050919050565b60006020820190508181036000830152612ea581612e69565b9050919050565b7f5061796d656e74206973206e6f7420636f727265637400000000000000000000600082015250565b6000612ee26016836124ff565b9150612eed82612eac565b602082019050919050565b60006020820190508181036000830152612f1181612ed5565b9050919050565b7f4e487b7100000000000000000000000000000000000000000000000000000000600052603260045260246000fd5b600081905092915050565b7f7b226e616d65223a202200000000000000000000000000000000000000000000600082015250565b6000612f88600a83612f47565b9150612f9382612f52565b600a82019050919050565b6000612fa9826124f4565b612fb38185612f47565b9350612fc3818560208601612510565b80840191505092915050565b7f202d2d204e465420233a20000000000000000000000000000000000000000000600082015250565b6000613005600b83612f47565b915061301082612fcf565b600b82019050919050565b7f222c20226465736372697074696f6e223a20224865726f204e4654207468617460008201527f206c65747320796f7520706c6179204d6f6e7374657220536c6179657221222c60208201527f2022696d616765223a2022000000000000000000000000000000000000000000604082015250565b600061309d604b83612f47565b91506130a88261301b565b604b82019050919050565b7f222c202261747472696275746573223a205b207b202274726169745f7479706560008201527f223a20224865616c746820506f696e7473222c202276616c7565223a20000000602082015250565b600061310f603d83612f47565b915061311a826130b3565b603d82019050919050565b7f2c20226d61785f76616c7565223a000000000000000000000000000000000000600082015250565b600061315b600e83612f47565b915061316682613125565b600e82019050919050565b7f7d2c207b202274726169745f74797065223a202241747461636b2044616d616760008201527f65222c202276616c7565223a2000000000000000000000000000000000000000602082015250565b60006131cd602d83612f47565b91506131d882613171565b602d82019050919050565b7f7d2c207b202274726169745f74797065223a2022437269746963616c2044616d60008201527f616765204368616e6365222c202276616c7565223a2000000000000000000000602082015250565b600061323f603683612f47565b915061324a826131e3565b603682019050919050565b7f7d2c207b202274726169745f74797065223a20224865616c696e6720506f776560008201527f72222c202276616c7565223a2000000000000000000000000000000000000000602082015250565b60006132b1602d83612f47565b91506132bc82613255565b602d82019050919050565b7f7d205d7d00000000000000000000000000000000000000000000000000000000600082015250565b60006132fd600483612f47565b9150613308826132c7565b600482019050919050565b600061331e82612f7b565b915061332a828e612f9e565b915061333582612ff8565b9150613341828d612f9e565b915061334c82613090565b9150613358828c612f9e565b915061336382613102565b915061336f828b612f9e565b915061337a8261314e565b9150613386828a612f9e565b9150613391826131c0565b915061339d8289612f9e565b91506133a88261314e565b91506133b48288612f9e565b91506133bf82613232565b91506133cb8287612f9e565b91506133d68261314e565b91506133e28286612f9e565b91506133ed826132a4565b91506133f98285612f9e565b91506134048261314e565b91506134108284612f9e565b915061341b826132f0565b91508190509c9b505050505050505050505050565b7f646174613a6170706c69636174696f6e2f6a736f6e3b6261736536342c000000600082015250565b6000613466601d83612f47565b915061347182613430565b601d82019050919050565b600061348782613459565b91506134938284612f9e565b915081905092915050565b7f4552433732313a206f70657261746f7220717565727920666f72206e6f6e657860008201527f697374656e7420746f6b656e0000000000000000000000000000000000000000602082015250565b60006134fa602c836124ff565b91506135058261349e565b604082019050919050565b60006020820190508181036000830152613529816134ed565b9050919050565b7f4552433732313a207472616e736665722066726f6d20696e636f72726563742060008201527f6f776e6572000000000000000000000000000000000000000000000000000000602082015250565b600061358c6025836124ff565b915061359782613530565b604082019050919050565b600060208201905081810360008301526135bb8161357f565b9050919050565b7f4552433732313a207472616e7366657220746f20746865207a65726f2061646460008201527f7265737300000000000000000000000000000000000000000000000000000000602082015250565b600061361e6024836124ff565b9150613629826135c2565b604082019050919050565b6000602082019050818103600083015261364d81613611565b9050919050565b7f4e487b7100000000000000000000000000000000000000000000000000000000600052601160045260246000fd5b600061368e826125af565b9150613699836125af565b9250828210156136ac576136ab613654565b5b828203905092915050565b60006136c2826125af565b91506136cd836125af565b9250827fffffffffffffffffffffffffffffffffffffffffffffffffffffffffffffffff0382111561370257613701613654565b5b828201905092915050565b7f4552433732313a20617070726f766520746f2063616c6c657200000000000000600082015250565b60006137436019836124ff565b915061374e8261370d565b602082019050919050565b6000602082019050818103600083015261377281613736565b9050919050565b7f4552433732313a207472616e7366657220746f206e6f6e20455243373231526560008201527f63656976657220696d706c656d656e7465720000000000000000000000000000602082015250565b60006137d56032836124ff565b91506137e082613779565b604082019050919050565b60006020820190508181036000830152613804816137c8565b9050919050565b6000613816826125af565b91507fffffffffffffffffffffffffffffffffffffffffffffffffffffffffffffffff820361384857613847613654565b5b600182019050919050565b7f4e487b7100000000000000000000000000000000000000000000000000000000600052601260045260246000fd5b600061388d826125af565b9150613898836125af565b9250826138a8576138a7613853565b5b828204905092915050565b60006138be826125af565b91506138c9836125af565b9250826138d9576138d8613853565b5b828206905092915050565b60006138ef826125af565b91506138fa836125af565b9250817fffffffffffffffffffffffffffffffffffffffffffffffffffffffffffffffff048311821515161561393357613932613654565b5b828202905092915050565b600081519050919050565b600082825260208201905092915050565b60006139658261393e565b61396f8185613949565b935061397f818560208601612510565b61398881612543565b840191505092915050565b60006080820190506139a86000830187612644565b6139b56020830186612644565b6139c2604083018561275a565b81810360608301526139d4818461395a565b905095945050505050565b6000815190506139ee81612465565b92915050565b600060208284031215613a0a57613a0961242f565b5b6000613a18848285016139df565b91505092915050565b7f4552433732313a206d696e7420746f20746865207a65726f2061646472657373600082015250565b6000613a576020836124ff565b9150613a6282613a21565b602082019050919050565b60006020820190508181036000830152613a8681613a4a565b9050919050565b7f4552433732313a20746f6b656e20616c7265616479206d696e74656400000000600082015250565b6000613ac3601c836124ff565b9150613ace82613a8d565b602082019050919050565b60006020820190508181036000830152613af281613ab6565b905091905056fe4142434445464748494a4b4c4d4e4f505152535455565758595a6162636465666768696a6b6c6d6e6f707172737475767778797a303132333435363738392b2fa264697066735822122069f01081b011ae59da93f12448ecd7c23d3b3a20e43e7dcea0d986af9bdfad7e64736f6c634300080d0033",
  "linkReferences": {},
  "deployedLinkReferences": {}
}