{
  "_format": "hh-sol-artifact-1",
  "contractName": "Game",
  "sourceName": "contracts/Game.sol",
  "abi": [
    {
      "inputs": [
        {
          "internalType": "string[]",
          "name": "names",
          "type": "string[]"
        },
        {
          "internalType": "string[]",
          "name": "imageUris",
          "type": "string[]"
        },
        {
          "internalType": "uint256[]",
          "name": "hps",
          "type": "uint256[]"
        },
        {
          "internalType": "uint256[]",
          "name": "damages",
          "type": "uint256[]"
        },
        {
          "internalType": "uint256[]",
          "name": "crits",
          "type": "uint256[]"
        },
        {
          "internalType": "uint256[]",
          "name": "heals",
          "type": "uint256[]"
        },
        {
          "internalType": "string[]",
          "name": "bossNames",
          "type": "string[]"
        },
        {
          "internalType": "string[]",
          "name": "bossImageUris",
          "type": "string[]"
        },
        {
          "internalType": "uint256[]",
          "name": "bossHps",
          "type": "uint256[]"
        },
        {
          "internalType": "uint256[]",
          "name": "bossDamage",
          "type": "uint256[]"
        }
      ],
      "stateMutability": "nonpayable",
      "type": "constructor"
    },
    {
      "inputs": [
        {
          "internalType": "address",
          "name": "have",
          "type": "address"
        },
        {
          "internalType": "address",
          "name": "want",
          "type": "address"
        }
      ],
      "name": "OnlyCoordinatorCanFulfill",
      "type": "error"
    },
    {
      "anonymous": false,
      "inputs": [
        {
          "indexed": true,
          "internalType": "address",
          "name": "owner",
          "type": "address"
        },
        {
          "indexed": true,
          "internalType": "address",
          "name": "approved",
          "type": "address"
        },
        {
          "indexed": true,
          "internalType": "uint256",
          "name": "tokenId",
          "type": "uint256"
        }
      ],
      "name": "Approval",
      "type": "event"
    },
    {
      "anonymous": false,
      "inputs": [
        {
          "indexed": true,
          "internalType": "address",
          "name": "owner",
          "type": "address"
        },
        {
          "indexed": true,
          "internalType": "address",
          "name": "operator",
          "type": "address"
        },
        {
          "indexed": false,
          "internalType": "bool",
          "name": "approved",
          "type": "bool"
        }
      ],
      "name": "ApprovalForAll",
      "type": "event"
    },
    {
      "anonymous": false,
      "inputs": [
        {
          "indexed": true,
          "internalType": "address",
          "name": "owner",
          "type": "address"
        },
        {
          "indexed": true,
          "internalType": "uint256",
          "name": "tokenId",
          "type": "uint256"
        },
        {
          "indexed": true,
          "internalType": "uint256",
          "name": "heroIndex",
          "type": "uint256"
        }
      ],
      "name": "Mint",
      "type": "event"
    },
    {
      "anonymous": false,
      "inputs": [
        {
          "indexed": true,
          "internalType": "address",
          "name": "from",
          "type": "address"
        },
        {
          "indexed": true,
          "internalType": "address",
          "name": "to",
          "type": "address"
        },
        {
          "indexed": true,
          "internalType": "uint256",
          "name": "tokenId",
          "type": "uint256"
        }
      ],
      "name": "Transfer",
      "type": "event"
    },
    {
      "inputs": [
        {
          "internalType": "address",
          "name": "to",
          "type": "address"
        },
        {
          "internalType": "uint256",
          "name": "tokenId",
          "type": "uint256"
        }
      ],
      "name": "approve",
      "outputs": [],
      "stateMutability": "nonpayable",
      "type": "function"
    },
    {
      "inputs": [],
      "name": "attackBoss",
      "outputs": [],
      "stateMutability": "nonpayable",
      "type": "function"
    },
    {
      "inputs": [
        {
          "internalType": "address",
          "name": "owner",
          "type": "address"
        }
      ],
      "name": "balanceOf",
      "outputs": [
        {
          "internalType": "uint256",
          "name": "",
          "type": "uint256"
        }
      ],
      "stateMutability": "view",
      "type": "function"
    },
    {
      "inputs": [
        {
          "internalType": "uint256",
          "name": "",
          "type": "uint256"
        }
      ],
      "name": "bosses",
      "outputs": [
        {
          "internalType": "string",
          "name": "name",
          "type": "string"
        },
        {
          "internalType": "string",
          "name": "imageUri",
          "type": "string"
        },
        {
          "internalType": "uint256",
          "name": "hp",
          "type": "uint256"
        },
        {
          "internalType": "uint256",
          "name": "maxHp",
          "type": "uint256"
        },
        {
          "internalType": "uint256",
          "name": "damage",
          "type": "uint256"
        }
      ],
      "stateMutability": "view",
      "type": "function"
    },
    {
      "inputs": [],
      "name": "coordinator",
      "outputs": [
        {
          "internalType": "contract VRFCoordinatorV2Interface",
          "name": "",
          "type": "address"
        }
      ],
      "stateMutability": "view",
      "type": "function"
    },
    {
      "inputs": [],
      "name": "currentBoss",
      "outputs": [
        {
          "internalType": "string",
          "name": "name",
          "type": "string"
        },
        {
          "internalType": "string",
          "name": "imageUri",
          "type": "string"
        },
        {
          "internalType": "uint256",
          "name": "hp",
          "type": "uint256"
        },
        {
          "internalType": "uint256",
          "name": "maxHp",
          "type": "uint256"
        },
        {
          "internalType": "uint256",
          "name": "damage",
          "type": "uint256"
        }
      ],
      "stateMutability": "view",
      "type": "function"
    },
    {
      "inputs": [
        {
          "internalType": "uint256",
          "name": "",
          "type": "uint256"
        }
      ],
      "name": "defaultHeroes",
      "outputs": [
        {
          "internalType": "uint256",
          "name": "index",
          "type": "uint256"
        },
        {
          "internalType": "string",
          "name": "name",
          "type": "string"
        },
        {
          "internalType": "string",
          "name": "imageUri",
          "type": "string"
        },
        {
          "internalType": "uint256",
          "name": "hp",
          "type": "uint256"
        },
        {
          "internalType": "uint256",
          "name": "maxHp",
          "type": "uint256"
        },
        {
          "internalType": "uint256",
          "name": "damage",
          "type": "uint256"
        },
        {
          "internalType": "uint256",
          "name": "crit",
          "type": "uint256"
        },
        {
          "internalType": "uint256",
          "name": "heal",
          "type": "uint256"
        }
      ],
      "stateMutability": "view",
      "type": "function"
    },
    {
      "inputs": [],
      "name": "fundSubscription",
      "outputs": [],
      "stateMutability": "nonpayable",
      "type": "function"
    },
    {
      "inputs": [
        {
          "internalType": "uint256",
          "name": "tokenId",
          "type": "uint256"
        }
      ],
      "name": "getApproved",
      "outputs": [
        {
          "internalType": "address",
          "name": "",
          "type": "address"
        }
      ],
      "stateMutability": "view",
      "type": "function"
    },
    {
      "inputs": [],
      "name": "getDefaultHeroes",
      "outputs": [
        {
          "components": [
            {
              "internalType": "uint256",
              "name": "index",
              "type": "uint256"
            },
            {
              "internalType": "string",
              "name": "name",
              "type": "string"
            },
            {
              "internalType": "string",
              "name": "imageUri",
              "type": "string"
            },
            {
              "internalType": "uint256",
              "name": "hp",
              "type": "uint256"
            },
            {
              "internalType": "uint256",
              "name": "maxHp",
              "type": "uint256"
            },
            {
              "internalType": "uint256",
              "name": "damage",
              "type": "uint256"
            },
            {
              "internalType": "uint256",
              "name": "crit",
              "type": "uint256"
            },
            {
              "internalType": "uint256",
              "name": "heal",
              "type": "uint256"
            }
          ],
          "internalType": "struct Game.Hero[]",
          "name": "",
          "type": "tuple[]"
        }
      ],
      "stateMutability": "view",
      "type": "function"
    },
    {
      "inputs": [],
      "name": "getSubscriptionDetails",
      "outputs": [
        {
          "internalType": "uint96",
          "name": "",
          "type": "uint96"
        },
        {
          "internalType": "uint64",
          "name": "",
          "type": "uint64"
        },
        {
          "internalType": "address",
          "name": "",
          "type": "address"
        },
        {
          "internalType": "address[]",
          "name": "",
          "type": "address[]"
        }
      ],
      "stateMutability": "view",
      "type": "function"
    },
    {
      "inputs": [
        {
          "internalType": "address",
          "name": "_coordinatorAddress",
          "type": "address"
        },
        {
          "internalType": "address",
          "name": "_linkTokenAddress",
          "type": "address"
        },
        {
          "internalType": "bytes32",
          "name": "_keyHash",
          "type": "bytes32"
        }
      ],
      "name": "initializeVRF",
      "outputs": [],
      "stateMutability": "nonpayable",
      "type": "function"
    },
    {
      "inputs": [
        {
          "internalType": "address",
          "name": "owner",
          "type": "address"
        },
        {
          "internalType": "address",
          "name": "operator",
          "type": "address"
        }
      ],
      "name": "isApprovedForAll",
      "outputs": [
        {
          "internalType": "bool",
          "name": "",
          "type": "bool"
        }
      ],
      "stateMutability": "view",
      "type": "function"
    },
    {
      "inputs": [],
      "name": "linkToken",
      "outputs": [
        {
          "internalType": "contract LinkTokenInterface",
          "name": "",
          "type": "address"
        }
      ],
      "stateMutability": "view",
      "type": "function"
    },
    {
      "inputs": [],
      "name": "maxTokenAmount",
      "outputs": [
        {
          "internalType": "uint256",
          "name": "",
          "type": "uint256"
        }
      ],
      "stateMutability": "view",
      "type": "function"
    },
    {
      "inputs": [],
      "name": "mintCost",
      "outputs": [
        {
          "internalType": "uint256",
          "name": "",
          "type": "uint256"
        }
      ],
      "stateMutability": "view",
      "type": "function"
    },
    {
      "inputs": [],
      "name": "mintHero",
      "outputs": [],
      "stateMutability": "payable",
      "type": "function"
    },
    {
      "inputs": [],
      "name": "name",
      "outputs": [
        {
          "internalType": "string",
          "name": "",
          "type": "string"
        }
      ],
      "stateMutability": "view",
      "type": "function"
    },
    {
      "inputs": [
        {
          "internalType": "uint256",
          "name": "",
          "type": "uint256"
        }
      ],
      "name": "nftHero",
      "outputs": [
        {
          "internalType": "uint256",
          "name": "index",
          "type": "uint256"
        },
        {
          "internalType": "string",
          "name": "name",
          "type": "string"
        },
        {
          "internalType": "string",
          "name": "imageUri",
          "type": "string"
        },
        {
          "internalType": "uint256",
          "name": "hp",
          "type": "uint256"
        },
        {
          "internalType": "uint256",
          "name": "maxHp",
          "type": "uint256"
        },
        {
          "internalType": "uint256",
          "name": "damage",
          "type": "uint256"
        },
        {
          "internalType": "uint256",
          "name": "crit",
          "type": "uint256"
        },
        {
          "internalType": "uint256",
          "name": "heal",
          "type": "uint256"
        }
      ],
      "stateMutability": "view",
      "type": "function"
    },
    {
      "inputs": [
        {
          "internalType": "address",
          "name": "",
          "type": "address"
        },
        {
          "internalType": "uint256",
          "name": "",
          "type": "uint256"
        }
      ],
      "name": "nftHolders",
      "outputs": [
        {
          "internalType": "uint256",
          "name": "",
          "type": "uint256"
        }
      ],
      "stateMutability": "view",
      "type": "function"
    },
    {
      "inputs": [],
      "name": "owner",
      "outputs": [
        {
          "internalType": "address",
          "name": "",
          "type": "address"
        }
      ],
      "stateMutability": "view",
      "type": "function"
    },
    {
      "inputs": [
        {
          "internalType": "uint256",
          "name": "tokenId",
          "type": "uint256"
        }
      ],
      "name": "ownerOf",
      "outputs": [
        {
          "internalType": "address",
          "name": "",
          "type": "address"
        }
      ],
      "stateMutability": "view",
      "type": "function"
    },
    {
      "inputs": [
        {
          "internalType": "uint256",
          "name": "requestId",
          "type": "uint256"
        },
        {
          "internalType": "uint256[]",
          "name": "randomWords",
          "type": "uint256[]"
        }
      ],
      "name": "rawFulfillRandomWords",
      "outputs": [],
      "stateMutability": "nonpayable",
      "type": "function"
    },
    {
      "inputs": [
        {
          "internalType": "address",
          "name": "from",
          "type": "address"
        },
        {
          "internalType": "address",
          "name": "to",
          "type": "address"
        },
        {
          "internalType": "uint256",
          "name": "tokenId",
          "type": "uint256"
        }
      ],
      "name": "safeTransferFrom",
      "outputs": [],
      "stateMutability": "nonpayable",
      "type": "function"
    },
    {
      "inputs": [
        {
          "internalType": "address",
          "name": "from",
          "type": "address"
        },
        {
          "internalType": "address",
          "name": "to",
          "type": "address"
        },
        {
          "internalType": "uint256",
          "name": "tokenId",
          "type": "uint256"
        },
        {
          "internalType": "bytes",
          "name": "_data",
          "type": "bytes"
        }
      ],
      "name": "safeTransferFrom",
      "outputs": [],
      "stateMutability": "nonpayable",
      "type": "function"
    },
    {
      "inputs": [
        {
          "internalType": "address",
          "name": "operator",
          "type": "address"
        },
        {
          "internalType": "bool",
          "name": "approved",
          "type": "bool"
        }
      ],
      "name": "setApprovalForAll",
      "outputs": [],
      "stateMutability": "nonpayable",
      "type": "function"
    },
    {
      "inputs": [
        {
          "internalType": "uint256",
          "name": "amount",
          "type": "uint256"
        }
      ],
      "name": "setMaxTokenAmount",
      "outputs": [],
      "stateMutability": "nonpayable",
      "type": "function"
    },
    {
      "inputs": [
        {
          "internalType": "uint256",
          "name": "cost",
          "type": "uint256"
        }
      ],
      "name": "setMintCost",
      "outputs": [],
      "stateMutability": "nonpayable",
      "type": "function"
    },
    {
      "inputs": [
        {
          "internalType": "address",
          "name": "_address",
          "type": "address"
        }
      ],
      "name": "setOwner",
      "outputs": [],
      "stateMutability": "nonpayable",
      "type": "function"
    },
    {
      "inputs": [
        {
          "internalType": "bytes4",
          "name": "interfaceId",
          "type": "bytes4"
        }
      ],
      "name": "supportsInterface",
      "outputs": [
        {
          "internalType": "bool",
          "name": "",
          "type": "bool"
        }
      ],
      "stateMutability": "view",
      "type": "function"
    },
    {
      "inputs": [],
      "name": "symbol",
      "outputs": [
        {
          "internalType": "string",
          "name": "",
          "type": "string"
        }
      ],
      "stateMutability": "view",
      "type": "function"
    },
    {
      "inputs": [
        {
          "internalType": "uint256",
          "name": "requestId",
          "type": "uint256"
        },
        {
          "internalType": "uint256[]",
          "name": "randomWords",
          "type": "uint256[]"
        }
      ],
      "name": "testFulfillRandomWords",
      "outputs": [],
      "stateMutability": "nonpayable",
      "type": "function"
    },
    {
      "inputs": [],
      "name": "testRequestId",
      "outputs": [
        {
          "internalType": "uint256",
          "name": "",
          "type": "uint256"
        }
      ],
      "stateMutability": "view",
      "type": "function"
    },
    {
      "inputs": [
        {
          "internalType": "uint256",
          "name": "tokenId",
          "type": "uint256"
        }
      ],
      "name": "tokenURI",
      "outputs": [
        {
          "internalType": "string",
          "name": "",
          "type": "string"
        }
      ],
      "stateMutability": "view",
      "type": "function"
    },
    {
      "inputs": [
        {
          "internalType": "address",
          "name": "from",
          "type": "address"
        },
        {
          "internalType": "address",
          "name": "to",
          "type": "address"
        },
        {
          "internalType": "uint256",
          "name": "tokenId",
          "type": "uint256"
        }
      ],
      "name": "transferFrom",
      "outputs": [],
      "stateMutability": "nonpayable",
      "type": "function"
    }
  ],
  "bytecode": "0x60a06040527f9fe0eebf5e446e3c998ec9bb19951541aee00bb90ea201ae456421a2ded8680560001b600b55600360185560006019553480156200004257600080fd5b5060405162006e2d38038062006e2d833981810160405281019062000068919062000b78565b600960009054906101000a900473ffffffffffffffffffffffffffffffffffffffff166040518060400160405280600681526020017f4865726f657300000000000000000000000000000000000000000000000000008152506040518060400160405280600481526020017f4865726f0000000000000000000000000000000000000000000000000000000081525081600090805190602001906200010f92919062000686565b5080600190805190602001906200012892919062000686565b5050508073ffffffffffffffffffffffffffffffffffffffff1660808173ffffffffffffffffffffffffffffffffffffffff16815250505088518a5114801562000173575087518951145b801562000181575086518851145b80156200018f575085518751145b80156200019d575084518651145b620001df576040517f08c379a0000000000000000000000000000000000000000000000000000000008152600401620001d69062000e2b565b60405180910390fd5b82518451148015620001f2575081518351145b801562000200575080518251145b62000242576040517f08c379a0000000000000000000000000000000000000000000000000000000008152600401620002399062000ec3565b60405180910390fd5b60005b8451811015620003a65760116040518060a0016040528087848151811062000272576200027162000ee5565b5b6020026020010151815260200186848151811062000295576200029462000ee5565b5b60200260200101518152602001858481518110620002b857620002b762000ee5565b5b60200260200101518152602001848481518110620002db57620002da62000ee5565b5b60200260200101518152602001848481518110620002fe57620002fd62000ee5565b5b6020026020010151815250908060018154018082558091505060019003906000526020600020906005020160009091909190915060008201518160000190805190602001906200035092919062000686565b5060208201518160010190805190602001906200036f92919062000686565b50604082015181600201556060820151816003015560808201518160040155505080806200039d9062000f43565b91505062000245565b506011600081548110620003bf57620003be62000ee5565b5b906000526020600020906005020160126000820181600001908054620003e59062000fbf565b620003f292919062000717565b506001820181600101908054620004099062000fbf565b6200041692919062000717565b5060028201548160020155600382015481600301556004820154816004015590505060005b8a518110156200060757600e6040518061010001604052808381526020018d84815181106200046f576200046e62000ee5565b5b602002602001015181526020018c848151811062000492576200049162000ee5565b5b602002602001015181526020018b8481518110620004b557620004b462000ee5565b5b602002602001015181526020018b8481518110620004d857620004d762000ee5565b5b602002602001015181526020018a8481518110620004fb57620004fa62000ee5565b5b602002602001015181526020018984815181106200051e576200051d62000ee5565b5b6020026020010151815260200188848151811062000541576200054062000ee5565b5b602002602001015181525090806001815401808255809150506001900390600052602060002090600802016000909190919091506000820151816000015560208201518160010190805190602001906200059d92919062000686565b506040820151816002019080519060200190620005bc92919062000686565b50606082015181600301556080820151816004015560a0820151816005015560c0820151816006015560e0820151816007015550508080620005fe9062000f43565b9150506200043b565b506200061f60066200067060201b620024631760201c565b33601760006101000a81548173ffffffffffffffffffffffffffffffffffffffff021916908373ffffffffffffffffffffffffffffffffffffffff1602179055505050505050505050505062000ff4565b6001816000016000828254019250508190555050565b828054620006949062000fbf565b90600052602060002090601f016020900481019282620006b8576000855562000704565b82601f10620006d357805160ff191683800117855562000704565b8280016001018555821562000704579182015b8281111562000703578251825591602001919060010190620006e6565b5b509050620007139190620007af565b5090565b828054620007259062000fbf565b90600052602060002090601f0160209004810192826200074957600085556200079c565b82601f106200075c57805485556200079c565b828001600101855582156200079c57600052602060002091601f016020900482015b828111156200079b5782548255916001019190600101906200077e565b5b509050620007ab9190620007af565b5090565b5b80821115620007ca576000816000905550600101620007b0565b5090565b6000604051905090565b600080fd5b600080fd5b600080fd5b6000601f19601f8301169050919050565b7f4e487b7100000000000000000000000000000000000000000000000000000000600052604160045260246000fd5b6200083282620007e7565b810181811067ffffffffffffffff82111715620008545762000853620007f8565b5b80604052505050565b600062000869620007ce565b905062000877828262000827565b919050565b600067ffffffffffffffff8211156200089a5762000899620007f8565b5b602082029050602081019050919050565b600080fd5b600080fd5b600067ffffffffffffffff821115620008d357620008d2620007f8565b5b620008de82620007e7565b9050602081019050919050565b60005b838110156200090b578082015181840152602081019050620008ee565b838111156200091b576000848401525b50505050565b6000620009386200093284620008b5565b6200085d565b905082815260208101848484011115620009575762000956620008b0565b5b62000964848285620008eb565b509392505050565b600082601f830112620009845762000983620007e2565b5b81516200099684826020860162000921565b91505092915050565b6000620009b6620009b0846200087c565b6200085d565b90508083825260208201905060208402830185811115620009dc57620009db620008ab565b5b835b8181101562000a2a57805167ffffffffffffffff81111562000a055762000a04620007e2565b5b80860162000a1489826200096c565b85526020850194505050602081019050620009de565b5050509392505050565b600082601f83011262000a4c5762000a4b620007e2565b5b815162000a5e8482602086016200099f565b91505092915050565b600067ffffffffffffffff82111562000a855762000a84620007f8565b5b602082029050602081019050919050565b6000819050919050565b62000aab8162000a96565b811462000ab757600080fd5b50565b60008151905062000acb8162000aa0565b92915050565b600062000ae862000ae28462000a67565b6200085d565b9050808382526020820190506020840283018581111562000b0e5762000b0d620008ab565b5b835b8181101562000b3b578062000b26888262000aba565b84526020840193505060208101905062000b10565b5050509392505050565b600082601f83011262000b5d5762000b5c620007e2565b5b815162000b6f84826020860162000ad1565b91505092915050565b6000806000806000806000806000806101408b8d03121562000b9f5762000b9e620007d8565b5b60008b015167ffffffffffffffff81111562000bc05762000bbf620007dd565b5b62000bce8d828e0162000a34565b9a505060208b015167ffffffffffffffff81111562000bf25762000bf1620007dd565b5b62000c008d828e0162000a34565b99505060408b015167ffffffffffffffff81111562000c245762000c23620007dd565b5b62000c328d828e0162000b45565b98505060608b015167ffffffffffffffff81111562000c565762000c55620007dd565b5b62000c648d828e0162000b45565b97505060808b015167ffffffffffffffff81111562000c885762000c87620007dd565b5b62000c968d828e0162000b45565b96505060a08b015167ffffffffffffffff81111562000cba5762000cb9620007dd565b5b62000cc88d828e0162000b45565b95505060c08b015167ffffffffffffffff81111562000cec5762000ceb620007dd565b5b62000cfa8d828e0162000a34565b94505060e08b015167ffffffffffffffff81111562000d1e5762000d1d620007dd565b5b62000d2c8d828e0162000a34565b9350506101008b015167ffffffffffffffff81111562000d515762000d50620007dd565b5b62000d5f8d828e0162000b45565b9250506101208b015167ffffffffffffffff81111562000d845762000d83620007dd565b5b62000d928d828e0162000b45565b9150509295989b9194979a5092959850565b600082825260208201905092915050565b7f4f6e65206f662074686520676976656e204e46542064656661756c742061727260008201527f617973206973206f6464206c656e677468000000000000000000000000000000602082015250565b600062000e1360318362000da4565b915062000e208262000db5565b604082019050919050565b6000602082019050818103600083015262000e468162000e04565b9050919050565b7f4f6e65206f662074686520676976656e20626f73732064656661756c7420617260008201527f72617973206973206f6464206c656e6774680000000000000000000000000000602082015250565b600062000eab60328362000da4565b915062000eb88262000e4d565b604082019050919050565b6000602082019050818103600083015262000ede8162000e9c565b9050919050565b7f4e487b7100000000000000000000000000000000000000000000000000000000600052603260045260246000fd5b7f4e487b7100000000000000000000000000000000000000000000000000000000600052601160045260246000fd5b600062000f508262000a96565b91507fffffffffffffffffffffffffffffffffffffffffffffffffffffffffffffffff820362000f855762000f8462000f14565b5b600182019050919050565b7f4e487b7100000000000000000000000000000000000000000000000000000000600052602260045260246000fd5b6000600282049050600182168062000fd857607f821691505b60208210810362000fee5762000fed62000f90565b5b50919050565b608051615e166200101760003960008181610d3e0152610d920152615e166000f3fe6080604052600436106102045760003560e01c806370a0823111610118578063b839a80e116100a0578063ca290ec51161006f578063ca290ec5146107a6578063d4f24c5b146107cf578063e90f077c146107e6578063e920033714610811578063e985e9c51461081b57610204565b8063b839a80e146106ec578063b88d4fde14610715578063bdb4b8481461073e578063c87b56dd1461076957610204565b8063856f8c35116100e7578063856f8c35146106135780638a926d0f146106425780638da5cb5b1461066d57806395d89b4114610698578063a22cb465146106c357610204565b806370a082311461052c578063775bb50e14610569578063812bc25e146105a65780638545f4ea146105ea57610204565b80631fe543e31161019b5780634ca59d771161016a5780634ca59d771461043e57806357970e931461048257806357ace39b146104ad5780636352211e146104c4578063657633ad1461050157610204565b80631fe543e314610382578063204597e0146103ab57806323b872dd146103ec57806342842e0e1461041557610204565b8063095ea7b3116101d7578063095ea7b3146102d75780630a009097146103005780630d5de6df1461032b57806313af40351461035957610204565b806301ffc9a71461020957806302c4d72b1461024657806306fdde031461026f578063081812fc1461029a575b600080fd5b34801561021557600080fd5b50610230600480360381019061022b9190613be1565b610858565b60405161023d9190613c29565b60405180910390f35b34801561025257600080fd5b5061026d60048036038101906102689190613dd3565b61093a565b005b34801561027b57600080fd5b50610284610948565b6040516102919190613eb7565b60405180910390f35b3480156102a657600080fd5b506102c160048036038101906102bc9190613ed9565b6109da565b6040516102ce9190613f47565b60405180910390f35b3480156102e357600080fd5b506102fe60048036038101906102f99190613f8e565b610a5f565b005b34801561030c57600080fd5b50610315610b76565b604051610322919061402d565b60405180910390f35b34801561033757600080fd5b50610340610b9c565b6040516103509493929190614150565b60405180910390f35b34801561036557600080fd5b50610380600480360381019061037b919061419c565b610c68565b005b34801561038e57600080fd5b506103a960048036038101906103a49190613dd3565b610d3c565b005b3480156103b757600080fd5b506103d260048036038101906103cd9190613ed9565b610dfc565b6040516103e39594939291906141d8565b60405180910390f35b3480156103f857600080fd5b50610413600480360381019061040e9190614239565b610f52565b005b34801561042157600080fd5b5061043c60048036038101906104379190614239565b610fb2565b005b34801561044a57600080fd5b5061046560048036038101906104609190613ed9565b610fd2565b60405161047998979695949392919061428c565b60405180910390f35b34801561048e57600080fd5b5061049761113a565b6040516104a49190614339565b60405180910390f35b3480156104b957600080fd5b506104c2611160565b005b3480156104d057600080fd5b506104eb60048036038101906104e69190613ed9565b611387565b6040516104f89190613f47565b60405180910390f35b34801561050d57600080fd5b50610516611438565b6040516105239190614354565b60405180910390f35b34801561053857600080fd5b50610553600480360381019061054e919061419c565b61143e565b6040516105609190614354565b60405180910390f35b34801561057557600080fd5b50610590600480360381019061058b9190613f8e565b6114f5565b60405161059d9190614354565b60405180910390f35b3480156105b257600080fd5b506105cd60048036038101906105c89190613ed9565b611526565b6040516105e198979695949392919061428c565b60405180910390f35b3480156105f657600080fd5b50610611600480360381019061060c9190613ed9565b61167e565b005b34801561061f57600080fd5b50610628611718565b6040516106399594939291906141d8565b60405180910390f35b34801561064e57600080fd5b5061065761184c565b6040516106649190614354565b60405180910390f35b34801561067957600080fd5b50610682611852565b60405161068f9190613f47565b60405180910390f35b3480156106a457600080fd5b506106ad611878565b6040516106ba9190613eb7565b60405180910390f35b3480156106cf57600080fd5b506106ea60048036038101906106e5919061439b565b61190a565b005b3480156106f857600080fd5b50610713600480360381019061070e9190613ed9565b611920565b005b34801561072157600080fd5b5061073c60048036038101906107379190614490565b6119ba565b005b34801561074a57600080fd5b50610753611a1c565b6040516107609190614354565b60405180910390f35b34801561077557600080fd5b50610790600480360381019061078b9190613ed9565b611a22565b60405161079d9190613eb7565b60405180910390f35b3480156107b257600080fd5b506107cd60048036038101906107c89190614549565b611c77565b005b3480156107db57600080fd5b506107e4611e63565b005b3480156107f257600080fd5b506107fb61210f565b604051610808919061476e565b60405180910390f35b6108196122cf565b005b34801561082757600080fd5b50610842600480360381019061083d9190614790565b6123cf565b60405161084f9190613c29565b60405180910390f35b60007f80ac58cd000000000000000000000000000000000000000000000000000000007bffffffffffffffffffffffffffffffffffffffffffffffffffffffff1916827bffffffffffffffffffffffffffffffffffffffffffffffffffffffff1916148061092357507f5b5e139f000000000000000000000000000000000000000000000000000000007bffffffffffffffffffffffffffffffffffffffffffffffffffffffff1916827bffffffffffffffffffffffffffffffffffffffffffffffffffffffff1916145b80610933575061093282612479565b5b9050919050565b61094482826124e3565b5050565b606060008054610957906147ff565b80601f0160208091040260200160405190810160405280929190818152602001828054610983906147ff565b80156109d05780601f106109a5576101008083540402835291602001916109d0565b820191906000526020600020905b8154815290600101906020018083116109b357829003601f168201915b5050505050905090565b60006109e5826125f3565b610a24576040517f08c379a0000000000000000000000000000000000000000000000000000000008152600401610a1b906148a2565b60405180910390fd5b6004600083815260200190815260200160002060009054906101000a900473ffffffffffffffffffffffffffffffffffffffff169050919050565b6000610a6a82611387565b90508073ffffffffffffffffffffffffffffffffffffffff168373ffffffffffffffffffffffffffffffffffffffff1603610ada576040517f08c379a0000000000000000000000000000000000000000000000000000000008152600401610ad190614934565b60405180910390fd5b8073ffffffffffffffffffffffffffffffffffffffff16610af961265f565b73ffffffffffffffffffffffffffffffffffffffff161480610b285750610b2781610b2261265f565b6123cf565b5b610b67576040517f08c379a0000000000000000000000000000000000000000000000000000000008152600401610b5e906149c6565b60405180910390fd5b610b718383612667565b505050565b600760009054906101000a900473ffffffffffffffffffffffffffffffffffffffff1681565b60008060006060600760009054906101000a900473ffffffffffffffffffffffffffffffffffffffff1673ffffffffffffffffffffffffffffffffffffffff1663a47c7696600c60009054906101000a900467ffffffffffffffff166040518263ffffffff1660e01b8152600401610c1491906149e6565b600060405180830381865afa158015610c31573d6000803e3d6000fd5b505050506040513d6000823e3d601f19601f82011682018060405250810190610c5a9190614b31565b935093509350935090919293565b601760009054906101000a900473ffffffffffffffffffffffffffffffffffffffff1673ffffffffffffffffffffffffffffffffffffffff163373ffffffffffffffffffffffffffffffffffffffff1614610cf8576040517f08c379a0000000000000000000000000000000000000000000000000000000008152600401610cef90614c00565b60405180910390fd5b80601760006101000a81548173ffffffffffffffffffffffffffffffffffffffff021916908373ffffffffffffffffffffffffffffffffffffffff16021790555050565b7f000000000000000000000000000000000000000000000000000000000000000073ffffffffffffffffffffffffffffffffffffffff163373ffffffffffffffffffffffffffffffffffffffff1614610dee57337f00000000000000000000000000000000000000000000000000000000000000006040517f1cf993f4000000000000000000000000000000000000000000000000000000008152600401610de5929190614c20565b60405180910390fd5b610df882826124e3565b5050565b60118181548110610e0c57600080fd5b9060005260206000209060050201600091509050806000018054610e2f906147ff565b80601f0160208091040260200160405190810160405280929190818152602001828054610e5b906147ff565b8015610ea85780601f10610e7d57610100808354040283529160200191610ea8565b820191906000526020600020905b815481529060010190602001808311610e8b57829003601f168201915b505050505090806001018054610ebd906147ff565b80601f0160208091040260200160405190810160405280929190818152602001828054610ee9906147ff565b8015610f365780601f10610f0b57610100808354040283529160200191610f36565b820191906000526020600020905b815481529060010190602001808311610f1957829003601f168201915b5050505050908060020154908060030154908060040154905085565b610f63610f5d61265f565b82612720565b610fa2576040517f08c379a0000000000000000000000000000000000000000000000000000000008152600401610f9990614cbb565b60405180910390fd5b610fad8383836127fe565b505050565b610fcd838383604051806020016040528060008152506119ba565b505050565b600e8181548110610fe257600080fd5b906000526020600020906008020160009150905080600001549080600101805461100b906147ff565b80601f0160208091040260200160405190810160405280929190818152602001828054611037906147ff565b80156110845780601f1061105957610100808354040283529160200191611084565b820191906000526020600020905b81548152906001019060200180831161106757829003601f168201915b505050505090806002018054611099906147ff565b80601f01602080910402602001604051908101604052809291908181526020018280546110c5906147ff565b80156111125780601f106110e757610100808354040283529160200191611112565b820191906000526020600020905b8154815290600101906020018083116110f557829003601f168201915b5050505050908060030154908060040154908060050154908060060154908060070154905088565b600860009054906101000a900473ffffffffffffffffffffffffffffffffffffffff1681565b601760009054906101000a900473ffffffffffffffffffffffffffffffffffffffff1673ffffffffffffffffffffffffffffffffffffffff163373ffffffffffffffffffffffffffffffffffffffff16146111f0576040517f08c379a00000000000000000000000000000000000000000000000000000000081526004016111e790614c00565b60405180910390fd5b600860009054906101000a900473ffffffffffffffffffffffffffffffffffffffff1673ffffffffffffffffffffffffffffffffffffffff16634000aea0600960009054906101000a900473ffffffffffffffffffffffffffffffffffffffff16600860009054906101000a900473ffffffffffffffffffffffffffffffffffffffff1673ffffffffffffffffffffffffffffffffffffffff166370a08231306040518263ffffffff1660e01b81526004016112ac9190613f47565b602060405180830381865afa1580156112c9573d6000803e3d6000fd5b505050506040513d601f19601f820116820180604052508101906112ed9190614cf0565b600c60009054906101000a900467ffffffffffffffff1660405160200161131491906149e6565b6040516020818303038152906040526040518463ffffffff1660e01b815260040161134193929190614d72565b6020604051808303816000875af1158015611360573d6000803e3d6000fd5b505050506040513d601f19601f820116820180604052508101906113849190614dc5565b50565b6000806002600084815260200190815260200160002060009054906101000a900473ffffffffffffffffffffffffffffffffffffffff169050600073ffffffffffffffffffffffffffffffffffffffff168173ffffffffffffffffffffffffffffffffffffffff160361142f576040517f08c379a000000000000000000000000000000000000000000000000000000000815260040161142690614e64565b60405180910390fd5b80915050919050565b601a5481565b60008073ffffffffffffffffffffffffffffffffffffffff168273ffffffffffffffffffffffffffffffffffffffff16036114ae576040517f08c379a00000000000000000000000000000000000000000000000000000000081526004016114a590614ef6565b60405180910390fd5b600360008373ffffffffffffffffffffffffffffffffffffffff1673ffffffffffffffffffffffffffffffffffffffff168152602001908152602001600020549050919050565b600f602052816000526040600020818154811061151157600080fd5b90600052602060002001600091509150505481565b601060205280600052604060002060009150905080600001549080600101805461154f906147ff565b80601f016020809104026020016040519081016040528092919081815260200182805461157b906147ff565b80156115c85780601f1061159d576101008083540402835291602001916115c8565b820191906000526020600020905b8154815290600101906020018083116115ab57829003601f168201915b5050505050908060020180546115dd906147ff565b80601f0160208091040260200160405190810160405280929190818152602001828054611609906147ff565b80156116565780601f1061162b57610100808354040283529160200191611656565b820191906000526020600020905b81548152906001019060200180831161163957829003601f168201915b5050505050908060030154908060040154908060050154908060060154908060070154905088565b601760009054906101000a900473ffffffffffffffffffffffffffffffffffffffff1673ffffffffffffffffffffffffffffffffffffffff163373ffffffffffffffffffffffffffffffffffffffff161461170e576040517f08c379a000000000000000000000000000000000000000000000000000000000815260040161170590614c00565b60405180910390fd5b8060198190555050565b6012806000018054611729906147ff565b80601f0160208091040260200160405190810160405280929190818152602001828054611755906147ff565b80156117a25780601f10611777576101008083540402835291602001916117a2565b820191906000526020600020905b81548152906001019060200180831161178557829003601f168201915b5050505050908060010180546117b7906147ff565b80601f01602080910402602001604051908101604052809291908181526020018280546117e3906147ff565b80156118305780601f1061180557610100808354040283529160200191611830565b820191906000526020600020905b81548152906001019060200180831161181357829003601f168201915b5050505050908060020154908060030154908060040154905085565b60185481565b601760009054906101000a900473ffffffffffffffffffffffffffffffffffffffff1681565b606060018054611887906147ff565b80601f01602080910402602001604051908101604052809291908181526020018280546118b3906147ff565b80156119005780601f106118d557610100808354040283529160200191611900565b820191906000526020600020905b8154815290600101906020018083116118e357829003601f168201915b5050505050905090565b61191c61191561265f565b8383612a64565b5050565b601760009054906101000a900473ffffffffffffffffffffffffffffffffffffffff1673ffffffffffffffffffffffffffffffffffffffff163373ffffffffffffffffffffffffffffffffffffffff16146119b0576040517f08c379a00000000000000000000000000000000000000000000000000000000081526004016119a790614c00565b60405180910390fd5b8060188190555050565b6119cb6119c561265f565b83612720565b611a0a576040517f08c379a0000000000000000000000000000000000000000000000000000000008152600401611a0190614cbb565b60405180910390fd5b611a1684848484612bd0565b50505050565b60195481565b60606000601060008481526020019081526020016000206040518061010001604052908160008201548152602001600182018054611a5f906147ff565b80601f0160208091040260200160405190810160405280929190818152602001828054611a8b906147ff565b8015611ad85780601f10611aad57610100808354040283529160200191611ad8565b820191906000526020600020905b815481529060010190602001808311611abb57829003601f168201915b50505050508152602001600282018054611af1906147ff565b80601f0160208091040260200160405190810160405280929190818152602001828054611b1d906147ff565b8015611b6a5780601f10611b3f57610100808354040283529160200191611b6a565b820191906000526020600020905b815481529060010190602001808311611b4d57829003601f168201915b505050505081526020016003820154815260200160048201548152602001600582015481526020016006820154815260200160078201548152505090506000611c4c8260200151611bba86612c2c565b8460400151611bcc8660600151612c2c565b611bd98760800151612c2c565b611be68860a00151612c2c565b611bf06032612c2c565b611bfd8a60c00151612c2c565b611c076032612c2c565b611c148c60e00151612c2c565b611c1e6032612c2c565b604051602001611c389b9a999897969594939291906152e2565b604051602081830303815290604052612d8c565b905080604051602001611c5f919061544b565b60405160208183030381529060405292505050919050565b601760009054906101000a900473ffffffffffffffffffffffffffffffffffffffff1673ffffffffffffffffffffffffffffffffffffffff163373ffffffffffffffffffffffffffffffffffffffff1614611d07576040517f08c379a0000000000000000000000000000000000000000000000000000000008152600401611cfe90614c00565b60405180910390fd5b82600960006101000a81548173ffffffffffffffffffffffffffffffffffffffff021916908373ffffffffffffffffffffffffffffffffffffffff16021790555081600a60006101000a81548173ffffffffffffffffffffffffffffffffffffffff021916908373ffffffffffffffffffffffffffffffffffffffff16021790555080600b81905550600960009054906101000a900473ffffffffffffffffffffffffffffffffffffffff16600760006101000a81548173ffffffffffffffffffffffffffffffffffffffff021916908373ffffffffffffffffffffffffffffffffffffffff160217905550600a60009054906101000a900473ffffffffffffffffffffffffffffffffffffffff16600860006101000a81548173ffffffffffffffffffffffffffffffffffffffff021916908373ffffffffffffffffffffffffffffffffffffffff160217905550611e5e612f23565b505050565b6000600f60003373ffffffffffffffffffffffffffffffffffffffff1673ffffffffffffffffffffffffffffffffffffffff1681526020019081526020016000209050611f7e6040518060400160405280601b81526020017f426f73732025732068617320257320485020616e64202573204144000000000081525060126000018054611eef906147ff565b80601f0160208091040260200160405190810160405280929190818152602001828054611f1b906147ff565b8015611f685780601f10611f3d57610100808354040283529160200191611f68565b820191906000526020600020905b815481529060010190602001808311611f4b57829003601f168201915b5050505050601260020154601260040154613085565b60005b818054905081101561210b57600060106000848481548110611fa657611fa561546d565b5b906000526020600020015481526020019081526020016000209050612079604051806060016040528060268152602001615dbb60269139826001018054611fec906147ff565b80601f0160208091040260200160405190810160405280929190818152602001828054612018906147ff565b80156120655780601f1061203a57610100808354040283529160200191612065565b820191906000526020600020905b81548152906001019060200180831161204857829003601f168201915b505050505083600301548460050154613085565b8060050154601260020154101561209a5760006012600201819055506120b9565b80600501546012600201546120af91906154cb565b6012600201819055505b601260040154816003015410156120d957600081600301819055506120f7565b60126004015481600301546120ee91906154cb565b81600301819055505b508080612103906154ff565b915050611f81565b5050565b6060600e805480602002602001604051908101604052809291908181526020016000905b828210156122c657838290600052602060002090600802016040518061010001604052908160008201548152602001600182018054612171906147ff565b80601f016020809104026020016040519081016040528092919081815260200182805461219d906147ff565b80156121ea5780601f106121bf576101008083540402835291602001916121ea565b820191906000526020600020905b8154815290600101906020018083116121cd57829003601f168201915b50505050508152602001600282018054612203906147ff565b80601f016020809104026020016040519081016040528092919081815260200182805461222f906147ff565b801561227c5780601f106122515761010080835404028352916020019161227c565b820191906000526020600020905b81548152906001019060200180831161225f57829003601f168201915b505050505081526020016003820154815260200160048201548152602001600582015481526020016006820154815260200160078201548152505081526020019060010190612133565b50505050905090565b6000600f60003373ffffffffffffffffffffffffffffffffffffffff1673ffffffffffffffffffffffffffffffffffffffff168152602001908152602001600020905060185481805490501061235a576040517f08c379a0000000000000000000000000000000000000000000000000000000008152600401612351906155b9565b60405180910390fd5b600060195411156123aa5760195434146123a9576040517f08c379a00000000000000000000000000000000000000000000000000000000081526004016123a090615625565b60405180910390fd5b5b60006123b66006613127565b90506123c181613135565b6123cb6006612463565b5050565b6000600560008473ffffffffffffffffffffffffffffffffffffffff1673ffffffffffffffffffffffffffffffffffffffff16815260200190815260200160002060008373ffffffffffffffffffffffffffffffffffffffff1673ffffffffffffffffffffffffffffffffffffffff16815260200190815260200160002060009054906101000a900460ff16905092915050565b6001816000016000828254019250508190555050565b60007f01ffc9a7000000000000000000000000000000000000000000000000000000007bffffffffffffffffffffffffffffffffffffffffffffffffffffffff1916827bffffffffffffffffffffffffffffffffffffffffffffffffffffffff1916149050919050565b6000600d60008481526020019081526020016000206040518060400160405290816000820160009054906101000a900473ffffffffffffffffffffffffffffffffffffffff1673ffffffffffffffffffffffffffffffffffffffff1673ffffffffffffffffffffffffffffffffffffffff1681526020016001820154815250509050600d6000848152602001908152602001600020600080820160006101000a81549073ffffffffffffffffffffffffffffffffffffffff0219169055600182016000905550506000600e80549050836000815181106125c6576125c561546d565b5b60200260200101516125d89190615674565b90506125ed8260000151836020015183613299565b50505050565b60008073ffffffffffffffffffffffffffffffffffffffff166002600084815260200190815260200160002060009054906101000a900473ffffffffffffffffffffffffffffffffffffffff1673ffffffffffffffffffffffffffffffffffffffff1614159050919050565b600033905090565b816004600083815260200190815260200160002060006101000a81548173ffffffffffffffffffffffffffffffffffffffff021916908373ffffffffffffffffffffffffffffffffffffffff160217905550808273ffffffffffffffffffffffffffffffffffffffff166126da83611387565b73ffffffffffffffffffffffffffffffffffffffff167f8c5be1e5ebec7d5bd14f71427d1e84f3dd0314c0f7b2291e5b200ac8c7c3b92560405160405180910390a45050565b600061272b826125f3565b61276a576040517f08c379a000000000000000000000000000000000000000000000000000000000815260040161276190615717565b60405180910390fd5b600061277583611387565b90508073ffffffffffffffffffffffffffffffffffffffff168473ffffffffffffffffffffffffffffffffffffffff1614806127e457508373ffffffffffffffffffffffffffffffffffffffff166127cc846109da565b73ffffffffffffffffffffffffffffffffffffffff16145b806127f557506127f481856123cf565b5b91505092915050565b8273ffffffffffffffffffffffffffffffffffffffff1661281e82611387565b73ffffffffffffffffffffffffffffffffffffffff1614612874576040517f08c379a000000000000000000000000000000000000000000000000000000000815260040161286b906157a9565b60405180910390fd5b600073ffffffffffffffffffffffffffffffffffffffff168273ffffffffffffffffffffffffffffffffffffffff16036128e3576040517f08c379a00000000000000000000000000000000000000000000000000000000081526004016128da9061583b565b60405180910390fd5b6128ee83838361360a565b6128f9600082612667565b6001600360008573ffffffffffffffffffffffffffffffffffffffff1673ffffffffffffffffffffffffffffffffffffffff168152602001908152602001600020600082825461294991906154cb565b925050819055506001600360008473ffffffffffffffffffffffffffffffffffffffff1673ffffffffffffffffffffffffffffffffffffffff16815260200190815260200160002060008282546129a0919061585b565b92505081905550816002600083815260200190815260200160002060006101000a81548173ffffffffffffffffffffffffffffffffffffffff021916908373ffffffffffffffffffffffffffffffffffffffff160217905550808273ffffffffffffffffffffffffffffffffffffffff168473ffffffffffffffffffffffffffffffffffffffff167fddf252ad1be2c89b69c2b068fc378daa952ba7f163c4a11628f55a4df523b3ef60405160405180910390a4612a5f83838361360f565b505050565b8173ffffffffffffffffffffffffffffffffffffffff168373ffffffffffffffffffffffffffffffffffffffff1603612ad2576040517f08c379a0000000000000000000000000000000000000000000000000000000008152600401612ac9906158fd565b60405180910390fd5b80600560008573ffffffffffffffffffffffffffffffffffffffff1673ffffffffffffffffffffffffffffffffffffffff16815260200190815260200160002060008473ffffffffffffffffffffffffffffffffffffffff1673ffffffffffffffffffffffffffffffffffffffff16815260200190815260200160002060006101000a81548160ff0219169083151502179055508173ffffffffffffffffffffffffffffffffffffffff168373ffffffffffffffffffffffffffffffffffffffff167f17307eab39ab6107e8899845ad3d59bd9653f200f220920489ca2b5937696c3183604051612bc39190613c29565b60405180910390a3505050565b612bdb8484846127fe565b612be784848484613614565b612c26576040517f08c379a0000000000000000000000000000000000000000000000000000000008152600401612c1d9061598f565b60405180910390fd5b50505050565b606060008203612c73576040518060400160405280600181526020017f30000000000000000000000000000000000000000000000000000000000000008152509050612d87565b600082905060005b60008214612ca5578080612c8e906154ff565b915050600a82612c9e91906159af565b9150612c7b565b60008167ffffffffffffffff811115612cc157612cc0613c90565b5b6040519080825280601f01601f191660200182016040528015612cf35781602001600182028036833780820191505090505b5090505b60008514612d8057600182612d0c91906154cb565b9150600a85612d1b9190615674565b6030612d27919061585b565b60f81b818381518110612d3d57612d3c61546d565b5b60200101907effffffffffffffffffffffffffffffffffffffffffffffffffffffffffffff1916908160001a905350600a85612d7991906159af565b9450612cf7565b8093505050505b919050565b606060008251905060008103612db45760405180602001604052806000815250915050612f1e565b60006003600283612dc5919061585b565b612dcf91906159af565b6004612ddb91906159e0565b90506000602082612dec919061585b565b67ffffffffffffffff811115612e0557612e04613c90565b5b6040519080825280601f01601f191660200182016040528015612e375781602001600182028036833780820191505090505b5090506000604051806060016040528060408152602001615d7b604091399050600181016020830160005b86811015612edb5760038101905062ffffff818a015116603f8160121c168401518060081b905060ff603f83600c1c1686015116810190508060081b905060ff603f8360061c1686015116810190508060081b905060ff603f831686015116810190508060e01b90508084526004840193505050612e62565b506003860660018114612ef55760028114612f0557612f10565b613d3d60f01b6002830352612f10565b603d60f81b60018303525b508484525050819450505050505b919050565b600760009054906101000a900473ffffffffffffffffffffffffffffffffffffffff1673ffffffffffffffffffffffffffffffffffffffff1663a21a23e46040518163ffffffff1660e01b81526004016020604051808303816000875af1158015612f92573d6000803e3d6000fd5b505050506040513d601f19601f82011682018060405250810190612fb69190615a3a565b600c60006101000a81548167ffffffffffffffff021916908367ffffffffffffffff160217905550600760009054906101000a900473ffffffffffffffffffffffffffffffffffffffff1673ffffffffffffffffffffffffffffffffffffffff16637341c10c600c60009054906101000a900467ffffffffffffffff16306040518363ffffffff1660e01b8152600401613051929190615a67565b600060405180830381600087803b15801561306b57600080fd5b505af115801561307f573d6000803e3d6000fd5b50505050565b6131218484848460405160240161309f9493929190615a90565b6040516020818303038152906040527fd5cf17d0000000000000000000000000000000000000000000000000000000007bffffffffffffffffffffffffffffffffffffffffffffffffffffffff19166020820180517bffffffffffffffffffffffffffffffffffffffffffffffffffffffff838183161783525050505061379b565b50505050565b600081600001549050919050565b6000600760009054906101000a900473ffffffffffffffffffffffffffffffffffffffff1673ffffffffffffffffffffffffffffffffffffffff16635d3b1d30600b54600c60009054906101000a900467ffffffffffffffff1660036203d09060016040518663ffffffff1660e01b81526004016131b7959493929190615bc1565b6020604051808303816000875af11580156131d6573d6000803e3d6000fd5b505050506040513d601f19601f820116820180604052508101906131fa9190614cf0565b905080601a8190555060405180604001604052803373ffffffffffffffffffffffffffffffffffffffff16815260200183815250600d600083815260200190815260200160002060008201518160000160006101000a81548173ffffffffffffffffffffffffffffffffffffffff021916908373ffffffffffffffffffffffffffffffffffffffff160217905550602082015181600101559050505050565b6132d76040518060400160405280600c81526020017f46756c66696c6c204d696e7400000000000000000000000000000000000000008152506137c4565b6000600e82815481106132ed576132ec61546d565b5b90600052602060002090600802016040518061010001604052908160008201548152602001600182018054613321906147ff565b80601f016020809104026020016040519081016040528092919081815260200182805461334d906147ff565b801561339a5780601f1061336f5761010080835404028352916020019161339a565b820191906000526020600020905b81548152906001019060200180831161337d57829003601f168201915b505050505081526020016002820180546133b3906147ff565b80601f01602080910402602001604051908101604052809291908181526020018280546133df906147ff565b801561342c5780601f106134015761010080835404028352916020019161342c565b820191906000526020600020905b81548152906001019060200180831161340f57829003601f168201915b5050505050815260200160038201548152602001600482015481526020016005820154815260200160068201548152602001600782015481525050905060405180610100016040528082600001518152602001826020015181526020018260400151815260200182606001518152602001826060015181526020018260a0015181526020018260c0015181526020018260e00151815250601060008581526020019081526020016000206000820151816000015560208201518160010190805190602001906134fc929190613ad2565b506040820151816002019080519060200190613519929190613ad2565b50606082015181600301556080820151816004015560a0820151816005015560c0820151816006015560e08201518160070155905050600f60008573ffffffffffffffffffffffffffffffffffffffff1673ffffffffffffffffffffffffffffffffffffffff1681526020019081526020016000208390806001815401808255809150506001900390600052602060002001600090919091909150556135bf848461385d565b81838573ffffffffffffffffffffffffffffffffffffffff167f4c209b5fc8ad50758f13e2e1088ba56a560dff690a1c6fef26394f4c03821c4f60405160405180910390a450505050565b505050565b505050565b60006136358473ffffffffffffffffffffffffffffffffffffffff1661387b565b1561378e578373ffffffffffffffffffffffffffffffffffffffff1663150b7a0261365e61265f565b8786866040518563ffffffff1660e01b81526004016136809493929190615c14565b6020604051808303816000875af19250505080156136bc57506040513d601f19601f820116820180604052508101906136b99190615c75565b60015b61373e573d80600081146136ec576040519150601f19603f3d011682016040523d82523d6000602084013e6136f1565b606091505b506000815103613736576040517f08c379a000000000000000000000000000000000000000000000000000000000815260040161372d9061598f565b60405180910390fd5b805181602001fd5b63150b7a0260e01b7bffffffffffffffffffffffffffffffffffffffffffffffffffffffff1916817bffffffffffffffffffffffffffffffffffffffffffffffffffffffff191614915050613793565b600190505b949350505050565b60008151905060006a636f6e736f6c652e6c6f679050602083016000808483855afa5050505050565b61385a816040516024016137d89190613eb7565b6040516020818303038152906040527f41304fac000000000000000000000000000000000000000000000000000000007bffffffffffffffffffffffffffffffffffffffffffffffffffffffff19166020820180517bffffffffffffffffffffffffffffffffffffffffffffffffffffffff838183161783525050505061379b565b50565b61387782826040518060200160405280600081525061389e565b5050565b6000808273ffffffffffffffffffffffffffffffffffffffff163b119050919050565b6138a883836138f9565b6138b56000848484613614565b6138f4576040517f08c379a00000000000000000000000000000000000000000000000000000000081526004016138eb9061598f565b60405180910390fd5b505050565b600073ffffffffffffffffffffffffffffffffffffffff168273ffffffffffffffffffffffffffffffffffffffff1603613968576040517f08c379a000000000000000000000000000000000000000000000000000000000815260040161395f90615cee565b60405180910390fd5b613971816125f3565b156139b1576040517f08c379a00000000000000000000000000000000000000000000000000000000081526004016139a890615d5a565b60405180910390fd5b6139bd6000838361360a565b6001600360008473ffffffffffffffffffffffffffffffffffffffff1673ffffffffffffffffffffffffffffffffffffffff1681526020019081526020016000206000828254613a0d919061585b565b92505081905550816002600083815260200190815260200160002060006101000a81548173ffffffffffffffffffffffffffffffffffffffff021916908373ffffffffffffffffffffffffffffffffffffffff160217905550808273ffffffffffffffffffffffffffffffffffffffff16600073ffffffffffffffffffffffffffffffffffffffff167fddf252ad1be2c89b69c2b068fc378daa952ba7f163c4a11628f55a4df523b3ef60405160405180910390a4613ace6000838361360f565b5050565b828054613ade906147ff565b90600052602060002090601f016020900481019282613b005760008555613b47565b82601f10613b1957805160ff1916838001178555613b47565b82800160010185558215613b47579182015b82811115613b46578251825591602001919060010190613b2b565b5b509050613b549190613b58565b5090565b5b80821115613b71576000816000905550600101613b59565b5090565b6000604051905090565b600080fd5b600080fd5b60007fffffffff0000000000000000000000000000000000000000000000000000000082169050919050565b613bbe81613b89565b8114613bc957600080fd5b50565b600081359050613bdb81613bb5565b92915050565b600060208284031215613bf757613bf6613b7f565b5b6000613c0584828501613bcc565b91505092915050565b60008115159050919050565b613c2381613c0e565b82525050565b6000602082019050613c3e6000830184613c1a565b92915050565b6000819050919050565b613c5781613c44565b8114613c6257600080fd5b50565b600081359050613c7481613c4e565b92915050565b600080fd5b6000601f19601f8301169050919050565b7f4e487b7100000000000000000000000000000000000000000000000000000000600052604160045260246000fd5b613cc882613c7f565b810181811067ffffffffffffffff82111715613ce757613ce6613c90565b5b80604052505050565b6000613cfa613b75565b9050613d068282613cbf565b919050565b600067ffffffffffffffff821115613d2657613d25613c90565b5b602082029050602081019050919050565b600080fd5b6000613d4f613d4a84613d0b565b613cf0565b90508083825260208201905060208402830185811115613d7257613d71613d37565b5b835b81811015613d9b5780613d878882613c65565b845260208401935050602081019050613d74565b5050509392505050565b600082601f830112613dba57613db9613c7a565b5b8135613dca848260208601613d3c565b91505092915050565b60008060408385031215613dea57613de9613b7f565b5b6000613df885828601613c65565b925050602083013567ffffffffffffffff811115613e1957613e18613b84565b5b613e2585828601613da5565b9150509250929050565b600081519050919050565b600082825260208201905092915050565b60005b83811015613e69578082015181840152602081019050613e4e565b83811115613e78576000848401525b50505050565b6000613e8982613e2f565b613e938185613e3a565b9350613ea3818560208601613e4b565b613eac81613c7f565b840191505092915050565b60006020820190508181036000830152613ed18184613e7e565b905092915050565b600060208284031215613eef57613eee613b7f565b5b6000613efd84828501613c65565b91505092915050565b600073ffffffffffffffffffffffffffffffffffffffff82169050919050565b6000613f3182613f06565b9050919050565b613f4181613f26565b82525050565b6000602082019050613f5c6000830184613f38565b92915050565b613f6b81613f26565b8114613f7657600080fd5b50565b600081359050613f8881613f62565b92915050565b60008060408385031215613fa557613fa4613b7f565b5b6000613fb385828601613f79565b9250506020613fc485828601613c65565b9150509250929050565b6000819050919050565b6000613ff3613fee613fe984613f06565b613fce565b613f06565b9050919050565b600061400582613fd8565b9050919050565b600061401782613ffa565b9050919050565b6140278161400c565b82525050565b6000602082019050614042600083018461401e565b92915050565b60006bffffffffffffffffffffffff82169050919050565b61406981614048565b82525050565b600067ffffffffffffffff82169050919050565b61408c8161406f565b82525050565b600081519050919050565b600082825260208201905092915050565b6000819050602082019050919050565b6140c781613f26565b82525050565b60006140d983836140be565b60208301905092915050565b6000602082019050919050565b60006140fd82614092565b614107818561409d565b9350614112836140ae565b8060005b8381101561414357815161412a88826140cd565b9750614135836140e5565b925050600181019050614116565b5085935050505092915050565b60006080820190506141656000830187614060565b6141726020830186614083565b61417f6040830185613f38565b818103606083015261419181846140f2565b905095945050505050565b6000602082840312156141b2576141b1613b7f565b5b60006141c084828501613f79565b91505092915050565b6141d281613c44565b82525050565b600060a08201905081810360008301526141f28188613e7e565b905081810360208301526142068187613e7e565b905061421560408301866141c9565b61422260608301856141c9565b61422f60808301846141c9565b9695505050505050565b60008060006060848603121561425257614251613b7f565b5b600061426086828701613f79565b935050602061427186828701613f79565b925050604061428286828701613c65565b9150509250925092565b6000610100820190506142a2600083018b6141c9565b81810360208301526142b4818a613e7e565b905081810360408301526142c88189613e7e565b90506142d760608301886141c9565b6142e460808301876141c9565b6142f160a08301866141c9565b6142fe60c08301856141c9565b61430b60e08301846141c9565b9998505050505050505050565b600061432382613ffa565b9050919050565b61433381614318565b82525050565b600060208201905061434e600083018461432a565b92915050565b600060208201905061436960008301846141c9565b92915050565b61437881613c0e565b811461438357600080fd5b50565b6000813590506143958161436f565b92915050565b600080604083850312156143b2576143b1613b7f565b5b60006143c085828601613f79565b92505060206143d185828601614386565b9150509250929050565b600080fd5b600067ffffffffffffffff8211156143fb576143fa613c90565b5b61440482613c7f565b9050602081019050919050565b82818337600083830152505050565b600061443361442e846143e0565b613cf0565b90508281526020810184848401111561444f5761444e6143db565b5b61445a848285614411565b509392505050565b600082601f83011261447757614476613c7a565b5b8135614487848260208601614420565b91505092915050565b600080600080608085870312156144aa576144a9613b7f565b5b60006144b887828801613f79565b94505060206144c987828801613f79565b93505060406144da87828801613c65565b925050606085013567ffffffffffffffff8111156144fb576144fa613b84565b5b61450787828801614462565b91505092959194509250565b6000819050919050565b61452681614513565b811461453157600080fd5b50565b6000813590506145438161451d565b92915050565b60008060006060848603121561456257614561613b7f565b5b600061457086828701613f79565b935050602061458186828701613f79565b925050604061459286828701614534565b9150509250925092565b600081519050919050565b600082825260208201905092915050565b6000819050602082019050919050565b6145d181613c44565b82525050565b600082825260208201905092915050565b60006145f382613e2f565b6145fd81856145d7565b935061460d818560208601613e4b565b61461681613c7f565b840191505092915050565b60006101008301600083015161463a60008601826145c8565b506020830151848203602086015261465282826145e8565b9150506040830151848203604086015261466c82826145e8565b915050606083015161468160608601826145c8565b50608083015161469460808601826145c8565b5060a08301516146a760a08601826145c8565b5060c08301516146ba60c08601826145c8565b5060e08301516146cd60e08601826145c8565b508091505092915050565b60006146e48383614621565b905092915050565b6000602082019050919050565b60006147048261459c565b61470e81856145a7565b935083602082028501614720856145b8565b8060005b8581101561475c578484038952815161473d85826146d8565b9450614748836146ec565b925060208a01995050600181019050614724565b50829750879550505050505092915050565b6000602082019050818103600083015261478881846146f9565b905092915050565b600080604083850312156147a7576147a6613b7f565b5b60006147b585828601613f79565b92505060206147c685828601613f79565b9150509250929050565b7f4e487b7100000000000000000000000000000000000000000000000000000000600052602260045260246000fd5b6000600282049050600182168061481757607f821691505b60208210810361482a576148296147d0565b5b50919050565b7f4552433732313a20617070726f76656420717565727920666f72206e6f6e657860008201527f697374656e7420746f6b656e0000000000000000000000000000000000000000602082015250565b600061488c602c83613e3a565b915061489782614830565b604082019050919050565b600060208201905081810360008301526148bb8161487f565b9050919050565b7f4552433732313a20617070726f76616c20746f2063757272656e74206f776e6560008201527f7200000000000000000000000000000000000000000000000000000000000000602082015250565b600061491e602183613e3a565b9150614929826148c2565b604082019050919050565b6000602082019050818103600083015261494d81614911565b9050919050565b7f4552433732313a20617070726f76652063616c6c6572206973206e6f74206f7760008201527f6e6572206e6f7220617070726f76656420666f7220616c6c0000000000000000602082015250565b60006149b0603883613e3a565b91506149bb82614954565b604082019050919050565b600060208201905081810360008301526149df816149a3565b9050919050565b60006020820190506149fb6000830184614083565b92915050565b614a0a81614048565b8114614a1557600080fd5b50565b600081519050614a2781614a01565b92915050565b614a368161406f565b8114614a4157600080fd5b50565b600081519050614a5381614a2d565b92915050565b600081519050614a6881613f62565b92915050565b600067ffffffffffffffff821115614a8957614a88613c90565b5b602082029050602081019050919050565b6000614aad614aa884614a6e565b613cf0565b90508083825260208201905060208402830185811115614ad057614acf613d37565b5b835b81811015614af95780614ae58882614a59565b845260208401935050602081019050614ad2565b5050509392505050565b600082601f830112614b1857614b17613c7a565b5b8151614b28848260208601614a9a565b91505092915050565b60008060008060808587031215614b4b57614b4a613b7f565b5b6000614b5987828801614a18565b9450506020614b6a87828801614a44565b9350506040614b7b87828801614a59565b925050606085015167ffffffffffffffff811115614b9c57614b9b613b84565b5b614ba887828801614b03565b91505092959194509250565b7f43616c6c6572206d757374206265206f776e6572000000000000000000000000600082015250565b6000614bea601483613e3a565b9150614bf582614bb4565b602082019050919050565b60006020820190508181036000830152614c1981614bdd565b9050919050565b6000604082019050614c356000830185613f38565b614c426020830184613f38565b9392505050565b7f4552433732313a207472616e736665722063616c6c6572206973206e6f74206f60008201527f776e6572206e6f7220617070726f766564000000000000000000000000000000602082015250565b6000614ca5603183613e3a565b9150614cb082614c49565b604082019050919050565b60006020820190508181036000830152614cd481614c98565b9050919050565b600081519050614cea81613c4e565b92915050565b600060208284031215614d0657614d05613b7f565b5b6000614d1484828501614cdb565b91505092915050565b600081519050919050565b600082825260208201905092915050565b6000614d4482614d1d565b614d4e8185614d28565b9350614d5e818560208601613e4b565b614d6781613c7f565b840191505092915050565b6000606082019050614d876000830186613f38565b614d9460208301856141c9565b8181036040830152614da68184614d39565b9050949350505050565b600081519050614dbf8161436f565b92915050565b600060208284031215614ddb57614dda613b7f565b5b6000614de984828501614db0565b91505092915050565b7f4552433732313a206f776e657220717565727920666f72206e6f6e657869737460008201527f656e7420746f6b656e0000000000000000000000000000000000000000000000602082015250565b6000614e4e602983613e3a565b9150614e5982614df2565b604082019050919050565b60006020820190508181036000830152614e7d81614e41565b9050919050565b7f4552433732313a2062616c616e636520717565727920666f7220746865207a6560008201527f726f206164647265737300000000000000000000000000000000000000000000602082015250565b6000614ee0602a83613e3a565b9150614eeb82614e84565b604082019050919050565b60006020820190508181036000830152614f0f81614ed3565b9050919050565b600081905092915050565b7f7b226e616d65223a202200000000000000000000000000000000000000000000600082015250565b6000614f57600a83614f16565b9150614f6282614f21565b600a82019050919050565b6000614f7882613e2f565b614f828185614f16565b9350614f92818560208601613e4b565b80840191505092915050565b7f202d2d204e465420233a20000000000000000000000000000000000000000000600082015250565b6000614fd4600b83614f16565b9150614fdf82614f9e565b600b82019050919050565b7f222c20226465736372697074696f6e223a202241204865726f204e465420746860008201527f6174206c65747320796f7520706c6179204d6f6e7374657220536c617965722160208201527f222c2022696d616765223a202200000000000000000000000000000000000000604082015250565b600061506c604d83614f16565b915061507782614fea565b604d82019050919050565b7f222c20224865726f223a205b207b202274726169745f74797065223a2022486560008201527f616c746820506f696e7473222c202276616c7565223a20000000000000000000602082015250565b60006150de603783614f16565b91506150e982615082565b603782019050919050565b7f2c20226d61785f76616c7565223a000000000000000000000000000000000000600082015250565b600061512a600e83614f16565b9150615135826150f4565b600e82019050919050565b7f7d2c207b202274726169745f74797065223a202241747461636b2044616d616760008201527f65222c202276616c7565223a2000000000000000000000000000000000000000602082015250565b600061519c602d83614f16565b91506151a782615140565b602d82019050919050565b7f7d2c207b202274726169745f74797065223a2022437269746963616c2044616d60008201527f616765204368616e6365222c202276616c7565223a2000000000000000000000602082015250565b600061520e603683614f16565b9150615219826151b2565b603682019050919050565b7f7d2c207b202274726169745f74797065223a20224865616c696e6720506f776560008201527f72222c202276616c7565223a2000000000000000000000000000000000000000602082015250565b6000615280602d83614f16565b915061528b82615224565b602d82019050919050565b7f7d205d7d00000000000000000000000000000000000000000000000000000000600082015250565b60006152cc600483614f16565b91506152d782615296565b600482019050919050565b60006152ed82614f4a565b91506152f9828e614f6d565b915061530482614fc7565b9150615310828d614f6d565b915061531b8261505f565b9150615327828c614f6d565b9150615332826150d1565b915061533e828b614f6d565b91506153498261511d565b9150615355828a614f6d565b91506153608261518f565b915061536c8289614f6d565b91506153778261511d565b91506153838288614f6d565b915061538e82615201565b915061539a8287614f6d565b91506153a58261511d565b91506153b18286614f6d565b91506153bc82615273565b91506153c88285614f6d565b91506153d38261511d565b91506153df8284614f6d565b91506153ea826152bf565b91508190509c9b505050505050505050505050565b7f646174613a6170706c69636174696f6e2f6a736f6e3b6261736536342c000000600082015250565b6000615435601d83614f16565b9150615440826153ff565b601d82019050919050565b600061545682615428565b91506154628284614f6d565b915081905092915050565b7f4e487b7100000000000000000000000000000000000000000000000000000000600052603260045260246000fd5b7f4e487b7100000000000000000000000000000000000000000000000000000000600052601160045260246000fd5b60006154d682613c44565b91506154e183613c44565b9250828210156154f4576154f361549c565b5b828203905092915050565b600061550a82613c44565b91507fffffffffffffffffffffffffffffffffffffffffffffffffffffffffffffffff820361553c5761553b61549c565b5b600182019050919050565b7f546869732061646472657373206861732072656163686564206d6178696d756d60008201527f204e465420616d6f756e74000000000000000000000000000000000000000000602082015250565b60006155a3602b83613e3a565b91506155ae82615547565b604082019050919050565b600060208201905081810360008301526155d281615596565b9050919050565b7f5061796d656e74206973206e6f7420636f727265637400000000000000000000600082015250565b600061560f601683613e3a565b915061561a826155d9565b602082019050919050565b6000602082019050818103600083015261563e81615602565b9050919050565b7f4e487b7100000000000000000000000000000000000000000000000000000000600052601260045260246000fd5b600061567f82613c44565b915061568a83613c44565b92508261569a57615699615645565b5b828206905092915050565b7f4552433732313a206f70657261746f7220717565727920666f72206e6f6e657860008201527f697374656e7420746f6b656e0000000000000000000000000000000000000000602082015250565b6000615701602c83613e3a565b915061570c826156a5565b604082019050919050565b60006020820190508181036000830152615730816156f4565b9050919050565b7f4552433732313a207472616e736665722066726f6d20696e636f72726563742060008201527f6f776e6572000000000000000000000000000000000000000000000000000000602082015250565b6000615793602583613e3a565b915061579e82615737565b604082019050919050565b600060208201905081810360008301526157c281615786565b9050919050565b7f4552433732313a207472616e7366657220746f20746865207a65726f2061646460008201527f7265737300000000000000000000000000000000000000000000000000000000602082015250565b6000615825602483613e3a565b9150615830826157c9565b604082019050919050565b6000602082019050818103600083015261585481615818565b9050919050565b600061586682613c44565b915061587183613c44565b9250827fffffffffffffffffffffffffffffffffffffffffffffffffffffffffffffffff038211156158a6576158a561549c565b5b828201905092915050565b7f4552433732313a20617070726f766520746f2063616c6c657200000000000000600082015250565b60006158e7601983613e3a565b91506158f2826158b1565b602082019050919050565b60006020820190508181036000830152615916816158da565b9050919050565b7f4552433732313a207472616e7366657220746f206e6f6e20455243373231526560008201527f63656976657220696d706c656d656e7465720000000000000000000000000000602082015250565b6000615979603283613e3a565b91506159848261591d565b604082019050919050565b600060208201905081810360008301526159a88161596c565b9050919050565b60006159ba82613c44565b91506159c583613c44565b9250826159d5576159d4615645565b5b828204905092915050565b60006159eb82613c44565b91506159f683613c44565b9250817fffffffffffffffffffffffffffffffffffffffffffffffffffffffffffffffff0483118215151615615a2f57615a2e61549c565b5b828202905092915050565b600060208284031215615a5057615a4f613b7f565b5b6000615a5e84828501614a44565b91505092915050565b6000604082019050615a7c6000830185614083565b615a896020830184613f38565b9392505050565b60006080820190508181036000830152615aaa8187613e7e565b90508181036020830152615abe8186613e7e565b9050615acd60408301856141c9565b615ada60608301846141c9565b95945050505050565b615aec81614513565b82525050565b6000819050919050565b600061ffff82169050919050565b6000615b25615b20615b1b84615af2565b613fce565b615afc565b9050919050565b615b3581615b0a565b82525050565b6000819050919050565b600063ffffffff82169050919050565b6000615b70615b6b615b6684615b3b565b613fce565b615b45565b9050919050565b615b8081615b55565b82525050565b6000819050919050565b6000615bab615ba6615ba184615b86565b613fce565b615b45565b9050919050565b615bbb81615b90565b82525050565b600060a082019050615bd66000830188615ae3565b615be36020830187614083565b615bf06040830186615b2c565b615bfd6060830185615b77565b615c0a6080830184615bb2565b9695505050505050565b6000608082019050615c296000830187613f38565b615c366020830186613f38565b615c4360408301856141c9565b8181036060830152615c558184614d39565b905095945050505050565b600081519050615c6f81613bb5565b92915050565b600060208284031215615c8b57615c8a613b7f565b5b6000615c9984828501615c60565b91505092915050565b7f4552433732313a206d696e7420746f20746865207a65726f2061646472657373600082015250565b6000615cd8602083613e3a565b9150615ce382615ca2565b602082019050919050565b60006020820190508181036000830152615d0781615ccb565b9050919050565b7f4552433732313a20746f6b656e20616c7265616479206d696e74656400000000600082015250565b6000615d44601c83613e3a565b9150615d4f82615d0e565b602082019050919050565b60006020820190508181036000830152615d7381615d37565b905091905056fe4142434445464748494a4b4c4d4e4f505152535455565758595a6162636465666768696a6b6c6d6e6f707172737475767778797a303132333435363738392b2f4865726f2025732061747461636b696e672c2068617320257320485020616e64202573204144a26469706673582212201e4ac761d666d5058945e8ba7d90ceb4ccd829f7b31a403960640b336c765b4b64736f6c634300080d0033",
  "linkReferences": {},
  "deployedLinkReferences": {}
}