{
  "_format": "hh-sol-artifact-1",
  "contractName": "Game",
  "sourceName": "contracts/Game.sol",
  "abi": [
    {
      "inputs": [
        {
          "internalType": "string[]",
          "name": "names",
          "type": "string[]"
        },
        {
          "internalType": "string[]",
          "name": "imageUris",
          "type": "string[]"
        },
        {
          "internalType": "uint256[]",
          "name": "hps",
          "type": "uint256[]"
        },
        {
          "internalType": "uint256[]",
          "name": "damages",
          "type": "uint256[]"
        },
        {
          "internalType": "uint256[]",
          "name": "crits",
          "type": "uint256[]"
        },
        {
          "internalType": "uint256[]",
          "name": "heals",
          "type": "uint256[]"
        },
        {
          "internalType": "string[]",
          "name": "bossNames",
          "type": "string[]"
        },
        {
          "internalType": "string[]",
          "name": "bossImageUris",
          "type": "string[]"
        },
        {
          "internalType": "uint256[]",
          "name": "bossHps",
          "type": "uint256[]"
        },
        {
          "internalType": "uint256[]",
          "name": "bossDamage",
          "type": "uint256[]"
        }
      ],
      "stateMutability": "nonpayable",
      "type": "constructor"
    },
    {
      "inputs": [
        {
          "internalType": "address",
          "name": "have",
          "type": "address"
        },
        {
          "internalType": "address",
          "name": "want",
          "type": "address"
        }
      ],
      "name": "OnlyCoordinatorCanFulfill",
      "type": "error"
    },
    {
      "anonymous": false,
      "inputs": [
        {
          "indexed": true,
          "internalType": "address",
          "name": "owner",
          "type": "address"
        },
        {
          "indexed": true,
          "internalType": "address",
          "name": "approved",
          "type": "address"
        },
        {
          "indexed": true,
          "internalType": "uint256",
          "name": "tokenId",
          "type": "uint256"
        }
      ],
      "name": "Approval",
      "type": "event"
    },
    {
      "anonymous": false,
      "inputs": [
        {
          "indexed": true,
          "internalType": "address",
          "name": "owner",
          "type": "address"
        },
        {
          "indexed": true,
          "internalType": "address",
          "name": "operator",
          "type": "address"
        },
        {
          "indexed": false,
          "internalType": "bool",
          "name": "approved",
          "type": "bool"
        }
      ],
      "name": "ApprovalForAll",
      "type": "event"
    },
    {
      "anonymous": false,
      "inputs": [
        {
          "indexed": true,
          "internalType": "address",
          "name": "from",
          "type": "address"
        },
        {
          "indexed": true,
          "internalType": "address",
          "name": "to",
          "type": "address"
        },
        {
          "indexed": true,
          "internalType": "uint256",
          "name": "tokenId",
          "type": "uint256"
        }
      ],
      "name": "Transfer",
      "type": "event"
    },
    {
      "inputs": [
        {
          "internalType": "address",
          "name": "to",
          "type": "address"
        },
        {
          "internalType": "uint256",
          "name": "tokenId",
          "type": "uint256"
        }
      ],
      "name": "approve",
      "outputs": [],
      "stateMutability": "nonpayable",
      "type": "function"
    },
    {
      "inputs": [
        {
          "internalType": "address",
          "name": "owner",
          "type": "address"
        }
      ],
      "name": "balanceOf",
      "outputs": [
        {
          "internalType": "uint256",
          "name": "",
          "type": "uint256"
        }
      ],
      "stateMutability": "view",
      "type": "function"
    },
    {
      "inputs": [
        {
          "internalType": "uint256",
          "name": "",
          "type": "uint256"
        }
      ],
      "name": "bosses",
      "outputs": [
        {
          "internalType": "string",
          "name": "name",
          "type": "string"
        },
        {
          "internalType": "string",
          "name": "imageUri",
          "type": "string"
        },
        {
          "internalType": "uint256",
          "name": "hp",
          "type": "uint256"
        },
        {
          "internalType": "uint256",
          "name": "maxHp",
          "type": "uint256"
        },
        {
          "internalType": "uint256",
          "name": "damage",
          "type": "uint256"
        }
      ],
      "stateMutability": "view",
      "type": "function"
    },
    {
      "inputs": [],
      "name": "coordinator",
      "outputs": [
        {
          "internalType": "contract VRFCoordinatorV2Interface",
          "name": "",
          "type": "address"
        }
      ],
      "stateMutability": "view",
      "type": "function"
    },
    {
      "inputs": [],
      "name": "currentBoss",
      "outputs": [
        {
          "internalType": "string",
          "name": "name",
          "type": "string"
        },
        {
          "internalType": "string",
          "name": "imageUri",
          "type": "string"
        },
        {
          "internalType": "uint256",
          "name": "hp",
          "type": "uint256"
        },
        {
          "internalType": "uint256",
          "name": "maxHp",
          "type": "uint256"
        },
        {
          "internalType": "uint256",
          "name": "damage",
          "type": "uint256"
        }
      ],
      "stateMutability": "view",
      "type": "function"
    },
    {
      "inputs": [
        {
          "internalType": "uint256",
          "name": "",
          "type": "uint256"
        }
      ],
      "name": "defaultAttributes",
      "outputs": [
        {
          "internalType": "uint256",
          "name": "index",
          "type": "uint256"
        },
        {
          "internalType": "string",
          "name": "name",
          "type": "string"
        },
        {
          "internalType": "string",
          "name": "imageUri",
          "type": "string"
        },
        {
          "internalType": "uint256",
          "name": "hp",
          "type": "uint256"
        },
        {
          "internalType": "uint256",
          "name": "maxHp",
          "type": "uint256"
        },
        {
          "internalType": "uint256",
          "name": "damage",
          "type": "uint256"
        },
        {
          "internalType": "uint256",
          "name": "crit",
          "type": "uint256"
        },
        {
          "internalType": "uint256",
          "name": "heal",
          "type": "uint256"
        }
      ],
      "stateMutability": "view",
      "type": "function"
    },
    {
      "inputs": [
        {
          "internalType": "uint256",
          "name": "linkAmount",
          "type": "uint256"
        }
      ],
      "name": "fundSubscription",
      "outputs": [],
      "stateMutability": "nonpayable",
      "type": "function"
    },
    {
      "inputs": [
        {
          "internalType": "uint256",
          "name": "tokenId",
          "type": "uint256"
        }
      ],
      "name": "getApproved",
      "outputs": [
        {
          "internalType": "address",
          "name": "",
          "type": "address"
        }
      ],
      "stateMutability": "view",
      "type": "function"
    },
    {
      "inputs": [
        {
          "internalType": "address",
          "name": "owner",
          "type": "address"
        },
        {
          "internalType": "address",
          "name": "operator",
          "type": "address"
        }
      ],
      "name": "isApprovedForAll",
      "outputs": [
        {
          "internalType": "bool",
          "name": "",
          "type": "bool"
        }
      ],
      "stateMutability": "view",
      "type": "function"
    },
    {
      "inputs": [],
      "name": "linkToken",
      "outputs": [
        {
          "internalType": "contract LinkTokenInterface",
          "name": "",
          "type": "address"
        }
      ],
      "stateMutability": "view",
      "type": "function"
    },
    {
      "inputs": [],
      "name": "mintCost",
      "outputs": [
        {
          "internalType": "uint256",
          "name": "",
          "type": "uint256"
        }
      ],
      "stateMutability": "view",
      "type": "function"
    },
    {
      "inputs": [],
      "name": "mintHero",
      "outputs": [],
      "stateMutability": "payable",
      "type": "function"
    },
    {
      "inputs": [],
      "name": "name",
      "outputs": [
        {
          "internalType": "string",
          "name": "",
          "type": "string"
        }
      ],
      "stateMutability": "view",
      "type": "function"
    },
    {
      "inputs": [
        {
          "internalType": "uint256",
          "name": "",
          "type": "uint256"
        }
      ],
      "name": "nftAttributes",
      "outputs": [
        {
          "internalType": "uint256",
          "name": "index",
          "type": "uint256"
        },
        {
          "internalType": "string",
          "name": "name",
          "type": "string"
        },
        {
          "internalType": "string",
          "name": "imageUri",
          "type": "string"
        },
        {
          "internalType": "uint256",
          "name": "hp",
          "type": "uint256"
        },
        {
          "internalType": "uint256",
          "name": "maxHp",
          "type": "uint256"
        },
        {
          "internalType": "uint256",
          "name": "damage",
          "type": "uint256"
        },
        {
          "internalType": "uint256",
          "name": "crit",
          "type": "uint256"
        },
        {
          "internalType": "uint256",
          "name": "heal",
          "type": "uint256"
        }
      ],
      "stateMutability": "view",
      "type": "function"
    },
    {
      "inputs": [
        {
          "internalType": "address",
          "name": "",
          "type": "address"
        },
        {
          "internalType": "uint256",
          "name": "",
          "type": "uint256"
        }
      ],
      "name": "nftHolders",
      "outputs": [
        {
          "internalType": "uint256",
          "name": "",
          "type": "uint256"
        }
      ],
      "stateMutability": "view",
      "type": "function"
    },
    {
      "inputs": [],
      "name": "owner",
      "outputs": [
        {
          "internalType": "address",
          "name": "",
          "type": "address"
        }
      ],
      "stateMutability": "view",
      "type": "function"
    },
    {
      "inputs": [
        {
          "internalType": "uint256",
          "name": "tokenId",
          "type": "uint256"
        }
      ],
      "name": "ownerOf",
      "outputs": [
        {
          "internalType": "address",
          "name": "",
          "type": "address"
        }
      ],
      "stateMutability": "view",
      "type": "function"
    },
    {
      "inputs": [
        {
          "internalType": "uint256",
          "name": "requestId",
          "type": "uint256"
        },
        {
          "internalType": "uint256[]",
          "name": "randomWords",
          "type": "uint256[]"
        }
      ],
      "name": "rawFulfillRandomWords",
      "outputs": [],
      "stateMutability": "nonpayable",
      "type": "function"
    },
    {
      "inputs": [
        {
          "internalType": "address",
          "name": "from",
          "type": "address"
        },
        {
          "internalType": "address",
          "name": "to",
          "type": "address"
        },
        {
          "internalType": "uint256",
          "name": "tokenId",
          "type": "uint256"
        }
      ],
      "name": "safeTransferFrom",
      "outputs": [],
      "stateMutability": "nonpayable",
      "type": "function"
    },
    {
      "inputs": [
        {
          "internalType": "address",
          "name": "from",
          "type": "address"
        },
        {
          "internalType": "address",
          "name": "to",
          "type": "address"
        },
        {
          "internalType": "uint256",
          "name": "tokenId",
          "type": "uint256"
        },
        {
          "internalType": "bytes",
          "name": "_data",
          "type": "bytes"
        }
      ],
      "name": "safeTransferFrom",
      "outputs": [],
      "stateMutability": "nonpayable",
      "type": "function"
    },
    {
      "inputs": [
        {
          "internalType": "address",
          "name": "operator",
          "type": "address"
        },
        {
          "internalType": "bool",
          "name": "approved",
          "type": "bool"
        }
      ],
      "name": "setApprovalForAll",
      "outputs": [],
      "stateMutability": "nonpayable",
      "type": "function"
    },
    {
      "inputs": [
        {
          "internalType": "uint256",
          "name": "_mintCost",
          "type": "uint256"
        }
      ],
      "name": "setMintCost",
      "outputs": [],
      "stateMutability": "nonpayable",
      "type": "function"
    },
    {
      "inputs": [
        {
          "internalType": "address",
          "name": "_owner",
          "type": "address"
        }
      ],
      "name": "setOwner",
      "outputs": [],
      "stateMutability": "nonpayable",
      "type": "function"
    },
    {
      "inputs": [
        {
          "internalType": "bytes4",
          "name": "interfaceId",
          "type": "bytes4"
        }
      ],
      "name": "supportsInterface",
      "outputs": [
        {
          "internalType": "bool",
          "name": "",
          "type": "bool"
        }
      ],
      "stateMutability": "view",
      "type": "function"
    },
    {
      "inputs": [],
      "name": "symbol",
      "outputs": [
        {
          "internalType": "string",
          "name": "",
          "type": "string"
        }
      ],
      "stateMutability": "view",
      "type": "function"
    },
    {
      "inputs": [
        {
          "internalType": "uint256",
          "name": "tokenId",
          "type": "uint256"
        }
      ],
      "name": "tokenURI",
      "outputs": [
        {
          "internalType": "string",
          "name": "",
          "type": "string"
        }
      ],
      "stateMutability": "view",
      "type": "function"
    },
    {
      "inputs": [
        {
          "internalType": "address",
          "name": "from",
          "type": "address"
        },
        {
          "internalType": "address",
          "name": "to",
          "type": "address"
        },
        {
          "internalType": "uint256",
          "name": "tokenId",
          "type": "uint256"
        }
      ],
      "name": "transferFrom",
      "outputs": [],
      "stateMutability": "nonpayable",
      "type": "function"
    }
  ],
  "bytecode": "0x60a060405273271682deb8c4e0901d1a1550ad2e64d568e69909600860006101000a81548173ffffffffffffffffffffffffffffffffffffffff021916908373ffffffffffffffffffffffffffffffffffffffff16021790555073514910771af9ca656af840dff83e8264ecf986ca600960006101000a81548173ffffffffffffffffffffffffffffffffffffffff021916908373ffffffffffffffffffffffffffffffffffffffff1602179055507fff8dedfbfa60af186cf3c830acbc32c05aae823045ae5ea7da1e45fbfaba4f9260001b600a556000601755348015620000e757600080fd5b5060405162005c4538038062005c4583398181016040528101906200010d919062000d33565b600860009054906101000a900473ffffffffffffffffffffffffffffffffffffffff166040518060400160405280600681526020017f4865726f657300000000000000000000000000000000000000000000000000008152506040518060400160405280600481526020017f4865726f000000000000000000000000000000000000000000000000000000008152508160009080519060200190620001b4929190620008d9565b508060019080519060200190620001cd929190620008d9565b5050508073ffffffffffffffffffffffffffffffffffffffff1660808173ffffffffffffffffffffffffffffffffffffffff16815250505088518a5114801562000218575087518951145b801562000226575086518851145b801562000234575085518751145b801562000242575084518651145b62000284576040517f08c379a00000000000000000000000000000000000000000000000000000000081526004016200027b9062000fe6565b60405180910390fd5b8251845114801562000297575081518351145b8015620002a5575080518251145b620002e7576040517f08c379a0000000000000000000000000000000000000000000000000000000008152600401620002de906200107e565b60405180910390fd5b60005b84518110156200044b5760116040518060a00160405280878481518110620003175762000316620010a0565b5b602002602001015181526020018684815181106200033a5762000339620010a0565b5b602002602001015181526020018584815181106200035d576200035c620010a0565b5b6020026020010151815260200184848151811062000380576200037f620010a0565b5b60200260200101518152602001848481518110620003a357620003a2620010a0565b5b602002602001015181525090806001815401808255809150506001900390600052602060002090600502016000909190919091506000820151816000019080519060200190620003f5929190620008d9565b50602082015181600101908051906020019062000414929190620008d9565b50604082015181600201556060820151816003015560808201518160040155505080806200044290620010fe565b915050620002ea565b5060005b8a518110156200061b57600e6040518061010001604052808381526020018d8481518110620004835762000482620010a0565b5b602002602001015181526020018c8481518110620004a657620004a5620010a0565b5b602002602001015181526020018b8481518110620004c957620004c8620010a0565b5b602002602001015181526020018b8481518110620004ec57620004eb620010a0565b5b602002602001015181526020018a84815181106200050f576200050e620010a0565b5b60200260200101518152602001898481518110620005325762000531620010a0565b5b60200260200101518152602001888481518110620005555762000554620010a0565b5b60200260200101518152509080600181540180825580915050600190039060005260206000209060080201600090919091909150600082015181600001556020820151816001019080519060200190620005b1929190620008d9565b506040820151816002019080519060200190620005d0929190620008d9565b50606082015181600301556080820151816004015560a0820151816005015560c0820151816006015560e08201518160070155505080806200061290620010fe565b9150506200044f565b5062000633600d6200075a60201b620019d41760201c565b33601860006101000a81548173ffffffffffffffffffffffffffffffffffffffff021916908373ffffffffffffffffffffffffffffffffffffffff160217905550600860009054906101000a900473ffffffffffffffffffffffffffffffffffffffff16600660006101000a81548173ffffffffffffffffffffffffffffffffffffffff021916908373ffffffffffffffffffffffffffffffffffffffff160217905550600960009054906101000a900473ffffffffffffffffffffffffffffffffffffffff16600760006101000a81548173ffffffffffffffffffffffffffffffffffffffff021916908373ffffffffffffffffffffffffffffffffffffffff1602179055506200074a6200077060201b60201c565b50505050505050505050620012a9565b6001816000016000828254019250508190555050565b600660009054906101000a900473ffffffffffffffffffffffffffffffffffffffff1673ffffffffffffffffffffffffffffffffffffffff1663a21a23e46040518163ffffffff1660e01b81526004016020604051808303816000875af1158015620007e0573d6000803e3d6000fd5b505050506040513d601f19601f8201168201806040525081019062000806919062001190565b600b60006101000a81548167ffffffffffffffff021916908367ffffffffffffffff160217905550600660009054906101000a900473ffffffffffffffffffffffffffffffffffffffff1673ffffffffffffffffffffffffffffffffffffffff16637341c10c600b60009054906101000a900467ffffffffffffffff16306040518363ffffffff1660e01b8152600401620008a392919062001218565b600060405180830381600087803b158015620008be57600080fd5b505af1158015620008d3573d6000803e3d6000fd5b50505050565b828054620008e79062001274565b90600052602060002090601f0160209004810192826200090b576000855562000957565b82601f106200092657805160ff191683800117855562000957565b8280016001018555821562000957579182015b828111156200095657825182559160200191906001019062000939565b5b5090506200096691906200096a565b5090565b5b80821115620009855760008160009055506001016200096b565b5090565b6000604051905090565b600080fd5b600080fd5b600080fd5b6000601f19601f8301169050919050565b7f4e487b7100000000000000000000000000000000000000000000000000000000600052604160045260246000fd5b620009ed82620009a2565b810181811067ffffffffffffffff8211171562000a0f5762000a0e620009b3565b5b80604052505050565b600062000a2462000989565b905062000a328282620009e2565b919050565b600067ffffffffffffffff82111562000a555762000a54620009b3565b5b602082029050602081019050919050565b600080fd5b600080fd5b600067ffffffffffffffff82111562000a8e5762000a8d620009b3565b5b62000a9982620009a2565b9050602081019050919050565b60005b8381101562000ac657808201518184015260208101905062000aa9565b8381111562000ad6576000848401525b50505050565b600062000af362000aed8462000a70565b62000a18565b90508281526020810184848401111562000b125762000b1162000a6b565b5b62000b1f84828562000aa6565b509392505050565b600082601f83011262000b3f5762000b3e6200099d565b5b815162000b5184826020860162000adc565b91505092915050565b600062000b7162000b6b8462000a37565b62000a18565b9050808382526020820190506020840283018581111562000b975762000b9662000a66565b5b835b8181101562000be557805167ffffffffffffffff81111562000bc05762000bbf6200099d565b5b80860162000bcf898262000b27565b8552602085019450505060208101905062000b99565b5050509392505050565b600082601f83011262000c075762000c066200099d565b5b815162000c1984826020860162000b5a565b91505092915050565b600067ffffffffffffffff82111562000c405762000c3f620009b3565b5b602082029050602081019050919050565b6000819050919050565b62000c668162000c51565b811462000c7257600080fd5b50565b60008151905062000c868162000c5b565b92915050565b600062000ca362000c9d8462000c22565b62000a18565b9050808382526020820190506020840283018581111562000cc95762000cc862000a66565b5b835b8181101562000cf6578062000ce1888262000c75565b84526020840193505060208101905062000ccb565b5050509392505050565b600082601f83011262000d185762000d176200099d565b5b815162000d2a84826020860162000c8c565b91505092915050565b6000806000806000806000806000806101408b8d03121562000d5a5762000d5962000993565b5b60008b015167ffffffffffffffff81111562000d7b5762000d7a62000998565b5b62000d898d828e0162000bef565b9a505060208b015167ffffffffffffffff81111562000dad5762000dac62000998565b5b62000dbb8d828e0162000bef565b99505060408b015167ffffffffffffffff81111562000ddf5762000dde62000998565b5b62000ded8d828e0162000d00565b98505060608b015167ffffffffffffffff81111562000e115762000e1062000998565b5b62000e1f8d828e0162000d00565b97505060808b015167ffffffffffffffff81111562000e435762000e4262000998565b5b62000e518d828e0162000d00565b96505060a08b015167ffffffffffffffff81111562000e755762000e7462000998565b5b62000e838d828e0162000d00565b95505060c08b015167ffffffffffffffff81111562000ea75762000ea662000998565b5b62000eb58d828e0162000bef565b94505060e08b015167ffffffffffffffff81111562000ed95762000ed862000998565b5b62000ee78d828e0162000bef565b9350506101008b015167ffffffffffffffff81111562000f0c5762000f0b62000998565b5b62000f1a8d828e0162000d00565b9250506101208b015167ffffffffffffffff81111562000f3f5762000f3e62000998565b5b62000f4d8d828e0162000d00565b9150509295989b9194979a5092959850565b600082825260208201905092915050565b7f4f6e65206f662074686520676976656e204e46542064656661756c742061727260008201527f617973206973206f6464206c656e677468000000000000000000000000000000602082015250565b600062000fce60318362000f5f565b915062000fdb8262000f70565b604082019050919050565b60006020820190508181036000830152620010018162000fbf565b9050919050565b7f4f6e65206f662074686520676976656e20626f73732064656661756c7420617260008201527f72617973206973206f6464206c656e6774680000000000000000000000000000602082015250565b60006200106660328362000f5f565b9150620010738262001008565b604082019050919050565b60006020820190508181036000830152620010998162001057565b9050919050565b7f4e487b7100000000000000000000000000000000000000000000000000000000600052603260045260246000fd5b7f4e487b7100000000000000000000000000000000000000000000000000000000600052601160045260246000fd5b60006200110b8262000c51565b91507fffffffffffffffffffffffffffffffffffffffffffffffffffffffffffffffff820362001140576200113f620010cf565b5b600182019050919050565b600067ffffffffffffffff82169050919050565b6200116a816200114b565b81146200117657600080fd5b50565b6000815190506200118a816200115f565b92915050565b600060208284031215620011a957620011a862000993565b5b6000620011b98482850162001179565b91505092915050565b620011cd816200114b565b82525050565b600073ffffffffffffffffffffffffffffffffffffffff82169050919050565b60006200120082620011d3565b9050919050565b6200121281620011f3565b82525050565b60006040820190506200122f6000830185620011c2565b6200123e602083018462001207565b9392505050565b7f4e487b7100000000000000000000000000000000000000000000000000000000600052602260045260246000fd5b600060028204905060018216806200128d57607f821691505b602082108103620012a357620012a262001245565b5b50919050565b608051614979620012cc60003960008181610acd0152610b2101526149796000f3fe60806040526004361061019c5760003560e01c806370a08231116100ec578063b88d4fde1161008a578063c87b56dd11610064578063c87b56dd146105f9578063d4b5d60314610636578063e92003371461067a578063e985e9c5146106845761019c565b8063b88d4fde1461057c578063bdb4b848146105a5578063c1060653146105d05761019c565b8063856f8c35116100c6578063856f8c35146104ce5780638da5cb5b146104fd57806395d89b4114610528578063a22cb465146105535761019c565b806370a082311461042b578063775bb50e146104685780638545f4ea146104a55761019c565b80631fe543e31161015957806342842e0e1161013357806342842e0e1461035657806357970e931461037f5780636352211e146103aa5780636a908152146103e75761019c565b80631fe543e3146102c3578063204597e0146102ec57806323b872dd1461032d5761019c565b806301ffc9a7146101a157806306fdde03146101de578063081812fc14610209578063095ea7b3146102465780630a0090971461026f57806313af40351461029a575b600080fd5b3480156101ad57600080fd5b506101c860048036038101906101c39190612dfc565b6106c1565b6040516101d59190612e44565b60405180910390f35b3480156101ea57600080fd5b506101f36107a3565b6040516102009190612ef8565b60405180910390f35b34801561021557600080fd5b50610230600480360381019061022b9190612f50565b610835565b60405161023d9190612fbe565b60405180910390f35b34801561025257600080fd5b5061026d60048036038101906102689190613005565b6108ba565b005b34801561027b57600080fd5b506102846109d1565b60405161029191906130a4565b60405180910390f35b3480156102a657600080fd5b506102c160048036038101906102bc91906130bf565b6109f7565b005b3480156102cf57600080fd5b506102ea60048036038101906102e59190613234565b610acb565b005b3480156102f857600080fd5b50610313600480360381019061030e9190612f50565b610b8b565b60405161032495949392919061329f565b60405180910390f35b34801561033957600080fd5b50610354600480360381019061034f9190613300565b610ce1565b005b34801561036257600080fd5b5061037d60048036038101906103789190613300565b610d41565b005b34801561038b57600080fd5b50610394610d61565b6040516103a19190613374565b60405180910390f35b3480156103b657600080fd5b506103d160048036038101906103cc9190612f50565b610d87565b6040516103de9190612fbe565b60405180910390f35b3480156103f357600080fd5b5061040e60048036038101906104099190612f50565b610e38565b60405161042298979695949392919061338f565b60405180910390f35b34801561043757600080fd5b50610452600480360381019061044d91906130bf565b610fa0565b60405161045f919061341b565b60405180910390f35b34801561047457600080fd5b5061048f600480360381019061048a9190613005565b611057565b60405161049c919061341b565b60405180910390f35b3480156104b157600080fd5b506104cc60048036038101906104c79190612f50565b611088565b005b3480156104da57600080fd5b506104e3611122565b6040516104f495949392919061329f565b60405180910390f35b34801561050957600080fd5b50610512611256565b60405161051f9190612fbe565b60405180910390f35b34801561053457600080fd5b5061053d61127c565b60405161054a9190612ef8565b60405180910390f35b34801561055f57600080fd5b5061057a60048036038101906105759190613462565b61130e565b005b34801561058857600080fd5b506105a3600480360381019061059e9190613557565b611324565b005b3480156105b157600080fd5b506105ba611386565b6040516105c7919061341b565b60405180910390f35b3480156105dc57600080fd5b506105f760048036038101906105f29190612f50565b61138c565b005b34801561060557600080fd5b50610620600480360381019061061b9190612f50565b611519565b60405161062d9190612ef8565b60405180910390f35b34801561064257600080fd5b5061065d60048036038101906106589190612f50565b611774565b60405161067198979695949392919061338f565b60405180910390f35b6106826118cc565b005b34801561069057600080fd5b506106ab60048036038101906106a691906135da565b611940565b6040516106b89190612e44565b60405180910390f35b60007f80ac58cd000000000000000000000000000000000000000000000000000000007bffffffffffffffffffffffffffffffffffffffffffffffffffffffff1916827bffffffffffffffffffffffffffffffffffffffffffffffffffffffff1916148061078c57507f5b5e139f000000000000000000000000000000000000000000000000000000007bffffffffffffffffffffffffffffffffffffffffffffffffffffffff1916827bffffffffffffffffffffffffffffffffffffffffffffffffffffffff1916145b8061079c575061079b826119ea565b5b9050919050565b6060600080546107b290613649565b80601f01602080910402602001604051908101604052809291908181526020018280546107de90613649565b801561082b5780601f106108005761010080835404028352916020019161082b565b820191906000526020600020905b81548152906001019060200180831161080e57829003601f168201915b5050505050905090565b600061084082611a54565b61087f576040517f08c379a0000000000000000000000000000000000000000000000000000000008152600401610876906136ec565b60405180910390fd5b6004600083815260200190815260200160002060009054906101000a900473ffffffffffffffffffffffffffffffffffffffff169050919050565b60006108c582610d87565b90508073ffffffffffffffffffffffffffffffffffffffff168373ffffffffffffffffffffffffffffffffffffffff1603610935576040517f08c379a000000000000000000000000000000000000000000000000000000000815260040161092c9061377e565b60405180910390fd5b8073ffffffffffffffffffffffffffffffffffffffff16610954611ac0565b73ffffffffffffffffffffffffffffffffffffffff16148061098357506109828161097d611ac0565b611940565b5b6109c2576040517f08c379a00000000000000000000000000000000000000000000000000000000081526004016109b990613810565b60405180910390fd5b6109cc8383611ac8565b505050565b600660009054906101000a900473ffffffffffffffffffffffffffffffffffffffff1681565b601860009054906101000a900473ffffffffffffffffffffffffffffffffffffffff1673ffffffffffffffffffffffffffffffffffffffff163373ffffffffffffffffffffffffffffffffffffffff1614610a87576040517f08c379a0000000000000000000000000000000000000000000000000000000008152600401610a7e9061387c565b60405180910390fd5b80601860006101000a81548173ffffffffffffffffffffffffffffffffffffffff021916908373ffffffffffffffffffffffffffffffffffffffff16021790555050565b7f000000000000000000000000000000000000000000000000000000000000000073ffffffffffffffffffffffffffffffffffffffff163373ffffffffffffffffffffffffffffffffffffffff1614610b7d57337f00000000000000000000000000000000000000000000000000000000000000006040517f1cf993f4000000000000000000000000000000000000000000000000000000008152600401610b7492919061389c565b60405180910390fd5b610b878282611b81565b5050565b60118181548110610b9b57600080fd5b9060005260206000209060050201600091509050806000018054610bbe90613649565b80601f0160208091040260200160405190810160405280929190818152602001828054610bea90613649565b8015610c375780601f10610c0c57610100808354040283529160200191610c37565b820191906000526020600020905b815481529060010190602001808311610c1a57829003601f168201915b505050505090806001018054610c4c90613649565b80601f0160208091040260200160405190810160405280929190818152602001828054610c7890613649565b8015610cc55780601f10610c9a57610100808354040283529160200191610cc5565b820191906000526020600020905b815481529060010190602001808311610ca857829003601f168201915b5050505050908060020154908060030154908060040154905085565b610cf2610cec611ac0565b82611c91565b610d31576040517f08c379a0000000000000000000000000000000000000000000000000000000008152600401610d2890613937565b60405180910390fd5b610d3c838383611d6f565b505050565b610d5c83838360405180602001604052806000815250611324565b505050565b600760009054906101000a900473ffffffffffffffffffffffffffffffffffffffff1681565b6000806002600084815260200190815260200160002060009054906101000a900473ffffffffffffffffffffffffffffffffffffffff169050600073ffffffffffffffffffffffffffffffffffffffff168173ffffffffffffffffffffffffffffffffffffffff1603610e2f576040517f08c379a0000000000000000000000000000000000000000000000000000000008152600401610e26906139c9565b60405180910390fd5b80915050919050565b600e8181548110610e4857600080fd5b9060005260206000209060080201600091509050806000015490806001018054610e7190613649565b80601f0160208091040260200160405190810160405280929190818152602001828054610e9d90613649565b8015610eea5780601f10610ebf57610100808354040283529160200191610eea565b820191906000526020600020905b815481529060010190602001808311610ecd57829003601f168201915b505050505090806002018054610eff90613649565b80601f0160208091040260200160405190810160405280929190818152602001828054610f2b90613649565b8015610f785780601f10610f4d57610100808354040283529160200191610f78565b820191906000526020600020905b815481529060010190602001808311610f5b57829003601f168201915b5050505050908060030154908060040154908060050154908060060154908060070154905088565b60008073ffffffffffffffffffffffffffffffffffffffff168273ffffffffffffffffffffffffffffffffffffffff1603611010576040517f08c379a000000000000000000000000000000000000000000000000000000000815260040161100790613a5b565b60405180910390fd5b600360008373ffffffffffffffffffffffffffffffffffffffff1673ffffffffffffffffffffffffffffffffffffffff168152602001908152602001600020549050919050565b6010602052816000526040600020818154811061107357600080fd5b90600052602060002001600091509150505481565b601860009054906101000a900473ffffffffffffffffffffffffffffffffffffffff1673ffffffffffffffffffffffffffffffffffffffff163373ffffffffffffffffffffffffffffffffffffffff1614611118576040517f08c379a000000000000000000000000000000000000000000000000000000000815260040161110f9061387c565b60405180910390fd5b8060178190555050565b601280600001805461113390613649565b80601f016020809104026020016040519081016040528092919081815260200182805461115f90613649565b80156111ac5780601f10611181576101008083540402835291602001916111ac565b820191906000526020600020905b81548152906001019060200180831161118f57829003601f168201915b5050505050908060010180546111c190613649565b80601f01602080910402602001604051908101604052809291908181526020018280546111ed90613649565b801561123a5780601f1061120f5761010080835404028352916020019161123a565b820191906000526020600020905b81548152906001019060200180831161121d57829003601f168201915b5050505050908060020154908060030154908060040154905085565b601860009054906101000a900473ffffffffffffffffffffffffffffffffffffffff1681565b60606001805461128b90613649565b80601f01602080910402602001604051908101604052809291908181526020018280546112b790613649565b80156113045780601f106112d957610100808354040283529160200191611304565b820191906000526020600020905b8154815290600101906020018083116112e757829003601f168201915b5050505050905090565b611320611319611ac0565b8383611fd5565b5050565b61133561132f611ac0565b83611c91565b611374576040517f08c379a000000000000000000000000000000000000000000000000000000000815260040161136b90613937565b60405180910390fd5b61138084848484612141565b50505050565b60175481565b601860009054906101000a900473ffffffffffffffffffffffffffffffffffffffff1673ffffffffffffffffffffffffffffffffffffffff163373ffffffffffffffffffffffffffffffffffffffff161461141c576040517f08c379a00000000000000000000000000000000000000000000000000000000081526004016114139061387c565b60405180910390fd5b600760009054906101000a900473ffffffffffffffffffffffffffffffffffffffff1673ffffffffffffffffffffffffffffffffffffffff16634000aea0600860009054906101000a900473ffffffffffffffffffffffffffffffffffffffff1683600b60009054906101000a900467ffffffffffffffff166040516020016114a59190613a9e565b6040516020818303038152906040526040518463ffffffff1660e01b81526004016114d293929190613b0e565b6020604051808303816000875af11580156114f1573d6000803e3d6000fd5b505050506040513d601f19601f820116820180604052508101906115159190613b61565b5050565b60606000600f6000848152602001908152602001600020604051806101000160405290816000820154815260200160018201805461155690613649565b80601f016020809104026020016040519081016040528092919081815260200182805461158290613649565b80156115cf5780601f106115a4576101008083540402835291602001916115cf565b820191906000526020600020905b8154815290600101906020018083116115b257829003601f168201915b505050505081526020016002820180546115e890613649565b80601f016020809104026020016040519081016040528092919081815260200182805461161490613649565b80156116615780601f1061163657610100808354040283529160200191611661565b820191906000526020600020905b81548152906001019060200180831161164457829003601f168201915b50505050508152602001600382015481526020016004820154815260200160058201548152602001600682015481526020016007820154815250509050600061174382602001516116b18661219d565b84604001516116c3866060015161219d565b6116d0876080015161219d565b6116dd8860a0015161219d565b6116e7603261219d565b6116f48a60c0015161219d565b6116fe603261219d565b61170b8c60e0015161219d565b611715603261219d565b60405160200161172f9b9a99989796959493929190613f5a565b6040516020818303038152906040526122fd565b905060008160405160200161175891906140c3565b6040516020818303038152906040529050809350505050919050565b600f60205280600052604060002060009150905080600001549080600101805461179d90613649565b80601f01602080910402602001604051908101604052809291908181526020018280546117c990613649565b80156118165780601f106117eb57610100808354040283529160200191611816565b820191906000526020600020905b8154815290600101906020018083116117f957829003601f168201915b50505050509080600201805461182b90613649565b80601f016020809104026020016040519081016040528092919081815260200182805461185790613649565b80156118a45780601f10611879576101008083540402835291602001916118a4565b820191906000526020600020905b81548152906001019060200180831161188757829003601f168201915b5050505050908060030154908060040154908060050154908060060154908060070154905088565b6000601754111561191c57601754341461191b576040517f08c379a000000000000000000000000000000000000000000000000000000000815260040161191290614131565b60405180910390fd5b5b6000611928600d612494565b9050611933816124a2565b61193d600d6119d4565b50565b6000600560008473ffffffffffffffffffffffffffffffffffffffff1673ffffffffffffffffffffffffffffffffffffffff16815260200190815260200160002060008373ffffffffffffffffffffffffffffffffffffffff1673ffffffffffffffffffffffffffffffffffffffff16815260200190815260200160002060009054906101000a900460ff16905092915050565b6001816000016000828254019250508190555050565b60007f01ffc9a7000000000000000000000000000000000000000000000000000000007bffffffffffffffffffffffffffffffffffffffffffffffffffffffff1916827bffffffffffffffffffffffffffffffffffffffffffffffffffffffff1916149050919050565b60008073ffffffffffffffffffffffffffffffffffffffff166002600084815260200190815260200160002060009054906101000a900473ffffffffffffffffffffffffffffffffffffffff1673ffffffffffffffffffffffffffffffffffffffff1614159050919050565b600033905090565b816004600083815260200190815260200160002060006101000a81548173ffffffffffffffffffffffffffffffffffffffff021916908373ffffffffffffffffffffffffffffffffffffffff160217905550808273ffffffffffffffffffffffffffffffffffffffff16611b3b83610d87565b73ffffffffffffffffffffffffffffffffffffffff167f8c5be1e5ebec7d5bd14f71427d1e84f3dd0314c0f7b2291e5b200ac8c7c3b92560405160405180910390a45050565b6000600c60008481526020019081526020016000206040518060400160405290816000820160009054906101000a900473ffffffffffffffffffffffffffffffffffffffff1673ffffffffffffffffffffffffffffffffffffffff1673ffffffffffffffffffffffffffffffffffffffff1681526020016001820154815250509050600c6000848152602001908152602001600020600080820160006101000a81549073ffffffffffffffffffffffffffffffffffffffff0219169055600182016000905550506000600e8054905083600081518110611c6457611c63614151565b5b6020026020010151611c7691906141af565b9050611c8b82600001518360200151836125f9565b50505050565b6000611c9c82611a54565b611cdb576040517f08c379a0000000000000000000000000000000000000000000000000000000008152600401611cd290614252565b60405180910390fd5b6000611ce683610d87565b90508073ffffffffffffffffffffffffffffffffffffffff168473ffffffffffffffffffffffffffffffffffffffff161480611d5557508373ffffffffffffffffffffffffffffffffffffffff16611d3d84610835565b73ffffffffffffffffffffffffffffffffffffffff16145b80611d665750611d658185611940565b5b91505092915050565b8273ffffffffffffffffffffffffffffffffffffffff16611d8f82610d87565b73ffffffffffffffffffffffffffffffffffffffff1614611de5576040517f08c379a0000000000000000000000000000000000000000000000000000000008152600401611ddc906142e4565b60405180910390fd5b600073ffffffffffffffffffffffffffffffffffffffff168273ffffffffffffffffffffffffffffffffffffffff1603611e54576040517f08c379a0000000000000000000000000000000000000000000000000000000008152600401611e4b90614376565b60405180910390fd5b611e5f8383836128e7565b611e6a600082611ac8565b6001600360008573ffffffffffffffffffffffffffffffffffffffff1673ffffffffffffffffffffffffffffffffffffffff1681526020019081526020016000206000828254611eba91906143c5565b925050819055506001600360008473ffffffffffffffffffffffffffffffffffffffff1673ffffffffffffffffffffffffffffffffffffffff1681526020019081526020016000206000828254611f1191906143f9565b92505081905550816002600083815260200190815260200160002060006101000a81548173ffffffffffffffffffffffffffffffffffffffff021916908373ffffffffffffffffffffffffffffffffffffffff160217905550808273ffffffffffffffffffffffffffffffffffffffff168473ffffffffffffffffffffffffffffffffffffffff167fddf252ad1be2c89b69c2b068fc378daa952ba7f163c4a11628f55a4df523b3ef60405160405180910390a4611fd08383836128ec565b505050565b8173ffffffffffffffffffffffffffffffffffffffff168373ffffffffffffffffffffffffffffffffffffffff1603612043576040517f08c379a000000000000000000000000000000000000000000000000000000000815260040161203a9061449b565b60405180910390fd5b80600560008573ffffffffffffffffffffffffffffffffffffffff1673ffffffffffffffffffffffffffffffffffffffff16815260200190815260200160002060008473ffffffffffffffffffffffffffffffffffffffff1673ffffffffffffffffffffffffffffffffffffffff16815260200190815260200160002060006101000a81548160ff0219169083151502179055508173ffffffffffffffffffffffffffffffffffffffff168373ffffffffffffffffffffffffffffffffffffffff167f17307eab39ab6107e8899845ad3d59bd9653f200f220920489ca2b5937696c31836040516121349190612e44565b60405180910390a3505050565b61214c848484611d6f565b612158848484846128f1565b612197576040517f08c379a000000000000000000000000000000000000000000000000000000000815260040161218e9061452d565b60405180910390fd5b50505050565b6060600082036121e4576040518060400160405280600181526020017f300000000000000000000000000000000000000000000000000000000000000081525090506122f8565b600082905060005b600082146122165780806121ff9061454d565b915050600a8261220f9190614595565b91506121ec565b60008167ffffffffffffffff811115612232576122316130f1565b5b6040519080825280601f01601f1916602001820160405280156122645781602001600182028036833780820191505090505b5090505b600085146122f15760018261227d91906143c5565b9150600a8561228c91906141af565b603061229891906143f9565b60f81b8183815181106122ae576122ad614151565b5b60200101907effffffffffffffffffffffffffffffffffffffffffffffffffffffffffffff1916908160001a905350600a856122ea9190614595565b9450612268565b8093505050505b919050565b606060008251905060008103612325576040518060200160405280600081525091505061248f565b6000600360028361233691906143f9565b6123409190614595565b600461234c91906145c6565b9050600060208261235d91906143f9565b67ffffffffffffffff811115612376576123756130f1565b5b6040519080825280601f01601f1916602001820160405280156123a85781602001600182028036833780820191505090505b5090506000604051806060016040528060408152602001614904604091399050600181016020830160005b8681101561244c5760038101905062ffffff818a015116603f8160121c168401518060081b905060ff603f83600c1c1686015116810190508060081b905060ff603f8360061c1686015116810190508060081b905060ff603f831686015116810190508060e01b905080845260048401935050506123d3565b506003860660018114612466576002811461247657612481565b613d3d60f01b6002830352612481565b603d60f81b60018303525b508484525050819450505050505b919050565b600081600001549050919050565b60405180604001604052803373ffffffffffffffffffffffffffffffffffffffff16815260200182815250600c6000600660009054906101000a900473ffffffffffffffffffffffffffffffffffffffff1673ffffffffffffffffffffffffffffffffffffffff16635d3b1d30600a54600b60009054906101000a900467ffffffffffffffff166003620186a060016040518663ffffffff1660e01b8152600401612551959493929190614708565b6020604051808303816000875af1158015612570573d6000803e3d6000fd5b505050506040513d601f19601f820116820180604052508101906125949190614770565b815260200190815260200160002060008201518160000160006101000a81548173ffffffffffffffffffffffffffffffffffffffff021916908373ffffffffffffffffffffffffffffffffffffffff1602179055506020820151816001015590505050565b6000600e828154811061260f5761260e614151565b5b9060005260206000209060080201604051806101000160405290816000820154815260200160018201805461264390613649565b80601f016020809104026020016040519081016040528092919081815260200182805461266f90613649565b80156126bc5780601f10612691576101008083540402835291602001916126bc565b820191906000526020600020905b81548152906001019060200180831161269f57829003601f168201915b505050505081526020016002820180546126d590613649565b80601f016020809104026020016040519081016040528092919081815260200182805461270190613649565b801561274e5780601f106127235761010080835404028352916020019161274e565b820191906000526020600020905b81548152906001019060200180831161273157829003601f168201915b5050505050815260200160038201548152602001600482015481526020016005820154815260200160068201548152602001600782015481525050905060405180610100016040528082600001518152602001826020015181526020018260400151815260200182606001518152602001826060015181526020018260a0015181526020018260c0015181526020018260e00151815250600f600085815260200190815260200160002060008201518160000155602082015181600101908051906020019061281e929190612ced565b50604082015181600201908051906020019061283b929190612ced565b50606082015181600301556080820151816004015560a0820151816005015560c0820151816006015560e08201518160070155905050601060008573ffffffffffffffffffffffffffffffffffffffff1673ffffffffffffffffffffffffffffffffffffffff1681526020019081526020016000208390806001815401808255809150506001900390600052602060002001600090919091909150556128e18484612a78565b50505050565b505050565b505050565b60006129128473ffffffffffffffffffffffffffffffffffffffff16612a96565b15612a6b578373ffffffffffffffffffffffffffffffffffffffff1663150b7a0261293b611ac0565b8786866040518563ffffffff1660e01b815260040161295d949392919061479d565b6020604051808303816000875af192505050801561299957506040513d601f19601f8201168201806040525081019061299691906147fe565b60015b612a1b573d80600081146129c9576040519150601f19603f3d011682016040523d82523d6000602084013e6129ce565b606091505b506000815103612a13576040517f08c379a0000000000000000000000000000000000000000000000000000000008152600401612a0a9061452d565b60405180910390fd5b805181602001fd5b63150b7a0260e01b7bffffffffffffffffffffffffffffffffffffffffffffffffffffffff1916817bffffffffffffffffffffffffffffffffffffffffffffffffffffffff191614915050612a70565b600190505b949350505050565b612a92828260405180602001604052806000815250612ab9565b5050565b6000808273ffffffffffffffffffffffffffffffffffffffff163b119050919050565b612ac38383612b14565b612ad060008484846128f1565b612b0f576040517f08c379a0000000000000000000000000000000000000000000000000000000008152600401612b069061452d565b60405180910390fd5b505050565b600073ffffffffffffffffffffffffffffffffffffffff168273ffffffffffffffffffffffffffffffffffffffff1603612b83576040517f08c379a0000000000000000000000000000000000000000000000000000000008152600401612b7a90614877565b60405180910390fd5b612b8c81611a54565b15612bcc576040517f08c379a0000000000000000000000000000000000000000000000000000000008152600401612bc3906148e3565b60405180910390fd5b612bd8600083836128e7565b6001600360008473ffffffffffffffffffffffffffffffffffffffff1673ffffffffffffffffffffffffffffffffffffffff1681526020019081526020016000206000828254612c2891906143f9565b92505081905550816002600083815260200190815260200160002060006101000a81548173ffffffffffffffffffffffffffffffffffffffff021916908373ffffffffffffffffffffffffffffffffffffffff160217905550808273ffffffffffffffffffffffffffffffffffffffff16600073ffffffffffffffffffffffffffffffffffffffff167fddf252ad1be2c89b69c2b068fc378daa952ba7f163c4a11628f55a4df523b3ef60405160405180910390a4612ce9600083836128ec565b5050565b828054612cf990613649565b90600052602060002090601f016020900481019282612d1b5760008555612d62565b82601f10612d3457805160ff1916838001178555612d62565b82800160010185558215612d62579182015b82811115612d61578251825591602001919060010190612d46565b5b509050612d6f9190612d73565b5090565b5b80821115612d8c576000816000905550600101612d74565b5090565b6000604051905090565b600080fd5b600080fd5b60007fffffffff0000000000000000000000000000000000000000000000000000000082169050919050565b612dd981612da4565b8114612de457600080fd5b50565b600081359050612df681612dd0565b92915050565b600060208284031215612e1257612e11612d9a565b5b6000612e2084828501612de7565b91505092915050565b60008115159050919050565b612e3e81612e29565b82525050565b6000602082019050612e596000830184612e35565b92915050565b600081519050919050565b600082825260208201905092915050565b60005b83811015612e99578082015181840152602081019050612e7e565b83811115612ea8576000848401525b50505050565b6000601f19601f8301169050919050565b6000612eca82612e5f565b612ed48185612e6a565b9350612ee4818560208601612e7b565b612eed81612eae565b840191505092915050565b60006020820190508181036000830152612f128184612ebf565b905092915050565b6000819050919050565b612f2d81612f1a565b8114612f3857600080fd5b50565b600081359050612f4a81612f24565b92915050565b600060208284031215612f6657612f65612d9a565b5b6000612f7484828501612f3b565b91505092915050565b600073ffffffffffffffffffffffffffffffffffffffff82169050919050565b6000612fa882612f7d565b9050919050565b612fb881612f9d565b82525050565b6000602082019050612fd36000830184612faf565b92915050565b612fe281612f9d565b8114612fed57600080fd5b50565b600081359050612fff81612fd9565b92915050565b6000806040838503121561301c5761301b612d9a565b5b600061302a85828601612ff0565b925050602061303b85828601612f3b565b9150509250929050565b6000819050919050565b600061306a61306561306084612f7d565b613045565b612f7d565b9050919050565b600061307c8261304f565b9050919050565b600061308e82613071565b9050919050565b61309e81613083565b82525050565b60006020820190506130b96000830184613095565b92915050565b6000602082840312156130d5576130d4612d9a565b5b60006130e384828501612ff0565b91505092915050565b600080fd5b7f4e487b7100000000000000000000000000000000000000000000000000000000600052604160045260246000fd5b61312982612eae565b810181811067ffffffffffffffff82111715613148576131476130f1565b5b80604052505050565b600061315b612d90565b90506131678282613120565b919050565b600067ffffffffffffffff821115613187576131866130f1565b5b602082029050602081019050919050565b600080fd5b60006131b06131ab8461316c565b613151565b905080838252602082019050602084028301858111156131d3576131d2613198565b5b835b818110156131fc57806131e88882612f3b565b8452602084019350506020810190506131d5565b5050509392505050565b600082601f83011261321b5761321a6130ec565b5b813561322b84826020860161319d565b91505092915050565b6000806040838503121561324b5761324a612d9a565b5b600061325985828601612f3b565b925050602083013567ffffffffffffffff81111561327a57613279612d9f565b5b61328685828601613206565b9150509250929050565b61329981612f1a565b82525050565b600060a08201905081810360008301526132b98188612ebf565b905081810360208301526132cd8187612ebf565b90506132dc6040830186613290565b6132e96060830185613290565b6132f66080830184613290565b9695505050505050565b60008060006060848603121561331957613318612d9a565b5b600061332786828701612ff0565b935050602061333886828701612ff0565b925050604061334986828701612f3b565b9150509250925092565b600061335e82613071565b9050919050565b61336e81613353565b82525050565b60006020820190506133896000830184613365565b92915050565b6000610100820190506133a5600083018b613290565b81810360208301526133b7818a612ebf565b905081810360408301526133cb8189612ebf565b90506133da6060830188613290565b6133e76080830187613290565b6133f460a0830186613290565b61340160c0830185613290565b61340e60e0830184613290565b9998505050505050505050565b60006020820190506134306000830184613290565b92915050565b61343f81612e29565b811461344a57600080fd5b50565b60008135905061345c81613436565b92915050565b6000806040838503121561347957613478612d9a565b5b600061348785828601612ff0565b92505060206134988582860161344d565b9150509250929050565b600080fd5b600067ffffffffffffffff8211156134c2576134c16130f1565b5b6134cb82612eae565b9050602081019050919050565b82818337600083830152505050565b60006134fa6134f5846134a7565b613151565b905082815260208101848484011115613516576135156134a2565b5b6135218482856134d8565b509392505050565b600082601f83011261353e5761353d6130ec565b5b813561354e8482602086016134e7565b91505092915050565b6000806000806080858703121561357157613570612d9a565b5b600061357f87828801612ff0565b945050602061359087828801612ff0565b93505060406135a187828801612f3b565b925050606085013567ffffffffffffffff8111156135c2576135c1612d9f565b5b6135ce87828801613529565b91505092959194509250565b600080604083850312156135f1576135f0612d9a565b5b60006135ff85828601612ff0565b925050602061361085828601612ff0565b9150509250929050565b7f4e487b7100000000000000000000000000000000000000000000000000000000600052602260045260246000fd5b6000600282049050600182168061366157607f821691505b6020821081036136745761367361361a565b5b50919050565b7f4552433732313a20617070726f76656420717565727920666f72206e6f6e657860008201527f697374656e7420746f6b656e0000000000000000000000000000000000000000602082015250565b60006136d6602c83612e6a565b91506136e18261367a565b604082019050919050565b60006020820190508181036000830152613705816136c9565b9050919050565b7f4552433732313a20617070726f76616c20746f2063757272656e74206f776e6560008201527f7200000000000000000000000000000000000000000000000000000000000000602082015250565b6000613768602183612e6a565b91506137738261370c565b604082019050919050565b600060208201905081810360008301526137978161375b565b9050919050565b7f4552433732313a20617070726f76652063616c6c6572206973206e6f74206f7760008201527f6e6572206e6f7220617070726f76656420666f7220616c6c0000000000000000602082015250565b60006137fa603883612e6a565b91506138058261379e565b604082019050919050565b60006020820190508181036000830152613829816137ed565b9050919050565b7f43616c6c6572206d757374206265206f776e6572000000000000000000000000600082015250565b6000613866601483612e6a565b915061387182613830565b602082019050919050565b6000602082019050818103600083015261389581613859565b9050919050565b60006040820190506138b16000830185612faf565b6138be6020830184612faf565b9392505050565b7f4552433732313a207472616e736665722063616c6c6572206973206e6f74206f60008201527f776e6572206e6f7220617070726f766564000000000000000000000000000000602082015250565b6000613921603183612e6a565b915061392c826138c5565b604082019050919050565b6000602082019050818103600083015261395081613914565b9050919050565b7f4552433732313a206f776e657220717565727920666f72206e6f6e657869737460008201527f656e7420746f6b656e0000000000000000000000000000000000000000000000602082015250565b60006139b3602983612e6a565b91506139be82613957565b604082019050919050565b600060208201905081810360008301526139e2816139a6565b9050919050565b7f4552433732313a2062616c616e636520717565727920666f7220746865207a6560008201527f726f206164647265737300000000000000000000000000000000000000000000602082015250565b6000613a45602a83612e6a565b9150613a50826139e9565b604082019050919050565b60006020820190508181036000830152613a7481613a38565b9050919050565b600067ffffffffffffffff82169050919050565b613a9881613a7b565b82525050565b6000602082019050613ab36000830184613a8f565b92915050565b600081519050919050565b600082825260208201905092915050565b6000613ae082613ab9565b613aea8185613ac4565b9350613afa818560208601612e7b565b613b0381612eae565b840191505092915050565b6000606082019050613b236000830186612faf565b613b306020830185613290565b8181036040830152613b428184613ad5565b9050949350505050565b600081519050613b5b81613436565b92915050565b600060208284031215613b7757613b76612d9a565b5b6000613b8584828501613b4c565b91505092915050565b600081905092915050565b7f7b226e616d65223a202200000000000000000000000000000000000000000000600082015250565b6000613bcf600a83613b8e565b9150613bda82613b99565b600a82019050919050565b6000613bf082612e5f565b613bfa8185613b8e565b9350613c0a818560208601612e7b565b80840191505092915050565b7f202d2d204e465420233a20000000000000000000000000000000000000000000600082015250565b6000613c4c600b83613b8e565b9150613c5782613c16565b600b82019050919050565b7f222c20226465736372697074696f6e223a202241204865726f204e465420746860008201527f6174206c65747320796f7520706c6179204d6f6e7374657220536c617965722160208201527f222c2022696d616765223a202200000000000000000000000000000000000000604082015250565b6000613ce4604d83613b8e565b9150613cef82613c62565b604d82019050919050565b7f222c202261747472696275746573223a205b207b202274726169745f7479706560008201527f223a20224865616c746820506f696e7473222c202276616c7565223a20000000602082015250565b6000613d56603d83613b8e565b9150613d6182613cfa565b603d82019050919050565b7f2c20226d61785f76616c7565223a000000000000000000000000000000000000600082015250565b6000613da2600e83613b8e565b9150613dad82613d6c565b600e82019050919050565b7f7d2c207b202274726169745f74797065223a202241747461636b2044616d616760008201527f65222c202276616c7565223a2000000000000000000000000000000000000000602082015250565b6000613e14602d83613b8e565b9150613e1f82613db8565b602d82019050919050565b7f7d2c207b202274726169745f74797065223a2022437269746963616c2044616d60008201527f616765204368616e6365222c202276616c7565223a2000000000000000000000602082015250565b6000613e86603683613b8e565b9150613e9182613e2a565b603682019050919050565b7f7d2c207b202274726169745f74797065223a20224865616c696e6720506f776560008201527f72222c202276616c7565223a2000000000000000000000000000000000000000602082015250565b6000613ef8602d83613b8e565b9150613f0382613e9c565b602d82019050919050565b7f7d205d7d00000000000000000000000000000000000000000000000000000000600082015250565b6000613f44600483613b8e565b9150613f4f82613f0e565b600482019050919050565b6000613f6582613bc2565b9150613f71828e613be5565b9150613f7c82613c3f565b9150613f88828d613be5565b9150613f9382613cd7565b9150613f9f828c613be5565b9150613faa82613d49565b9150613fb6828b613be5565b9150613fc182613d95565b9150613fcd828a613be5565b9150613fd882613e07565b9150613fe48289613be5565b9150613fef82613d95565b9150613ffb8288613be5565b915061400682613e79565b91506140128287613be5565b915061401d82613d95565b91506140298286613be5565b915061403482613eeb565b91506140408285613be5565b915061404b82613d95565b91506140578284613be5565b915061406282613f37565b91508190509c9b505050505050505050505050565b7f646174613a6170706c69636174696f6e2f6a736f6e3b6261736536342c000000600082015250565b60006140ad601d83613b8e565b91506140b882614077565b601d82019050919050565b60006140ce826140a0565b91506140da8284613be5565b915081905092915050565b7f5061796d656e74206973206e6f7420636f727265637400000000000000000000600082015250565b600061411b601683612e6a565b9150614126826140e5565b602082019050919050565b6000602082019050818103600083015261414a8161410e565b9050919050565b7f4e487b7100000000000000000000000000000000000000000000000000000000600052603260045260246000fd5b7f4e487b7100000000000000000000000000000000000000000000000000000000600052601260045260246000fd5b60006141ba82612f1a565b91506141c583612f1a565b9250826141d5576141d4614180565b5b828206905092915050565b7f4552433732313a206f70657261746f7220717565727920666f72206e6f6e657860008201527f697374656e7420746f6b656e0000000000000000000000000000000000000000602082015250565b600061423c602c83612e6a565b9150614247826141e0565b604082019050919050565b6000602082019050818103600083015261426b8161422f565b9050919050565b7f4552433732313a207472616e736665722066726f6d20696e636f72726563742060008201527f6f776e6572000000000000000000000000000000000000000000000000000000602082015250565b60006142ce602583612e6a565b91506142d982614272565b604082019050919050565b600060208201905081810360008301526142fd816142c1565b9050919050565b7f4552433732313a207472616e7366657220746f20746865207a65726f2061646460008201527f7265737300000000000000000000000000000000000000000000000000000000602082015250565b6000614360602483612e6a565b915061436b82614304565b604082019050919050565b6000602082019050818103600083015261438f81614353565b9050919050565b7f4e487b7100000000000000000000000000000000000000000000000000000000600052601160045260246000fd5b60006143d082612f1a565b91506143db83612f1a565b9250828210156143ee576143ed614396565b5b828203905092915050565b600061440482612f1a565b915061440f83612f1a565b9250827fffffffffffffffffffffffffffffffffffffffffffffffffffffffffffffffff0382111561444457614443614396565b5b828201905092915050565b7f4552433732313a20617070726f766520746f2063616c6c657200000000000000600082015250565b6000614485601983612e6a565b91506144908261444f565b602082019050919050565b600060208201905081810360008301526144b481614478565b9050919050565b7f4552433732313a207472616e7366657220746f206e6f6e20455243373231526560008201527f63656976657220696d706c656d656e7465720000000000000000000000000000602082015250565b6000614517603283612e6a565b9150614522826144bb565b604082019050919050565b600060208201905081810360008301526145468161450a565b9050919050565b600061455882612f1a565b91507fffffffffffffffffffffffffffffffffffffffffffffffffffffffffffffffff820361458a57614589614396565b5b600182019050919050565b60006145a082612f1a565b91506145ab83612f1a565b9250826145bb576145ba614180565b5b828204905092915050565b60006145d182612f1a565b91506145dc83612f1a565b9250817fffffffffffffffffffffffffffffffffffffffffffffffffffffffffffffffff048311821515161561461557614614614396565b5b828202905092915050565b6000819050919050565b61463381614620565b82525050565b6000819050919050565b600061ffff82169050919050565b600061466c61466761466284614639565b613045565b614643565b9050919050565b61467c81614651565b82525050565b6000819050919050565b600063ffffffff82169050919050565b60006146b76146b26146ad84614682565b613045565b61468c565b9050919050565b6146c78161469c565b82525050565b6000819050919050565b60006146f26146ed6146e8846146cd565b613045565b61468c565b9050919050565b614702816146d7565b82525050565b600060a08201905061471d600083018861462a565b61472a6020830187613a8f565b6147376040830186614673565b61474460608301856146be565b61475160808301846146f9565b9695505050505050565b60008151905061476a81612f24565b92915050565b60006020828403121561478657614785612d9a565b5b60006147948482850161475b565b91505092915050565b60006080820190506147b26000830187612faf565b6147bf6020830186612faf565b6147cc6040830185613290565b81810360608301526147de8184613ad5565b905095945050505050565b6000815190506147f881612dd0565b92915050565b60006020828403121561481457614813612d9a565b5b6000614822848285016147e9565b91505092915050565b7f4552433732313a206d696e7420746f20746865207a65726f2061646472657373600082015250565b6000614861602083612e6a565b915061486c8261482b565b602082019050919050565b6000602082019050818103600083015261489081614854565b9050919050565b7f4552433732313a20746f6b656e20616c7265616479206d696e74656400000000600082015250565b60006148cd601c83612e6a565b91506148d882614897565b602082019050919050565b600060208201905081810360008301526148fc816148c0565b905091905056fe4142434445464748494a4b4c4d4e4f505152535455565758595a6162636465666768696a6b6c6d6e6f707172737475767778797a303132333435363738392b2fa26469706673582212204f73f4d31fc3b09d0f85d2231fd6da93528e9826cd58496a39b1762b46e4eda864736f6c634300080d0033",
  "linkReferences": {},
  "deployedLinkReferences": {}
}