{
  "_format": "hh-sol-artifact-1",
  "contractName": "Game",
  "sourceName": "contracts/Game.sol",
  "abi": [
    {
      "inputs": [
        {
          "internalType": "string[]",
          "name": "names",
          "type": "string[]"
        },
        {
          "internalType": "string[]",
          "name": "imageUris",
          "type": "string[]"
        },
        {
          "internalType": "uint256[]",
          "name": "hps",
          "type": "uint256[]"
        },
        {
          "internalType": "uint256[]",
          "name": "damages",
          "type": "uint256[]"
        },
        {
          "internalType": "uint256[]",
          "name": "crits",
          "type": "uint256[]"
        },
        {
          "internalType": "uint256[]",
          "name": "heals",
          "type": "uint256[]"
        },
        {
          "internalType": "string[]",
          "name": "bossNames",
          "type": "string[]"
        },
        {
          "internalType": "string[]",
          "name": "bossImageUris",
          "type": "string[]"
        },
        {
          "internalType": "uint256[]",
          "name": "bossHps",
          "type": "uint256[]"
        },
        {
          "internalType": "uint256[]",
          "name": "bossDamage",
          "type": "uint256[]"
        }
      ],
      "stateMutability": "nonpayable",
      "type": "constructor"
    },
    {
      "inputs": [
        {
          "internalType": "address",
          "name": "have",
          "type": "address"
        },
        {
          "internalType": "address",
          "name": "want",
          "type": "address"
        }
      ],
      "name": "OnlyCoordinatorCanFulfill",
      "type": "error"
    },
    {
      "anonymous": false,
      "inputs": [
        {
          "indexed": true,
          "internalType": "address",
          "name": "owner",
          "type": "address"
        },
        {
          "indexed": true,
          "internalType": "address",
          "name": "approved",
          "type": "address"
        },
        {
          "indexed": true,
          "internalType": "uint256",
          "name": "tokenId",
          "type": "uint256"
        }
      ],
      "name": "Approval",
      "type": "event"
    },
    {
      "anonymous": false,
      "inputs": [
        {
          "indexed": true,
          "internalType": "address",
          "name": "owner",
          "type": "address"
        },
        {
          "indexed": true,
          "internalType": "address",
          "name": "operator",
          "type": "address"
        },
        {
          "indexed": false,
          "internalType": "bool",
          "name": "approved",
          "type": "bool"
        }
      ],
      "name": "ApprovalForAll",
      "type": "event"
    },
    {
      "anonymous": false,
      "inputs": [
        {
          "indexed": true,
          "internalType": "address",
          "name": "owner",
          "type": "address"
        },
        {
          "indexed": true,
          "internalType": "uint256",
          "name": "tokenId",
          "type": "uint256"
        },
        {
          "indexed": true,
          "internalType": "uint256",
          "name": "attributesIndex",
          "type": "uint256"
        }
      ],
      "name": "Mint",
      "type": "event"
    },
    {
      "anonymous": false,
      "inputs": [
        {
          "indexed": true,
          "internalType": "address",
          "name": "from",
          "type": "address"
        },
        {
          "indexed": true,
          "internalType": "address",
          "name": "to",
          "type": "address"
        },
        {
          "indexed": true,
          "internalType": "uint256",
          "name": "tokenId",
          "type": "uint256"
        }
      ],
      "name": "Transfer",
      "type": "event"
    },
    {
      "inputs": [
        {
          "internalType": "address",
          "name": "to",
          "type": "address"
        },
        {
          "internalType": "uint256",
          "name": "tokenId",
          "type": "uint256"
        }
      ],
      "name": "approve",
      "outputs": [],
      "stateMutability": "nonpayable",
      "type": "function"
    },
    {
      "inputs": [
        {
          "internalType": "address",
          "name": "owner",
          "type": "address"
        }
      ],
      "name": "balanceOf",
      "outputs": [
        {
          "internalType": "uint256",
          "name": "",
          "type": "uint256"
        }
      ],
      "stateMutability": "view",
      "type": "function"
    },
    {
      "inputs": [
        {
          "internalType": "uint256",
          "name": "",
          "type": "uint256"
        }
      ],
      "name": "bosses",
      "outputs": [
        {
          "internalType": "string",
          "name": "name",
          "type": "string"
        },
        {
          "internalType": "string",
          "name": "imageUri",
          "type": "string"
        },
        {
          "internalType": "uint256",
          "name": "hp",
          "type": "uint256"
        },
        {
          "internalType": "uint256",
          "name": "maxHp",
          "type": "uint256"
        },
        {
          "internalType": "uint256",
          "name": "damage",
          "type": "uint256"
        }
      ],
      "stateMutability": "view",
      "type": "function"
    },
    {
      "inputs": [],
      "name": "coordinator",
      "outputs": [
        {
          "internalType": "contract VRFCoordinatorV2Interface",
          "name": "",
          "type": "address"
        }
      ],
      "stateMutability": "view",
      "type": "function"
    },
    {
      "inputs": [],
      "name": "currentBoss",
      "outputs": [
        {
          "internalType": "string",
          "name": "name",
          "type": "string"
        },
        {
          "internalType": "string",
          "name": "imageUri",
          "type": "string"
        },
        {
          "internalType": "uint256",
          "name": "hp",
          "type": "uint256"
        },
        {
          "internalType": "uint256",
          "name": "maxHp",
          "type": "uint256"
        },
        {
          "internalType": "uint256",
          "name": "damage",
          "type": "uint256"
        }
      ],
      "stateMutability": "view",
      "type": "function"
    },
    {
      "inputs": [
        {
          "internalType": "uint256",
          "name": "",
          "type": "uint256"
        }
      ],
      "name": "defaultAttributes",
      "outputs": [
        {
          "internalType": "uint256",
          "name": "index",
          "type": "uint256"
        },
        {
          "internalType": "string",
          "name": "name",
          "type": "string"
        },
        {
          "internalType": "string",
          "name": "imageUri",
          "type": "string"
        },
        {
          "internalType": "uint256",
          "name": "hp",
          "type": "uint256"
        },
        {
          "internalType": "uint256",
          "name": "maxHp",
          "type": "uint256"
        },
        {
          "internalType": "uint256",
          "name": "damage",
          "type": "uint256"
        },
        {
          "internalType": "uint256",
          "name": "crit",
          "type": "uint256"
        },
        {
          "internalType": "uint256",
          "name": "heal",
          "type": "uint256"
        }
      ],
      "stateMutability": "view",
      "type": "function"
    },
    {
      "inputs": [
        {
          "internalType": "uint256",
          "name": "linkAmount",
          "type": "uint256"
        }
      ],
      "name": "fundSubscription",
      "outputs": [],
      "stateMutability": "nonpayable",
      "type": "function"
    },
    {
      "inputs": [
        {
          "internalType": "uint256",
          "name": "tokenId",
          "type": "uint256"
        }
      ],
      "name": "getApproved",
      "outputs": [
        {
          "internalType": "address",
          "name": "",
          "type": "address"
        }
      ],
      "stateMutability": "view",
      "type": "function"
    },
    {
      "inputs": [],
      "name": "getDefaultAttributes",
      "outputs": [
        {
          "components": [
            {
              "internalType": "uint256",
              "name": "index",
              "type": "uint256"
            },
            {
              "internalType": "string",
              "name": "name",
              "type": "string"
            },
            {
              "internalType": "string",
              "name": "imageUri",
              "type": "string"
            },
            {
              "internalType": "uint256",
              "name": "hp",
              "type": "uint256"
            },
            {
              "internalType": "uint256",
              "name": "maxHp",
              "type": "uint256"
            },
            {
              "internalType": "uint256",
              "name": "damage",
              "type": "uint256"
            },
            {
              "internalType": "uint256",
              "name": "crit",
              "type": "uint256"
            },
            {
              "internalType": "uint256",
              "name": "heal",
              "type": "uint256"
            }
          ],
          "internalType": "struct Game.Attributes[]",
          "name": "",
          "type": "tuple[]"
        }
      ],
      "stateMutability": "view",
      "type": "function"
    },
    {
      "inputs": [
        {
          "internalType": "address",
          "name": "owner",
          "type": "address"
        },
        {
          "internalType": "address",
          "name": "operator",
          "type": "address"
        }
      ],
      "name": "isApprovedForAll",
      "outputs": [
        {
          "internalType": "bool",
          "name": "",
          "type": "bool"
        }
      ],
      "stateMutability": "view",
      "type": "function"
    },
    {
      "inputs": [],
      "name": "linkToken",
      "outputs": [
        {
          "internalType": "contract LinkTokenInterface",
          "name": "",
          "type": "address"
        }
      ],
      "stateMutability": "view",
      "type": "function"
    },
    {
      "inputs": [],
      "name": "mintCost",
      "outputs": [
        {
          "internalType": "uint256",
          "name": "",
          "type": "uint256"
        }
      ],
      "stateMutability": "view",
      "type": "function"
    },
    {
      "inputs": [],
      "name": "mintHero",
      "outputs": [],
      "stateMutability": "payable",
      "type": "function"
    },
    {
      "inputs": [],
      "name": "name",
      "outputs": [
        {
          "internalType": "string",
          "name": "",
          "type": "string"
        }
      ],
      "stateMutability": "view",
      "type": "function"
    },
    {
      "inputs": [
        {
          "internalType": "uint256",
          "name": "",
          "type": "uint256"
        }
      ],
      "name": "nftAttributes",
      "outputs": [
        {
          "internalType": "uint256",
          "name": "index",
          "type": "uint256"
        },
        {
          "internalType": "string",
          "name": "name",
          "type": "string"
        },
        {
          "internalType": "string",
          "name": "imageUri",
          "type": "string"
        },
        {
          "internalType": "uint256",
          "name": "hp",
          "type": "uint256"
        },
        {
          "internalType": "uint256",
          "name": "maxHp",
          "type": "uint256"
        },
        {
          "internalType": "uint256",
          "name": "damage",
          "type": "uint256"
        },
        {
          "internalType": "uint256",
          "name": "crit",
          "type": "uint256"
        },
        {
          "internalType": "uint256",
          "name": "heal",
          "type": "uint256"
        }
      ],
      "stateMutability": "view",
      "type": "function"
    },
    {
      "inputs": [
        {
          "internalType": "address",
          "name": "",
          "type": "address"
        },
        {
          "internalType": "uint256",
          "name": "",
          "type": "uint256"
        }
      ],
      "name": "nftHolders",
      "outputs": [
        {
          "internalType": "uint256",
          "name": "",
          "type": "uint256"
        }
      ],
      "stateMutability": "view",
      "type": "function"
    },
    {
      "inputs": [],
      "name": "owner",
      "outputs": [
        {
          "internalType": "address",
          "name": "",
          "type": "address"
        }
      ],
      "stateMutability": "view",
      "type": "function"
    },
    {
      "inputs": [
        {
          "internalType": "uint256",
          "name": "tokenId",
          "type": "uint256"
        }
      ],
      "name": "ownerOf",
      "outputs": [
        {
          "internalType": "address",
          "name": "",
          "type": "address"
        }
      ],
      "stateMutability": "view",
      "type": "function"
    },
    {
      "inputs": [
        {
          "internalType": "uint256",
          "name": "requestId",
          "type": "uint256"
        },
        {
          "internalType": "uint256[]",
          "name": "randomWords",
          "type": "uint256[]"
        }
      ],
      "name": "rawFulfillRandomWords",
      "outputs": [],
      "stateMutability": "nonpayable",
      "type": "function"
    },
    {
      "inputs": [
        {
          "internalType": "address",
          "name": "from",
          "type": "address"
        },
        {
          "internalType": "address",
          "name": "to",
          "type": "address"
        },
        {
          "internalType": "uint256",
          "name": "tokenId",
          "type": "uint256"
        }
      ],
      "name": "safeTransferFrom",
      "outputs": [],
      "stateMutability": "nonpayable",
      "type": "function"
    },
    {
      "inputs": [
        {
          "internalType": "address",
          "name": "from",
          "type": "address"
        },
        {
          "internalType": "address",
          "name": "to",
          "type": "address"
        },
        {
          "internalType": "uint256",
          "name": "tokenId",
          "type": "uint256"
        },
        {
          "internalType": "bytes",
          "name": "_data",
          "type": "bytes"
        }
      ],
      "name": "safeTransferFrom",
      "outputs": [],
      "stateMutability": "nonpayable",
      "type": "function"
    },
    {
      "inputs": [
        {
          "internalType": "address",
          "name": "operator",
          "type": "address"
        },
        {
          "internalType": "bool",
          "name": "approved",
          "type": "bool"
        }
      ],
      "name": "setApprovalForAll",
      "outputs": [],
      "stateMutability": "nonpayable",
      "type": "function"
    },
    {
      "inputs": [
        {
          "internalType": "uint256",
          "name": "_mintCost",
          "type": "uint256"
        }
      ],
      "name": "setMintCost",
      "outputs": [],
      "stateMutability": "nonpayable",
      "type": "function"
    },
    {
      "inputs": [
        {
          "internalType": "address",
          "name": "_owner",
          "type": "address"
        }
      ],
      "name": "setOwner",
      "outputs": [],
      "stateMutability": "nonpayable",
      "type": "function"
    },
    {
      "inputs": [
        {
          "internalType": "bytes4",
          "name": "interfaceId",
          "type": "bytes4"
        }
      ],
      "name": "supportsInterface",
      "outputs": [
        {
          "internalType": "bool",
          "name": "",
          "type": "bool"
        }
      ],
      "stateMutability": "view",
      "type": "function"
    },
    {
      "inputs": [],
      "name": "symbol",
      "outputs": [
        {
          "internalType": "string",
          "name": "",
          "type": "string"
        }
      ],
      "stateMutability": "view",
      "type": "function"
    },
    {
      "inputs": [
        {
          "internalType": "uint256",
          "name": "requestId",
          "type": "uint256"
        },
        {
          "internalType": "uint256[]",
          "name": "randomWords",
          "type": "uint256[]"
        }
      ],
      "name": "testFulfillRandomWords",
      "outputs": [],
      "stateMutability": "nonpayable",
      "type": "function"
    },
    {
      "inputs": [],
      "name": "testRequestId",
      "outputs": [
        {
          "internalType": "uint256",
          "name": "",
          "type": "uint256"
        }
      ],
      "stateMutability": "view",
      "type": "function"
    },
    {
      "inputs": [
        {
          "internalType": "uint256",
          "name": "tokenId",
          "type": "uint256"
        }
      ],
      "name": "tokenURI",
      "outputs": [
        {
          "internalType": "string",
          "name": "",
          "type": "string"
        }
      ],
      "stateMutability": "view",
      "type": "function"
    },
    {
      "inputs": [
        {
          "internalType": "address",
          "name": "from",
          "type": "address"
        },
        {
          "internalType": "address",
          "name": "to",
          "type": "address"
        },
        {
          "internalType": "uint256",
          "name": "tokenId",
          "type": "uint256"
        }
      ],
      "name": "transferFrom",
      "outputs": [],
      "stateMutability": "nonpayable",
      "type": "function"
    }
  ],
  "bytecode": "0x60a060405273271682deb8c4e0901d1a1550ad2e64d568e69909600860006101000a81548173ffffffffffffffffffffffffffffffffffffffff021916908373ffffffffffffffffffffffffffffffffffffffff16021790555073514910771af9ca656af840dff83e8264ecf986ca600960006101000a81548173ffffffffffffffffffffffffffffffffffffffff021916908373ffffffffffffffffffffffffffffffffffffffff1602179055507fff8dedfbfa60af186cf3c830acbc32c05aae823045ae5ea7da1e45fbfaba4f9260001b600a556000601755348015620000e757600080fd5b506040516200610f3803806200610f83398181016040528101906200010d919062000d33565b600860009054906101000a900473ffffffffffffffffffffffffffffffffffffffff166040518060400160405280600681526020017f4865726f657300000000000000000000000000000000000000000000000000008152506040518060400160405280600481526020017f4865726f000000000000000000000000000000000000000000000000000000008152508160009080519060200190620001b4929190620008d9565b508060019080519060200190620001cd929190620008d9565b5050508073ffffffffffffffffffffffffffffffffffffffff1660808173ffffffffffffffffffffffffffffffffffffffff16815250505088518a5114801562000218575087518951145b801562000226575086518851145b801562000234575085518751145b801562000242575084518651145b62000284576040517f08c379a00000000000000000000000000000000000000000000000000000000081526004016200027b9062000fe6565b60405180910390fd5b8251845114801562000297575081518351145b8015620002a5575080518251145b620002e7576040517f08c379a0000000000000000000000000000000000000000000000000000000008152600401620002de906200107e565b60405180910390fd5b60005b84518110156200044b5760116040518060a00160405280878481518110620003175762000316620010a0565b5b602002602001015181526020018684815181106200033a5762000339620010a0565b5b602002602001015181526020018584815181106200035d576200035c620010a0565b5b6020026020010151815260200184848151811062000380576200037f620010a0565b5b60200260200101518152602001848481518110620003a357620003a2620010a0565b5b602002602001015181525090806001815401808255809150506001900390600052602060002090600502016000909190919091506000820151816000019080519060200190620003f5929190620008d9565b50602082015181600101908051906020019062000414929190620008d9565b50604082015181600201556060820151816003015560808201518160040155505080806200044290620010fe565b915050620002ea565b5060005b8a518110156200061b57600e6040518061010001604052808381526020018d8481518110620004835762000482620010a0565b5b602002602001015181526020018c8481518110620004a657620004a5620010a0565b5b602002602001015181526020018b8481518110620004c957620004c8620010a0565b5b602002602001015181526020018b8481518110620004ec57620004eb620010a0565b5b602002602001015181526020018a84815181106200050f576200050e620010a0565b5b60200260200101518152602001898481518110620005325762000531620010a0565b5b60200260200101518152602001888481518110620005555762000554620010a0565b5b60200260200101518152509080600181540180825580915050600190039060005260206000209060080201600090919091909150600082015181600001556020820151816001019080519060200190620005b1929190620008d9565b506040820151816002019080519060200190620005d0929190620008d9565b50606082015181600301556080820151816004015560a0820151816005015560c0820151816006015560e08201518160070155505080806200061290620010fe565b9150506200044f565b5062000633600d6200075a60201b62001c581760201c565b33601860006101000a81548173ffffffffffffffffffffffffffffffffffffffff021916908373ffffffffffffffffffffffffffffffffffffffff160217905550600860009054906101000a900473ffffffffffffffffffffffffffffffffffffffff16600660006101000a81548173ffffffffffffffffffffffffffffffffffffffff021916908373ffffffffffffffffffffffffffffffffffffffff160217905550600960009054906101000a900473ffffffffffffffffffffffffffffffffffffffff16600760006101000a81548173ffffffffffffffffffffffffffffffffffffffff021916908373ffffffffffffffffffffffffffffffffffffffff1602179055506200074a6200077060201b60201c565b50505050505050505050620012a9565b6001816000016000828254019250508190555050565b600660009054906101000a900473ffffffffffffffffffffffffffffffffffffffff1673ffffffffffffffffffffffffffffffffffffffff1663a21a23e46040518163ffffffff1660e01b81526004016020604051808303816000875af1158015620007e0573d6000803e3d6000fd5b505050506040513d601f19601f8201168201806040525081019062000806919062001190565b600b60006101000a81548167ffffffffffffffff021916908367ffffffffffffffff160217905550600660009054906101000a900473ffffffffffffffffffffffffffffffffffffffff1673ffffffffffffffffffffffffffffffffffffffff16637341c10c600b60009054906101000a900467ffffffffffffffff16306040518363ffffffff1660e01b8152600401620008a392919062001218565b600060405180830381600087803b158015620008be57600080fd5b505af1158015620008d3573d6000803e3d6000fd5b50505050565b828054620008e79062001274565b90600052602060002090601f0160209004810192826200090b576000855562000957565b82601f106200092657805160ff191683800117855562000957565b8280016001018555821562000957579182015b828111156200095657825182559160200191906001019062000939565b5b5090506200096691906200096a565b5090565b5b80821115620009855760008160009055506001016200096b565b5090565b6000604051905090565b600080fd5b600080fd5b600080fd5b6000601f19601f8301169050919050565b7f4e487b7100000000000000000000000000000000000000000000000000000000600052604160045260246000fd5b620009ed82620009a2565b810181811067ffffffffffffffff8211171562000a0f5762000a0e620009b3565b5b80604052505050565b600062000a2462000989565b905062000a328282620009e2565b919050565b600067ffffffffffffffff82111562000a555762000a54620009b3565b5b602082029050602081019050919050565b600080fd5b600080fd5b600067ffffffffffffffff82111562000a8e5762000a8d620009b3565b5b62000a9982620009a2565b9050602081019050919050565b60005b8381101562000ac657808201518184015260208101905062000aa9565b8381111562000ad6576000848401525b50505050565b600062000af362000aed8462000a70565b62000a18565b90508281526020810184848401111562000b125762000b1162000a6b565b5b62000b1f84828562000aa6565b509392505050565b600082601f83011262000b3f5762000b3e6200099d565b5b815162000b5184826020860162000adc565b91505092915050565b600062000b7162000b6b8462000a37565b62000a18565b9050808382526020820190506020840283018581111562000b975762000b9662000a66565b5b835b8181101562000be557805167ffffffffffffffff81111562000bc05762000bbf6200099d565b5b80860162000bcf898262000b27565b8552602085019450505060208101905062000b99565b5050509392505050565b600082601f83011262000c075762000c066200099d565b5b815162000c1984826020860162000b5a565b91505092915050565b600067ffffffffffffffff82111562000c405762000c3f620009b3565b5b602082029050602081019050919050565b6000819050919050565b62000c668162000c51565b811462000c7257600080fd5b50565b60008151905062000c868162000c5b565b92915050565b600062000ca362000c9d8462000c22565b62000a18565b9050808382526020820190506020840283018581111562000cc95762000cc862000a66565b5b835b8181101562000cf6578062000ce1888262000c75565b84526020840193505060208101905062000ccb565b5050509392505050565b600082601f83011262000d185762000d176200099d565b5b815162000d2a84826020860162000c8c565b91505092915050565b6000806000806000806000806000806101408b8d03121562000d5a5762000d5962000993565b5b60008b015167ffffffffffffffff81111562000d7b5762000d7a62000998565b5b62000d898d828e0162000bef565b9a505060208b015167ffffffffffffffff81111562000dad5762000dac62000998565b5b62000dbb8d828e0162000bef565b99505060408b015167ffffffffffffffff81111562000ddf5762000dde62000998565b5b62000ded8d828e0162000d00565b98505060608b015167ffffffffffffffff81111562000e115762000e1062000998565b5b62000e1f8d828e0162000d00565b97505060808b015167ffffffffffffffff81111562000e435762000e4262000998565b5b62000e518d828e0162000d00565b96505060a08b015167ffffffffffffffff81111562000e755762000e7462000998565b5b62000e838d828e0162000d00565b95505060c08b015167ffffffffffffffff81111562000ea75762000ea662000998565b5b62000eb58d828e0162000bef565b94505060e08b015167ffffffffffffffff81111562000ed95762000ed862000998565b5b62000ee78d828e0162000bef565b9350506101008b015167ffffffffffffffff81111562000f0c5762000f0b62000998565b5b62000f1a8d828e0162000d00565b9250506101208b015167ffffffffffffffff81111562000f3f5762000f3e62000998565b5b62000f4d8d828e0162000d00565b9150509295989b9194979a5092959850565b600082825260208201905092915050565b7f4f6e65206f662074686520676976656e204e46542064656661756c742061727260008201527f617973206973206f6464206c656e677468000000000000000000000000000000602082015250565b600062000fce60318362000f5f565b915062000fdb8262000f70565b604082019050919050565b60006020820190508181036000830152620010018162000fbf565b9050919050565b7f4f6e65206f662074686520676976656e20626f73732064656661756c7420617260008201527f72617973206973206f6464206c656e6774680000000000000000000000000000602082015250565b60006200106660328362000f5f565b9150620010738262001008565b604082019050919050565b60006020820190508181036000830152620010998162001057565b9050919050565b7f4e487b7100000000000000000000000000000000000000000000000000000000600052603260045260246000fd5b7f4e487b7100000000000000000000000000000000000000000000000000000000600052601160045260246000fd5b60006200110b8262000c51565b91507fffffffffffffffffffffffffffffffffffffffffffffffffffffffffffffffff820362001140576200113f620010cf565b5b600182019050919050565b600067ffffffffffffffff82169050919050565b6200116a816200114b565b81146200117657600080fd5b50565b6000815190506200118a816200115f565b92915050565b600060208284031215620011a957620011a862000993565b5b6000620011b98482850162001179565b91505092915050565b620011cd816200114b565b82525050565b600073ffffffffffffffffffffffffffffffffffffffff82169050919050565b60006200120082620011d3565b9050919050565b6200121281620011f3565b82525050565b60006040820190506200122f6000830185620011c2565b6200123e602083018462001207565b9392505050565b7f4e487b7100000000000000000000000000000000000000000000000000000000600052602260045260246000fd5b600060028204905060018216806200128d57607f821691505b602082108103620012a357620012a262001245565b5b50919050565b608051614e43620012cc60003960008181610b8b0152610bdf0152614e436000f3fe6080604052600436106101cd5760003560e01c80636a908152116100f7578063a22cb46511610095578063c87b56dd11610064578063c87b56dd146106a9578063d4b5d603146106e6578063e92003371461072a578063e985e9c514610734576101cd565b8063a22cb46514610603578063b88d4fde1461062c578063bdb4b84814610655578063c106065314610680576101cd565b80638545f4ea116100d15780638545f4ea14610555578063856f8c351461057e5780638da5cb5b146105ad57806395d89b41146105d8576101cd565b80636a9081521461049757806370a08231146104db578063775bb50e14610518576101cd565b80631fe543e31161016f57806357970e931161013e57806357970e93146103d957806357d3acce146104045780636352211e1461042f578063657633ad1461046c576101cd565b80631fe543e31461031d578063204597e01461034657806323b872dd1461038757806342842e0e146103b0576101cd565b8063081812fc116101ab578063081812fc14610263578063095ea7b3146102a05780630a009097146102c957806313af4035146102f4576101cd565b806301ffc9a7146101d257806302c4d72b1461020f57806306fdde0314610238575b600080fd5b3480156101de57600080fd5b506101f960048036038101906101f491906130d2565b610771565b604051610206919061311a565b60405180910390f35b34801561021b57600080fd5b50610236600480360381019061023191906132c4565b610853565b005b34801561024457600080fd5b5061024d610861565b60405161025a91906133a8565b60405180910390f35b34801561026f57600080fd5b5061028a600480360381019061028591906133ca565b6108f3565b6040516102979190613438565b60405180910390f35b3480156102ac57600080fd5b506102c760048036038101906102c2919061347f565b610978565b005b3480156102d557600080fd5b506102de610a8f565b6040516102eb919061351e565b60405180910390f35b34801561030057600080fd5b5061031b60048036038101906103169190613539565b610ab5565b005b34801561032957600080fd5b50610344600480360381019061033f91906132c4565b610b89565b005b34801561035257600080fd5b5061036d600480360381019061036891906133ca565b610c49565b60405161037e959493929190613575565b60405180910390f35b34801561039357600080fd5b506103ae60048036038101906103a991906135d6565b610d9f565b005b3480156103bc57600080fd5b506103d760048036038101906103d291906135d6565b610dff565b005b3480156103e557600080fd5b506103ee610e1f565b6040516103fb919061364a565b60405180910390f35b34801561041057600080fd5b50610419610e45565b6040516104269190613837565b60405180910390f35b34801561043b57600080fd5b50610456600480360381019061045191906133ca565b611005565b6040516104639190613438565b60405180910390f35b34801561047857600080fd5b506104816110b6565b60405161048e9190613859565b60405180910390f35b3480156104a357600080fd5b506104be60048036038101906104b991906133ca565b6110bc565b6040516104d2989796959493929190613874565b60405180910390f35b3480156104e757600080fd5b5061050260048036038101906104fd9190613539565b611224565b60405161050f9190613859565b60405180910390f35b34801561052457600080fd5b5061053f600480360381019061053a919061347f565b6112db565b60405161054c9190613859565b60405180910390f35b34801561056157600080fd5b5061057c600480360381019061057791906133ca565b61130c565b005b34801561058a57600080fd5b506105936113a6565b6040516105a4959493929190613575565b60405180910390f35b3480156105b957600080fd5b506105c26114da565b6040516105cf9190613438565b60405180910390f35b3480156105e457600080fd5b506105ed611500565b6040516105fa91906133a8565b60405180910390f35b34801561060f57600080fd5b5061062a6004803603810190610625919061392c565b611592565b005b34801561063857600080fd5b50610653600480360381019061064e9190613a21565b6115a8565b005b34801561066157600080fd5b5061066a61160a565b6040516106779190613859565b60405180910390f35b34801561068c57600080fd5b506106a760048036038101906106a291906133ca565b611610565b005b3480156106b557600080fd5b506106d060048036038101906106cb91906133ca565b61179d565b6040516106dd91906133a8565b60405180910390f35b3480156106f257600080fd5b5061070d600480360381019061070891906133ca565b6119f8565b604051610721989796959493929190613874565b60405180910390f35b610732611b50565b005b34801561074057600080fd5b5061075b60048036038101906107569190613aa4565b611bc4565b604051610768919061311a565b60405180910390f35b60007f80ac58cd000000000000000000000000000000000000000000000000000000007bffffffffffffffffffffffffffffffffffffffffffffffffffffffff1916827bffffffffffffffffffffffffffffffffffffffffffffffffffffffff1916148061083c57507f5b5e139f000000000000000000000000000000000000000000000000000000007bffffffffffffffffffffffffffffffffffffffffffffffffffffffff1916827bffffffffffffffffffffffffffffffffffffffffffffffffffffffff1916145b8061084c575061084b82611c6e565b5b9050919050565b61085d8282611cd8565b5050565b60606000805461087090613b13565b80601f016020809104026020016040519081016040528092919081815260200182805461089c90613b13565b80156108e95780601f106108be576101008083540402835291602001916108e9565b820191906000526020600020905b8154815290600101906020018083116108cc57829003601f168201915b5050505050905090565b60006108fe82611de8565b61093d576040517f08c379a000000000000000000000000000000000000000000000000000000000815260040161093490613bb6565b60405180910390fd5b6004600083815260200190815260200160002060009054906101000a900473ffffffffffffffffffffffffffffffffffffffff169050919050565b600061098382611005565b90508073ffffffffffffffffffffffffffffffffffffffff168373ffffffffffffffffffffffffffffffffffffffff16036109f3576040517f08c379a00000000000000000000000000000000000000000000000000000000081526004016109ea90613c48565b60405180910390fd5b8073ffffffffffffffffffffffffffffffffffffffff16610a12611e54565b73ffffffffffffffffffffffffffffffffffffffff161480610a415750610a4081610a3b611e54565b611bc4565b5b610a80576040517f08c379a0000000000000000000000000000000000000000000000000000000008152600401610a7790613cda565b60405180910390fd5b610a8a8383611e5c565b505050565b600660009054906101000a900473ffffffffffffffffffffffffffffffffffffffff1681565b601860009054906101000a900473ffffffffffffffffffffffffffffffffffffffff1673ffffffffffffffffffffffffffffffffffffffff163373ffffffffffffffffffffffffffffffffffffffff1614610b45576040517f08c379a0000000000000000000000000000000000000000000000000000000008152600401610b3c90613d46565b60405180910390fd5b80601860006101000a81548173ffffffffffffffffffffffffffffffffffffffff021916908373ffffffffffffffffffffffffffffffffffffffff16021790555050565b7f000000000000000000000000000000000000000000000000000000000000000073ffffffffffffffffffffffffffffffffffffffff163373ffffffffffffffffffffffffffffffffffffffff1614610c3b57337f00000000000000000000000000000000000000000000000000000000000000006040517f1cf993f4000000000000000000000000000000000000000000000000000000008152600401610c32929190613d66565b60405180910390fd5b610c458282611cd8565b5050565b60118181548110610c5957600080fd5b9060005260206000209060050201600091509050806000018054610c7c90613b13565b80601f0160208091040260200160405190810160405280929190818152602001828054610ca890613b13565b8015610cf55780601f10610cca57610100808354040283529160200191610cf5565b820191906000526020600020905b815481529060010190602001808311610cd857829003601f168201915b505050505090806001018054610d0a90613b13565b80601f0160208091040260200160405190810160405280929190818152602001828054610d3690613b13565b8015610d835780601f10610d5857610100808354040283529160200191610d83565b820191906000526020600020905b815481529060010190602001808311610d6657829003601f168201915b5050505050908060020154908060030154908060040154905085565b610db0610daa611e54565b82611f15565b610def576040517f08c379a0000000000000000000000000000000000000000000000000000000008152600401610de690613e01565b60405180910390fd5b610dfa838383611ff3565b505050565b610e1a838383604051806020016040528060008152506115a8565b505050565b600760009054906101000a900473ffffffffffffffffffffffffffffffffffffffff1681565b6060600e805480602002602001604051908101604052809291908181526020016000905b82821015610ffc57838290600052602060002090600802016040518061010001604052908160008201548152602001600182018054610ea790613b13565b80601f0160208091040260200160405190810160405280929190818152602001828054610ed390613b13565b8015610f205780601f10610ef557610100808354040283529160200191610f20565b820191906000526020600020905b815481529060010190602001808311610f0357829003601f168201915b50505050508152602001600282018054610f3990613b13565b80601f0160208091040260200160405190810160405280929190818152602001828054610f6590613b13565b8015610fb25780601f10610f8757610100808354040283529160200191610fb2565b820191906000526020600020905b815481529060010190602001808311610f9557829003601f168201915b505050505081526020016003820154815260200160048201548152602001600582015481526020016006820154815260200160078201548152505081526020019060010190610e69565b50505050905090565b6000806002600084815260200190815260200160002060009054906101000a900473ffffffffffffffffffffffffffffffffffffffff169050600073ffffffffffffffffffffffffffffffffffffffff168173ffffffffffffffffffffffffffffffffffffffff16036110ad576040517f08c379a00000000000000000000000000000000000000000000000000000000081526004016110a490613e93565b60405180910390fd5b80915050919050565b60195481565b600e81815481106110cc57600080fd5b90600052602060002090600802016000915090508060000154908060010180546110f590613b13565b80601f016020809104026020016040519081016040528092919081815260200182805461112190613b13565b801561116e5780601f106111435761010080835404028352916020019161116e565b820191906000526020600020905b81548152906001019060200180831161115157829003601f168201915b50505050509080600201805461118390613b13565b80601f01602080910402602001604051908101604052809291908181526020018280546111af90613b13565b80156111fc5780601f106111d1576101008083540402835291602001916111fc565b820191906000526020600020905b8154815290600101906020018083116111df57829003601f168201915b5050505050908060030154908060040154908060050154908060060154908060070154905088565b60008073ffffffffffffffffffffffffffffffffffffffff168273ffffffffffffffffffffffffffffffffffffffff1603611294576040517f08c379a000000000000000000000000000000000000000000000000000000000815260040161128b90613f25565b60405180910390fd5b600360008373ffffffffffffffffffffffffffffffffffffffff1673ffffffffffffffffffffffffffffffffffffffff168152602001908152602001600020549050919050565b601060205281600052604060002081815481106112f757600080fd5b90600052602060002001600091509150505481565b601860009054906101000a900473ffffffffffffffffffffffffffffffffffffffff1673ffffffffffffffffffffffffffffffffffffffff163373ffffffffffffffffffffffffffffffffffffffff161461139c576040517f08c379a000000000000000000000000000000000000000000000000000000000815260040161139390613d46565b60405180910390fd5b8060178190555050565b60128060000180546113b790613b13565b80601f01602080910402602001604051908101604052809291908181526020018280546113e390613b13565b80156114305780601f1061140557610100808354040283529160200191611430565b820191906000526020600020905b81548152906001019060200180831161141357829003601f168201915b50505050509080600101805461144590613b13565b80601f016020809104026020016040519081016040528092919081815260200182805461147190613b13565b80156114be5780601f10611493576101008083540402835291602001916114be565b820191906000526020600020905b8154815290600101906020018083116114a157829003601f168201915b5050505050908060020154908060030154908060040154905085565b601860009054906101000a900473ffffffffffffffffffffffffffffffffffffffff1681565b60606001805461150f90613b13565b80601f016020809104026020016040519081016040528092919081815260200182805461153b90613b13565b80156115885780601f1061155d57610100808354040283529160200191611588565b820191906000526020600020905b81548152906001019060200180831161156b57829003601f168201915b5050505050905090565b6115a461159d611e54565b8383612259565b5050565b6115b96115b3611e54565b83611f15565b6115f8576040517f08c379a00000000000000000000000000000000000000000000000000000000081526004016115ef90613e01565b60405180910390fd5b611604848484846123c5565b50505050565b60175481565b601860009054906101000a900473ffffffffffffffffffffffffffffffffffffffff1673ffffffffffffffffffffffffffffffffffffffff163373ffffffffffffffffffffffffffffffffffffffff16146116a0576040517f08c379a000000000000000000000000000000000000000000000000000000000815260040161169790613d46565b60405180910390fd5b600760009054906101000a900473ffffffffffffffffffffffffffffffffffffffff1673ffffffffffffffffffffffffffffffffffffffff16634000aea0600860009054906101000a900473ffffffffffffffffffffffffffffffffffffffff1683600b60009054906101000a900467ffffffffffffffff166040516020016117299190613f68565b6040516020818303038152906040526040518463ffffffff1660e01b815260040161175693929190613fd8565b6020604051808303816000875af1158015611775573d6000803e3d6000fd5b505050506040513d601f19601f82011682018060405250810190611799919061402b565b5050565b60606000600f600084815260200190815260200160002060405180610100016040529081600082015481526020016001820180546117da90613b13565b80601f016020809104026020016040519081016040528092919081815260200182805461180690613b13565b80156118535780601f1061182857610100808354040283529160200191611853565b820191906000526020600020905b81548152906001019060200180831161183657829003601f168201915b5050505050815260200160028201805461186c90613b13565b80601f016020809104026020016040519081016040528092919081815260200182805461189890613b13565b80156118e55780601f106118ba576101008083540402835291602001916118e5565b820191906000526020600020905b8154815290600101906020018083116118c857829003601f168201915b5050505050815260200160038201548152602001600482015481526020016005820154815260200160068201548152602001600782015481525050905060006119c7826020015161193586612421565b84604001516119478660600151612421565b6119548760800151612421565b6119618860a00151612421565b61196b6032612421565b6119788a60c00151612421565b6119826032612421565b61198f8c60e00151612421565b6119996032612421565b6040516020016119b39b9a99989796959493929190614424565b604051602081830303815290604052612581565b90506000816040516020016119dc919061458d565b6040516020818303038152906040529050809350505050919050565b600f602052806000526040600020600091509050806000015490806001018054611a2190613b13565b80601f0160208091040260200160405190810160405280929190818152602001828054611a4d90613b13565b8015611a9a5780601f10611a6f57610100808354040283529160200191611a9a565b820191906000526020600020905b815481529060010190602001808311611a7d57829003601f168201915b505050505090806002018054611aaf90613b13565b80601f0160208091040260200160405190810160405280929190818152602001828054611adb90613b13565b8015611b285780601f10611afd57610100808354040283529160200191611b28565b820191906000526020600020905b815481529060010190602001808311611b0b57829003601f168201915b5050505050908060030154908060040154908060050154908060060154908060070154905088565b60006017541115611ba0576017543414611b9f576040517f08c379a0000000000000000000000000000000000000000000000000000000008152600401611b96906145fb565b60405180910390fd5b5b6000611bac600d612718565b9050611bb781612726565b611bc1600d611c58565b50565b6000600560008473ffffffffffffffffffffffffffffffffffffffff1673ffffffffffffffffffffffffffffffffffffffff16815260200190815260200160002060008373ffffffffffffffffffffffffffffffffffffffff1673ffffffffffffffffffffffffffffffffffffffff16815260200190815260200160002060009054906101000a900460ff16905092915050565b6001816000016000828254019250508190555050565b60007f01ffc9a7000000000000000000000000000000000000000000000000000000007bffffffffffffffffffffffffffffffffffffffffffffffffffffffff1916827bffffffffffffffffffffffffffffffffffffffffffffffffffffffff1916149050919050565b6000600c60008481526020019081526020016000206040518060400160405290816000820160009054906101000a900473ffffffffffffffffffffffffffffffffffffffff1673ffffffffffffffffffffffffffffffffffffffff1673ffffffffffffffffffffffffffffffffffffffff1681526020016001820154815250509050600c6000848152602001908152602001600020600080820160006101000a81549073ffffffffffffffffffffffffffffffffffffffff0219169055600182016000905550506000600e8054905083600081518110611dbb57611dba61461b565b5b6020026020010151611dcd9190614679565b9050611de2826000015183602001518361288a565b50505050565b60008073ffffffffffffffffffffffffffffffffffffffff166002600084815260200190815260200160002060009054906101000a900473ffffffffffffffffffffffffffffffffffffffff1673ffffffffffffffffffffffffffffffffffffffff1614159050919050565b600033905090565b816004600083815260200190815260200160002060006101000a81548173ffffffffffffffffffffffffffffffffffffffff021916908373ffffffffffffffffffffffffffffffffffffffff160217905550808273ffffffffffffffffffffffffffffffffffffffff16611ecf83611005565b73ffffffffffffffffffffffffffffffffffffffff167f8c5be1e5ebec7d5bd14f71427d1e84f3dd0314c0f7b2291e5b200ac8c7c3b92560405160405180910390a45050565b6000611f2082611de8565b611f5f576040517f08c379a0000000000000000000000000000000000000000000000000000000008152600401611f569061471c565b60405180910390fd5b6000611f6a83611005565b90508073ffffffffffffffffffffffffffffffffffffffff168473ffffffffffffffffffffffffffffffffffffffff161480611fd957508373ffffffffffffffffffffffffffffffffffffffff16611fc1846108f3565b73ffffffffffffffffffffffffffffffffffffffff16145b80611fea5750611fe98185611bc4565b5b91505092915050565b8273ffffffffffffffffffffffffffffffffffffffff1661201382611005565b73ffffffffffffffffffffffffffffffffffffffff1614612069576040517f08c379a0000000000000000000000000000000000000000000000000000000008152600401612060906147ae565b60405180910390fd5b600073ffffffffffffffffffffffffffffffffffffffff168273ffffffffffffffffffffffffffffffffffffffff16036120d8576040517f08c379a00000000000000000000000000000000000000000000000000000000081526004016120cf90614840565b60405180910390fd5b6120e3838383612bbd565b6120ee600082611e5c565b6001600360008573ffffffffffffffffffffffffffffffffffffffff1673ffffffffffffffffffffffffffffffffffffffff168152602001908152602001600020600082825461213e919061488f565b925050819055506001600360008473ffffffffffffffffffffffffffffffffffffffff1673ffffffffffffffffffffffffffffffffffffffff168152602001908152602001600020600082825461219591906148c3565b92505081905550816002600083815260200190815260200160002060006101000a81548173ffffffffffffffffffffffffffffffffffffffff021916908373ffffffffffffffffffffffffffffffffffffffff160217905550808273ffffffffffffffffffffffffffffffffffffffff168473ffffffffffffffffffffffffffffffffffffffff167fddf252ad1be2c89b69c2b068fc378daa952ba7f163c4a11628f55a4df523b3ef60405160405180910390a4612254838383612bc2565b505050565b8173ffffffffffffffffffffffffffffffffffffffff168373ffffffffffffffffffffffffffffffffffffffff16036122c7576040517f08c379a00000000000000000000000000000000000000000000000000000000081526004016122be90614965565b60405180910390fd5b80600560008573ffffffffffffffffffffffffffffffffffffffff1673ffffffffffffffffffffffffffffffffffffffff16815260200190815260200160002060008473ffffffffffffffffffffffffffffffffffffffff1673ffffffffffffffffffffffffffffffffffffffff16815260200190815260200160002060006101000a81548160ff0219169083151502179055508173ffffffffffffffffffffffffffffffffffffffff168373ffffffffffffffffffffffffffffffffffffffff167f17307eab39ab6107e8899845ad3d59bd9653f200f220920489ca2b5937696c31836040516123b8919061311a565b60405180910390a3505050565b6123d0848484611ff3565b6123dc84848484612bc7565b61241b576040517f08c379a0000000000000000000000000000000000000000000000000000000008152600401612412906149f7565b60405180910390fd5b50505050565b606060008203612468576040518060400160405280600181526020017f3000000000000000000000000000000000000000000000000000000000000000815250905061257c565b600082905060005b6000821461249a57808061248390614a17565b915050600a826124939190614a5f565b9150612470565b60008167ffffffffffffffff8111156124b6576124b5613181565b5b6040519080825280601f01601f1916602001820160405280156124e85781602001600182028036833780820191505090505b5090505b6000851461257557600182612501919061488f565b9150600a856125109190614679565b603061251c91906148c3565b60f81b8183815181106125325761253161461b565b5b60200101907effffffffffffffffffffffffffffffffffffffffffffffffffffffffffffff1916908160001a905350600a8561256e9190614a5f565b94506124ec565b8093505050505b919050565b6060600082519050600081036125a95760405180602001604052806000815250915050612713565b600060036002836125ba91906148c3565b6125c49190614a5f565b60046125d09190614a90565b905060006020826125e191906148c3565b67ffffffffffffffff8111156125fa576125f9613181565b5b6040519080825280601f01601f19166020018201604052801561262c5781602001600182028036833780820191505090505b5090506000604051806060016040528060408152602001614dce604091399050600181016020830160005b868110156126d05760038101905062ffffff818a015116603f8160121c168401518060081b905060ff603f83600c1c1686015116810190508060081b905060ff603f8360061c1686015116810190508060081b905060ff603f831686015116810190508060e01b90508084526004840193505050612657565b5060038606600181146126ea57600281146126fa57612705565b613d3d60f01b6002830352612705565b603d60f81b60018303525b508484525050819450505050505b919050565b600081600001549050919050565b6000600660009054906101000a900473ffffffffffffffffffffffffffffffffffffffff1673ffffffffffffffffffffffffffffffffffffffff16635d3b1d30600a54600b60009054906101000a900467ffffffffffffffff166003620186a060016040518663ffffffff1660e01b81526004016127a8959493929190614bd2565b6020604051808303816000875af11580156127c7573d6000803e3d6000fd5b505050506040513d601f19601f820116820180604052508101906127eb9190614c3a565b90508060198190555060405180604001604052803373ffffffffffffffffffffffffffffffffffffffff16815260200183815250600c600083815260200190815260200160002060008201518160000160006101000a81548173ffffffffffffffffffffffffffffffffffffffff021916908373ffffffffffffffffffffffffffffffffffffffff160217905550602082015181600101559050505050565b6000600e82815481106128a05761289f61461b565b5b906000526020600020906008020160405180610100016040529081600082015481526020016001820180546128d490613b13565b80601f016020809104026020016040519081016040528092919081815260200182805461290090613b13565b801561294d5780601f106129225761010080835404028352916020019161294d565b820191906000526020600020905b81548152906001019060200180831161293057829003601f168201915b5050505050815260200160028201805461296690613b13565b80601f016020809104026020016040519081016040528092919081815260200182805461299290613b13565b80156129df5780601f106129b4576101008083540402835291602001916129df565b820191906000526020600020905b8154815290600101906020018083116129c257829003601f168201915b5050505050815260200160038201548152602001600482015481526020016005820154815260200160068201548152602001600782015481525050905060405180610100016040528082600001518152602001826020015181526020018260400151815260200182606001518152602001826060015181526020018260a0015181526020018260c0015181526020018260e00151815250600f6000858152602001908152602001600020600082015181600001556020820151816001019080519060200190612aaf929190612fc3565b506040820151816002019080519060200190612acc929190612fc3565b50606082015181600301556080820151816004015560a0820151816005015560c0820151816006015560e08201518160070155905050601060008573ffffffffffffffffffffffffffffffffffffffff1673ffffffffffffffffffffffffffffffffffffffff168152602001908152602001600020839080600181540180825580915050600190039060005260206000200160009091909190915055612b728484612d4e565b81838573ffffffffffffffffffffffffffffffffffffffff167f4c209b5fc8ad50758f13e2e1088ba56a560dff690a1c6fef26394f4c03821c4f60405160405180910390a450505050565b505050565b505050565b6000612be88473ffffffffffffffffffffffffffffffffffffffff16612d6c565b15612d41578373ffffffffffffffffffffffffffffffffffffffff1663150b7a02612c11611e54565b8786866040518563ffffffff1660e01b8152600401612c339493929190614c67565b6020604051808303816000875af1925050508015612c6f57506040513d601f19601f82011682018060405250810190612c6c9190614cc8565b60015b612cf1573d8060008114612c9f576040519150601f19603f3d011682016040523d82523d6000602084013e612ca4565b606091505b506000815103612ce9576040517f08c379a0000000000000000000000000000000000000000000000000000000008152600401612ce0906149f7565b60405180910390fd5b805181602001fd5b63150b7a0260e01b7bffffffffffffffffffffffffffffffffffffffffffffffffffffffff1916817bffffffffffffffffffffffffffffffffffffffffffffffffffffffff191614915050612d46565b600190505b949350505050565b612d68828260405180602001604052806000815250612d8f565b5050565b6000808273ffffffffffffffffffffffffffffffffffffffff163b119050919050565b612d998383612dea565b612da66000848484612bc7565b612de5576040517f08c379a0000000000000000000000000000000000000000000000000000000008152600401612ddc906149f7565b60405180910390fd5b505050565b600073ffffffffffffffffffffffffffffffffffffffff168273ffffffffffffffffffffffffffffffffffffffff1603612e59576040517f08c379a0000000000000000000000000000000000000000000000000000000008152600401612e5090614d41565b60405180910390fd5b612e6281611de8565b15612ea2576040517f08c379a0000000000000000000000000000000000000000000000000000000008152600401612e9990614dad565b60405180910390fd5b612eae60008383612bbd565b6001600360008473ffffffffffffffffffffffffffffffffffffffff1673ffffffffffffffffffffffffffffffffffffffff1681526020019081526020016000206000828254612efe91906148c3565b92505081905550816002600083815260200190815260200160002060006101000a81548173ffffffffffffffffffffffffffffffffffffffff021916908373ffffffffffffffffffffffffffffffffffffffff160217905550808273ffffffffffffffffffffffffffffffffffffffff16600073ffffffffffffffffffffffffffffffffffffffff167fddf252ad1be2c89b69c2b068fc378daa952ba7f163c4a11628f55a4df523b3ef60405160405180910390a4612fbf60008383612bc2565b5050565b828054612fcf90613b13565b90600052602060002090601f016020900481019282612ff15760008555613038565b82601f1061300a57805160ff1916838001178555613038565b82800160010185558215613038579182015b8281111561303757825182559160200191906001019061301c565b5b5090506130459190613049565b5090565b5b8082111561306257600081600090555060010161304a565b5090565b6000604051905090565b600080fd5b600080fd5b60007fffffffff0000000000000000000000000000000000000000000000000000000082169050919050565b6130af8161307a565b81146130ba57600080fd5b50565b6000813590506130cc816130a6565b92915050565b6000602082840312156130e8576130e7613070565b5b60006130f6848285016130bd565b91505092915050565b60008115159050919050565b613114816130ff565b82525050565b600060208201905061312f600083018461310b565b92915050565b6000819050919050565b61314881613135565b811461315357600080fd5b50565b6000813590506131658161313f565b92915050565b600080fd5b6000601f19601f8301169050919050565b7f4e487b7100000000000000000000000000000000000000000000000000000000600052604160045260246000fd5b6131b982613170565b810181811067ffffffffffffffff821117156131d8576131d7613181565b5b80604052505050565b60006131eb613066565b90506131f782826131b0565b919050565b600067ffffffffffffffff82111561321757613216613181565b5b602082029050602081019050919050565b600080fd5b600061324061323b846131fc565b6131e1565b9050808382526020820190506020840283018581111561326357613262613228565b5b835b8181101561328c57806132788882613156565b845260208401935050602081019050613265565b5050509392505050565b600082601f8301126132ab576132aa61316b565b5b81356132bb84826020860161322d565b91505092915050565b600080604083850312156132db576132da613070565b5b60006132e985828601613156565b925050602083013567ffffffffffffffff81111561330a57613309613075565b5b61331685828601613296565b9150509250929050565b600081519050919050565b600082825260208201905092915050565b60005b8381101561335a57808201518184015260208101905061333f565b83811115613369576000848401525b50505050565b600061337a82613320565b613384818561332b565b935061339481856020860161333c565b61339d81613170565b840191505092915050565b600060208201905081810360008301526133c2818461336f565b905092915050565b6000602082840312156133e0576133df613070565b5b60006133ee84828501613156565b91505092915050565b600073ffffffffffffffffffffffffffffffffffffffff82169050919050565b6000613422826133f7565b9050919050565b61343281613417565b82525050565b600060208201905061344d6000830184613429565b92915050565b61345c81613417565b811461346757600080fd5b50565b60008135905061347981613453565b92915050565b6000806040838503121561349657613495613070565b5b60006134a48582860161346a565b92505060206134b585828601613156565b9150509250929050565b6000819050919050565b60006134e46134df6134da846133f7565b6134bf565b6133f7565b9050919050565b60006134f6826134c9565b9050919050565b6000613508826134eb565b9050919050565b613518816134fd565b82525050565b6000602082019050613533600083018461350f565b92915050565b60006020828403121561354f5761354e613070565b5b600061355d8482850161346a565b91505092915050565b61356f81613135565b82525050565b600060a082019050818103600083015261358f818861336f565b905081810360208301526135a3818761336f565b90506135b26040830186613566565b6135bf6060830185613566565b6135cc6080830184613566565b9695505050505050565b6000806000606084860312156135ef576135ee613070565b5b60006135fd8682870161346a565b935050602061360e8682870161346a565b925050604061361f86828701613156565b9150509250925092565b6000613634826134eb565b9050919050565b61364481613629565b82525050565b600060208201905061365f600083018461363b565b92915050565b600081519050919050565b600082825260208201905092915050565b6000819050602082019050919050565b61369a81613135565b82525050565b600082825260208201905092915050565b60006136bc82613320565b6136c681856136a0565b93506136d681856020860161333c565b6136df81613170565b840191505092915050565b6000610100830160008301516137036000860182613691565b506020830151848203602086015261371b82826136b1565b9150506040830151848203604086015261373582826136b1565b915050606083015161374a6060860182613691565b50608083015161375d6080860182613691565b5060a083015161377060a0860182613691565b5060c083015161378360c0860182613691565b5060e083015161379660e0860182613691565b508091505092915050565b60006137ad83836136ea565b905092915050565b6000602082019050919050565b60006137cd82613665565b6137d78185613670565b9350836020820285016137e985613681565b8060005b85811015613825578484038952815161380685826137a1565b9450613811836137b5565b925060208a019950506001810190506137ed565b50829750879550505050505092915050565b6000602082019050818103600083015261385181846137c2565b905092915050565b600060208201905061386e6000830184613566565b92915050565b60006101008201905061388a600083018b613566565b818103602083015261389c818a61336f565b905081810360408301526138b0818961336f565b90506138bf6060830188613566565b6138cc6080830187613566565b6138d960a0830186613566565b6138e660c0830185613566565b6138f360e0830184613566565b9998505050505050505050565b613909816130ff565b811461391457600080fd5b50565b60008135905061392681613900565b92915050565b6000806040838503121561394357613942613070565b5b60006139518582860161346a565b925050602061396285828601613917565b9150509250929050565b600080fd5b600067ffffffffffffffff82111561398c5761398b613181565b5b61399582613170565b9050602081019050919050565b82818337600083830152505050565b60006139c46139bf84613971565b6131e1565b9050828152602081018484840111156139e0576139df61396c565b5b6139eb8482856139a2565b509392505050565b600082601f830112613a0857613a0761316b565b5b8135613a188482602086016139b1565b91505092915050565b60008060008060808587031215613a3b57613a3a613070565b5b6000613a498782880161346a565b9450506020613a5a8782880161346a565b9350506040613a6b87828801613156565b925050606085013567ffffffffffffffff811115613a8c57613a8b613075565b5b613a98878288016139f3565b91505092959194509250565b60008060408385031215613abb57613aba613070565b5b6000613ac98582860161346a565b9250506020613ada8582860161346a565b9150509250929050565b7f4e487b7100000000000000000000000000000000000000000000000000000000600052602260045260246000fd5b60006002820490506001821680613b2b57607f821691505b602082108103613b3e57613b3d613ae4565b5b50919050565b7f4552433732313a20617070726f76656420717565727920666f72206e6f6e657860008201527f697374656e7420746f6b656e0000000000000000000000000000000000000000602082015250565b6000613ba0602c8361332b565b9150613bab82613b44565b604082019050919050565b60006020820190508181036000830152613bcf81613b93565b9050919050565b7f4552433732313a20617070726f76616c20746f2063757272656e74206f776e6560008201527f7200000000000000000000000000000000000000000000000000000000000000602082015250565b6000613c3260218361332b565b9150613c3d82613bd6565b604082019050919050565b60006020820190508181036000830152613c6181613c25565b9050919050565b7f4552433732313a20617070726f76652063616c6c6572206973206e6f74206f7760008201527f6e6572206e6f7220617070726f76656420666f7220616c6c0000000000000000602082015250565b6000613cc460388361332b565b9150613ccf82613c68565b604082019050919050565b60006020820190508181036000830152613cf381613cb7565b9050919050565b7f43616c6c6572206d757374206265206f776e6572000000000000000000000000600082015250565b6000613d3060148361332b565b9150613d3b82613cfa565b602082019050919050565b60006020820190508181036000830152613d5f81613d23565b9050919050565b6000604082019050613d7b6000830185613429565b613d886020830184613429565b9392505050565b7f4552433732313a207472616e736665722063616c6c6572206973206e6f74206f60008201527f776e6572206e6f7220617070726f766564000000000000000000000000000000602082015250565b6000613deb60318361332b565b9150613df682613d8f565b604082019050919050565b60006020820190508181036000830152613e1a81613dde565b9050919050565b7f4552433732313a206f776e657220717565727920666f72206e6f6e657869737460008201527f656e7420746f6b656e0000000000000000000000000000000000000000000000602082015250565b6000613e7d60298361332b565b9150613e8882613e21565b604082019050919050565b60006020820190508181036000830152613eac81613e70565b9050919050565b7f4552433732313a2062616c616e636520717565727920666f7220746865207a6560008201527f726f206164647265737300000000000000000000000000000000000000000000602082015250565b6000613f0f602a8361332b565b9150613f1a82613eb3565b604082019050919050565b60006020820190508181036000830152613f3e81613f02565b9050919050565b600067ffffffffffffffff82169050919050565b613f6281613f45565b82525050565b6000602082019050613f7d6000830184613f59565b92915050565b600081519050919050565b600082825260208201905092915050565b6000613faa82613f83565b613fb48185613f8e565b9350613fc481856020860161333c565b613fcd81613170565b840191505092915050565b6000606082019050613fed6000830186613429565b613ffa6020830185613566565b818103604083015261400c8184613f9f565b9050949350505050565b60008151905061402581613900565b92915050565b60006020828403121561404157614040613070565b5b600061404f84828501614016565b91505092915050565b600081905092915050565b7f7b226e616d65223a202200000000000000000000000000000000000000000000600082015250565b6000614099600a83614058565b91506140a482614063565b600a82019050919050565b60006140ba82613320565b6140c48185614058565b93506140d481856020860161333c565b80840191505092915050565b7f202d2d204e465420233a20000000000000000000000000000000000000000000600082015250565b6000614116600b83614058565b9150614121826140e0565b600b82019050919050565b7f222c20226465736372697074696f6e223a202241204865726f204e465420746860008201527f6174206c65747320796f7520706c6179204d6f6e7374657220536c617965722160208201527f222c2022696d616765223a202200000000000000000000000000000000000000604082015250565b60006141ae604d83614058565b91506141b98261412c565b604d82019050919050565b7f222c202261747472696275746573223a205b207b202274726169745f7479706560008201527f223a20224865616c746820506f696e7473222c202276616c7565223a20000000602082015250565b6000614220603d83614058565b915061422b826141c4565b603d82019050919050565b7f2c20226d61785f76616c7565223a000000000000000000000000000000000000600082015250565b600061426c600e83614058565b915061427782614236565b600e82019050919050565b7f7d2c207b202274726169745f74797065223a202241747461636b2044616d616760008201527f65222c202276616c7565223a2000000000000000000000000000000000000000602082015250565b60006142de602d83614058565b91506142e982614282565b602d82019050919050565b7f7d2c207b202274726169745f74797065223a2022437269746963616c2044616d60008201527f616765204368616e6365222c202276616c7565223a2000000000000000000000602082015250565b6000614350603683614058565b915061435b826142f4565b603682019050919050565b7f7d2c207b202274726169745f74797065223a20224865616c696e6720506f776560008201527f72222c202276616c7565223a2000000000000000000000000000000000000000602082015250565b60006143c2602d83614058565b91506143cd82614366565b602d82019050919050565b7f7d205d7d00000000000000000000000000000000000000000000000000000000600082015250565b600061440e600483614058565b9150614419826143d8565b600482019050919050565b600061442f8261408c565b915061443b828e6140af565b915061444682614109565b9150614452828d6140af565b915061445d826141a1565b9150614469828c6140af565b915061447482614213565b9150614480828b6140af565b915061448b8261425f565b9150614497828a6140af565b91506144a2826142d1565b91506144ae82896140af565b91506144b98261425f565b91506144c582886140af565b91506144d082614343565b91506144dc82876140af565b91506144e78261425f565b91506144f382866140af565b91506144fe826143b5565b915061450a82856140af565b91506145158261425f565b915061452182846140af565b915061452c82614401565b91508190509c9b505050505050505050505050565b7f646174613a6170706c69636174696f6e2f6a736f6e3b6261736536342c000000600082015250565b6000614577601d83614058565b915061458282614541565b601d82019050919050565b60006145988261456a565b91506145a482846140af565b915081905092915050565b7f5061796d656e74206973206e6f7420636f727265637400000000000000000000600082015250565b60006145e560168361332b565b91506145f0826145af565b602082019050919050565b60006020820190508181036000830152614614816145d8565b9050919050565b7f4e487b7100000000000000000000000000000000000000000000000000000000600052603260045260246000fd5b7f4e487b7100000000000000000000000000000000000000000000000000000000600052601260045260246000fd5b600061468482613135565b915061468f83613135565b92508261469f5761469e61464a565b5b828206905092915050565b7f4552433732313a206f70657261746f7220717565727920666f72206e6f6e657860008201527f697374656e7420746f6b656e0000000000000000000000000000000000000000602082015250565b6000614706602c8361332b565b9150614711826146aa565b604082019050919050565b60006020820190508181036000830152614735816146f9565b9050919050565b7f4552433732313a207472616e736665722066726f6d20696e636f72726563742060008201527f6f776e6572000000000000000000000000000000000000000000000000000000602082015250565b600061479860258361332b565b91506147a38261473c565b604082019050919050565b600060208201905081810360008301526147c78161478b565b9050919050565b7f4552433732313a207472616e7366657220746f20746865207a65726f2061646460008201527f7265737300000000000000000000000000000000000000000000000000000000602082015250565b600061482a60248361332b565b9150614835826147ce565b604082019050919050565b600060208201905081810360008301526148598161481d565b9050919050565b7f4e487b7100000000000000000000000000000000000000000000000000000000600052601160045260246000fd5b600061489a82613135565b91506148a583613135565b9250828210156148b8576148b7614860565b5b828203905092915050565b60006148ce82613135565b91506148d983613135565b9250827fffffffffffffffffffffffffffffffffffffffffffffffffffffffffffffffff0382111561490e5761490d614860565b5b828201905092915050565b7f4552433732313a20617070726f766520746f2063616c6c657200000000000000600082015250565b600061494f60198361332b565b915061495a82614919565b602082019050919050565b6000602082019050818103600083015261497e81614942565b9050919050565b7f4552433732313a207472616e7366657220746f206e6f6e20455243373231526560008201527f63656976657220696d706c656d656e7465720000000000000000000000000000602082015250565b60006149e160328361332b565b91506149ec82614985565b604082019050919050565b60006020820190508181036000830152614a10816149d4565b9050919050565b6000614a2282613135565b91507fffffffffffffffffffffffffffffffffffffffffffffffffffffffffffffffff8203614a5457614a53614860565b5b600182019050919050565b6000614a6a82613135565b9150614a7583613135565b925082614a8557614a8461464a565b5b828204905092915050565b6000614a9b82613135565b9150614aa683613135565b9250817fffffffffffffffffffffffffffffffffffffffffffffffffffffffffffffffff0483118215151615614adf57614ade614860565b5b828202905092915050565b6000819050919050565b614afd81614aea565b82525050565b6000819050919050565b600061ffff82169050919050565b6000614b36614b31614b2c84614b03565b6134bf565b614b0d565b9050919050565b614b4681614b1b565b82525050565b6000819050919050565b600063ffffffff82169050919050565b6000614b81614b7c614b7784614b4c565b6134bf565b614b56565b9050919050565b614b9181614b66565b82525050565b6000819050919050565b6000614bbc614bb7614bb284614b97565b6134bf565b614b56565b9050919050565b614bcc81614ba1565b82525050565b600060a082019050614be76000830188614af4565b614bf46020830187613f59565b614c016040830186614b3d565b614c0e6060830185614b88565b614c1b6080830184614bc3565b9695505050505050565b600081519050614c348161313f565b92915050565b600060208284031215614c5057614c4f613070565b5b6000614c5e84828501614c25565b91505092915050565b6000608082019050614c7c6000830187613429565b614c896020830186613429565b614c966040830185613566565b8181036060830152614ca88184613f9f565b905095945050505050565b600081519050614cc2816130a6565b92915050565b600060208284031215614cde57614cdd613070565b5b6000614cec84828501614cb3565b91505092915050565b7f4552433732313a206d696e7420746f20746865207a65726f2061646472657373600082015250565b6000614d2b60208361332b565b9150614d3682614cf5565b602082019050919050565b60006020820190508181036000830152614d5a81614d1e565b9050919050565b7f4552433732313a20746f6b656e20616c7265616479206d696e74656400000000600082015250565b6000614d97601c8361332b565b9150614da282614d61565b602082019050919050565b60006020820190508181036000830152614dc681614d8a565b905091905056fe4142434445464748494a4b4c4d4e4f505152535455565758595a6162636465666768696a6b6c6d6e6f707172737475767778797a303132333435363738392b2fa26469706673582212200a6de9b7f014ce11de407273ef823014eb9250338f498586c31d28e71b3341ad64736f6c634300080d0033",
  "linkReferences": {},
  "deployedLinkReferences": {}
}