{
  "_format": "hh-sol-artifact-1",
  "contractName": "Game",
  "sourceName": "contracts/Game.sol",
  "abi": [
    {
      "inputs": [
        {
          "internalType": "string[]",
          "name": "names",
          "type": "string[]"
        },
        {
          "internalType": "string[]",
          "name": "imageUris",
          "type": "string[]"
        },
        {
          "internalType": "uint256[]",
          "name": "hps",
          "type": "uint256[]"
        },
        {
          "internalType": "uint256[]",
          "name": "damages",
          "type": "uint256[]"
        },
        {
          "internalType": "uint256[]",
          "name": "crits",
          "type": "uint256[]"
        },
        {
          "internalType": "uint256[]",
          "name": "heals",
          "type": "uint256[]"
        },
        {
          "internalType": "string[]",
          "name": "bossNames",
          "type": "string[]"
        },
        {
          "internalType": "string[]",
          "name": "bossImageUris",
          "type": "string[]"
        },
        {
          "internalType": "uint256[]",
          "name": "bossHps",
          "type": "uint256[]"
        },
        {
          "internalType": "uint256[]",
          "name": "bossDamage",
          "type": "uint256[]"
        },
        {
          "internalType": "address",
          "name": "_coordinatorAddress",
          "type": "address"
        }
      ],
      "stateMutability": "nonpayable",
      "type": "constructor"
    },
    {
      "inputs": [
        {
          "internalType": "address",
          "name": "have",
          "type": "address"
        },
        {
          "internalType": "address",
          "name": "want",
          "type": "address"
        }
      ],
      "name": "OnlyCoordinatorCanFulfill",
      "type": "error"
    },
    {
      "anonymous": false,
      "inputs": [
        {
          "indexed": true,
          "internalType": "address",
          "name": "owner",
          "type": "address"
        },
        {
          "indexed": true,
          "internalType": "address",
          "name": "approved",
          "type": "address"
        },
        {
          "indexed": true,
          "internalType": "uint256",
          "name": "tokenId",
          "type": "uint256"
        }
      ],
      "name": "Approval",
      "type": "event"
    },
    {
      "anonymous": false,
      "inputs": [
        {
          "indexed": true,
          "internalType": "address",
          "name": "owner",
          "type": "address"
        },
        {
          "indexed": true,
          "internalType": "address",
          "name": "operator",
          "type": "address"
        },
        {
          "indexed": false,
          "internalType": "bool",
          "name": "approved",
          "type": "bool"
        }
      ],
      "name": "ApprovalForAll",
      "type": "event"
    },
    {
      "anonymous": false,
      "inputs": [
        {
          "indexed": true,
          "internalType": "address",
          "name": "owner",
          "type": "address"
        },
        {
          "indexed": true,
          "internalType": "uint256",
          "name": "tokenId",
          "type": "uint256"
        },
        {
          "indexed": true,
          "internalType": "uint256",
          "name": "heroIndex",
          "type": "uint256"
        }
      ],
      "name": "Mint",
      "type": "event"
    },
    {
      "anonymous": false,
      "inputs": [
        {
          "indexed": true,
          "internalType": "address",
          "name": "from",
          "type": "address"
        },
        {
          "indexed": true,
          "internalType": "address",
          "name": "to",
          "type": "address"
        },
        {
          "indexed": true,
          "internalType": "uint256",
          "name": "tokenId",
          "type": "uint256"
        }
      ],
      "name": "Transfer",
      "type": "event"
    },
    {
      "inputs": [
        {
          "internalType": "address",
          "name": "to",
          "type": "address"
        },
        {
          "internalType": "uint256",
          "name": "tokenId",
          "type": "uint256"
        }
      ],
      "name": "approve",
      "outputs": [],
      "stateMutability": "nonpayable",
      "type": "function"
    },
    {
      "inputs": [],
      "name": "attackBoss",
      "outputs": [],
      "stateMutability": "nonpayable",
      "type": "function"
    },
    {
      "inputs": [
        {
          "internalType": "address",
          "name": "owner",
          "type": "address"
        }
      ],
      "name": "balanceOf",
      "outputs": [
        {
          "internalType": "uint256",
          "name": "",
          "type": "uint256"
        }
      ],
      "stateMutability": "view",
      "type": "function"
    },
    {
      "inputs": [
        {
          "internalType": "uint256",
          "name": "",
          "type": "uint256"
        }
      ],
      "name": "bosses",
      "outputs": [
        {
          "internalType": "string",
          "name": "name",
          "type": "string"
        },
        {
          "internalType": "string",
          "name": "imageUri",
          "type": "string"
        },
        {
          "internalType": "uint256",
          "name": "hp",
          "type": "uint256"
        },
        {
          "internalType": "uint256",
          "name": "maxHp",
          "type": "uint256"
        },
        {
          "internalType": "uint256",
          "name": "damage",
          "type": "uint256"
        }
      ],
      "stateMutability": "view",
      "type": "function"
    },
    {
      "inputs": [],
      "name": "coordinator",
      "outputs": [
        {
          "internalType": "contract VRFCoordinatorV2Interface",
          "name": "",
          "type": "address"
        }
      ],
      "stateMutability": "view",
      "type": "function"
    },
    {
      "inputs": [],
      "name": "currentBoss",
      "outputs": [
        {
          "internalType": "string",
          "name": "name",
          "type": "string"
        },
        {
          "internalType": "string",
          "name": "imageUri",
          "type": "string"
        },
        {
          "internalType": "uint256",
          "name": "hp",
          "type": "uint256"
        },
        {
          "internalType": "uint256",
          "name": "maxHp",
          "type": "uint256"
        },
        {
          "internalType": "uint256",
          "name": "damage",
          "type": "uint256"
        }
      ],
      "stateMutability": "view",
      "type": "function"
    },
    {
      "inputs": [
        {
          "internalType": "uint256",
          "name": "",
          "type": "uint256"
        }
      ],
      "name": "defaultHeroes",
      "outputs": [
        {
          "internalType": "uint256",
          "name": "index",
          "type": "uint256"
        },
        {
          "internalType": "string",
          "name": "name",
          "type": "string"
        },
        {
          "internalType": "string",
          "name": "imageUri",
          "type": "string"
        },
        {
          "internalType": "uint256",
          "name": "hp",
          "type": "uint256"
        },
        {
          "internalType": "uint256",
          "name": "maxHp",
          "type": "uint256"
        },
        {
          "internalType": "uint256",
          "name": "damage",
          "type": "uint256"
        },
        {
          "internalType": "uint256",
          "name": "crit",
          "type": "uint256"
        },
        {
          "internalType": "uint256",
          "name": "heal",
          "type": "uint256"
        }
      ],
      "stateMutability": "view",
      "type": "function"
    },
    {
      "inputs": [],
      "name": "fundSubscription",
      "outputs": [],
      "stateMutability": "nonpayable",
      "type": "function"
    },
    {
      "inputs": [
        {
          "internalType": "uint256",
          "name": "tokenId",
          "type": "uint256"
        }
      ],
      "name": "getApproved",
      "outputs": [
        {
          "internalType": "address",
          "name": "",
          "type": "address"
        }
      ],
      "stateMutability": "view",
      "type": "function"
    },
    {
      "inputs": [],
      "name": "getDefaultHeroes",
      "outputs": [
        {
          "components": [
            {
              "internalType": "uint256",
              "name": "index",
              "type": "uint256"
            },
            {
              "internalType": "string",
              "name": "name",
              "type": "string"
            },
            {
              "internalType": "string",
              "name": "imageUri",
              "type": "string"
            },
            {
              "internalType": "uint256",
              "name": "hp",
              "type": "uint256"
            },
            {
              "internalType": "uint256",
              "name": "maxHp",
              "type": "uint256"
            },
            {
              "internalType": "uint256",
              "name": "damage",
              "type": "uint256"
            },
            {
              "internalType": "uint256",
              "name": "crit",
              "type": "uint256"
            },
            {
              "internalType": "uint256",
              "name": "heal",
              "type": "uint256"
            }
          ],
          "internalType": "struct Game.Hero[]",
          "name": "",
          "type": "tuple[]"
        }
      ],
      "stateMutability": "view",
      "type": "function"
    },
    {
      "inputs": [],
      "name": "getSubscriptionDetails",
      "outputs": [
        {
          "internalType": "uint96",
          "name": "",
          "type": "uint96"
        },
        {
          "internalType": "uint64",
          "name": "",
          "type": "uint64"
        },
        {
          "internalType": "address",
          "name": "",
          "type": "address"
        },
        {
          "internalType": "address[]",
          "name": "",
          "type": "address[]"
        }
      ],
      "stateMutability": "view",
      "type": "function"
    },
    {
      "inputs": [
        {
          "internalType": "address",
          "name": "_linkTokenAddress",
          "type": "address"
        },
        {
          "internalType": "bytes32",
          "name": "_keyHash",
          "type": "bytes32"
        }
      ],
      "name": "initializeVRF",
      "outputs": [],
      "stateMutability": "nonpayable",
      "type": "function"
    },
    {
      "inputs": [
        {
          "internalType": "address",
          "name": "owner",
          "type": "address"
        },
        {
          "internalType": "address",
          "name": "operator",
          "type": "address"
        }
      ],
      "name": "isApprovedForAll",
      "outputs": [
        {
          "internalType": "bool",
          "name": "",
          "type": "bool"
        }
      ],
      "stateMutability": "view",
      "type": "function"
    },
    {
      "inputs": [],
      "name": "linkToken",
      "outputs": [
        {
          "internalType": "contract LinkTokenInterface",
          "name": "",
          "type": "address"
        }
      ],
      "stateMutability": "view",
      "type": "function"
    },
    {
      "inputs": [],
      "name": "maxTokenAmount",
      "outputs": [
        {
          "internalType": "uint256",
          "name": "",
          "type": "uint256"
        }
      ],
      "stateMutability": "view",
      "type": "function"
    },
    {
      "inputs": [],
      "name": "mintCost",
      "outputs": [
        {
          "internalType": "uint256",
          "name": "",
          "type": "uint256"
        }
      ],
      "stateMutability": "view",
      "type": "function"
    },
    {
      "inputs": [],
      "name": "mintHero",
      "outputs": [],
      "stateMutability": "payable",
      "type": "function"
    },
    {
      "inputs": [],
      "name": "name",
      "outputs": [
        {
          "internalType": "string",
          "name": "",
          "type": "string"
        }
      ],
      "stateMutability": "view",
      "type": "function"
    },
    {
      "inputs": [
        {
          "internalType": "uint256",
          "name": "",
          "type": "uint256"
        }
      ],
      "name": "nftHero",
      "outputs": [
        {
          "internalType": "uint256",
          "name": "index",
          "type": "uint256"
        },
        {
          "internalType": "string",
          "name": "name",
          "type": "string"
        },
        {
          "internalType": "string",
          "name": "imageUri",
          "type": "string"
        },
        {
          "internalType": "uint256",
          "name": "hp",
          "type": "uint256"
        },
        {
          "internalType": "uint256",
          "name": "maxHp",
          "type": "uint256"
        },
        {
          "internalType": "uint256",
          "name": "damage",
          "type": "uint256"
        },
        {
          "internalType": "uint256",
          "name": "crit",
          "type": "uint256"
        },
        {
          "internalType": "uint256",
          "name": "heal",
          "type": "uint256"
        }
      ],
      "stateMutability": "view",
      "type": "function"
    },
    {
      "inputs": [
        {
          "internalType": "address",
          "name": "",
          "type": "address"
        },
        {
          "internalType": "uint256",
          "name": "",
          "type": "uint256"
        }
      ],
      "name": "nftHolders",
      "outputs": [
        {
          "internalType": "uint256",
          "name": "",
          "type": "uint256"
        }
      ],
      "stateMutability": "view",
      "type": "function"
    },
    {
      "inputs": [],
      "name": "owner",
      "outputs": [
        {
          "internalType": "address",
          "name": "",
          "type": "address"
        }
      ],
      "stateMutability": "view",
      "type": "function"
    },
    {
      "inputs": [
        {
          "internalType": "uint256",
          "name": "tokenId",
          "type": "uint256"
        }
      ],
      "name": "ownerOf",
      "outputs": [
        {
          "internalType": "address",
          "name": "",
          "type": "address"
        }
      ],
      "stateMutability": "view",
      "type": "function"
    },
    {
      "inputs": [
        {
          "internalType": "uint256",
          "name": "requestId",
          "type": "uint256"
        },
        {
          "internalType": "uint256[]",
          "name": "randomWords",
          "type": "uint256[]"
        }
      ],
      "name": "rawFulfillRandomWords",
      "outputs": [],
      "stateMutability": "nonpayable",
      "type": "function"
    },
    {
      "inputs": [
        {
          "internalType": "address",
          "name": "from",
          "type": "address"
        },
        {
          "internalType": "address",
          "name": "to",
          "type": "address"
        },
        {
          "internalType": "uint256",
          "name": "tokenId",
          "type": "uint256"
        }
      ],
      "name": "safeTransferFrom",
      "outputs": [],
      "stateMutability": "nonpayable",
      "type": "function"
    },
    {
      "inputs": [
        {
          "internalType": "address",
          "name": "from",
          "type": "address"
        },
        {
          "internalType": "address",
          "name": "to",
          "type": "address"
        },
        {
          "internalType": "uint256",
          "name": "tokenId",
          "type": "uint256"
        },
        {
          "internalType": "bytes",
          "name": "_data",
          "type": "bytes"
        }
      ],
      "name": "safeTransferFrom",
      "outputs": [],
      "stateMutability": "nonpayable",
      "type": "function"
    },
    {
      "inputs": [
        {
          "internalType": "address",
          "name": "operator",
          "type": "address"
        },
        {
          "internalType": "bool",
          "name": "approved",
          "type": "bool"
        }
      ],
      "name": "setApprovalForAll",
      "outputs": [],
      "stateMutability": "nonpayable",
      "type": "function"
    },
    {
      "inputs": [
        {
          "internalType": "uint256",
          "name": "amount",
          "type": "uint256"
        }
      ],
      "name": "setMaxTokenAmount",
      "outputs": [],
      "stateMutability": "nonpayable",
      "type": "function"
    },
    {
      "inputs": [
        {
          "internalType": "uint256",
          "name": "cost",
          "type": "uint256"
        }
      ],
      "name": "setMintCost",
      "outputs": [],
      "stateMutability": "nonpayable",
      "type": "function"
    },
    {
      "inputs": [
        {
          "internalType": "address",
          "name": "_address",
          "type": "address"
        }
      ],
      "name": "setOwner",
      "outputs": [],
      "stateMutability": "nonpayable",
      "type": "function"
    },
    {
      "inputs": [
        {
          "internalType": "bytes4",
          "name": "interfaceId",
          "type": "bytes4"
        }
      ],
      "name": "supportsInterface",
      "outputs": [
        {
          "internalType": "bool",
          "name": "",
          "type": "bool"
        }
      ],
      "stateMutability": "view",
      "type": "function"
    },
    {
      "inputs": [],
      "name": "symbol",
      "outputs": [
        {
          "internalType": "string",
          "name": "",
          "type": "string"
        }
      ],
      "stateMutability": "view",
      "type": "function"
    },
    {
      "inputs": [
        {
          "internalType": "uint256",
          "name": "requestId",
          "type": "uint256"
        },
        {
          "internalType": "uint256[]",
          "name": "randomWords",
          "type": "uint256[]"
        }
      ],
      "name": "testFulfillRandomWords",
      "outputs": [],
      "stateMutability": "nonpayable",
      "type": "function"
    },
    {
      "inputs": [],
      "name": "testRequestId",
      "outputs": [
        {
          "internalType": "uint256",
          "name": "",
          "type": "uint256"
        }
      ],
      "stateMutability": "view",
      "type": "function"
    },
    {
      "inputs": [
        {
          "internalType": "uint256",
          "name": "tokenId",
          "type": "uint256"
        }
      ],
      "name": "tokenURI",
      "outputs": [
        {
          "internalType": "string",
          "name": "",
          "type": "string"
        }
      ],
      "stateMutability": "view",
      "type": "function"
    },
    {
      "inputs": [
        {
          "internalType": "address",
          "name": "from",
          "type": "address"
        },
        {
          "internalType": "address",
          "name": "to",
          "type": "address"
        },
        {
          "internalType": "uint256",
          "name": "tokenId",
          "type": "uint256"
        }
      ],
      "name": "transferFrom",
      "outputs": [],
      "stateMutability": "nonpayable",
      "type": "function"
    }
  ],
  "bytecode": "0x60a06040527f9fe0eebf5e446e3c998ec9bb19951541aee00bb90ea201ae456421a2ded8680560001b600b55600360185560006019553480156200004257600080fd5b5060405162006e7438038062006e74833981810160405281019062000068919062000bfd565b806040518060400160405280600681526020017f4865726f657300000000000000000000000000000000000000000000000000008152506040518060400160405280600481526020017f4865726f000000000000000000000000000000000000000000000000000000008152508160009080519060200190620000ed929190620006a6565b50806001908051906020019062000106929190620006a6565b5050508073ffffffffffffffffffffffffffffffffffffffff1660808173ffffffffffffffffffffffffffffffffffffffff16815250505089518b5114801562000151575088518a51145b80156200015f575087518951145b80156200016d575086518851145b80156200017b575085518751145b620001bd576040517f08c379a0000000000000000000000000000000000000000000000000000000008152600401620001b49062000ec7565b60405180910390fd5b83518551148015620001d0575082518451145b8015620001de575081518351145b62000220576040517f08c379a0000000000000000000000000000000000000000000000000000000008152600401620002179062000f5f565b60405180910390fd5b60005b8551811015620003845760116040518060a0016040528088848151811062000250576200024f62000f81565b5b6020026020010151815260200187848151811062000273576200027262000f81565b5b6020026020010151815260200186848151811062000296576200029562000f81565b5b60200260200101518152602001858481518110620002b957620002b862000f81565b5b60200260200101518152602001858481518110620002dc57620002db62000f81565b5b6020026020010151815250908060018154018082558091505060019003906000526020600020906005020160009091909190915060008201518160000190805190602001906200032e929190620006a6565b5060208201518160010190805190602001906200034d929190620006a6565b50604082015181600201556060820151816003015560808201518160040155505080806200037b9062000fdf565b91505062000223565b5060116000815481106200039d576200039c62000f81565b5b906000526020600020906005020160126000820181600001908054620003c3906200105b565b620003d092919062000737565b506001820181600101908054620003e7906200105b565b620003f492919062000737565b5060028201548160020155600382015481600301556004820154816004015590505060005b8b51811015620005e557600e6040518061010001604052808381526020018e84815181106200044d576200044c62000f81565b5b602002602001015181526020018d848151811062000470576200046f62000f81565b5b602002602001015181526020018c848151811062000493576200049262000f81565b5b602002602001015181526020018c8481518110620004b657620004b562000f81565b5b602002602001015181526020018b8481518110620004d957620004d862000f81565b5b602002602001015181526020018a8481518110620004fc57620004fb62000f81565b5b602002602001015181526020018984815181106200051f576200051e62000f81565b5b602002602001015181525090806001815401808255809150506001900390600052602060002090600802016000909190919091506000820151816000015560208201518160010190805190602001906200057b929190620006a6565b5060408201518160020190805190602001906200059a929190620006a6565b50606082015181600301556080820151816004015560a0820151816005015560c0820151816006015560e0820151816007015550508080620005dc9062000fdf565b91505062000419565b50620005fd60066200069060201b620024211760201c565b33601760006101000a81548173ffffffffffffffffffffffffffffffffffffffff021916908373ffffffffffffffffffffffffffffffffffffffff16021790555080600960006101000a81548173ffffffffffffffffffffffffffffffffffffffff021916908373ffffffffffffffffffffffffffffffffffffffff160217905550505050505050505050505062001090565b6001816000016000828254019250508190555050565b828054620006b4906200105b565b90600052602060002090601f016020900481019282620006d8576000855562000724565b82601f10620006f357805160ff191683800117855562000724565b8280016001018555821562000724579182015b828111156200072357825182559160200191906001019062000706565b5b509050620007339190620007cf565b5090565b82805462000745906200105b565b90600052602060002090601f016020900481019282620007695760008555620007bc565b82601f106200077c5780548555620007bc565b82800160010185558215620007bc57600052602060002091601f016020900482015b82811115620007bb5782548255916001019190600101906200079e565b5b509050620007cb9190620007cf565b5090565b5b80821115620007ea576000816000905550600101620007d0565b5090565b6000604051905090565b600080fd5b600080fd5b600080fd5b6000601f19601f8301169050919050565b7f4e487b7100000000000000000000000000000000000000000000000000000000600052604160045260246000fd5b620008528262000807565b810181811067ffffffffffffffff8211171562000874576200087362000818565b5b80604052505050565b600062000889620007ee565b905062000897828262000847565b919050565b600067ffffffffffffffff821115620008ba57620008b962000818565b5b602082029050602081019050919050565b600080fd5b600080fd5b600067ffffffffffffffff821115620008f357620008f262000818565b5b620008fe8262000807565b9050602081019050919050565b60005b838110156200092b5780820151818401526020810190506200090e565b838111156200093b576000848401525b50505050565b6000620009586200095284620008d5565b6200087d565b905082815260208101848484011115620009775762000976620008d0565b5b620009848482856200090b565b509392505050565b600082601f830112620009a457620009a362000802565b5b8151620009b684826020860162000941565b91505092915050565b6000620009d6620009d0846200089c565b6200087d565b90508083825260208201905060208402830185811115620009fc57620009fb620008cb565b5b835b8181101562000a4a57805167ffffffffffffffff81111562000a255762000a2462000802565b5b80860162000a3489826200098c565b85526020850194505050602081019050620009fe565b5050509392505050565b600082601f83011262000a6c5762000a6b62000802565b5b815162000a7e848260208601620009bf565b91505092915050565b600067ffffffffffffffff82111562000aa55762000aa462000818565b5b602082029050602081019050919050565b6000819050919050565b62000acb8162000ab6565b811462000ad757600080fd5b50565b60008151905062000aeb8162000ac0565b92915050565b600062000b0862000b028462000a87565b6200087d565b9050808382526020820190506020840283018581111562000b2e5762000b2d620008cb565b5b835b8181101562000b5b578062000b46888262000ada565b84526020840193505060208101905062000b30565b5050509392505050565b600082601f83011262000b7d5762000b7c62000802565b5b815162000b8f84826020860162000af1565b91505092915050565b600073ffffffffffffffffffffffffffffffffffffffff82169050919050565b600062000bc58262000b98565b9050919050565b62000bd78162000bb8565b811462000be357600080fd5b50565b60008151905062000bf78162000bcc565b92915050565b60008060008060008060008060008060006101608c8e03121562000c265762000c25620007f8565b5b60008c015167ffffffffffffffff81111562000c475762000c46620007fd565b5b62000c558e828f0162000a54565b9b505060208c015167ffffffffffffffff81111562000c795762000c78620007fd565b5b62000c878e828f0162000a54565b9a505060408c015167ffffffffffffffff81111562000cab5762000caa620007fd565b5b62000cb98e828f0162000b65565b99505060608c015167ffffffffffffffff81111562000cdd5762000cdc620007fd565b5b62000ceb8e828f0162000b65565b98505060808c015167ffffffffffffffff81111562000d0f5762000d0e620007fd565b5b62000d1d8e828f0162000b65565b97505060a08c015167ffffffffffffffff81111562000d415762000d40620007fd565b5b62000d4f8e828f0162000b65565b96505060c08c015167ffffffffffffffff81111562000d735762000d72620007fd565b5b62000d818e828f0162000a54565b95505060e08c015167ffffffffffffffff81111562000da55762000da4620007fd565b5b62000db38e828f0162000a54565b9450506101008c015167ffffffffffffffff81111562000dd85762000dd7620007fd565b5b62000de68e828f0162000b65565b9350506101208c015167ffffffffffffffff81111562000e0b5762000e0a620007fd565b5b62000e198e828f0162000b65565b92505061014062000e2d8e828f0162000be6565b9150509295989b509295989b9093969950565b600082825260208201905092915050565b7f4f6e65206f662074686520676976656e204e46542064656661756c742061727260008201527f617973206973206f6464206c656e677468000000000000000000000000000000602082015250565b600062000eaf60318362000e40565b915062000ebc8262000e51565b604082019050919050565b6000602082019050818103600083015262000ee28162000ea0565b9050919050565b7f4f6e65206f662074686520676976656e20626f73732064656661756c7420617260008201527f72617973206973206f6464206c656e6774680000000000000000000000000000602082015250565b600062000f4760328362000e40565b915062000f548262000ee9565b604082019050919050565b6000602082019050818103600083015262000f7a8162000f38565b9050919050565b7f4e487b7100000000000000000000000000000000000000000000000000000000600052603260045260246000fd5b7f4e487b7100000000000000000000000000000000000000000000000000000000600052601160045260246000fd5b600062000fec8262000ab6565b91507fffffffffffffffffffffffffffffffffffffffffffffffffffffffffffffffff820362001021576200102062000fb0565b5b600182019050919050565b7f4e487b7100000000000000000000000000000000000000000000000000000000600052602260045260246000fd5b600060028204905060018216806200107457607f821691505b6020821081036200108a57620010896200102c565b5b50919050565b608051615dc1620010b360003960008181610d3e0152610d920152615dc16000f3fe6080604052600436106102045760003560e01c8063657633ad11610118578063a22cb465116100a0578063c87b56dd1161006f578063c87b56dd14610792578063d4f24c5b146107cf578063e90f077c146107e6578063e920033714610811578063e985e9c51461081b57610204565b8063a22cb465146106ec578063b839a80e14610715578063b88d4fde1461073e578063bdb4b8481461076757610204565b80638545f4ea116100e75780638545f4ea14610613578063856f8c351461063c5780638a926d0f1461066b5780638da5cb5b1461069657806395d89b41146106c157610204565b8063657633ad1461052a57806370a0823114610555578063775bb50e14610592578063812bc25e146105cf57610204565b80631fe543e31161019b5780634ca59d771161016a5780634ca59d771461043e57806357970e931461048257806357ace39b146104ad57806361f7eff0146104c45780636352211e146104ed57610204565b80631fe543e314610382578063204597e0146103ab57806323b872dd146103ec57806342842e0e1461041557610204565b8063095ea7b3116101d7578063095ea7b3146102d75780630a009097146103005780630d5de6df1461032b57806313af40351461035957610204565b806301ffc9a71461020957806302c4d72b1461024657806306fdde031461026f578063081812fc1461029a575b600080fd5b34801561021557600080fd5b50610230600480360381019061022b9190613b9f565b610858565b60405161023d9190613be7565b60405180910390f35b34801561025257600080fd5b5061026d60048036038101906102689190613d91565b61093a565b005b34801561027b57600080fd5b50610284610948565b6040516102919190613e75565b60405180910390f35b3480156102a657600080fd5b506102c160048036038101906102bc9190613e97565b6109da565b6040516102ce9190613f05565b60405180910390f35b3480156102e357600080fd5b506102fe60048036038101906102f99190613f4c565b610a5f565b005b34801561030c57600080fd5b50610315610b76565b6040516103229190613feb565b60405180910390f35b34801561033757600080fd5b50610340610b9c565b604051610350949392919061410e565b60405180910390f35b34801561036557600080fd5b50610380600480360381019061037b919061415a565b610c68565b005b34801561038e57600080fd5b506103a960048036038101906103a49190613d91565b610d3c565b005b3480156103b757600080fd5b506103d260048036038101906103cd9190613e97565b610dfc565b6040516103e3959493929190614196565b60405180910390f35b3480156103f857600080fd5b50610413600480360381019061040e91906141f7565b610f52565b005b34801561042157600080fd5b5061043c600480360381019061043791906141f7565b610fb2565b005b34801561044a57600080fd5b5061046560048036038101906104609190613e97565b610fd2565b60405161047998979695949392919061424a565b60405180910390f35b34801561048e57600080fd5b5061049761113a565b6040516104a491906142f7565b60405180910390f35b3480156104b957600080fd5b506104c2611160565b005b3480156104d057600080fd5b506104eb60048036038101906104e69190614348565b611387565b005b3480156104f957600080fd5b50610514600480360381019061050f9190613e97565b611531565b6040516105219190613f05565b60405180910390f35b34801561053657600080fd5b5061053f6115e2565b60405161054c9190614388565b60405180910390f35b34801561056157600080fd5b5061057c6004803603810190610577919061415a565b6115e8565b6040516105899190614388565b60405180910390f35b34801561059e57600080fd5b506105b960048036038101906105b49190613f4c565b61169f565b6040516105c69190614388565b60405180910390f35b3480156105db57600080fd5b506105f660048036038101906105f19190613e97565b6116d0565b60405161060a98979695949392919061424a565b60405180910390f35b34801561061f57600080fd5b5061063a60048036038101906106359190613e97565b611828565b005b34801561064857600080fd5b506106516118c2565b604051610662959493929190614196565b60405180910390f35b34801561067757600080fd5b506106806119f6565b60405161068d9190614388565b60405180910390f35b3480156106a257600080fd5b506106ab6119fc565b6040516106b89190613f05565b60405180910390f35b3480156106cd57600080fd5b506106d6611a22565b6040516106e39190613e75565b60405180910390f35b3480156106f857600080fd5b50610713600480360381019061070e91906143cf565b611ab4565b005b34801561072157600080fd5b5061073c60048036038101906107379190613e97565b611aca565b005b34801561074a57600080fd5b50610765600480360381019061076091906144c4565b611b64565b005b34801561077357600080fd5b5061077c611bc6565b6040516107899190614388565b60405180910390f35b34801561079e57600080fd5b506107b960048036038101906107b49190613e97565b611bcc565b6040516107c69190613e75565b60405180910390f35b3480156107db57600080fd5b506107e4611e21565b005b3480156107f257600080fd5b506107fb6120cd565b6040516108089190614719565b60405180910390f35b61081961228d565b005b34801561082757600080fd5b50610842600480360381019061083d919061473b565b61238d565b60405161084f9190613be7565b60405180910390f35b60007f80ac58cd000000000000000000000000000000000000000000000000000000007bffffffffffffffffffffffffffffffffffffffffffffffffffffffff1916827bffffffffffffffffffffffffffffffffffffffffffffffffffffffff1916148061092357507f5b5e139f000000000000000000000000000000000000000000000000000000007bffffffffffffffffffffffffffffffffffffffffffffffffffffffff1916827bffffffffffffffffffffffffffffffffffffffffffffffffffffffff1916145b80610933575061093282612437565b5b9050919050565b61094482826124a1565b5050565b606060008054610957906147aa565b80601f0160208091040260200160405190810160405280929190818152602001828054610983906147aa565b80156109d05780601f106109a5576101008083540402835291602001916109d0565b820191906000526020600020905b8154815290600101906020018083116109b357829003601f168201915b5050505050905090565b60006109e5826125b1565b610a24576040517f08c379a0000000000000000000000000000000000000000000000000000000008152600401610a1b9061484d565b60405180910390fd5b6004600083815260200190815260200160002060009054906101000a900473ffffffffffffffffffffffffffffffffffffffff169050919050565b6000610a6a82611531565b90508073ffffffffffffffffffffffffffffffffffffffff168373ffffffffffffffffffffffffffffffffffffffff1603610ada576040517f08c379a0000000000000000000000000000000000000000000000000000000008152600401610ad1906148df565b60405180910390fd5b8073ffffffffffffffffffffffffffffffffffffffff16610af961261d565b73ffffffffffffffffffffffffffffffffffffffff161480610b285750610b2781610b2261261d565b61238d565b5b610b67576040517f08c379a0000000000000000000000000000000000000000000000000000000008152600401610b5e90614971565b60405180910390fd5b610b718383612625565b505050565b600760009054906101000a900473ffffffffffffffffffffffffffffffffffffffff1681565b60008060006060600760009054906101000a900473ffffffffffffffffffffffffffffffffffffffff1673ffffffffffffffffffffffffffffffffffffffff1663a47c7696600c60009054906101000a900467ffffffffffffffff166040518263ffffffff1660e01b8152600401610c149190614991565b600060405180830381865afa158015610c31573d6000803e3d6000fd5b505050506040513d6000823e3d601f19601f82011682018060405250810190610c5a9190614adc565b935093509350935090919293565b601760009054906101000a900473ffffffffffffffffffffffffffffffffffffffff1673ffffffffffffffffffffffffffffffffffffffff163373ffffffffffffffffffffffffffffffffffffffff1614610cf8576040517f08c379a0000000000000000000000000000000000000000000000000000000008152600401610cef90614bab565b60405180910390fd5b80601760006101000a81548173ffffffffffffffffffffffffffffffffffffffff021916908373ffffffffffffffffffffffffffffffffffffffff16021790555050565b7f000000000000000000000000000000000000000000000000000000000000000073ffffffffffffffffffffffffffffffffffffffff163373ffffffffffffffffffffffffffffffffffffffff1614610dee57337f00000000000000000000000000000000000000000000000000000000000000006040517f1cf993f4000000000000000000000000000000000000000000000000000000008152600401610de5929190614bcb565b60405180910390fd5b610df882826124a1565b5050565b60118181548110610e0c57600080fd5b9060005260206000209060050201600091509050806000018054610e2f906147aa565b80601f0160208091040260200160405190810160405280929190818152602001828054610e5b906147aa565b8015610ea85780601f10610e7d57610100808354040283529160200191610ea8565b820191906000526020600020905b815481529060010190602001808311610e8b57829003601f168201915b505050505090806001018054610ebd906147aa565b80601f0160208091040260200160405190810160405280929190818152602001828054610ee9906147aa565b8015610f365780601f10610f0b57610100808354040283529160200191610f36565b820191906000526020600020905b815481529060010190602001808311610f1957829003601f168201915b5050505050908060020154908060030154908060040154905085565b610f63610f5d61261d565b826126de565b610fa2576040517f08c379a0000000000000000000000000000000000000000000000000000000008152600401610f9990614c66565b60405180910390fd5b610fad8383836127bc565b505050565b610fcd83838360405180602001604052806000815250611b64565b505050565b600e8181548110610fe257600080fd5b906000526020600020906008020160009150905080600001549080600101805461100b906147aa565b80601f0160208091040260200160405190810160405280929190818152602001828054611037906147aa565b80156110845780601f1061105957610100808354040283529160200191611084565b820191906000526020600020905b81548152906001019060200180831161106757829003601f168201915b505050505090806002018054611099906147aa565b80601f01602080910402602001604051908101604052809291908181526020018280546110c5906147aa565b80156111125780601f106110e757610100808354040283529160200191611112565b820191906000526020600020905b8154815290600101906020018083116110f557829003601f168201915b5050505050908060030154908060040154908060050154908060060154908060070154905088565b600860009054906101000a900473ffffffffffffffffffffffffffffffffffffffff1681565b601760009054906101000a900473ffffffffffffffffffffffffffffffffffffffff1673ffffffffffffffffffffffffffffffffffffffff163373ffffffffffffffffffffffffffffffffffffffff16146111f0576040517f08c379a00000000000000000000000000000000000000000000000000000000081526004016111e790614bab565b60405180910390fd5b600860009054906101000a900473ffffffffffffffffffffffffffffffffffffffff1673ffffffffffffffffffffffffffffffffffffffff16634000aea0600960009054906101000a900473ffffffffffffffffffffffffffffffffffffffff16600860009054906101000a900473ffffffffffffffffffffffffffffffffffffffff1673ffffffffffffffffffffffffffffffffffffffff166370a08231306040518263ffffffff1660e01b81526004016112ac9190613f05565b602060405180830381865afa1580156112c9573d6000803e3d6000fd5b505050506040513d601f19601f820116820180604052508101906112ed9190614c9b565b600c60009054906101000a900467ffffffffffffffff166040516020016113149190614991565b6040516020818303038152906040526040518463ffffffff1660e01b815260040161134193929190614d1d565b6020604051808303816000875af1158015611360573d6000803e3d6000fd5b505050506040513d601f19601f820116820180604052508101906113849190614d70565b50565b601760009054906101000a900473ffffffffffffffffffffffffffffffffffffffff1673ffffffffffffffffffffffffffffffffffffffff163373ffffffffffffffffffffffffffffffffffffffff1614611417576040517f08c379a000000000000000000000000000000000000000000000000000000000815260040161140e90614bab565b60405180910390fd5b81600a60006101000a81548173ffffffffffffffffffffffffffffffffffffffff021916908373ffffffffffffffffffffffffffffffffffffffff16021790555080600b81905550600960009054906101000a900473ffffffffffffffffffffffffffffffffffffffff16600760006101000a81548173ffffffffffffffffffffffffffffffffffffffff021916908373ffffffffffffffffffffffffffffffffffffffff160217905550600a60009054906101000a900473ffffffffffffffffffffffffffffffffffffffff16600860006101000a81548173ffffffffffffffffffffffffffffffffffffffff021916908373ffffffffffffffffffffffffffffffffffffffff16021790555061152d612a22565b5050565b6000806002600084815260200190815260200160002060009054906101000a900473ffffffffffffffffffffffffffffffffffffffff169050600073ffffffffffffffffffffffffffffffffffffffff168173ffffffffffffffffffffffffffffffffffffffff16036115d9576040517f08c379a00000000000000000000000000000000000000000000000000000000081526004016115d090614e0f565b60405180910390fd5b80915050919050565b601a5481565b60008073ffffffffffffffffffffffffffffffffffffffff168273ffffffffffffffffffffffffffffffffffffffff1603611658576040517f08c379a000000000000000000000000000000000000000000000000000000000815260040161164f90614ea1565b60405180910390fd5b600360008373ffffffffffffffffffffffffffffffffffffffff1673ffffffffffffffffffffffffffffffffffffffff168152602001908152602001600020549050919050565b600f60205281600052604060002081815481106116bb57600080fd5b90600052602060002001600091509150505481565b60106020528060005260406000206000915090508060000154908060010180546116f9906147aa565b80601f0160208091040260200160405190810160405280929190818152602001828054611725906147aa565b80156117725780601f1061174757610100808354040283529160200191611772565b820191906000526020600020905b81548152906001019060200180831161175557829003601f168201915b505050505090806002018054611787906147aa565b80601f01602080910402602001604051908101604052809291908181526020018280546117b3906147aa565b80156118005780601f106117d557610100808354040283529160200191611800565b820191906000526020600020905b8154815290600101906020018083116117e357829003601f168201915b5050505050908060030154908060040154908060050154908060060154908060070154905088565b601760009054906101000a900473ffffffffffffffffffffffffffffffffffffffff1673ffffffffffffffffffffffffffffffffffffffff163373ffffffffffffffffffffffffffffffffffffffff16146118b8576040517f08c379a00000000000000000000000000000000000000000000000000000000081526004016118af90614bab565b60405180910390fd5b8060198190555050565b60128060000180546118d3906147aa565b80601f01602080910402602001604051908101604052809291908181526020018280546118ff906147aa565b801561194c5780601f106119215761010080835404028352916020019161194c565b820191906000526020600020905b81548152906001019060200180831161192f57829003601f168201915b505050505090806001018054611961906147aa565b80601f016020809104026020016040519081016040528092919081815260200182805461198d906147aa565b80156119da5780601f106119af576101008083540402835291602001916119da565b820191906000526020600020905b8154815290600101906020018083116119bd57829003601f168201915b5050505050908060020154908060030154908060040154905085565b60185481565b601760009054906101000a900473ffffffffffffffffffffffffffffffffffffffff1681565b606060018054611a31906147aa565b80601f0160208091040260200160405190810160405280929190818152602001828054611a5d906147aa565b8015611aaa5780601f10611a7f57610100808354040283529160200191611aaa565b820191906000526020600020905b815481529060010190602001808311611a8d57829003601f168201915b5050505050905090565b611ac6611abf61261d565b8383612b84565b5050565b601760009054906101000a900473ffffffffffffffffffffffffffffffffffffffff1673ffffffffffffffffffffffffffffffffffffffff163373ffffffffffffffffffffffffffffffffffffffff1614611b5a576040517f08c379a0000000000000000000000000000000000000000000000000000000008152600401611b5190614bab565b60405180910390fd5b8060188190555050565b611b75611b6f61261d565b836126de565b611bb4576040517f08c379a0000000000000000000000000000000000000000000000000000000008152600401611bab90614c66565b60405180910390fd5b611bc084848484612cf0565b50505050565b60195481565b60606000601060008481526020019081526020016000206040518061010001604052908160008201548152602001600182018054611c09906147aa565b80601f0160208091040260200160405190810160405280929190818152602001828054611c35906147aa565b8015611c825780601f10611c5757610100808354040283529160200191611c82565b820191906000526020600020905b815481529060010190602001808311611c6557829003601f168201915b50505050508152602001600282018054611c9b906147aa565b80601f0160208091040260200160405190810160405280929190818152602001828054611cc7906147aa565b8015611d145780601f10611ce957610100808354040283529160200191611d14565b820191906000526020600020905b815481529060010190602001808311611cf757829003601f168201915b505050505081526020016003820154815260200160048201548152602001600582015481526020016006820154815260200160078201548152505090506000611df68260200151611d6486612d4c565b8460400151611d768660600151612d4c565b611d838760800151612d4c565b611d908860a00151612d4c565b611d9a6032612d4c565b611da78a60c00151612d4c565b611db16032612d4c565b611dbe8c60e00151612d4c565b611dc86032612d4c565b604051602001611de29b9a9998979695949392919061528d565b604051602081830303815290604052612eac565b905080604051602001611e0991906153f6565b60405160208183030381529060405292505050919050565b6000600f60003373ffffffffffffffffffffffffffffffffffffffff1673ffffffffffffffffffffffffffffffffffffffff1681526020019081526020016000209050611f3c6040518060400160405280601b81526020017f426f73732025732068617320257320485020616e64202573204144000000000081525060126000018054611ead906147aa565b80601f0160208091040260200160405190810160405280929190818152602001828054611ed9906147aa565b8015611f265780601f10611efb57610100808354040283529160200191611f26565b820191906000526020600020905b815481529060010190602001808311611f0957829003601f168201915b5050505050601260020154601260040154613043565b60005b81805490508110156120c957600060106000848481548110611f6457611f63615418565b5b906000526020600020015481526020019081526020016000209050612037604051806060016040528060268152602001615d6660269139826001018054611faa906147aa565b80601f0160208091040260200160405190810160405280929190818152602001828054611fd6906147aa565b80156120235780601f10611ff857610100808354040283529160200191612023565b820191906000526020600020905b81548152906001019060200180831161200657829003601f168201915b505050505083600301548460050154613043565b80600501546012600201541015612058576000601260020181905550612077565b806005015460126002015461206d9190615476565b6012600201819055505b6012600401548160030154101561209757600081600301819055506120b5565b60126004015481600301546120ac9190615476565b81600301819055505b5080806120c1906154aa565b915050611f3f565b5050565b6060600e805480602002602001604051908101604052809291908181526020016000905b828210156122845783829060005260206000209060080201604051806101000160405290816000820154815260200160018201805461212f906147aa565b80601f016020809104026020016040519081016040528092919081815260200182805461215b906147aa565b80156121a85780601f1061217d576101008083540402835291602001916121a8565b820191906000526020600020905b81548152906001019060200180831161218b57829003601f168201915b505050505081526020016002820180546121c1906147aa565b80601f01602080910402602001604051908101604052809291908181526020018280546121ed906147aa565b801561223a5780601f1061220f5761010080835404028352916020019161223a565b820191906000526020600020905b81548152906001019060200180831161221d57829003601f168201915b5050505050815260200160038201548152602001600482015481526020016005820154815260200160068201548152602001600782015481525050815260200190600101906120f1565b50505050905090565b6000600f60003373ffffffffffffffffffffffffffffffffffffffff1673ffffffffffffffffffffffffffffffffffffffff1681526020019081526020016000209050601854818054905010612318576040517f08c379a000000000000000000000000000000000000000000000000000000000815260040161230f90615564565b60405180910390fd5b60006019541115612368576019543414612367576040517f08c379a000000000000000000000000000000000000000000000000000000000815260040161235e906155d0565b60405180910390fd5b5b600061237460066130e5565b905061237f816130f3565b6123896006612421565b5050565b6000600560008473ffffffffffffffffffffffffffffffffffffffff1673ffffffffffffffffffffffffffffffffffffffff16815260200190815260200160002060008373ffffffffffffffffffffffffffffffffffffffff1673ffffffffffffffffffffffffffffffffffffffff16815260200190815260200160002060009054906101000a900460ff16905092915050565b6001816000016000828254019250508190555050565b60007f01ffc9a7000000000000000000000000000000000000000000000000000000007bffffffffffffffffffffffffffffffffffffffffffffffffffffffff1916827bffffffffffffffffffffffffffffffffffffffffffffffffffffffff1916149050919050565b6000600d60008481526020019081526020016000206040518060400160405290816000820160009054906101000a900473ffffffffffffffffffffffffffffffffffffffff1673ffffffffffffffffffffffffffffffffffffffff1673ffffffffffffffffffffffffffffffffffffffff1681526020016001820154815250509050600d6000848152602001908152602001600020600080820160006101000a81549073ffffffffffffffffffffffffffffffffffffffff0219169055600182016000905550506000600e805490508360008151811061258457612583615418565b5b6020026020010151612596919061561f565b90506125ab8260000151836020015183613257565b50505050565b60008073ffffffffffffffffffffffffffffffffffffffff166002600084815260200190815260200160002060009054906101000a900473ffffffffffffffffffffffffffffffffffffffff1673ffffffffffffffffffffffffffffffffffffffff1614159050919050565b600033905090565b816004600083815260200190815260200160002060006101000a81548173ffffffffffffffffffffffffffffffffffffffff021916908373ffffffffffffffffffffffffffffffffffffffff160217905550808273ffffffffffffffffffffffffffffffffffffffff1661269883611531565b73ffffffffffffffffffffffffffffffffffffffff167f8c5be1e5ebec7d5bd14f71427d1e84f3dd0314c0f7b2291e5b200ac8c7c3b92560405160405180910390a45050565b60006126e9826125b1565b612728576040517f08c379a000000000000000000000000000000000000000000000000000000000815260040161271f906156c2565b60405180910390fd5b600061273383611531565b90508073ffffffffffffffffffffffffffffffffffffffff168473ffffffffffffffffffffffffffffffffffffffff1614806127a257508373ffffffffffffffffffffffffffffffffffffffff1661278a846109da565b73ffffffffffffffffffffffffffffffffffffffff16145b806127b357506127b2818561238d565b5b91505092915050565b8273ffffffffffffffffffffffffffffffffffffffff166127dc82611531565b73ffffffffffffffffffffffffffffffffffffffff1614612832576040517f08c379a000000000000000000000000000000000000000000000000000000000815260040161282990615754565b60405180910390fd5b600073ffffffffffffffffffffffffffffffffffffffff168273ffffffffffffffffffffffffffffffffffffffff16036128a1576040517f08c379a0000000000000000000000000000000000000000000000000000000008152600401612898906157e6565b60405180910390fd5b6128ac8383836135c8565b6128b7600082612625565b6001600360008573ffffffffffffffffffffffffffffffffffffffff1673ffffffffffffffffffffffffffffffffffffffff16815260200190815260200160002060008282546129079190615476565b925050819055506001600360008473ffffffffffffffffffffffffffffffffffffffff1673ffffffffffffffffffffffffffffffffffffffff168152602001908152602001600020600082825461295e9190615806565b92505081905550816002600083815260200190815260200160002060006101000a81548173ffffffffffffffffffffffffffffffffffffffff021916908373ffffffffffffffffffffffffffffffffffffffff160217905550808273ffffffffffffffffffffffffffffffffffffffff168473ffffffffffffffffffffffffffffffffffffffff167fddf252ad1be2c89b69c2b068fc378daa952ba7f163c4a11628f55a4df523b3ef60405160405180910390a4612a1d8383836135cd565b505050565b600760009054906101000a900473ffffffffffffffffffffffffffffffffffffffff1673ffffffffffffffffffffffffffffffffffffffff1663a21a23e46040518163ffffffff1660e01b81526004016020604051808303816000875af1158015612a91573d6000803e3d6000fd5b505050506040513d601f19601f82011682018060405250810190612ab5919061585c565b600c60006101000a81548167ffffffffffffffff021916908367ffffffffffffffff160217905550600760009054906101000a900473ffffffffffffffffffffffffffffffffffffffff1673ffffffffffffffffffffffffffffffffffffffff16637341c10c600c60009054906101000a900467ffffffffffffffff16306040518363ffffffff1660e01b8152600401612b50929190615889565b600060405180830381600087803b158015612b6a57600080fd5b505af1158015612b7e573d6000803e3d6000fd5b50505050565b8173ffffffffffffffffffffffffffffffffffffffff168373ffffffffffffffffffffffffffffffffffffffff1603612bf2576040517f08c379a0000000000000000000000000000000000000000000000000000000008152600401612be9906158fe565b60405180910390fd5b80600560008573ffffffffffffffffffffffffffffffffffffffff1673ffffffffffffffffffffffffffffffffffffffff16815260200190815260200160002060008473ffffffffffffffffffffffffffffffffffffffff1673ffffffffffffffffffffffffffffffffffffffff16815260200190815260200160002060006101000a81548160ff0219169083151502179055508173ffffffffffffffffffffffffffffffffffffffff168373ffffffffffffffffffffffffffffffffffffffff167f17307eab39ab6107e8899845ad3d59bd9653f200f220920489ca2b5937696c3183604051612ce39190613be7565b60405180910390a3505050565b612cfb8484846127bc565b612d07848484846135d2565b612d46576040517f08c379a0000000000000000000000000000000000000000000000000000000008152600401612d3d90615990565b60405180910390fd5b50505050565b606060008203612d93576040518060400160405280600181526020017f30000000000000000000000000000000000000000000000000000000000000008152509050612ea7565b600082905060005b60008214612dc5578080612dae906154aa565b915050600a82612dbe91906159b0565b9150612d9b565b60008167ffffffffffffffff811115612de157612de0613c4e565b5b6040519080825280601f01601f191660200182016040528015612e135781602001600182028036833780820191505090505b5090505b60008514612ea057600182612e2c9190615476565b9150600a85612e3b919061561f565b6030612e479190615806565b60f81b818381518110612e5d57612e5c615418565b5b60200101907effffffffffffffffffffffffffffffffffffffffffffffffffffffffffffff1916908160001a905350600a85612e9991906159b0565b9450612e17565b8093505050505b919050565b606060008251905060008103612ed4576040518060200160405280600081525091505061303e565b60006003600283612ee59190615806565b612eef91906159b0565b6004612efb91906159e1565b90506000602082612f0c9190615806565b67ffffffffffffffff811115612f2557612f24613c4e565b5b6040519080825280601f01601f191660200182016040528015612f575781602001600182028036833780820191505090505b5090506000604051806060016040528060408152602001615d26604091399050600181016020830160005b86811015612ffb5760038101905062ffffff818a015116603f8160121c168401518060081b905060ff603f83600c1c1686015116810190508060081b905060ff603f8360061c1686015116810190508060081b905060ff603f831686015116810190508060e01b90508084526004840193505050612f82565b506003860660018114613015576002811461302557613030565b613d3d60f01b6002830352613030565b603d60f81b60018303525b508484525050819450505050505b919050565b6130df8484848460405160240161305d9493929190615a3b565b6040516020818303038152906040527fd5cf17d0000000000000000000000000000000000000000000000000000000007bffffffffffffffffffffffffffffffffffffffffffffffffffffffff19166020820180517bffffffffffffffffffffffffffffffffffffffffffffffffffffffff8381831617835250505050613759565b50505050565b600081600001549050919050565b6000600760009054906101000a900473ffffffffffffffffffffffffffffffffffffffff1673ffffffffffffffffffffffffffffffffffffffff16635d3b1d30600b54600c60009054906101000a900467ffffffffffffffff166003620f424060016040518663ffffffff1660e01b8152600401613175959493929190615b6c565b6020604051808303816000875af1158015613194573d6000803e3d6000fd5b505050506040513d601f19601f820116820180604052508101906131b89190614c9b565b905080601a8190555060405180604001604052803373ffffffffffffffffffffffffffffffffffffffff16815260200183815250600d600083815260200190815260200160002060008201518160000160006101000a81548173ffffffffffffffffffffffffffffffffffffffff021916908373ffffffffffffffffffffffffffffffffffffffff160217905550602082015181600101559050505050565b6132956040518060400160405280600c81526020017f46756c66696c6c204d696e740000000000000000000000000000000000000000815250613782565b6000600e82815481106132ab576132aa615418565b5b906000526020600020906008020160405180610100016040529081600082015481526020016001820180546132df906147aa565b80601f016020809104026020016040519081016040528092919081815260200182805461330b906147aa565b80156133585780601f1061332d57610100808354040283529160200191613358565b820191906000526020600020905b81548152906001019060200180831161333b57829003601f168201915b50505050508152602001600282018054613371906147aa565b80601f016020809104026020016040519081016040528092919081815260200182805461339d906147aa565b80156133ea5780601f106133bf576101008083540402835291602001916133ea565b820191906000526020600020905b8154815290600101906020018083116133cd57829003601f168201915b5050505050815260200160038201548152602001600482015481526020016005820154815260200160068201548152602001600782015481525050905060405180610100016040528082600001518152602001826020015181526020018260400151815260200182606001518152602001826060015181526020018260a0015181526020018260c0015181526020018260e00151815250601060008581526020019081526020016000206000820151816000015560208201518160010190805190602001906134ba929190613a90565b5060408201518160020190805190602001906134d7929190613a90565b50606082015181600301556080820151816004015560a0820151816005015560c0820151816006015560e08201518160070155905050600f60008573ffffffffffffffffffffffffffffffffffffffff1673ffffffffffffffffffffffffffffffffffffffff16815260200190815260200160002083908060018154018082558091505060019003906000526020600020016000909190919091505561357d848461381b565b81838573ffffffffffffffffffffffffffffffffffffffff167f4c209b5fc8ad50758f13e2e1088ba56a560dff690a1c6fef26394f4c03821c4f60405160405180910390a450505050565b505050565b505050565b60006135f38473ffffffffffffffffffffffffffffffffffffffff16613839565b1561374c578373ffffffffffffffffffffffffffffffffffffffff1663150b7a0261361c61261d565b8786866040518563ffffffff1660e01b815260040161363e9493929190615bbf565b6020604051808303816000875af192505050801561367a57506040513d601f19601f820116820180604052508101906136779190615c20565b60015b6136fc573d80600081146136aa576040519150601f19603f3d011682016040523d82523d6000602084013e6136af565b606091505b5060008151036136f4576040517f08c379a00000000000000000000000000000000000000000000000000000000081526004016136eb90615990565b60405180910390fd5b805181602001fd5b63150b7a0260e01b7bffffffffffffffffffffffffffffffffffffffffffffffffffffffff1916817bffffffffffffffffffffffffffffffffffffffffffffffffffffffff191614915050613751565b600190505b949350505050565b60008151905060006a636f6e736f6c652e6c6f679050602083016000808483855afa5050505050565b613818816040516024016137969190613e75565b6040516020818303038152906040527f41304fac000000000000000000000000000000000000000000000000000000007bffffffffffffffffffffffffffffffffffffffffffffffffffffffff19166020820180517bffffffffffffffffffffffffffffffffffffffffffffffffffffffff8381831617835250505050613759565b50565b61383582826040518060200160405280600081525061385c565b5050565b6000808273ffffffffffffffffffffffffffffffffffffffff163b119050919050565b61386683836138b7565b61387360008484846135d2565b6138b2576040517f08c379a00000000000000000000000000000000000000000000000000000000081526004016138a990615990565b60405180910390fd5b505050565b600073ffffffffffffffffffffffffffffffffffffffff168273ffffffffffffffffffffffffffffffffffffffff1603613926576040517f08c379a000000000000000000000000000000000000000000000000000000000815260040161391d90615c99565b60405180910390fd5b61392f816125b1565b1561396f576040517f08c379a000000000000000000000000000000000000000000000000000000000815260040161396690615d05565b60405180910390fd5b61397b600083836135c8565b6001600360008473ffffffffffffffffffffffffffffffffffffffff1673ffffffffffffffffffffffffffffffffffffffff16815260200190815260200160002060008282546139cb9190615806565b92505081905550816002600083815260200190815260200160002060006101000a81548173ffffffffffffffffffffffffffffffffffffffff021916908373ffffffffffffffffffffffffffffffffffffffff160217905550808273ffffffffffffffffffffffffffffffffffffffff16600073ffffffffffffffffffffffffffffffffffffffff167fddf252ad1be2c89b69c2b068fc378daa952ba7f163c4a11628f55a4df523b3ef60405160405180910390a4613a8c600083836135cd565b5050565b828054613a9c906147aa565b90600052602060002090601f016020900481019282613abe5760008555613b05565b82601f10613ad757805160ff1916838001178555613b05565b82800160010185558215613b05579182015b82811115613b04578251825591602001919060010190613ae9565b5b509050613b129190613b16565b5090565b5b80821115613b2f576000816000905550600101613b17565b5090565b6000604051905090565b600080fd5b600080fd5b60007fffffffff0000000000000000000000000000000000000000000000000000000082169050919050565b613b7c81613b47565b8114613b8757600080fd5b50565b600081359050613b9981613b73565b92915050565b600060208284031215613bb557613bb4613b3d565b5b6000613bc384828501613b8a565b91505092915050565b60008115159050919050565b613be181613bcc565b82525050565b6000602082019050613bfc6000830184613bd8565b92915050565b6000819050919050565b613c1581613c02565b8114613c2057600080fd5b50565b600081359050613c3281613c0c565b92915050565b600080fd5b6000601f19601f8301169050919050565b7f4e487b7100000000000000000000000000000000000000000000000000000000600052604160045260246000fd5b613c8682613c3d565b810181811067ffffffffffffffff82111715613ca557613ca4613c4e565b5b80604052505050565b6000613cb8613b33565b9050613cc48282613c7d565b919050565b600067ffffffffffffffff821115613ce457613ce3613c4e565b5b602082029050602081019050919050565b600080fd5b6000613d0d613d0884613cc9565b613cae565b90508083825260208201905060208402830185811115613d3057613d2f613cf5565b5b835b81811015613d595780613d458882613c23565b845260208401935050602081019050613d32565b5050509392505050565b600082601f830112613d7857613d77613c38565b5b8135613d88848260208601613cfa565b91505092915050565b60008060408385031215613da857613da7613b3d565b5b6000613db685828601613c23565b925050602083013567ffffffffffffffff811115613dd757613dd6613b42565b5b613de385828601613d63565b9150509250929050565b600081519050919050565b600082825260208201905092915050565b60005b83811015613e27578082015181840152602081019050613e0c565b83811115613e36576000848401525b50505050565b6000613e4782613ded565b613e518185613df8565b9350613e61818560208601613e09565b613e6a81613c3d565b840191505092915050565b60006020820190508181036000830152613e8f8184613e3c565b905092915050565b600060208284031215613ead57613eac613b3d565b5b6000613ebb84828501613c23565b91505092915050565b600073ffffffffffffffffffffffffffffffffffffffff82169050919050565b6000613eef82613ec4565b9050919050565b613eff81613ee4565b82525050565b6000602082019050613f1a6000830184613ef6565b92915050565b613f2981613ee4565b8114613f3457600080fd5b50565b600081359050613f4681613f20565b92915050565b60008060408385031215613f6357613f62613b3d565b5b6000613f7185828601613f37565b9250506020613f8285828601613c23565b9150509250929050565b6000819050919050565b6000613fb1613fac613fa784613ec4565b613f8c565b613ec4565b9050919050565b6000613fc382613f96565b9050919050565b6000613fd582613fb8565b9050919050565b613fe581613fca565b82525050565b60006020820190506140006000830184613fdc565b92915050565b60006bffffffffffffffffffffffff82169050919050565b61402781614006565b82525050565b600067ffffffffffffffff82169050919050565b61404a8161402d565b82525050565b600081519050919050565b600082825260208201905092915050565b6000819050602082019050919050565b61408581613ee4565b82525050565b6000614097838361407c565b60208301905092915050565b6000602082019050919050565b60006140bb82614050565b6140c5818561405b565b93506140d08361406c565b8060005b838110156141015781516140e8888261408b565b97506140f3836140a3565b9250506001810190506140d4565b5085935050505092915050565b6000608082019050614123600083018761401e565b6141306020830186614041565b61413d6040830185613ef6565b818103606083015261414f81846140b0565b905095945050505050565b6000602082840312156141705761416f613b3d565b5b600061417e84828501613f37565b91505092915050565b61419081613c02565b82525050565b600060a08201905081810360008301526141b08188613e3c565b905081810360208301526141c48187613e3c565b90506141d36040830186614187565b6141e06060830185614187565b6141ed6080830184614187565b9695505050505050565b6000806000606084860312156142105761420f613b3d565b5b600061421e86828701613f37565b935050602061422f86828701613f37565b925050604061424086828701613c23565b9150509250925092565b600061010082019050614260600083018b614187565b8181036020830152614272818a613e3c565b905081810360408301526142868189613e3c565b90506142956060830188614187565b6142a26080830187614187565b6142af60a0830186614187565b6142bc60c0830185614187565b6142c960e0830184614187565b9998505050505050505050565b60006142e182613fb8565b9050919050565b6142f1816142d6565b82525050565b600060208201905061430c60008301846142e8565b92915050565b6000819050919050565b61432581614312565b811461433057600080fd5b50565b6000813590506143428161431c565b92915050565b6000806040838503121561435f5761435e613b3d565b5b600061436d85828601613f37565b925050602061437e85828601614333565b9150509250929050565b600060208201905061439d6000830184614187565b92915050565b6143ac81613bcc565b81146143b757600080fd5b50565b6000813590506143c9816143a3565b92915050565b600080604083850312156143e6576143e5613b3d565b5b60006143f485828601613f37565b9250506020614405858286016143ba565b9150509250929050565b600080fd5b600067ffffffffffffffff82111561442f5761442e613c4e565b5b61443882613c3d565b9050602081019050919050565b82818337600083830152505050565b600061446761446284614414565b613cae565b9050828152602081018484840111156144835761448261440f565b5b61448e848285614445565b509392505050565b600082601f8301126144ab576144aa613c38565b5b81356144bb848260208601614454565b91505092915050565b600080600080608085870312156144de576144dd613b3d565b5b60006144ec87828801613f37565b94505060206144fd87828801613f37565b935050604061450e87828801613c23565b925050606085013567ffffffffffffffff81111561452f5761452e613b42565b5b61453b87828801614496565b91505092959194509250565b600081519050919050565b600082825260208201905092915050565b6000819050602082019050919050565b61457c81613c02565b82525050565b600082825260208201905092915050565b600061459e82613ded565b6145a88185614582565b93506145b8818560208601613e09565b6145c181613c3d565b840191505092915050565b6000610100830160008301516145e56000860182614573565b50602083015184820360208601526145fd8282614593565b915050604083015184820360408601526146178282614593565b915050606083015161462c6060860182614573565b50608083015161463f6080860182614573565b5060a083015161465260a0860182614573565b5060c083015161466560c0860182614573565b5060e083015161467860e0860182614573565b508091505092915050565b600061468f83836145cc565b905092915050565b6000602082019050919050565b60006146af82614547565b6146b98185614552565b9350836020820285016146cb85614563565b8060005b8581101561470757848403895281516146e88582614683565b94506146f383614697565b925060208a019950506001810190506146cf565b50829750879550505050505092915050565b6000602082019050818103600083015261473381846146a4565b905092915050565b6000806040838503121561475257614751613b3d565b5b600061476085828601613f37565b925050602061477185828601613f37565b9150509250929050565b7f4e487b7100000000000000000000000000000000000000000000000000000000600052602260045260246000fd5b600060028204905060018216806147c257607f821691505b6020821081036147d5576147d461477b565b5b50919050565b7f4552433732313a20617070726f76656420717565727920666f72206e6f6e657860008201527f697374656e7420746f6b656e0000000000000000000000000000000000000000602082015250565b6000614837602c83613df8565b9150614842826147db565b604082019050919050565b600060208201905081810360008301526148668161482a565b9050919050565b7f4552433732313a20617070726f76616c20746f2063757272656e74206f776e6560008201527f7200000000000000000000000000000000000000000000000000000000000000602082015250565b60006148c9602183613df8565b91506148d48261486d565b604082019050919050565b600060208201905081810360008301526148f8816148bc565b9050919050565b7f4552433732313a20617070726f76652063616c6c6572206973206e6f74206f7760008201527f6e6572206e6f7220617070726f76656420666f7220616c6c0000000000000000602082015250565b600061495b603883613df8565b9150614966826148ff565b604082019050919050565b6000602082019050818103600083015261498a8161494e565b9050919050565b60006020820190506149a66000830184614041565b92915050565b6149b581614006565b81146149c057600080fd5b50565b6000815190506149d2816149ac565b92915050565b6149e18161402d565b81146149ec57600080fd5b50565b6000815190506149fe816149d8565b92915050565b600081519050614a1381613f20565b92915050565b600067ffffffffffffffff821115614a3457614a33613c4e565b5b602082029050602081019050919050565b6000614a58614a5384614a19565b613cae565b90508083825260208201905060208402830185811115614a7b57614a7a613cf5565b5b835b81811015614aa45780614a908882614a04565b845260208401935050602081019050614a7d565b5050509392505050565b600082601f830112614ac357614ac2613c38565b5b8151614ad3848260208601614a45565b91505092915050565b60008060008060808587031215614af657614af5613b3d565b5b6000614b04878288016149c3565b9450506020614b15878288016149ef565b9350506040614b2687828801614a04565b925050606085015167ffffffffffffffff811115614b4757614b46613b42565b5b614b5387828801614aae565b91505092959194509250565b7f43616c6c6572206d757374206265206f776e6572000000000000000000000000600082015250565b6000614b95601483613df8565b9150614ba082614b5f565b602082019050919050565b60006020820190508181036000830152614bc481614b88565b9050919050565b6000604082019050614be06000830185613ef6565b614bed6020830184613ef6565b9392505050565b7f4552433732313a207472616e736665722063616c6c6572206973206e6f74206f60008201527f776e6572206e6f7220617070726f766564000000000000000000000000000000602082015250565b6000614c50603183613df8565b9150614c5b82614bf4565b604082019050919050565b60006020820190508181036000830152614c7f81614c43565b9050919050565b600081519050614c9581613c0c565b92915050565b600060208284031215614cb157614cb0613b3d565b5b6000614cbf84828501614c86565b91505092915050565b600081519050919050565b600082825260208201905092915050565b6000614cef82614cc8565b614cf98185614cd3565b9350614d09818560208601613e09565b614d1281613c3d565b840191505092915050565b6000606082019050614d326000830186613ef6565b614d3f6020830185614187565b8181036040830152614d518184614ce4565b9050949350505050565b600081519050614d6a816143a3565b92915050565b600060208284031215614d8657614d85613b3d565b5b6000614d9484828501614d5b565b91505092915050565b7f4552433732313a206f776e657220717565727920666f72206e6f6e657869737460008201527f656e7420746f6b656e0000000000000000000000000000000000000000000000602082015250565b6000614df9602983613df8565b9150614e0482614d9d565b604082019050919050565b60006020820190508181036000830152614e2881614dec565b9050919050565b7f4552433732313a2062616c616e636520717565727920666f7220746865207a6560008201527f726f206164647265737300000000000000000000000000000000000000000000602082015250565b6000614e8b602a83613df8565b9150614e9682614e2f565b604082019050919050565b60006020820190508181036000830152614eba81614e7e565b9050919050565b600081905092915050565b7f7b226e616d65223a202200000000000000000000000000000000000000000000600082015250565b6000614f02600a83614ec1565b9150614f0d82614ecc565b600a82019050919050565b6000614f2382613ded565b614f2d8185614ec1565b9350614f3d818560208601613e09565b80840191505092915050565b7f202d2d204e465420233a20000000000000000000000000000000000000000000600082015250565b6000614f7f600b83614ec1565b9150614f8a82614f49565b600b82019050919050565b7f222c20226465736372697074696f6e223a202241204865726f204e465420746860008201527f6174206c65747320796f7520706c6179204d6f6e7374657220536c617965722160208201527f222c2022696d616765223a202200000000000000000000000000000000000000604082015250565b6000615017604d83614ec1565b915061502282614f95565b604d82019050919050565b7f222c20224865726f223a205b207b202274726169745f74797065223a2022486560008201527f616c746820506f696e7473222c202276616c7565223a20000000000000000000602082015250565b6000615089603783614ec1565b91506150948261502d565b603782019050919050565b7f2c20226d61785f76616c7565223a000000000000000000000000000000000000600082015250565b60006150d5600e83614ec1565b91506150e08261509f565b600e82019050919050565b7f7d2c207b202274726169745f74797065223a202241747461636b2044616d616760008201527f65222c202276616c7565223a2000000000000000000000000000000000000000602082015250565b6000615147602d83614ec1565b9150615152826150eb565b602d82019050919050565b7f7d2c207b202274726169745f74797065223a2022437269746963616c2044616d60008201527f616765204368616e6365222c202276616c7565223a2000000000000000000000602082015250565b60006151b9603683614ec1565b91506151c48261515d565b603682019050919050565b7f7d2c207b202274726169745f74797065223a20224865616c696e6720506f776560008201527f72222c202276616c7565223a2000000000000000000000000000000000000000602082015250565b600061522b602d83614ec1565b9150615236826151cf565b602d82019050919050565b7f7d205d7d00000000000000000000000000000000000000000000000000000000600082015250565b6000615277600483614ec1565b915061528282615241565b600482019050919050565b600061529882614ef5565b91506152a4828e614f18565b91506152af82614f72565b91506152bb828d614f18565b91506152c68261500a565b91506152d2828c614f18565b91506152dd8261507c565b91506152e9828b614f18565b91506152f4826150c8565b9150615300828a614f18565b915061530b8261513a565b91506153178289614f18565b9150615322826150c8565b915061532e8288614f18565b9150615339826151ac565b91506153458287614f18565b9150615350826150c8565b915061535c8286614f18565b91506153678261521e565b91506153738285614f18565b915061537e826150c8565b915061538a8284614f18565b91506153958261526a565b91508190509c9b505050505050505050505050565b7f646174613a6170706c69636174696f6e2f6a736f6e3b6261736536342c000000600082015250565b60006153e0601d83614ec1565b91506153eb826153aa565b601d82019050919050565b6000615401826153d3565b915061540d8284614f18565b915081905092915050565b7f4e487b7100000000000000000000000000000000000000000000000000000000600052603260045260246000fd5b7f4e487b7100000000000000000000000000000000000000000000000000000000600052601160045260246000fd5b600061548182613c02565b915061548c83613c02565b92508282101561549f5761549e615447565b5b828203905092915050565b60006154b582613c02565b91507fffffffffffffffffffffffffffffffffffffffffffffffffffffffffffffffff82036154e7576154e6615447565b5b600182019050919050565b7f546869732061646472657373206861732072656163686564206d6178696d756d60008201527f204e465420616d6f756e74000000000000000000000000000000000000000000602082015250565b600061554e602b83613df8565b9150615559826154f2565b604082019050919050565b6000602082019050818103600083015261557d81615541565b9050919050565b7f5061796d656e74206973206e6f7420636f727265637400000000000000000000600082015250565b60006155ba601683613df8565b91506155c582615584565b602082019050919050565b600060208201905081810360008301526155e9816155ad565b9050919050565b7f4e487b7100000000000000000000000000000000000000000000000000000000600052601260045260246000fd5b600061562a82613c02565b915061563583613c02565b925082615645576156446155f0565b5b828206905092915050565b7f4552433732313a206f70657261746f7220717565727920666f72206e6f6e657860008201527f697374656e7420746f6b656e0000000000000000000000000000000000000000602082015250565b60006156ac602c83613df8565b91506156b782615650565b604082019050919050565b600060208201905081810360008301526156db8161569f565b9050919050565b7f4552433732313a207472616e736665722066726f6d20696e636f72726563742060008201527f6f776e6572000000000000000000000000000000000000000000000000000000602082015250565b600061573e602583613df8565b9150615749826156e2565b604082019050919050565b6000602082019050818103600083015261576d81615731565b9050919050565b7f4552433732313a207472616e7366657220746f20746865207a65726f2061646460008201527f7265737300000000000000000000000000000000000000000000000000000000602082015250565b60006157d0602483613df8565b91506157db82615774565b604082019050919050565b600060208201905081810360008301526157ff816157c3565b9050919050565b600061581182613c02565b915061581c83613c02565b9250827fffffffffffffffffffffffffffffffffffffffffffffffffffffffffffffffff0382111561585157615850615447565b5b828201905092915050565b60006020828403121561587257615871613b3d565b5b6000615880848285016149ef565b91505092915050565b600060408201905061589e6000830185614041565b6158ab6020830184613ef6565b9392505050565b7f4552433732313a20617070726f766520746f2063616c6c657200000000000000600082015250565b60006158e8601983613df8565b91506158f3826158b2565b602082019050919050565b60006020820190508181036000830152615917816158db565b9050919050565b7f4552433732313a207472616e7366657220746f206e6f6e20455243373231526560008201527f63656976657220696d706c656d656e7465720000000000000000000000000000602082015250565b600061597a603283613df8565b91506159858261591e565b604082019050919050565b600060208201905081810360008301526159a98161596d565b9050919050565b60006159bb82613c02565b91506159c683613c02565b9250826159d6576159d56155f0565b5b828204905092915050565b60006159ec82613c02565b91506159f783613c02565b9250817fffffffffffffffffffffffffffffffffffffffffffffffffffffffffffffffff0483118215151615615a3057615a2f615447565b5b828202905092915050565b60006080820190508181036000830152615a558187613e3c565b90508181036020830152615a698186613e3c565b9050615a786040830185614187565b615a856060830184614187565b95945050505050565b615a9781614312565b82525050565b6000819050919050565b600061ffff82169050919050565b6000615ad0615acb615ac684615a9d565b613f8c565b615aa7565b9050919050565b615ae081615ab5565b82525050565b6000819050919050565b600063ffffffff82169050919050565b6000615b1b615b16615b1184615ae6565b613f8c565b615af0565b9050919050565b615b2b81615b00565b82525050565b6000819050919050565b6000615b56615b51615b4c84615b31565b613f8c565b615af0565b9050919050565b615b6681615b3b565b82525050565b600060a082019050615b816000830188615a8e565b615b8e6020830187614041565b615b9b6040830186615ad7565b615ba86060830185615b22565b615bb56080830184615b5d565b9695505050505050565b6000608082019050615bd46000830187613ef6565b615be16020830186613ef6565b615bee6040830185614187565b8181036060830152615c008184614ce4565b905095945050505050565b600081519050615c1a81613b73565b92915050565b600060208284031215615c3657615c35613b3d565b5b6000615c4484828501615c0b565b91505092915050565b7f4552433732313a206d696e7420746f20746865207a65726f2061646472657373600082015250565b6000615c83602083613df8565b9150615c8e82615c4d565b602082019050919050565b60006020820190508181036000830152615cb281615c76565b9050919050565b7f4552433732313a20746f6b656e20616c7265616479206d696e74656400000000600082015250565b6000615cef601c83613df8565b9150615cfa82615cb9565b602082019050919050565b60006020820190508181036000830152615d1e81615ce2565b905091905056fe4142434445464748494a4b4c4d4e4f505152535455565758595a6162636465666768696a6b6c6d6e6f707172737475767778797a303132333435363738392b2f4865726f2025732061747461636b696e672c2068617320257320485020616e64202573204144a2646970667358221220dbf46431052e9e84672cb5041c2ccbfa37c7a120c33f81e5bcc7882d5f75fa5964736f6c634300080d0033",
  "linkReferences": {},
  "deployedLinkReferences": {}
}