{
  "_format": "hh-sol-artifact-1",
  "contractName": "Game",
  "sourceName": "contracts/Game.sol",
  "abi": [
    {
      "inputs": [
        {
          "internalType": "string[]",
          "name": "names",
          "type": "string[]"
        },
        {
          "internalType": "string[]",
          "name": "imageUris",
          "type": "string[]"
        },
        {
          "internalType": "uint256[]",
          "name": "hps",
          "type": "uint256[]"
        },
        {
          "internalType": "uint256[]",
          "name": "damages",
          "type": "uint256[]"
        },
        {
          "internalType": "uint256[]",
          "name": "crits",
          "type": "uint256[]"
        },
        {
          "internalType": "uint256[]",
          "name": "heals",
          "type": "uint256[]"
        },
        {
          "internalType": "string[]",
          "name": "bossNames",
          "type": "string[]"
        },
        {
          "internalType": "string[]",
          "name": "bossImageUris",
          "type": "string[]"
        },
        {
          "internalType": "uint256[]",
          "name": "bossHps",
          "type": "uint256[]"
        },
        {
          "internalType": "uint256[]",
          "name": "bossDamage",
          "type": "uint256[]"
        }
      ],
      "stateMutability": "nonpayable",
      "type": "constructor"
    },
    {
      "inputs": [
        {
          "internalType": "address",
          "name": "have",
          "type": "address"
        },
        {
          "internalType": "address",
          "name": "want",
          "type": "address"
        }
      ],
      "name": "OnlyCoordinatorCanFulfill",
      "type": "error"
    },
    {
      "anonymous": false,
      "inputs": [
        {
          "indexed": true,
          "internalType": "address",
          "name": "owner",
          "type": "address"
        },
        {
          "indexed": true,
          "internalType": "address",
          "name": "approved",
          "type": "address"
        },
        {
          "indexed": true,
          "internalType": "uint256",
          "name": "tokenId",
          "type": "uint256"
        }
      ],
      "name": "Approval",
      "type": "event"
    },
    {
      "anonymous": false,
      "inputs": [
        {
          "indexed": true,
          "internalType": "address",
          "name": "owner",
          "type": "address"
        },
        {
          "indexed": true,
          "internalType": "address",
          "name": "operator",
          "type": "address"
        },
        {
          "indexed": false,
          "internalType": "bool",
          "name": "approved",
          "type": "bool"
        }
      ],
      "name": "ApprovalForAll",
      "type": "event"
    },
    {
      "anonymous": false,
      "inputs": [
        {
          "indexed": false,
          "internalType": "address",
          "name": "owner",
          "type": "address"
        },
        {
          "indexed": false,
          "internalType": "uint256",
          "name": "tokenId",
          "type": "uint256"
        },
        {
          "indexed": false,
          "internalType": "uint256",
          "name": "attributesIndex",
          "type": "uint256"
        }
      ],
      "name": "Mint",
      "type": "event"
    },
    {
      "anonymous": false,
      "inputs": [
        {
          "indexed": true,
          "internalType": "address",
          "name": "from",
          "type": "address"
        },
        {
          "indexed": true,
          "internalType": "address",
          "name": "to",
          "type": "address"
        },
        {
          "indexed": true,
          "internalType": "uint256",
          "name": "tokenId",
          "type": "uint256"
        }
      ],
      "name": "Transfer",
      "type": "event"
    },
    {
      "inputs": [
        {
          "internalType": "address",
          "name": "to",
          "type": "address"
        },
        {
          "internalType": "uint256",
          "name": "tokenId",
          "type": "uint256"
        }
      ],
      "name": "approve",
      "outputs": [],
      "stateMutability": "nonpayable",
      "type": "function"
    },
    {
      "inputs": [
        {
          "internalType": "address",
          "name": "owner",
          "type": "address"
        }
      ],
      "name": "balanceOf",
      "outputs": [
        {
          "internalType": "uint256",
          "name": "",
          "type": "uint256"
        }
      ],
      "stateMutability": "view",
      "type": "function"
    },
    {
      "inputs": [
        {
          "internalType": "uint256",
          "name": "",
          "type": "uint256"
        }
      ],
      "name": "bosses",
      "outputs": [
        {
          "internalType": "string",
          "name": "name",
          "type": "string"
        },
        {
          "internalType": "string",
          "name": "imageUri",
          "type": "string"
        },
        {
          "internalType": "uint256",
          "name": "hp",
          "type": "uint256"
        },
        {
          "internalType": "uint256",
          "name": "maxHp",
          "type": "uint256"
        },
        {
          "internalType": "uint256",
          "name": "damage",
          "type": "uint256"
        }
      ],
      "stateMutability": "view",
      "type": "function"
    },
    {
      "inputs": [],
      "name": "coordinator",
      "outputs": [
        {
          "internalType": "contract VRFCoordinatorV2Interface",
          "name": "",
          "type": "address"
        }
      ],
      "stateMutability": "view",
      "type": "function"
    },
    {
      "inputs": [],
      "name": "currentBoss",
      "outputs": [
        {
          "internalType": "string",
          "name": "name",
          "type": "string"
        },
        {
          "internalType": "string",
          "name": "imageUri",
          "type": "string"
        },
        {
          "internalType": "uint256",
          "name": "hp",
          "type": "uint256"
        },
        {
          "internalType": "uint256",
          "name": "maxHp",
          "type": "uint256"
        },
        {
          "internalType": "uint256",
          "name": "damage",
          "type": "uint256"
        }
      ],
      "stateMutability": "view",
      "type": "function"
    },
    {
      "inputs": [
        {
          "internalType": "uint256",
          "name": "",
          "type": "uint256"
        }
      ],
      "name": "defaultAttributes",
      "outputs": [
        {
          "internalType": "uint256",
          "name": "index",
          "type": "uint256"
        },
        {
          "internalType": "string",
          "name": "name",
          "type": "string"
        },
        {
          "internalType": "string",
          "name": "imageUri",
          "type": "string"
        },
        {
          "internalType": "uint256",
          "name": "hp",
          "type": "uint256"
        },
        {
          "internalType": "uint256",
          "name": "maxHp",
          "type": "uint256"
        },
        {
          "internalType": "uint256",
          "name": "damage",
          "type": "uint256"
        },
        {
          "internalType": "uint256",
          "name": "crit",
          "type": "uint256"
        },
        {
          "internalType": "uint256",
          "name": "heal",
          "type": "uint256"
        }
      ],
      "stateMutability": "view",
      "type": "function"
    },
    {
      "inputs": [
        {
          "internalType": "uint256",
          "name": "linkAmount",
          "type": "uint256"
        }
      ],
      "name": "fundSubscription",
      "outputs": [],
      "stateMutability": "nonpayable",
      "type": "function"
    },
    {
      "inputs": [
        {
          "internalType": "uint256",
          "name": "tokenId",
          "type": "uint256"
        }
      ],
      "name": "getApproved",
      "outputs": [
        {
          "internalType": "address",
          "name": "",
          "type": "address"
        }
      ],
      "stateMutability": "view",
      "type": "function"
    },
    {
      "inputs": [
        {
          "internalType": "address",
          "name": "owner",
          "type": "address"
        },
        {
          "internalType": "address",
          "name": "operator",
          "type": "address"
        }
      ],
      "name": "isApprovedForAll",
      "outputs": [
        {
          "internalType": "bool",
          "name": "",
          "type": "bool"
        }
      ],
      "stateMutability": "view",
      "type": "function"
    },
    {
      "inputs": [],
      "name": "linkToken",
      "outputs": [
        {
          "internalType": "contract LinkTokenInterface",
          "name": "",
          "type": "address"
        }
      ],
      "stateMutability": "view",
      "type": "function"
    },
    {
      "inputs": [],
      "name": "mintCost",
      "outputs": [
        {
          "internalType": "uint256",
          "name": "",
          "type": "uint256"
        }
      ],
      "stateMutability": "view",
      "type": "function"
    },
    {
      "inputs": [],
      "name": "mintHero",
      "outputs": [],
      "stateMutability": "payable",
      "type": "function"
    },
    {
      "inputs": [],
      "name": "name",
      "outputs": [
        {
          "internalType": "string",
          "name": "",
          "type": "string"
        }
      ],
      "stateMutability": "view",
      "type": "function"
    },
    {
      "inputs": [
        {
          "internalType": "uint256",
          "name": "",
          "type": "uint256"
        }
      ],
      "name": "nftAttributes",
      "outputs": [
        {
          "internalType": "uint256",
          "name": "index",
          "type": "uint256"
        },
        {
          "internalType": "string",
          "name": "name",
          "type": "string"
        },
        {
          "internalType": "string",
          "name": "imageUri",
          "type": "string"
        },
        {
          "internalType": "uint256",
          "name": "hp",
          "type": "uint256"
        },
        {
          "internalType": "uint256",
          "name": "maxHp",
          "type": "uint256"
        },
        {
          "internalType": "uint256",
          "name": "damage",
          "type": "uint256"
        },
        {
          "internalType": "uint256",
          "name": "crit",
          "type": "uint256"
        },
        {
          "internalType": "uint256",
          "name": "heal",
          "type": "uint256"
        }
      ],
      "stateMutability": "view",
      "type": "function"
    },
    {
      "inputs": [
        {
          "internalType": "address",
          "name": "",
          "type": "address"
        },
        {
          "internalType": "uint256",
          "name": "",
          "type": "uint256"
        }
      ],
      "name": "nftHolders",
      "outputs": [
        {
          "internalType": "uint256",
          "name": "",
          "type": "uint256"
        }
      ],
      "stateMutability": "view",
      "type": "function"
    },
    {
      "inputs": [],
      "name": "owner",
      "outputs": [
        {
          "internalType": "address",
          "name": "",
          "type": "address"
        }
      ],
      "stateMutability": "view",
      "type": "function"
    },
    {
      "inputs": [
        {
          "internalType": "uint256",
          "name": "tokenId",
          "type": "uint256"
        }
      ],
      "name": "ownerOf",
      "outputs": [
        {
          "internalType": "address",
          "name": "",
          "type": "address"
        }
      ],
      "stateMutability": "view",
      "type": "function"
    },
    {
      "inputs": [
        {
          "internalType": "uint256",
          "name": "requestId",
          "type": "uint256"
        },
        {
          "internalType": "uint256[]",
          "name": "randomWords",
          "type": "uint256[]"
        }
      ],
      "name": "rawFulfillRandomWords",
      "outputs": [],
      "stateMutability": "nonpayable",
      "type": "function"
    },
    {
      "inputs": [
        {
          "internalType": "address",
          "name": "from",
          "type": "address"
        },
        {
          "internalType": "address",
          "name": "to",
          "type": "address"
        },
        {
          "internalType": "uint256",
          "name": "tokenId",
          "type": "uint256"
        }
      ],
      "name": "safeTransferFrom",
      "outputs": [],
      "stateMutability": "nonpayable",
      "type": "function"
    },
    {
      "inputs": [
        {
          "internalType": "address",
          "name": "from",
          "type": "address"
        },
        {
          "internalType": "address",
          "name": "to",
          "type": "address"
        },
        {
          "internalType": "uint256",
          "name": "tokenId",
          "type": "uint256"
        },
        {
          "internalType": "bytes",
          "name": "_data",
          "type": "bytes"
        }
      ],
      "name": "safeTransferFrom",
      "outputs": [],
      "stateMutability": "nonpayable",
      "type": "function"
    },
    {
      "inputs": [
        {
          "internalType": "address",
          "name": "operator",
          "type": "address"
        },
        {
          "internalType": "bool",
          "name": "approved",
          "type": "bool"
        }
      ],
      "name": "setApprovalForAll",
      "outputs": [],
      "stateMutability": "nonpayable",
      "type": "function"
    },
    {
      "inputs": [
        {
          "internalType": "uint256",
          "name": "_mintCost",
          "type": "uint256"
        }
      ],
      "name": "setMintCost",
      "outputs": [],
      "stateMutability": "nonpayable",
      "type": "function"
    },
    {
      "inputs": [
        {
          "internalType": "address",
          "name": "_owner",
          "type": "address"
        }
      ],
      "name": "setOwner",
      "outputs": [],
      "stateMutability": "nonpayable",
      "type": "function"
    },
    {
      "inputs": [
        {
          "internalType": "bytes4",
          "name": "interfaceId",
          "type": "bytes4"
        }
      ],
      "name": "supportsInterface",
      "outputs": [
        {
          "internalType": "bool",
          "name": "",
          "type": "bool"
        }
      ],
      "stateMutability": "view",
      "type": "function"
    },
    {
      "inputs": [],
      "name": "symbol",
      "outputs": [
        {
          "internalType": "string",
          "name": "",
          "type": "string"
        }
      ],
      "stateMutability": "view",
      "type": "function"
    },
    {
      "inputs": [
        {
          "internalType": "uint256",
          "name": "tokenId",
          "type": "uint256"
        }
      ],
      "name": "tokenURI",
      "outputs": [
        {
          "internalType": "string",
          "name": "",
          "type": "string"
        }
      ],
      "stateMutability": "view",
      "type": "function"
    },
    {
      "inputs": [
        {
          "internalType": "address",
          "name": "from",
          "type": "address"
        },
        {
          "internalType": "address",
          "name": "to",
          "type": "address"
        },
        {
          "internalType": "uint256",
          "name": "tokenId",
          "type": "uint256"
        }
      ],
      "name": "transferFrom",
      "outputs": [],
      "stateMutability": "nonpayable",
      "type": "function"
    }
  ],
  "bytecode": "0x60a060405273271682deb8c4e0901d1a1550ad2e64d568e69909600860006101000a81548173ffffffffffffffffffffffffffffffffffffffff021916908373ffffffffffffffffffffffffffffffffffffffff16021790555073514910771af9ca656af840dff83e8264ecf986ca600960006101000a81548173ffffffffffffffffffffffffffffffffffffffff021916908373ffffffffffffffffffffffffffffffffffffffff1602179055507fff8dedfbfa60af186cf3c830acbc32c05aae823045ae5ea7da1e45fbfaba4f9260001b600a556000601755348015620000e757600080fd5b5060405162005db738038062005db783398181016040528101906200010d919062000d33565b600860009054906101000a900473ffffffffffffffffffffffffffffffffffffffff166040518060400160405280600681526020017f4865726f657300000000000000000000000000000000000000000000000000008152506040518060400160405280600481526020017f4865726f000000000000000000000000000000000000000000000000000000008152508160009080519060200190620001b4929190620008d9565b508060019080519060200190620001cd929190620008d9565b5050508073ffffffffffffffffffffffffffffffffffffffff1660808173ffffffffffffffffffffffffffffffffffffffff16815250505088518a5114801562000218575087518951145b801562000226575086518851145b801562000234575085518751145b801562000242575084518651145b62000284576040517f08c379a00000000000000000000000000000000000000000000000000000000081526004016200027b9062000fe6565b60405180910390fd5b8251845114801562000297575081518351145b8015620002a5575080518251145b620002e7576040517f08c379a0000000000000000000000000000000000000000000000000000000008152600401620002de906200107e565b60405180910390fd5b60005b84518110156200044b5760116040518060a00160405280878481518110620003175762000316620010a0565b5b602002602001015181526020018684815181106200033a5762000339620010a0565b5b602002602001015181526020018584815181106200035d576200035c620010a0565b5b6020026020010151815260200184848151811062000380576200037f620010a0565b5b60200260200101518152602001848481518110620003a357620003a2620010a0565b5b602002602001015181525090806001815401808255809150506001900390600052602060002090600502016000909190919091506000820151816000019080519060200190620003f5929190620008d9565b50602082015181600101908051906020019062000414929190620008d9565b50604082015181600201556060820151816003015560808201518160040155505080806200044290620010fe565b915050620002ea565b5060005b8a518110156200061b57600e6040518061010001604052808381526020018d8481518110620004835762000482620010a0565b5b602002602001015181526020018c8481518110620004a657620004a5620010a0565b5b602002602001015181526020018b8481518110620004c957620004c8620010a0565b5b602002602001015181526020018b8481518110620004ec57620004eb620010a0565b5b602002602001015181526020018a84815181106200050f576200050e620010a0565b5b60200260200101518152602001898481518110620005325762000531620010a0565b5b60200260200101518152602001888481518110620005555762000554620010a0565b5b60200260200101518152509080600181540180825580915050600190039060005260206000209060080201600090919091909150600082015181600001556020820151816001019080519060200190620005b1929190620008d9565b506040820151816002019080519060200190620005d0929190620008d9565b50606082015181600301556080820151816004015560a0820151816005015560c0820151816006015560e08201518160070155505080806200061290620010fe565b9150506200044f565b5062000633600d6200075a60201b620019d41760201c565b33601860006101000a81548173ffffffffffffffffffffffffffffffffffffffff021916908373ffffffffffffffffffffffffffffffffffffffff160217905550600860009054906101000a900473ffffffffffffffffffffffffffffffffffffffff16600660006101000a81548173ffffffffffffffffffffffffffffffffffffffff021916908373ffffffffffffffffffffffffffffffffffffffff160217905550600960009054906101000a900473ffffffffffffffffffffffffffffffffffffffff16600760006101000a81548173ffffffffffffffffffffffffffffffffffffffff021916908373ffffffffffffffffffffffffffffffffffffffff1602179055506200074a6200077060201b60201c565b50505050505050505050620012a9565b6001816000016000828254019250508190555050565b600660009054906101000a900473ffffffffffffffffffffffffffffffffffffffff1673ffffffffffffffffffffffffffffffffffffffff1663a21a23e46040518163ffffffff1660e01b81526004016020604051808303816000875af1158015620007e0573d6000803e3d6000fd5b505050506040513d601f19601f8201168201806040525081019062000806919062001190565b600b60006101000a81548167ffffffffffffffff021916908367ffffffffffffffff160217905550600660009054906101000a900473ffffffffffffffffffffffffffffffffffffffff1673ffffffffffffffffffffffffffffffffffffffff16637341c10c600b60009054906101000a900467ffffffffffffffff16306040518363ffffffff1660e01b8152600401620008a392919062001218565b600060405180830381600087803b158015620008be57600080fd5b505af1158015620008d3573d6000803e3d6000fd5b50505050565b828054620008e79062001274565b90600052602060002090601f0160209004810192826200090b576000855562000957565b82601f106200092657805160ff191683800117855562000957565b8280016001018555821562000957579182015b828111156200095657825182559160200191906001019062000939565b5b5090506200096691906200096a565b5090565b5b80821115620009855760008160009055506001016200096b565b5090565b6000604051905090565b600080fd5b600080fd5b600080fd5b6000601f19601f8301169050919050565b7f4e487b7100000000000000000000000000000000000000000000000000000000600052604160045260246000fd5b620009ed82620009a2565b810181811067ffffffffffffffff8211171562000a0f5762000a0e620009b3565b5b80604052505050565b600062000a2462000989565b905062000a328282620009e2565b919050565b600067ffffffffffffffff82111562000a555762000a54620009b3565b5b602082029050602081019050919050565b600080fd5b600080fd5b600067ffffffffffffffff82111562000a8e5762000a8d620009b3565b5b62000a9982620009a2565b9050602081019050919050565b60005b8381101562000ac657808201518184015260208101905062000aa9565b8381111562000ad6576000848401525b50505050565b600062000af362000aed8462000a70565b62000a18565b90508281526020810184848401111562000b125762000b1162000a6b565b5b62000b1f84828562000aa6565b509392505050565b600082601f83011262000b3f5762000b3e6200099d565b5b815162000b5184826020860162000adc565b91505092915050565b600062000b7162000b6b8462000a37565b62000a18565b9050808382526020820190506020840283018581111562000b975762000b9662000a66565b5b835b8181101562000be557805167ffffffffffffffff81111562000bc05762000bbf6200099d565b5b80860162000bcf898262000b27565b8552602085019450505060208101905062000b99565b5050509392505050565b600082601f83011262000c075762000c066200099d565b5b815162000c1984826020860162000b5a565b91505092915050565b600067ffffffffffffffff82111562000c405762000c3f620009b3565b5b602082029050602081019050919050565b6000819050919050565b62000c668162000c51565b811462000c7257600080fd5b50565b60008151905062000c868162000c5b565b92915050565b600062000ca362000c9d8462000c22565b62000a18565b9050808382526020820190506020840283018581111562000cc95762000cc862000a66565b5b835b8181101562000cf6578062000ce1888262000c75565b84526020840193505060208101905062000ccb565b5050509392505050565b600082601f83011262000d185762000d176200099d565b5b815162000d2a84826020860162000c8c565b91505092915050565b6000806000806000806000806000806101408b8d03121562000d5a5762000d5962000993565b5b60008b015167ffffffffffffffff81111562000d7b5762000d7a62000998565b5b62000d898d828e0162000bef565b9a505060208b015167ffffffffffffffff81111562000dad5762000dac62000998565b5b62000dbb8d828e0162000bef565b99505060408b015167ffffffffffffffff81111562000ddf5762000dde62000998565b5b62000ded8d828e0162000d00565b98505060608b015167ffffffffffffffff81111562000e115762000e1062000998565b5b62000e1f8d828e0162000d00565b97505060808b015167ffffffffffffffff81111562000e435762000e4262000998565b5b62000e518d828e0162000d00565b96505060a08b015167ffffffffffffffff81111562000e755762000e7462000998565b5b62000e838d828e0162000d00565b95505060c08b015167ffffffffffffffff81111562000ea75762000ea662000998565b5b62000eb58d828e0162000bef565b94505060e08b015167ffffffffffffffff81111562000ed95762000ed862000998565b5b62000ee78d828e0162000bef565b9350506101008b015167ffffffffffffffff81111562000f0c5762000f0b62000998565b5b62000f1a8d828e0162000d00565b9250506101208b015167ffffffffffffffff81111562000f3f5762000f3e62000998565b5b62000f4d8d828e0162000d00565b9150509295989b9194979a5092959850565b600082825260208201905092915050565b7f4f6e65206f662074686520676976656e204e46542064656661756c742061727260008201527f617973206973206f6464206c656e677468000000000000000000000000000000602082015250565b600062000fce60318362000f5f565b915062000fdb8262000f70565b604082019050919050565b60006020820190508181036000830152620010018162000fbf565b9050919050565b7f4f6e65206f662074686520676976656e20626f73732064656661756c7420617260008201527f72617973206973206f6464206c656e6774680000000000000000000000000000602082015250565b60006200106660328362000f5f565b9150620010738262001008565b604082019050919050565b60006020820190508181036000830152620010998162001057565b9050919050565b7f4e487b7100000000000000000000000000000000000000000000000000000000600052603260045260246000fd5b7f4e487b7100000000000000000000000000000000000000000000000000000000600052601160045260246000fd5b60006200110b8262000c51565b91507fffffffffffffffffffffffffffffffffffffffffffffffffffffffffffffffff820362001140576200113f620010cf565b5b600182019050919050565b600067ffffffffffffffff82169050919050565b6200116a816200114b565b81146200117657600080fd5b50565b6000815190506200118a816200115f565b92915050565b600060208284031215620011a957620011a862000993565b5b6000620011b98482850162001179565b91505092915050565b620011cd816200114b565b82525050565b600073ffffffffffffffffffffffffffffffffffffffff82169050919050565b60006200120082620011d3565b9050919050565b6200121281620011f3565b82525050565b60006040820190506200122f6000830185620011c2565b6200123e602083018462001207565b9392505050565b7f4e487b7100000000000000000000000000000000000000000000000000000000600052602260045260246000fd5b600060028204905060018216806200128d57607f821691505b602082108103620012a357620012a262001245565b5b50919050565b608051614aeb620012cc60003960008181610acd0152610b210152614aeb6000f3fe60806040526004361061019c5760003560e01c806370a08231116100ec578063b88d4fde1161008a578063c87b56dd11610064578063c87b56dd146105f9578063d4b5d60314610636578063e92003371461067a578063e985e9c5146106845761019c565b8063b88d4fde1461057c578063bdb4b848146105a5578063c1060653146105d05761019c565b8063856f8c35116100c6578063856f8c35146104ce5780638da5cb5b146104fd57806395d89b4114610528578063a22cb465146105535761019c565b806370a082311461042b578063775bb50e146104685780638545f4ea146104a55761019c565b80631fe543e31161015957806342842e0e1161013357806342842e0e1461035657806357970e931461037f5780636352211e146103aa5780636a908152146103e75761019c565b80631fe543e3146102c3578063204597e0146102ec57806323b872dd1461032d5761019c565b806301ffc9a7146101a157806306fdde03146101de578063081812fc14610209578063095ea7b3146102465780630a0090971461026f57806313af40351461029a575b600080fd5b3480156101ad57600080fd5b506101c860048036038101906101c39190612f37565b6106c1565b6040516101d59190612f7f565b60405180910390f35b3480156101ea57600080fd5b506101f36107a3565b6040516102009190613033565b60405180910390f35b34801561021557600080fd5b50610230600480360381019061022b919061308b565b610835565b60405161023d91906130f9565b60405180910390f35b34801561025257600080fd5b5061026d60048036038101906102689190613140565b6108ba565b005b34801561027b57600080fd5b506102846109d1565b60405161029191906131df565b60405180910390f35b3480156102a657600080fd5b506102c160048036038101906102bc91906131fa565b6109f7565b005b3480156102cf57600080fd5b506102ea60048036038101906102e5919061336f565b610acb565b005b3480156102f857600080fd5b50610313600480360381019061030e919061308b565b610b8b565b6040516103249594939291906133da565b60405180910390f35b34801561033957600080fd5b50610354600480360381019061034f919061343b565b610ce1565b005b34801561036257600080fd5b5061037d6004803603810190610378919061343b565b610d41565b005b34801561038b57600080fd5b50610394610d61565b6040516103a191906134af565b60405180910390f35b3480156103b657600080fd5b506103d160048036038101906103cc919061308b565b610d87565b6040516103de91906130f9565b60405180910390f35b3480156103f357600080fd5b5061040e6004803603810190610409919061308b565b610e38565b6040516104229897969594939291906134ca565b60405180910390f35b34801561043757600080fd5b50610452600480360381019061044d91906131fa565b610fa0565b60405161045f9190613556565b60405180910390f35b34801561047457600080fd5b5061048f600480360381019061048a9190613140565b611057565b60405161049c9190613556565b60405180910390f35b3480156104b157600080fd5b506104cc60048036038101906104c7919061308b565b611088565b005b3480156104da57600080fd5b506104e3611122565b6040516104f49594939291906133da565b60405180910390f35b34801561050957600080fd5b50610512611256565b60405161051f91906130f9565b60405180910390f35b34801561053457600080fd5b5061053d61127c565b60405161054a9190613033565b60405180910390f35b34801561055f57600080fd5b5061057a6004803603810190610575919061359d565b61130e565b005b34801561058857600080fd5b506105a3600480360381019061059e9190613692565b611324565b005b3480156105b157600080fd5b506105ba611386565b6040516105c79190613556565b60405180910390f35b3480156105dc57600080fd5b506105f760048036038101906105f2919061308b565b61138c565b005b34801561060557600080fd5b50610620600480360381019061061b919061308b565b611519565b60405161062d9190613033565b60405180910390f35b34801561064257600080fd5b5061065d6004803603810190610658919061308b565b611774565b6040516106719897969594939291906134ca565b60405180910390f35b6106826118cc565b005b34801561069057600080fd5b506106ab60048036038101906106a69190613715565b611940565b6040516106b89190612f7f565b60405180910390f35b60007f80ac58cd000000000000000000000000000000000000000000000000000000007bffffffffffffffffffffffffffffffffffffffffffffffffffffffff1916827bffffffffffffffffffffffffffffffffffffffffffffffffffffffff1916148061078c57507f5b5e139f000000000000000000000000000000000000000000000000000000007bffffffffffffffffffffffffffffffffffffffffffffffffffffffff1916827bffffffffffffffffffffffffffffffffffffffffffffffffffffffff1916145b8061079c575061079b826119ea565b5b9050919050565b6060600080546107b290613784565b80601f01602080910402602001604051908101604052809291908181526020018280546107de90613784565b801561082b5780601f106108005761010080835404028352916020019161082b565b820191906000526020600020905b81548152906001019060200180831161080e57829003601f168201915b5050505050905090565b600061084082611a54565b61087f576040517f08c379a000000000000000000000000000000000000000000000000000000000815260040161087690613827565b60405180910390fd5b6004600083815260200190815260200160002060009054906101000a900473ffffffffffffffffffffffffffffffffffffffff169050919050565b60006108c582610d87565b90508073ffffffffffffffffffffffffffffffffffffffff168373ffffffffffffffffffffffffffffffffffffffff1603610935576040517f08c379a000000000000000000000000000000000000000000000000000000000815260040161092c906138b9565b60405180910390fd5b8073ffffffffffffffffffffffffffffffffffffffff16610954611ac0565b73ffffffffffffffffffffffffffffffffffffffff16148061098357506109828161097d611ac0565b611940565b5b6109c2576040517f08c379a00000000000000000000000000000000000000000000000000000000081526004016109b99061394b565b60405180910390fd5b6109cc8383611ac8565b505050565b600660009054906101000a900473ffffffffffffffffffffffffffffffffffffffff1681565b601860009054906101000a900473ffffffffffffffffffffffffffffffffffffffff1673ffffffffffffffffffffffffffffffffffffffff163373ffffffffffffffffffffffffffffffffffffffff1614610a87576040517f08c379a0000000000000000000000000000000000000000000000000000000008152600401610a7e906139b7565b60405180910390fd5b80601860006101000a81548173ffffffffffffffffffffffffffffffffffffffff021916908373ffffffffffffffffffffffffffffffffffffffff16021790555050565b7f000000000000000000000000000000000000000000000000000000000000000073ffffffffffffffffffffffffffffffffffffffff163373ffffffffffffffffffffffffffffffffffffffff1614610b7d57337f00000000000000000000000000000000000000000000000000000000000000006040517f1cf993f4000000000000000000000000000000000000000000000000000000008152600401610b749291906139d7565b60405180910390fd5b610b878282611b81565b5050565b60118181548110610b9b57600080fd5b9060005260206000209060050201600091509050806000018054610bbe90613784565b80601f0160208091040260200160405190810160405280929190818152602001828054610bea90613784565b8015610c375780601f10610c0c57610100808354040283529160200191610c37565b820191906000526020600020905b815481529060010190602001808311610c1a57829003601f168201915b505050505090806001018054610c4c90613784565b80601f0160208091040260200160405190810160405280929190818152602001828054610c7890613784565b8015610cc55780601f10610c9a57610100808354040283529160200191610cc5565b820191906000526020600020905b815481529060010190602001808311610ca857829003601f168201915b5050505050908060020154908060030154908060040154905085565b610cf2610cec611ac0565b82611ccf565b610d31576040517f08c379a0000000000000000000000000000000000000000000000000000000008152600401610d2890613a72565b60405180910390fd5b610d3c838383611dad565b505050565b610d5c83838360405180602001604052806000815250611324565b505050565b600760009054906101000a900473ffffffffffffffffffffffffffffffffffffffff1681565b6000806002600084815260200190815260200160002060009054906101000a900473ffffffffffffffffffffffffffffffffffffffff169050600073ffffffffffffffffffffffffffffffffffffffff168173ffffffffffffffffffffffffffffffffffffffff1603610e2f576040517f08c379a0000000000000000000000000000000000000000000000000000000008152600401610e2690613b04565b60405180910390fd5b80915050919050565b600e8181548110610e4857600080fd5b9060005260206000209060080201600091509050806000015490806001018054610e7190613784565b80601f0160208091040260200160405190810160405280929190818152602001828054610e9d90613784565b8015610eea5780601f10610ebf57610100808354040283529160200191610eea565b820191906000526020600020905b815481529060010190602001808311610ecd57829003601f168201915b505050505090806002018054610eff90613784565b80601f0160208091040260200160405190810160405280929190818152602001828054610f2b90613784565b8015610f785780601f10610f4d57610100808354040283529160200191610f78565b820191906000526020600020905b815481529060010190602001808311610f5b57829003601f168201915b5050505050908060030154908060040154908060050154908060060154908060070154905088565b60008073ffffffffffffffffffffffffffffffffffffffff168273ffffffffffffffffffffffffffffffffffffffff1603611010576040517f08c379a000000000000000000000000000000000000000000000000000000000815260040161100790613b96565b60405180910390fd5b600360008373ffffffffffffffffffffffffffffffffffffffff1673ffffffffffffffffffffffffffffffffffffffff168152602001908152602001600020549050919050565b6010602052816000526040600020818154811061107357600080fd5b90600052602060002001600091509150505481565b601860009054906101000a900473ffffffffffffffffffffffffffffffffffffffff1673ffffffffffffffffffffffffffffffffffffffff163373ffffffffffffffffffffffffffffffffffffffff1614611118576040517f08c379a000000000000000000000000000000000000000000000000000000000815260040161110f906139b7565b60405180910390fd5b8060178190555050565b601280600001805461113390613784565b80601f016020809104026020016040519081016040528092919081815260200182805461115f90613784565b80156111ac5780601f10611181576101008083540402835291602001916111ac565b820191906000526020600020905b81548152906001019060200180831161118f57829003601f168201915b5050505050908060010180546111c190613784565b80601f01602080910402602001604051908101604052809291908181526020018280546111ed90613784565b801561123a5780601f1061120f5761010080835404028352916020019161123a565b820191906000526020600020905b81548152906001019060200180831161121d57829003601f168201915b5050505050908060020154908060030154908060040154905085565b601860009054906101000a900473ffffffffffffffffffffffffffffffffffffffff1681565b60606001805461128b90613784565b80601f01602080910402602001604051908101604052809291908181526020018280546112b790613784565b80156113045780601f106112d957610100808354040283529160200191611304565b820191906000526020600020905b8154815290600101906020018083116112e757829003601f168201915b5050505050905090565b611320611319611ac0565b8383612013565b5050565b61133561132f611ac0565b83611ccf565b611374576040517f08c379a000000000000000000000000000000000000000000000000000000000815260040161136b90613a72565b60405180910390fd5b6113808484848461217f565b50505050565b60175481565b601860009054906101000a900473ffffffffffffffffffffffffffffffffffffffff1673ffffffffffffffffffffffffffffffffffffffff163373ffffffffffffffffffffffffffffffffffffffff161461141c576040517f08c379a0000000000000000000000000000000000000000000000000000000008152600401611413906139b7565b60405180910390fd5b600760009054906101000a900473ffffffffffffffffffffffffffffffffffffffff1673ffffffffffffffffffffffffffffffffffffffff16634000aea0600860009054906101000a900473ffffffffffffffffffffffffffffffffffffffff1683600b60009054906101000a900467ffffffffffffffff166040516020016114a59190613bd9565b6040516020818303038152906040526040518463ffffffff1660e01b81526004016114d293929190613c49565b6020604051808303816000875af11580156114f1573d6000803e3d6000fd5b505050506040513d601f19601f820116820180604052508101906115159190613c9c565b5050565b60606000600f6000848152602001908152602001600020604051806101000160405290816000820154815260200160018201805461155690613784565b80601f016020809104026020016040519081016040528092919081815260200182805461158290613784565b80156115cf5780601f106115a4576101008083540402835291602001916115cf565b820191906000526020600020905b8154815290600101906020018083116115b257829003601f168201915b505050505081526020016002820180546115e890613784565b80601f016020809104026020016040519081016040528092919081815260200182805461161490613784565b80156116615780601f1061163657610100808354040283529160200191611661565b820191906000526020600020905b81548152906001019060200180831161164457829003601f168201915b50505050508152602001600382015481526020016004820154815260200160058201548152602001600682015481526020016007820154815250509050600061174382602001516116b1866121db565b84604001516116c386606001516121db565b6116d087608001516121db565b6116dd8860a001516121db565b6116e760326121db565b6116f48a60c001516121db565b6116fe60326121db565b61170b8c60e001516121db565b61171560326121db565b60405160200161172f9b9a99989796959493929190614095565b60405160208183030381529060405261233b565b905060008160405160200161175891906141fe565b6040516020818303038152906040529050809350505050919050565b600f60205280600052604060002060009150905080600001549080600101805461179d90613784565b80601f01602080910402602001604051908101604052809291908181526020018280546117c990613784565b80156118165780601f106117eb57610100808354040283529160200191611816565b820191906000526020600020905b8154815290600101906020018083116117f957829003601f168201915b50505050509080600201805461182b90613784565b80601f016020809104026020016040519081016040528092919081815260200182805461185790613784565b80156118a45780601f10611879576101008083540402835291602001916118a4565b820191906000526020600020905b81548152906001019060200180831161188757829003601f168201915b5050505050908060030154908060040154908060050154908060060154908060070154905088565b6000601754111561191c57601754341461191b576040517f08c379a00000000000000000000000000000000000000000000000000000000081526004016119129061426c565b60405180910390fd5b5b6000611928600d6124d2565b9050611933816124e0565b61193d600d6119d4565b50565b6000600560008473ffffffffffffffffffffffffffffffffffffffff1673ffffffffffffffffffffffffffffffffffffffff16815260200190815260200160002060008373ffffffffffffffffffffffffffffffffffffffff1673ffffffffffffffffffffffffffffffffffffffff16815260200190815260200160002060009054906101000a900460ff16905092915050565b6001816000016000828254019250508190555050565b60007f01ffc9a7000000000000000000000000000000000000000000000000000000007bffffffffffffffffffffffffffffffffffffffffffffffffffffffff1916827bffffffffffffffffffffffffffffffffffffffffffffffffffffffff1916149050919050565b60008073ffffffffffffffffffffffffffffffffffffffff166002600084815260200190815260200160002060009054906101000a900473ffffffffffffffffffffffffffffffffffffffff1673ffffffffffffffffffffffffffffffffffffffff1614159050919050565b600033905090565b816004600083815260200190815260200160002060006101000a81548173ffffffffffffffffffffffffffffffffffffffff021916908373ffffffffffffffffffffffffffffffffffffffff160217905550808273ffffffffffffffffffffffffffffffffffffffff16611b3b83610d87565b73ffffffffffffffffffffffffffffffffffffffff167f8c5be1e5ebec7d5bd14f71427d1e84f3dd0314c0f7b2291e5b200ac8c7c3b92560405160405180910390a45050565b611bbf6040518060400160405280600881526020017f66756c6c66696c6c000000000000000000000000000000000000000000000000815250612637565b6000600c60008481526020019081526020016000206040518060400160405290816000820160009054906101000a900473ffffffffffffffffffffffffffffffffffffffff1673ffffffffffffffffffffffffffffffffffffffff1673ffffffffffffffffffffffffffffffffffffffff1681526020016001820154815250509050600c6000848152602001908152602001600020600080820160006101000a81549073ffffffffffffffffffffffffffffffffffffffff0219169055600182016000905550506000600e8054905083600081518110611ca257611ca161428c565b5b6020026020010151611cb491906142ea565b9050611cc982600001518360200151836126d0565b50505050565b6000611cda82611a54565b611d19576040517f08c379a0000000000000000000000000000000000000000000000000000000008152600401611d109061438d565b60405180910390fd5b6000611d2483610d87565b90508073ffffffffffffffffffffffffffffffffffffffff168473ffffffffffffffffffffffffffffffffffffffff161480611d9357508373ffffffffffffffffffffffffffffffffffffffff16611d7b84610835565b73ffffffffffffffffffffffffffffffffffffffff16145b80611da45750611da38185611940565b5b91505092915050565b8273ffffffffffffffffffffffffffffffffffffffff16611dcd82610d87565b73ffffffffffffffffffffffffffffffffffffffff1614611e23576040517f08c379a0000000000000000000000000000000000000000000000000000000008152600401611e1a9061441f565b60405180910390fd5b600073ffffffffffffffffffffffffffffffffffffffff168273ffffffffffffffffffffffffffffffffffffffff1603611e92576040517f08c379a0000000000000000000000000000000000000000000000000000000008152600401611e89906144b1565b60405180910390fd5b611e9d8383836129f9565b611ea8600082611ac8565b6001600360008573ffffffffffffffffffffffffffffffffffffffff1673ffffffffffffffffffffffffffffffffffffffff1681526020019081526020016000206000828254611ef89190614500565b925050819055506001600360008473ffffffffffffffffffffffffffffffffffffffff1673ffffffffffffffffffffffffffffffffffffffff1681526020019081526020016000206000828254611f4f9190614534565b92505081905550816002600083815260200190815260200160002060006101000a81548173ffffffffffffffffffffffffffffffffffffffff021916908373ffffffffffffffffffffffffffffffffffffffff160217905550808273ffffffffffffffffffffffffffffffffffffffff168473ffffffffffffffffffffffffffffffffffffffff167fddf252ad1be2c89b69c2b068fc378daa952ba7f163c4a11628f55a4df523b3ef60405160405180910390a461200e8383836129fe565b505050565b8173ffffffffffffffffffffffffffffffffffffffff168373ffffffffffffffffffffffffffffffffffffffff1603612081576040517f08c379a0000000000000000000000000000000000000000000000000000000008152600401612078906145d6565b60405180910390fd5b80600560008573ffffffffffffffffffffffffffffffffffffffff1673ffffffffffffffffffffffffffffffffffffffff16815260200190815260200160002060008473ffffffffffffffffffffffffffffffffffffffff1673ffffffffffffffffffffffffffffffffffffffff16815260200190815260200160002060006101000a81548160ff0219169083151502179055508173ffffffffffffffffffffffffffffffffffffffff168373ffffffffffffffffffffffffffffffffffffffff167f17307eab39ab6107e8899845ad3d59bd9653f200f220920489ca2b5937696c31836040516121729190612f7f565b60405180910390a3505050565b61218a848484611dad565b61219684848484612a03565b6121d5576040517f08c379a00000000000000000000000000000000000000000000000000000000081526004016121cc90614668565b60405180910390fd5b50505050565b606060008203612222576040518060400160405280600181526020017f30000000000000000000000000000000000000000000000000000000000000008152509050612336565b600082905060005b6000821461225457808061223d90614688565b915050600a8261224d91906146d0565b915061222a565b60008167ffffffffffffffff8111156122705761226f61322c565b5b6040519080825280601f01601f1916602001820160405280156122a25781602001600182028036833780820191505090505b5090505b6000851461232f576001826122bb9190614500565b9150600a856122ca91906142ea565b60306122d69190614534565b60f81b8183815181106122ec576122eb61428c565b5b60200101907effffffffffffffffffffffffffffffffffffffffffffffffffffffffffffff1916908160001a905350600a8561232891906146d0565b94506122a6565b8093505050505b919050565b60606000825190506000810361236357604051806020016040528060008152509150506124cd565b600060036002836123749190614534565b61237e91906146d0565b600461238a9190614701565b9050600060208261239b9190614534565b67ffffffffffffffff8111156123b4576123b361322c565b5b6040519080825280601f01601f1916602001820160405280156123e65781602001600182028036833780820191505090505b5090506000604051806060016040528060408152602001614a76604091399050600181016020830160005b8681101561248a5760038101905062ffffff818a015116603f8160121c168401518060081b905060ff603f83600c1c1686015116810190508060081b905060ff603f8360061c1686015116810190508060081b905060ff603f831686015116810190508060e01b90508084526004840193505050612411565b5060038606600181146124a457600281146124b4576124bf565b613d3d60f01b60028303526124bf565b603d60f81b60018303525b508484525050819450505050505b919050565b600081600001549050919050565b60405180604001604052803373ffffffffffffffffffffffffffffffffffffffff16815260200182815250600c6000600660009054906101000a900473ffffffffffffffffffffffffffffffffffffffff1673ffffffffffffffffffffffffffffffffffffffff16635d3b1d30600a54600b60009054906101000a900467ffffffffffffffff166003620186a060016040518663ffffffff1660e01b815260040161258f959493929190614843565b6020604051808303816000875af11580156125ae573d6000803e3d6000fd5b505050506040513d601f19601f820116820180604052508101906125d291906148ab565b815260200190815260200160002060008201518160000160006101000a81548173ffffffffffffffffffffffffffffffffffffffff021916908373ffffffffffffffffffffffffffffffffffffffff1602179055506020820151816001015590505050565b6126cd8160405160240161264b9190613033565b6040516020818303038152906040527f41304fac000000000000000000000000000000000000000000000000000000007bffffffffffffffffffffffffffffffffffffffffffffffffffffffff19166020820180517bffffffffffffffffffffffffffffffffffffffffffffffffffffffff8381831617835250505050612b8a565b50565b6000600e82815481106126e6576126e561428c565b5b9060005260206000209060080201604051806101000160405290816000820154815260200160018201805461271a90613784565b80601f016020809104026020016040519081016040528092919081815260200182805461274690613784565b80156127935780601f1061276857610100808354040283529160200191612793565b820191906000526020600020905b81548152906001019060200180831161277657829003601f168201915b505050505081526020016002820180546127ac90613784565b80601f01602080910402602001604051908101604052809291908181526020018280546127d890613784565b80156128255780601f106127fa57610100808354040283529160200191612825565b820191906000526020600020905b81548152906001019060200180831161280857829003601f168201915b5050505050815260200160038201548152602001600482015481526020016005820154815260200160068201548152602001600782015481525050905060405180610100016040528082600001518152602001826020015181526020018260400151815260200182606001518152602001826060015181526020018260a0015181526020018260c0015181526020018260e00151815250600f60008581526020019081526020016000206000820151816000015560208201518160010190805190602001906128f5929190612e28565b506040820151816002019080519060200190612912929190612e28565b50606082015181600301556080820151816004015560a0820151816005015560c0820151816006015560e08201518160070155905050601060008573ffffffffffffffffffffffffffffffffffffffff1673ffffffffffffffffffffffffffffffffffffffff1681526020019081526020016000208390806001815401808255809150506001900390600052602060002001600090919091909150556129b88484612bb3565b7f4c209b5fc8ad50758f13e2e1088ba56a560dff690a1c6fef26394f4c03821c4f8484846040516129eb939291906148d8565b60405180910390a150505050565b505050565b505050565b6000612a248473ffffffffffffffffffffffffffffffffffffffff16612bd1565b15612b7d578373ffffffffffffffffffffffffffffffffffffffff1663150b7a02612a4d611ac0565b8786866040518563ffffffff1660e01b8152600401612a6f949392919061490f565b6020604051808303816000875af1925050508015612aab57506040513d601f19601f82011682018060405250810190612aa89190614970565b60015b612b2d573d8060008114612adb576040519150601f19603f3d011682016040523d82523d6000602084013e612ae0565b606091505b506000815103612b25576040517f08c379a0000000000000000000000000000000000000000000000000000000008152600401612b1c90614668565b60405180910390fd5b805181602001fd5b63150b7a0260e01b7bffffffffffffffffffffffffffffffffffffffffffffffffffffffff1916817bffffffffffffffffffffffffffffffffffffffffffffffffffffffff191614915050612b82565b600190505b949350505050565b60008151905060006a636f6e736f6c652e6c6f679050602083016000808483855afa5050505050565b612bcd828260405180602001604052806000815250612bf4565b5050565b6000808273ffffffffffffffffffffffffffffffffffffffff163b119050919050565b612bfe8383612c4f565b612c0b6000848484612a03565b612c4a576040517f08c379a0000000000000000000000000000000000000000000000000000000008152600401612c4190614668565b60405180910390fd5b505050565b600073ffffffffffffffffffffffffffffffffffffffff168273ffffffffffffffffffffffffffffffffffffffff1603612cbe576040517f08c379a0000000000000000000000000000000000000000000000000000000008152600401612cb5906149e9565b60405180910390fd5b612cc781611a54565b15612d07576040517f08c379a0000000000000000000000000000000000000000000000000000000008152600401612cfe90614a55565b60405180910390fd5b612d13600083836129f9565b6001600360008473ffffffffffffffffffffffffffffffffffffffff1673ffffffffffffffffffffffffffffffffffffffff1681526020019081526020016000206000828254612d639190614534565b92505081905550816002600083815260200190815260200160002060006101000a81548173ffffffffffffffffffffffffffffffffffffffff021916908373ffffffffffffffffffffffffffffffffffffffff160217905550808273ffffffffffffffffffffffffffffffffffffffff16600073ffffffffffffffffffffffffffffffffffffffff167fddf252ad1be2c89b69c2b068fc378daa952ba7f163c4a11628f55a4df523b3ef60405160405180910390a4612e24600083836129fe565b5050565b828054612e3490613784565b90600052602060002090601f016020900481019282612e565760008555612e9d565b82601f10612e6f57805160ff1916838001178555612e9d565b82800160010185558215612e9d579182015b82811115612e9c578251825591602001919060010190612e81565b5b509050612eaa9190612eae565b5090565b5b80821115612ec7576000816000905550600101612eaf565b5090565b6000604051905090565b600080fd5b600080fd5b60007fffffffff0000000000000000000000000000000000000000000000000000000082169050919050565b612f1481612edf565b8114612f1f57600080fd5b50565b600081359050612f3181612f0b565b92915050565b600060208284031215612f4d57612f4c612ed5565b5b6000612f5b84828501612f22565b91505092915050565b60008115159050919050565b612f7981612f64565b82525050565b6000602082019050612f946000830184612f70565b92915050565b600081519050919050565b600082825260208201905092915050565b60005b83811015612fd4578082015181840152602081019050612fb9565b83811115612fe3576000848401525b50505050565b6000601f19601f8301169050919050565b600061300582612f9a565b61300f8185612fa5565b935061301f818560208601612fb6565b61302881612fe9565b840191505092915050565b6000602082019050818103600083015261304d8184612ffa565b905092915050565b6000819050919050565b61306881613055565b811461307357600080fd5b50565b6000813590506130858161305f565b92915050565b6000602082840312156130a1576130a0612ed5565b5b60006130af84828501613076565b91505092915050565b600073ffffffffffffffffffffffffffffffffffffffff82169050919050565b60006130e3826130b8565b9050919050565b6130f3816130d8565b82525050565b600060208201905061310e60008301846130ea565b92915050565b61311d816130d8565b811461312857600080fd5b50565b60008135905061313a81613114565b92915050565b6000806040838503121561315757613156612ed5565b5b60006131658582860161312b565b925050602061317685828601613076565b9150509250929050565b6000819050919050565b60006131a56131a061319b846130b8565b613180565b6130b8565b9050919050565b60006131b78261318a565b9050919050565b60006131c9826131ac565b9050919050565b6131d9816131be565b82525050565b60006020820190506131f460008301846131d0565b92915050565b6000602082840312156132105761320f612ed5565b5b600061321e8482850161312b565b91505092915050565b600080fd5b7f4e487b7100000000000000000000000000000000000000000000000000000000600052604160045260246000fd5b61326482612fe9565b810181811067ffffffffffffffff821117156132835761328261322c565b5b80604052505050565b6000613296612ecb565b90506132a2828261325b565b919050565b600067ffffffffffffffff8211156132c2576132c161322c565b5b602082029050602081019050919050565b600080fd5b60006132eb6132e6846132a7565b61328c565b9050808382526020820190506020840283018581111561330e5761330d6132d3565b5b835b8181101561333757806133238882613076565b845260208401935050602081019050613310565b5050509392505050565b600082601f83011261335657613355613227565b5b81356133668482602086016132d8565b91505092915050565b6000806040838503121561338657613385612ed5565b5b600061339485828601613076565b925050602083013567ffffffffffffffff8111156133b5576133b4612eda565b5b6133c185828601613341565b9150509250929050565b6133d481613055565b82525050565b600060a08201905081810360008301526133f48188612ffa565b905081810360208301526134088187612ffa565b905061341760408301866133cb565b61342460608301856133cb565b61343160808301846133cb565b9695505050505050565b60008060006060848603121561345457613453612ed5565b5b60006134628682870161312b565b93505060206134738682870161312b565b925050604061348486828701613076565b9150509250925092565b6000613499826131ac565b9050919050565b6134a98161348e565b82525050565b60006020820190506134c460008301846134a0565b92915050565b6000610100820190506134e0600083018b6133cb565b81810360208301526134f2818a612ffa565b905081810360408301526135068189612ffa565b905061351560608301886133cb565b61352260808301876133cb565b61352f60a08301866133cb565b61353c60c08301856133cb565b61354960e08301846133cb565b9998505050505050505050565b600060208201905061356b60008301846133cb565b92915050565b61357a81612f64565b811461358557600080fd5b50565b60008135905061359781613571565b92915050565b600080604083850312156135b4576135b3612ed5565b5b60006135c28582860161312b565b92505060206135d385828601613588565b9150509250929050565b600080fd5b600067ffffffffffffffff8211156135fd576135fc61322c565b5b61360682612fe9565b9050602081019050919050565b82818337600083830152505050565b6000613635613630846135e2565b61328c565b905082815260208101848484011115613651576136506135dd565b5b61365c848285613613565b509392505050565b600082601f83011261367957613678613227565b5b8135613689848260208601613622565b91505092915050565b600080600080608085870312156136ac576136ab612ed5565b5b60006136ba8782880161312b565b94505060206136cb8782880161312b565b93505060406136dc87828801613076565b925050606085013567ffffffffffffffff8111156136fd576136fc612eda565b5b61370987828801613664565b91505092959194509250565b6000806040838503121561372c5761372b612ed5565b5b600061373a8582860161312b565b925050602061374b8582860161312b565b9150509250929050565b7f4e487b7100000000000000000000000000000000000000000000000000000000600052602260045260246000fd5b6000600282049050600182168061379c57607f821691505b6020821081036137af576137ae613755565b5b50919050565b7f4552433732313a20617070726f76656420717565727920666f72206e6f6e657860008201527f697374656e7420746f6b656e0000000000000000000000000000000000000000602082015250565b6000613811602c83612fa5565b915061381c826137b5565b604082019050919050565b6000602082019050818103600083015261384081613804565b9050919050565b7f4552433732313a20617070726f76616c20746f2063757272656e74206f776e6560008201527f7200000000000000000000000000000000000000000000000000000000000000602082015250565b60006138a3602183612fa5565b91506138ae82613847565b604082019050919050565b600060208201905081810360008301526138d281613896565b9050919050565b7f4552433732313a20617070726f76652063616c6c6572206973206e6f74206f7760008201527f6e6572206e6f7220617070726f76656420666f7220616c6c0000000000000000602082015250565b6000613935603883612fa5565b9150613940826138d9565b604082019050919050565b6000602082019050818103600083015261396481613928565b9050919050565b7f43616c6c6572206d757374206265206f776e6572000000000000000000000000600082015250565b60006139a1601483612fa5565b91506139ac8261396b565b602082019050919050565b600060208201905081810360008301526139d081613994565b9050919050565b60006040820190506139ec60008301856130ea565b6139f960208301846130ea565b9392505050565b7f4552433732313a207472616e736665722063616c6c6572206973206e6f74206f60008201527f776e6572206e6f7220617070726f766564000000000000000000000000000000602082015250565b6000613a5c603183612fa5565b9150613a6782613a00565b604082019050919050565b60006020820190508181036000830152613a8b81613a4f565b9050919050565b7f4552433732313a206f776e657220717565727920666f72206e6f6e657869737460008201527f656e7420746f6b656e0000000000000000000000000000000000000000000000602082015250565b6000613aee602983612fa5565b9150613af982613a92565b604082019050919050565b60006020820190508181036000830152613b1d81613ae1565b9050919050565b7f4552433732313a2062616c616e636520717565727920666f7220746865207a6560008201527f726f206164647265737300000000000000000000000000000000000000000000602082015250565b6000613b80602a83612fa5565b9150613b8b82613b24565b604082019050919050565b60006020820190508181036000830152613baf81613b73565b9050919050565b600067ffffffffffffffff82169050919050565b613bd381613bb6565b82525050565b6000602082019050613bee6000830184613bca565b92915050565b600081519050919050565b600082825260208201905092915050565b6000613c1b82613bf4565b613c258185613bff565b9350613c35818560208601612fb6565b613c3e81612fe9565b840191505092915050565b6000606082019050613c5e60008301866130ea565b613c6b60208301856133cb565b8181036040830152613c7d8184613c10565b9050949350505050565b600081519050613c9681613571565b92915050565b600060208284031215613cb257613cb1612ed5565b5b6000613cc084828501613c87565b91505092915050565b600081905092915050565b7f7b226e616d65223a202200000000000000000000000000000000000000000000600082015250565b6000613d0a600a83613cc9565b9150613d1582613cd4565b600a82019050919050565b6000613d2b82612f9a565b613d358185613cc9565b9350613d45818560208601612fb6565b80840191505092915050565b7f202d2d204e465420233a20000000000000000000000000000000000000000000600082015250565b6000613d87600b83613cc9565b9150613d9282613d51565b600b82019050919050565b7f222c20226465736372697074696f6e223a202241204865726f204e465420746860008201527f6174206c65747320796f7520706c6179204d6f6e7374657220536c617965722160208201527f222c2022696d616765223a202200000000000000000000000000000000000000604082015250565b6000613e1f604d83613cc9565b9150613e2a82613d9d565b604d82019050919050565b7f222c202261747472696275746573223a205b207b202274726169745f7479706560008201527f223a20224865616c746820506f696e7473222c202276616c7565223a20000000602082015250565b6000613e91603d83613cc9565b9150613e9c82613e35565b603d82019050919050565b7f2c20226d61785f76616c7565223a000000000000000000000000000000000000600082015250565b6000613edd600e83613cc9565b9150613ee882613ea7565b600e82019050919050565b7f7d2c207b202274726169745f74797065223a202241747461636b2044616d616760008201527f65222c202276616c7565223a2000000000000000000000000000000000000000602082015250565b6000613f4f602d83613cc9565b9150613f5a82613ef3565b602d82019050919050565b7f7d2c207b202274726169745f74797065223a2022437269746963616c2044616d60008201527f616765204368616e6365222c202276616c7565223a2000000000000000000000602082015250565b6000613fc1603683613cc9565b9150613fcc82613f65565b603682019050919050565b7f7d2c207b202274726169745f74797065223a20224865616c696e6720506f776560008201527f72222c202276616c7565223a2000000000000000000000000000000000000000602082015250565b6000614033602d83613cc9565b915061403e82613fd7565b602d82019050919050565b7f7d205d7d00000000000000000000000000000000000000000000000000000000600082015250565b600061407f600483613cc9565b915061408a82614049565b600482019050919050565b60006140a082613cfd565b91506140ac828e613d20565b91506140b782613d7a565b91506140c3828d613d20565b91506140ce82613e12565b91506140da828c613d20565b91506140e582613e84565b91506140f1828b613d20565b91506140fc82613ed0565b9150614108828a613d20565b915061411382613f42565b915061411f8289613d20565b915061412a82613ed0565b91506141368288613d20565b915061414182613fb4565b915061414d8287613d20565b915061415882613ed0565b91506141648286613d20565b915061416f82614026565b915061417b8285613d20565b915061418682613ed0565b91506141928284613d20565b915061419d82614072565b91508190509c9b505050505050505050505050565b7f646174613a6170706c69636174696f6e2f6a736f6e3b6261736536342c000000600082015250565b60006141e8601d83613cc9565b91506141f3826141b2565b601d82019050919050565b6000614209826141db565b91506142158284613d20565b915081905092915050565b7f5061796d656e74206973206e6f7420636f727265637400000000000000000000600082015250565b6000614256601683612fa5565b915061426182614220565b602082019050919050565b6000602082019050818103600083015261428581614249565b9050919050565b7f4e487b7100000000000000000000000000000000000000000000000000000000600052603260045260246000fd5b7f4e487b7100000000000000000000000000000000000000000000000000000000600052601260045260246000fd5b60006142f582613055565b915061430083613055565b9250826143105761430f6142bb565b5b828206905092915050565b7f4552433732313a206f70657261746f7220717565727920666f72206e6f6e657860008201527f697374656e7420746f6b656e0000000000000000000000000000000000000000602082015250565b6000614377602c83612fa5565b91506143828261431b565b604082019050919050565b600060208201905081810360008301526143a68161436a565b9050919050565b7f4552433732313a207472616e736665722066726f6d20696e636f72726563742060008201527f6f776e6572000000000000000000000000000000000000000000000000000000602082015250565b6000614409602583612fa5565b9150614414826143ad565b604082019050919050565b60006020820190508181036000830152614438816143fc565b9050919050565b7f4552433732313a207472616e7366657220746f20746865207a65726f2061646460008201527f7265737300000000000000000000000000000000000000000000000000000000602082015250565b600061449b602483612fa5565b91506144a68261443f565b604082019050919050565b600060208201905081810360008301526144ca8161448e565b9050919050565b7f4e487b7100000000000000000000000000000000000000000000000000000000600052601160045260246000fd5b600061450b82613055565b915061451683613055565b925082821015614529576145286144d1565b5b828203905092915050565b600061453f82613055565b915061454a83613055565b9250827fffffffffffffffffffffffffffffffffffffffffffffffffffffffffffffffff0382111561457f5761457e6144d1565b5b828201905092915050565b7f4552433732313a20617070726f766520746f2063616c6c657200000000000000600082015250565b60006145c0601983612fa5565b91506145cb8261458a565b602082019050919050565b600060208201905081810360008301526145ef816145b3565b9050919050565b7f4552433732313a207472616e7366657220746f206e6f6e20455243373231526560008201527f63656976657220696d706c656d656e7465720000000000000000000000000000602082015250565b6000614652603283612fa5565b915061465d826145f6565b604082019050919050565b6000602082019050818103600083015261468181614645565b9050919050565b600061469382613055565b91507fffffffffffffffffffffffffffffffffffffffffffffffffffffffffffffffff82036146c5576146c46144d1565b5b600182019050919050565b60006146db82613055565b91506146e683613055565b9250826146f6576146f56142bb565b5b828204905092915050565b600061470c82613055565b915061471783613055565b9250817fffffffffffffffffffffffffffffffffffffffffffffffffffffffffffffffff04831182151516156147505761474f6144d1565b5b828202905092915050565b6000819050919050565b61476e8161475b565b82525050565b6000819050919050565b600061ffff82169050919050565b60006147a76147a261479d84614774565b613180565b61477e565b9050919050565b6147b78161478c565b82525050565b6000819050919050565b600063ffffffff82169050919050565b60006147f26147ed6147e8846147bd565b613180565b6147c7565b9050919050565b614802816147d7565b82525050565b6000819050919050565b600061482d61482861482384614808565b613180565b6147c7565b9050919050565b61483d81614812565b82525050565b600060a0820190506148586000830188614765565b6148656020830187613bca565b61487260408301866147ae565b61487f60608301856147f9565b61488c6080830184614834565b9695505050505050565b6000815190506148a58161305f565b92915050565b6000602082840312156148c1576148c0612ed5565b5b60006148cf84828501614896565b91505092915050565b60006060820190506148ed60008301866130ea565b6148fa60208301856133cb565b61490760408301846133cb565b949350505050565b600060808201905061492460008301876130ea565b61493160208301866130ea565b61493e60408301856133cb565b81810360608301526149508184613c10565b905095945050505050565b60008151905061496a81612f0b565b92915050565b60006020828403121561498657614985612ed5565b5b60006149948482850161495b565b91505092915050565b7f4552433732313a206d696e7420746f20746865207a65726f2061646472657373600082015250565b60006149d3602083612fa5565b91506149de8261499d565b602082019050919050565b60006020820190508181036000830152614a02816149c6565b9050919050565b7f4552433732313a20746f6b656e20616c7265616479206d696e74656400000000600082015250565b6000614a3f601c83612fa5565b9150614a4a82614a09565b602082019050919050565b60006020820190508181036000830152614a6e81614a32565b905091905056fe4142434445464748494a4b4c4d4e4f505152535455565758595a6162636465666768696a6b6c6d6e6f707172737475767778797a303132333435363738392b2fa264697066735822122088a04814676271507f0cc9517ff5fae6a38f0a24243c149d09b6d81c29268b6f64736f6c634300080d0033",
  "linkReferences": {},
  "deployedLinkReferences": {}
}