{
  "_format": "hh-sol-artifact-1",
  "contractName": "Game",
  "sourceName": "contracts/Game.sol",
  "abi": [
    {
      "inputs": [
        {
          "internalType": "string[]",
          "name": "names",
          "type": "string[]"
        },
        {
          "internalType": "string[]",
          "name": "imageUris",
          "type": "string[]"
        },
        {
          "internalType": "uint256[]",
          "name": "hps",
          "type": "uint256[]"
        },
        {
          "internalType": "uint256[]",
          "name": "damages",
          "type": "uint256[]"
        },
        {
          "internalType": "uint256[]",
          "name": "crits",
          "type": "uint256[]"
        },
        {
          "internalType": "uint256[]",
          "name": "heals",
          "type": "uint256[]"
        },
        {
          "internalType": "string[]",
          "name": "bossNames",
          "type": "string[]"
        },
        {
          "internalType": "string[]",
          "name": "bossImageUris",
          "type": "string[]"
        },
        {
          "internalType": "uint256[]",
          "name": "bossHps",
          "type": "uint256[]"
        },
        {
          "internalType": "uint256[]",
          "name": "bossDamage",
          "type": "uint256[]"
        }
      ],
      "stateMutability": "nonpayable",
      "type": "constructor"
    },
    {
      "inputs": [
        {
          "internalType": "address",
          "name": "have",
          "type": "address"
        },
        {
          "internalType": "address",
          "name": "want",
          "type": "address"
        }
      ],
      "name": "OnlyCoordinatorCanFulfill",
      "type": "error"
    },
    {
      "anonymous": false,
      "inputs": [
        {
          "indexed": true,
          "internalType": "address",
          "name": "owner",
          "type": "address"
        },
        {
          "indexed": true,
          "internalType": "address",
          "name": "approved",
          "type": "address"
        },
        {
          "indexed": true,
          "internalType": "uint256",
          "name": "tokenId",
          "type": "uint256"
        }
      ],
      "name": "Approval",
      "type": "event"
    },
    {
      "anonymous": false,
      "inputs": [
        {
          "indexed": true,
          "internalType": "address",
          "name": "owner",
          "type": "address"
        },
        {
          "indexed": true,
          "internalType": "address",
          "name": "operator",
          "type": "address"
        },
        {
          "indexed": false,
          "internalType": "bool",
          "name": "approved",
          "type": "bool"
        }
      ],
      "name": "ApprovalForAll",
      "type": "event"
    },
    {
      "anonymous": false,
      "inputs": [
        {
          "indexed": true,
          "internalType": "address",
          "name": "owner",
          "type": "address"
        },
        {
          "indexed": true,
          "internalType": "uint256",
          "name": "tokenId",
          "type": "uint256"
        },
        {
          "indexed": true,
          "internalType": "uint256",
          "name": "attributesIndex",
          "type": "uint256"
        }
      ],
      "name": "Mint",
      "type": "event"
    },
    {
      "anonymous": false,
      "inputs": [
        {
          "indexed": true,
          "internalType": "address",
          "name": "from",
          "type": "address"
        },
        {
          "indexed": true,
          "internalType": "address",
          "name": "to",
          "type": "address"
        },
        {
          "indexed": true,
          "internalType": "uint256",
          "name": "tokenId",
          "type": "uint256"
        }
      ],
      "name": "Transfer",
      "type": "event"
    },
    {
      "inputs": [
        {
          "internalType": "address",
          "name": "to",
          "type": "address"
        },
        {
          "internalType": "uint256",
          "name": "tokenId",
          "type": "uint256"
        }
      ],
      "name": "approve",
      "outputs": [],
      "stateMutability": "nonpayable",
      "type": "function"
    },
    {
      "inputs": [],
      "name": "attackBoss",
      "outputs": [],
      "stateMutability": "nonpayable",
      "type": "function"
    },
    {
      "inputs": [
        {
          "internalType": "address",
          "name": "owner",
          "type": "address"
        }
      ],
      "name": "balanceOf",
      "outputs": [
        {
          "internalType": "uint256",
          "name": "",
          "type": "uint256"
        }
      ],
      "stateMutability": "view",
      "type": "function"
    },
    {
      "inputs": [
        {
          "internalType": "uint256",
          "name": "",
          "type": "uint256"
        }
      ],
      "name": "bosses",
      "outputs": [
        {
          "internalType": "string",
          "name": "name",
          "type": "string"
        },
        {
          "internalType": "string",
          "name": "imageUri",
          "type": "string"
        },
        {
          "internalType": "uint256",
          "name": "hp",
          "type": "uint256"
        },
        {
          "internalType": "uint256",
          "name": "maxHp",
          "type": "uint256"
        },
        {
          "internalType": "uint256",
          "name": "damage",
          "type": "uint256"
        }
      ],
      "stateMutability": "view",
      "type": "function"
    },
    {
      "inputs": [],
      "name": "coordinator",
      "outputs": [
        {
          "internalType": "contract VRFCoordinatorV2Interface",
          "name": "",
          "type": "address"
        }
      ],
      "stateMutability": "view",
      "type": "function"
    },
    {
      "inputs": [],
      "name": "currentBoss",
      "outputs": [
        {
          "internalType": "string",
          "name": "name",
          "type": "string"
        },
        {
          "internalType": "string",
          "name": "imageUri",
          "type": "string"
        },
        {
          "internalType": "uint256",
          "name": "hp",
          "type": "uint256"
        },
        {
          "internalType": "uint256",
          "name": "maxHp",
          "type": "uint256"
        },
        {
          "internalType": "uint256",
          "name": "damage",
          "type": "uint256"
        }
      ],
      "stateMutability": "view",
      "type": "function"
    },
    {
      "inputs": [
        {
          "internalType": "uint256",
          "name": "",
          "type": "uint256"
        }
      ],
      "name": "defaultAttributes",
      "outputs": [
        {
          "internalType": "uint256",
          "name": "index",
          "type": "uint256"
        },
        {
          "internalType": "string",
          "name": "name",
          "type": "string"
        },
        {
          "internalType": "string",
          "name": "imageUri",
          "type": "string"
        },
        {
          "internalType": "uint256",
          "name": "hp",
          "type": "uint256"
        },
        {
          "internalType": "uint256",
          "name": "maxHp",
          "type": "uint256"
        },
        {
          "internalType": "uint256",
          "name": "damage",
          "type": "uint256"
        },
        {
          "internalType": "uint256",
          "name": "crit",
          "type": "uint256"
        },
        {
          "internalType": "uint256",
          "name": "heal",
          "type": "uint256"
        }
      ],
      "stateMutability": "view",
      "type": "function"
    },
    {
      "inputs": [
        {
          "internalType": "uint256",
          "name": "linkAmount",
          "type": "uint256"
        }
      ],
      "name": "fundSubscription",
      "outputs": [],
      "stateMutability": "nonpayable",
      "type": "function"
    },
    {
      "inputs": [
        {
          "internalType": "uint256",
          "name": "tokenId",
          "type": "uint256"
        }
      ],
      "name": "getApproved",
      "outputs": [
        {
          "internalType": "address",
          "name": "",
          "type": "address"
        }
      ],
      "stateMutability": "view",
      "type": "function"
    },
    {
      "inputs": [],
      "name": "getDefaultAttributes",
      "outputs": [
        {
          "components": [
            {
              "internalType": "uint256",
              "name": "index",
              "type": "uint256"
            },
            {
              "internalType": "string",
              "name": "name",
              "type": "string"
            },
            {
              "internalType": "string",
              "name": "imageUri",
              "type": "string"
            },
            {
              "internalType": "uint256",
              "name": "hp",
              "type": "uint256"
            },
            {
              "internalType": "uint256",
              "name": "maxHp",
              "type": "uint256"
            },
            {
              "internalType": "uint256",
              "name": "damage",
              "type": "uint256"
            },
            {
              "internalType": "uint256",
              "name": "crit",
              "type": "uint256"
            },
            {
              "internalType": "uint256",
              "name": "heal",
              "type": "uint256"
            }
          ],
          "internalType": "struct Game.Attributes[]",
          "name": "",
          "type": "tuple[]"
        }
      ],
      "stateMutability": "view",
      "type": "function"
    },
    {
      "inputs": [],
      "name": "getSubscriptionDetails",
      "outputs": [
        {
          "internalType": "uint96",
          "name": "",
          "type": "uint96"
        },
        {
          "internalType": "uint64",
          "name": "",
          "type": "uint64"
        },
        {
          "internalType": "address",
          "name": "",
          "type": "address"
        },
        {
          "internalType": "address[]",
          "name": "",
          "type": "address[]"
        }
      ],
      "stateMutability": "view",
      "type": "function"
    },
    {
      "inputs": [
        {
          "internalType": "address",
          "name": "owner",
          "type": "address"
        },
        {
          "internalType": "address",
          "name": "operator",
          "type": "address"
        }
      ],
      "name": "isApprovedForAll",
      "outputs": [
        {
          "internalType": "bool",
          "name": "",
          "type": "bool"
        }
      ],
      "stateMutability": "view",
      "type": "function"
    },
    {
      "inputs": [],
      "name": "linkToken",
      "outputs": [
        {
          "internalType": "contract LinkTokenInterface",
          "name": "",
          "type": "address"
        }
      ],
      "stateMutability": "view",
      "type": "function"
    },
    {
      "inputs": [],
      "name": "maxTokenAmount",
      "outputs": [
        {
          "internalType": "uint256",
          "name": "",
          "type": "uint256"
        }
      ],
      "stateMutability": "view",
      "type": "function"
    },
    {
      "inputs": [],
      "name": "mintCost",
      "outputs": [
        {
          "internalType": "uint256",
          "name": "",
          "type": "uint256"
        }
      ],
      "stateMutability": "view",
      "type": "function"
    },
    {
      "inputs": [],
      "name": "mintHero",
      "outputs": [],
      "stateMutability": "payable",
      "type": "function"
    },
    {
      "inputs": [],
      "name": "name",
      "outputs": [
        {
          "internalType": "string",
          "name": "",
          "type": "string"
        }
      ],
      "stateMutability": "view",
      "type": "function"
    },
    {
      "inputs": [
        {
          "internalType": "uint256",
          "name": "",
          "type": "uint256"
        }
      ],
      "name": "nftAttributes",
      "outputs": [
        {
          "internalType": "uint256",
          "name": "index",
          "type": "uint256"
        },
        {
          "internalType": "string",
          "name": "name",
          "type": "string"
        },
        {
          "internalType": "string",
          "name": "imageUri",
          "type": "string"
        },
        {
          "internalType": "uint256",
          "name": "hp",
          "type": "uint256"
        },
        {
          "internalType": "uint256",
          "name": "maxHp",
          "type": "uint256"
        },
        {
          "internalType": "uint256",
          "name": "damage",
          "type": "uint256"
        },
        {
          "internalType": "uint256",
          "name": "crit",
          "type": "uint256"
        },
        {
          "internalType": "uint256",
          "name": "heal",
          "type": "uint256"
        }
      ],
      "stateMutability": "view",
      "type": "function"
    },
    {
      "inputs": [
        {
          "internalType": "address",
          "name": "",
          "type": "address"
        },
        {
          "internalType": "uint256",
          "name": "",
          "type": "uint256"
        }
      ],
      "name": "nftHolders",
      "outputs": [
        {
          "internalType": "uint256",
          "name": "",
          "type": "uint256"
        }
      ],
      "stateMutability": "view",
      "type": "function"
    },
    {
      "inputs": [],
      "name": "owner",
      "outputs": [
        {
          "internalType": "address",
          "name": "",
          "type": "address"
        }
      ],
      "stateMutability": "view",
      "type": "function"
    },
    {
      "inputs": [
        {
          "internalType": "uint256",
          "name": "tokenId",
          "type": "uint256"
        }
      ],
      "name": "ownerOf",
      "outputs": [
        {
          "internalType": "address",
          "name": "",
          "type": "address"
        }
      ],
      "stateMutability": "view",
      "type": "function"
    },
    {
      "inputs": [
        {
          "internalType": "uint256",
          "name": "requestId",
          "type": "uint256"
        },
        {
          "internalType": "uint256[]",
          "name": "randomWords",
          "type": "uint256[]"
        }
      ],
      "name": "rawFulfillRandomWords",
      "outputs": [],
      "stateMutability": "nonpayable",
      "type": "function"
    },
    {
      "inputs": [
        {
          "internalType": "address",
          "name": "from",
          "type": "address"
        },
        {
          "internalType": "address",
          "name": "to",
          "type": "address"
        },
        {
          "internalType": "uint256",
          "name": "tokenId",
          "type": "uint256"
        }
      ],
      "name": "safeTransferFrom",
      "outputs": [],
      "stateMutability": "nonpayable",
      "type": "function"
    },
    {
      "inputs": [
        {
          "internalType": "address",
          "name": "from",
          "type": "address"
        },
        {
          "internalType": "address",
          "name": "to",
          "type": "address"
        },
        {
          "internalType": "uint256",
          "name": "tokenId",
          "type": "uint256"
        },
        {
          "internalType": "bytes",
          "name": "_data",
          "type": "bytes"
        }
      ],
      "name": "safeTransferFrom",
      "outputs": [],
      "stateMutability": "nonpayable",
      "type": "function"
    },
    {
      "inputs": [
        {
          "internalType": "address",
          "name": "operator",
          "type": "address"
        },
        {
          "internalType": "bool",
          "name": "approved",
          "type": "bool"
        }
      ],
      "name": "setApprovalForAll",
      "outputs": [],
      "stateMutability": "nonpayable",
      "type": "function"
    },
    {
      "inputs": [
        {
          "internalType": "uint256",
          "name": "amount",
          "type": "uint256"
        }
      ],
      "name": "setMaxTokenAmount",
      "outputs": [],
      "stateMutability": "nonpayable",
      "type": "function"
    },
    {
      "inputs": [
        {
          "internalType": "uint256",
          "name": "cost",
          "type": "uint256"
        }
      ],
      "name": "setMintCost",
      "outputs": [],
      "stateMutability": "nonpayable",
      "type": "function"
    },
    {
      "inputs": [
        {
          "internalType": "address",
          "name": "_address",
          "type": "address"
        }
      ],
      "name": "setOwner",
      "outputs": [],
      "stateMutability": "nonpayable",
      "type": "function"
    },
    {
      "inputs": [
        {
          "internalType": "bytes4",
          "name": "interfaceId",
          "type": "bytes4"
        }
      ],
      "name": "supportsInterface",
      "outputs": [
        {
          "internalType": "bool",
          "name": "",
          "type": "bool"
        }
      ],
      "stateMutability": "view",
      "type": "function"
    },
    {
      "inputs": [],
      "name": "symbol",
      "outputs": [
        {
          "internalType": "string",
          "name": "",
          "type": "string"
        }
      ],
      "stateMutability": "view",
      "type": "function"
    },
    {
      "inputs": [
        {
          "internalType": "uint256",
          "name": "requestId",
          "type": "uint256"
        },
        {
          "internalType": "uint256[]",
          "name": "randomWords",
          "type": "uint256[]"
        }
      ],
      "name": "testFulfillRandomWords",
      "outputs": [],
      "stateMutability": "nonpayable",
      "type": "function"
    },
    {
      "inputs": [],
      "name": "testRequestId",
      "outputs": [
        {
          "internalType": "uint256",
          "name": "",
          "type": "uint256"
        }
      ],
      "stateMutability": "view",
      "type": "function"
    },
    {
      "inputs": [
        {
          "internalType": "uint256",
          "name": "tokenId",
          "type": "uint256"
        }
      ],
      "name": "tokenURI",
      "outputs": [
        {
          "internalType": "string",
          "name": "",
          "type": "string"
        }
      ],
      "stateMutability": "view",
      "type": "function"
    },
    {
      "inputs": [
        {
          "internalType": "address",
          "name": "from",
          "type": "address"
        },
        {
          "internalType": "address",
          "name": "to",
          "type": "address"
        },
        {
          "internalType": "uint256",
          "name": "tokenId",
          "type": "uint256"
        }
      ],
      "name": "transferFrom",
      "outputs": [],
      "stateMutability": "nonpayable",
      "type": "function"
    }
  ],
  "bytecode": "0x60a060405273271682deb8c4e0901d1a1550ad2e64d568e69909600960006101000a81548173ffffffffffffffffffffffffffffffffffffffff021916908373ffffffffffffffffffffffffffffffffffffffff16021790555073514910771af9ca656af840dff83e8264ecf986ca600a60006101000a81548173ffffffffffffffffffffffffffffffffffffffff021916908373ffffffffffffffffffffffffffffffffffffffff1602179055507f9fe0eebf5e446e3c998ec9bb19951541aee00bb90ea201ae456421a2ded8680560001b600b5560036018556000601955348015620000ec57600080fd5b5060405162006d3138038062006d31833981810160405281019062000112919062000e61565b600960009054906101000a900473ffffffffffffffffffffffffffffffffffffffff166040518060400160405280600681526020017f4865726f657300000000000000000000000000000000000000000000000000008152506040518060400160405280600481526020017f4865726f000000000000000000000000000000000000000000000000000000008152508160009080519060200190620001b99291906200096f565b508060019080519060200190620001d29291906200096f565b5050508073ffffffffffffffffffffffffffffffffffffffff1660808173ffffffffffffffffffffffffffffffffffffffff16815250505088518a511480156200021d575087518951145b80156200022b575086518851145b801562000239575085518751145b801562000247575084518651145b62000289576040517f08c379a0000000000000000000000000000000000000000000000000000000008152600401620002809062001114565b60405180910390fd5b825184511480156200029c575081518351145b8015620002aa575080518251145b620002ec576040517f08c379a0000000000000000000000000000000000000000000000000000000008152600401620002e390620011ac565b60405180910390fd5b60005b8451811015620004505760126040518060a001604052808784815181106200031c576200031b620011ce565b5b602002602001015181526020018684815181106200033f576200033e620011ce565b5b60200260200101518152602001858481518110620003625762000361620011ce565b5b60200260200101518152602001848481518110620003855762000384620011ce565b5b60200260200101518152602001848481518110620003a857620003a7620011ce565b5b602002602001015181525090806001815401808255809150506001900390600052602060002090600502016000909190919091506000820151816000019080519060200190620003fa9291906200096f565b506020820151816001019080519060200190620004199291906200096f565b506040820151816002015560608201518160030155608082015181600401555050808062000447906200122c565b915050620002ef565b506012600081548110620004695762000468620011ce565b5b9060005260206000209060050201601360008201816000019080546200048f90620012a8565b6200049c92919062000a00565b506001820181600101908054620004b390620012a8565b620004c092919062000a00565b5060028201548160020155600382015481600301556004820154816004015590505060005b8a51811015620006b157600f6040518061010001604052808381526020018d8481518110620005195762000518620011ce565b5b602002602001015181526020018c84815181106200053c576200053b620011ce565b5b602002602001015181526020018b84815181106200055f576200055e620011ce565b5b602002602001015181526020018b8481518110620005825762000581620011ce565b5b602002602001015181526020018a8481518110620005a557620005a4620011ce565b5b60200260200101518152602001898481518110620005c857620005c7620011ce565b5b60200260200101518152602001888481518110620005eb57620005ea620011ce565b5b60200260200101518152509080600181540180825580915050600190039060005260206000209060080201600090919091909150600082015181600001556020820151816001019080519060200190620006479291906200096f565b506040820151816002019080519060200190620006669291906200096f565b50606082015181600301556080820151816004015560a0820151816005015560c0820151816006015560e0820151816007015550508080620006a8906200122c565b915050620004e5565b50620006c9600e620007f060201b620021bb1760201c565b33600660006101000a81548173ffffffffffffffffffffffffffffffffffffffff021916908373ffffffffffffffffffffffffffffffffffffffff160217905550600960009054906101000a900473ffffffffffffffffffffffffffffffffffffffff16600760006101000a81548173ffffffffffffffffffffffffffffffffffffffff021916908373ffffffffffffffffffffffffffffffffffffffff160217905550600a60009054906101000a900473ffffffffffffffffffffffffffffffffffffffff16600860006101000a81548173ffffffffffffffffffffffffffffffffffffffff021916908373ffffffffffffffffffffffffffffffffffffffff160217905550620007e06200080660201b60201c565b50505050505050505050620013d7565b6001816000016000828254019250508190555050565b600760009054906101000a900473ffffffffffffffffffffffffffffffffffffffff1673ffffffffffffffffffffffffffffffffffffffff1663a21a23e46040518163ffffffff1660e01b81526004016020604051808303816000875af115801562000876573d6000803e3d6000fd5b505050506040513d601f19601f820116820180604052508101906200089c919062001322565b600c60006101000a81548167ffffffffffffffff021916908367ffffffffffffffff160217905550600760009054906101000a900473ffffffffffffffffffffffffffffffffffffffff1673ffffffffffffffffffffffffffffffffffffffff16637341c10c600c60009054906101000a900467ffffffffffffffff16306040518363ffffffff1660e01b815260040162000939929190620013aa565b600060405180830381600087803b1580156200095457600080fd5b505af115801562000969573d6000803e3d6000fd5b50505050565b8280546200097d90620012a8565b90600052602060002090601f016020900481019282620009a15760008555620009ed565b82601f10620009bc57805160ff1916838001178555620009ed565b82800160010185558215620009ed579182015b82811115620009ec578251825591602001919060010190620009cf565b5b509050620009fc919062000a98565b5090565b82805462000a0e90620012a8565b90600052602060002090601f01602090048101928262000a32576000855562000a85565b82601f1062000a45578054855562000a85565b8280016001018555821562000a8557600052602060002091601f016020900482015b8281111562000a8457825482559160010191906001019062000a67565b5b50905062000a94919062000a98565b5090565b5b8082111562000ab357600081600090555060010162000a99565b5090565b6000604051905090565b600080fd5b600080fd5b600080fd5b6000601f19601f8301169050919050565b7f4e487b7100000000000000000000000000000000000000000000000000000000600052604160045260246000fd5b62000b1b8262000ad0565b810181811067ffffffffffffffff8211171562000b3d5762000b3c62000ae1565b5b80604052505050565b600062000b5262000ab7565b905062000b60828262000b10565b919050565b600067ffffffffffffffff82111562000b835762000b8262000ae1565b5b602082029050602081019050919050565b600080fd5b600080fd5b600067ffffffffffffffff82111562000bbc5762000bbb62000ae1565b5b62000bc78262000ad0565b9050602081019050919050565b60005b8381101562000bf457808201518184015260208101905062000bd7565b8381111562000c04576000848401525b50505050565b600062000c2162000c1b8462000b9e565b62000b46565b90508281526020810184848401111562000c405762000c3f62000b99565b5b62000c4d84828562000bd4565b509392505050565b600082601f83011262000c6d5762000c6c62000acb565b5b815162000c7f84826020860162000c0a565b91505092915050565b600062000c9f62000c998462000b65565b62000b46565b9050808382526020820190506020840283018581111562000cc55762000cc462000b94565b5b835b8181101562000d1357805167ffffffffffffffff81111562000cee5762000ced62000acb565b5b80860162000cfd898262000c55565b8552602085019450505060208101905062000cc7565b5050509392505050565b600082601f83011262000d355762000d3462000acb565b5b815162000d4784826020860162000c88565b91505092915050565b600067ffffffffffffffff82111562000d6e5762000d6d62000ae1565b5b602082029050602081019050919050565b6000819050919050565b62000d948162000d7f565b811462000da057600080fd5b50565b60008151905062000db48162000d89565b92915050565b600062000dd162000dcb8462000d50565b62000b46565b9050808382526020820190506020840283018581111562000df75762000df662000b94565b5b835b8181101562000e24578062000e0f888262000da3565b84526020840193505060208101905062000df9565b5050509392505050565b600082601f83011262000e465762000e4562000acb565b5b815162000e5884826020860162000dba565b91505092915050565b6000806000806000806000806000806101408b8d03121562000e885762000e8762000ac1565b5b60008b015167ffffffffffffffff81111562000ea95762000ea862000ac6565b5b62000eb78d828e0162000d1d565b9a505060208b015167ffffffffffffffff81111562000edb5762000eda62000ac6565b5b62000ee98d828e0162000d1d565b99505060408b015167ffffffffffffffff81111562000f0d5762000f0c62000ac6565b5b62000f1b8d828e0162000e2e565b98505060608b015167ffffffffffffffff81111562000f3f5762000f3e62000ac6565b5b62000f4d8d828e0162000e2e565b97505060808b015167ffffffffffffffff81111562000f715762000f7062000ac6565b5b62000f7f8d828e0162000e2e565b96505060a08b015167ffffffffffffffff81111562000fa35762000fa262000ac6565b5b62000fb18d828e0162000e2e565b95505060c08b015167ffffffffffffffff81111562000fd55762000fd462000ac6565b5b62000fe38d828e0162000d1d565b94505060e08b015167ffffffffffffffff81111562001007576200100662000ac6565b5b620010158d828e0162000d1d565b9350506101008b015167ffffffffffffffff8111156200103a576200103962000ac6565b5b620010488d828e0162000e2e565b9250506101208b015167ffffffffffffffff8111156200106d576200106c62000ac6565b5b6200107b8d828e0162000e2e565b9150509295989b9194979a5092959850565b600082825260208201905092915050565b7f4f6e65206f662074686520676976656e204e46542064656661756c742061727260008201527f617973206973206f6464206c656e677468000000000000000000000000000000602082015250565b6000620010fc6031836200108d565b915062001109826200109e565b604082019050919050565b600060208201905081810360008301526200112f81620010ed565b9050919050565b7f4f6e65206f662074686520676976656e20626f73732064656661756c7420617260008201527f72617973206973206f6464206c656e6774680000000000000000000000000000602082015250565b6000620011946032836200108d565b9150620011a18262001136565b604082019050919050565b60006020820190508181036000830152620011c78162001185565b9050919050565b7f4e487b7100000000000000000000000000000000000000000000000000000000600052603260045260246000fd5b7f4e487b7100000000000000000000000000000000000000000000000000000000600052601160045260246000fd5b6000620012398262000d7f565b91507fffffffffffffffffffffffffffffffffffffffffffffffffffffffffffffffff82036200126e576200126d620011fd565b5b600182019050919050565b7f4e487b7100000000000000000000000000000000000000000000000000000000600052602260045260246000fd5b60006002820490506001821680620012c157607f821691505b602082108103620012d757620012d662001279565b5b50919050565b600067ffffffffffffffff82169050919050565b620012fc81620012dd565b81146200130857600080fd5b50565b6000815190506200131c81620012f1565b92915050565b6000602082840312156200133b576200133a62000ac1565b5b60006200134b848285016200130b565b91505092915050565b6200135f81620012dd565b82525050565b600073ffffffffffffffffffffffffffffffffffffffff82169050919050565b6000620013928262001365565b9050919050565b620013a48162001385565b82525050565b6000604082019050620013c1600083018562001354565b620013d0602083018462001399565b9392505050565b608051615937620013fa60003960008181610d1c0152610d7001526159376000f3fe6080604052600436106101f95760003560e01c806370a082311161010d578063b839a80e116100a0578063c87b56dd1161006f578063c87b56dd14610757578063d4b5d60314610794578063d4f24c5b146107d8578063e9200337146107ef578063e985e9c5146107f9576101f9565b8063b839a80e146106b1578063b88d4fde146106da578063bdb4b84814610703578063c10606531461072e576101f9565b80638a926d0f116100dc5780638a926d0f146106075780638da5cb5b1461063257806395d89b411461065d578063a22cb46514610688576101f9565b806370a0823114610535578063775bb50e146105725780638545f4ea146105af578063856f8c35146105d8576101f9565b80631fe543e31161019057806357970e931161015f57806357970e931461043357806357d3acce1461045e5780636352211e14610489578063657633ad146104c65780636a908152146104f1576101f9565b80631fe543e314610377578063204597e0146103a057806323b872dd146103e157806342842e0e1461040a576101f9565b8063095ea7b3116101cc578063095ea7b3146102cc5780630a009097146102f55780630d5de6df1461032057806313af40351461034e576101f9565b806301ffc9a7146101fe57806302c4d72b1461023b57806306fdde0314610264578063081812fc1461028f575b600080fd5b34801561020a57600080fd5b50610225600480360381019061022091906137d7565b610836565b604051610232919061381f565b60405180910390f35b34801561024757600080fd5b50610262600480360381019061025d91906139c9565b610918565b005b34801561027057600080fd5b50610279610926565b6040516102869190613aad565b60405180910390f35b34801561029b57600080fd5b506102b660048036038101906102b19190613acf565b6109b8565b6040516102c39190613b3d565b60405180910390f35b3480156102d857600080fd5b506102f360048036038101906102ee9190613b84565b610a3d565b005b34801561030157600080fd5b5061030a610b54565b6040516103179190613c23565b60405180910390f35b34801561032c57600080fd5b50610335610b7a565b6040516103459493929190613d46565b60405180910390f35b34801561035a57600080fd5b5061037560048036038101906103709190613d92565b610c46565b005b34801561038357600080fd5b5061039e600480360381019061039991906139c9565b610d1a565b005b3480156103ac57600080fd5b506103c760048036038101906103c29190613acf565b610dda565b6040516103d8959493929190613dce565b60405180910390f35b3480156103ed57600080fd5b5061040860048036038101906104039190613e2f565b610f30565b005b34801561041657600080fd5b50610431600480360381019061042c9190613e2f565b610f90565b005b34801561043f57600080fd5b50610448610fb0565b6040516104559190613ea3565b60405180910390f35b34801561046a57600080fd5b50610473610fd6565b6040516104809190614090565b60405180910390f35b34801561049557600080fd5b506104b060048036038101906104ab9190613acf565b611196565b6040516104bd9190613b3d565b60405180910390f35b3480156104d257600080fd5b506104db611247565b6040516104e891906140b2565b60405180910390f35b3480156104fd57600080fd5b5061051860048036038101906105139190613acf565b61124d565b60405161052c9897969594939291906140cd565b60405180910390f35b34801561054157600080fd5b5061055c60048036038101906105579190613d92565b6113b5565b60405161056991906140b2565b60405180910390f35b34801561057e57600080fd5b5061059960048036038101906105949190613b84565b61146c565b6040516105a691906140b2565b60405180910390f35b3480156105bb57600080fd5b506105d660048036038101906105d19190613acf565b61149d565b005b3480156105e457600080fd5b506105ed611537565b6040516105fe959493929190613dce565b60405180910390f35b34801561061357600080fd5b5061061c61166b565b60405161062991906140b2565b60405180910390f35b34801561063e57600080fd5b50610647611671565b6040516106549190613b3d565b60405180910390f35b34801561066957600080fd5b50610672611697565b60405161067f9190613aad565b60405180910390f35b34801561069457600080fd5b506106af60048036038101906106aa9190614185565b611729565b005b3480156106bd57600080fd5b506106d860048036038101906106d39190613acf565b61173f565b005b3480156106e657600080fd5b5061070160048036038101906106fc919061427a565b6117d9565b005b34801561070f57600080fd5b5061071861183b565b60405161072591906140b2565b60405180910390f35b34801561073a57600080fd5b5061075560048036038101906107509190613acf565b611841565b005b34801561076357600080fd5b5061077e60048036038101906107799190613acf565b6119ce565b60405161078b9190613aad565b60405180910390f35b3480156107a057600080fd5b506107bb60048036038101906107b69190613acf565b611c23565b6040516107cf9897969594939291906140cd565b60405180910390f35b3480156107e457600080fd5b506107ed611d7b565b005b6107f7612027565b005b34801561080557600080fd5b50610820600480360381019061081b91906142fd565b612127565b60405161082d919061381f565b60405180910390f35b60007f80ac58cd000000000000000000000000000000000000000000000000000000007bffffffffffffffffffffffffffffffffffffffffffffffffffffffff1916827bffffffffffffffffffffffffffffffffffffffffffffffffffffffff1916148061090157507f5b5e139f000000000000000000000000000000000000000000000000000000007bffffffffffffffffffffffffffffffffffffffffffffffffffffffff1916827bffffffffffffffffffffffffffffffffffffffffffffffffffffffff1916145b806109115750610910826121d1565b5b9050919050565b610922828261223b565b5050565b6060600080546109359061436c565b80601f01602080910402602001604051908101604052809291908181526020018280546109619061436c565b80156109ae5780601f10610983576101008083540402835291602001916109ae565b820191906000526020600020905b81548152906001019060200180831161099157829003601f168201915b5050505050905090565b60006109c38261234b565b610a02576040517f08c379a00000000000000000000000000000000000000000000000000000000081526004016109f99061440f565b60405180910390fd5b6004600083815260200190815260200160002060009054906101000a900473ffffffffffffffffffffffffffffffffffffffff169050919050565b6000610a4882611196565b90508073ffffffffffffffffffffffffffffffffffffffff168373ffffffffffffffffffffffffffffffffffffffff1603610ab8576040517f08c379a0000000000000000000000000000000000000000000000000000000008152600401610aaf906144a1565b60405180910390fd5b8073ffffffffffffffffffffffffffffffffffffffff16610ad76123b7565b73ffffffffffffffffffffffffffffffffffffffff161480610b065750610b0581610b006123b7565b612127565b5b610b45576040517f08c379a0000000000000000000000000000000000000000000000000000000008152600401610b3c90614533565b60405180910390fd5b610b4f83836123bf565b505050565b600760009054906101000a900473ffffffffffffffffffffffffffffffffffffffff1681565b60008060006060600760009054906101000a900473ffffffffffffffffffffffffffffffffffffffff1673ffffffffffffffffffffffffffffffffffffffff1663a47c7696600c60009054906101000a900467ffffffffffffffff166040518263ffffffff1660e01b8152600401610bf29190614553565b600060405180830381865afa158015610c0f573d6000803e3d6000fd5b505050506040513d6000823e3d601f19601f82011682018060405250810190610c38919061469e565b935093509350935090919293565b600660009054906101000a900473ffffffffffffffffffffffffffffffffffffffff1673ffffffffffffffffffffffffffffffffffffffff163373ffffffffffffffffffffffffffffffffffffffff1614610cd6576040517f08c379a0000000000000000000000000000000000000000000000000000000008152600401610ccd9061476d565b60405180910390fd5b80600660006101000a81548173ffffffffffffffffffffffffffffffffffffffff021916908373ffffffffffffffffffffffffffffffffffffffff16021790555050565b7f000000000000000000000000000000000000000000000000000000000000000073ffffffffffffffffffffffffffffffffffffffff163373ffffffffffffffffffffffffffffffffffffffff1614610dcc57337f00000000000000000000000000000000000000000000000000000000000000006040517f1cf993f4000000000000000000000000000000000000000000000000000000008152600401610dc392919061478d565b60405180910390fd5b610dd6828261223b565b5050565b60128181548110610dea57600080fd5b9060005260206000209060050201600091509050806000018054610e0d9061436c565b80601f0160208091040260200160405190810160405280929190818152602001828054610e399061436c565b8015610e865780601f10610e5b57610100808354040283529160200191610e86565b820191906000526020600020905b815481529060010190602001808311610e6957829003601f168201915b505050505090806001018054610e9b9061436c565b80601f0160208091040260200160405190810160405280929190818152602001828054610ec79061436c565b8015610f145780601f10610ee957610100808354040283529160200191610f14565b820191906000526020600020905b815481529060010190602001808311610ef757829003601f168201915b5050505050908060020154908060030154908060040154905085565b610f41610f3b6123b7565b82612478565b610f80576040517f08c379a0000000000000000000000000000000000000000000000000000000008152600401610f7790614828565b60405180910390fd5b610f8b838383612556565b505050565b610fab838383604051806020016040528060008152506117d9565b505050565b600860009054906101000a900473ffffffffffffffffffffffffffffffffffffffff1681565b6060600f805480602002602001604051908101604052809291908181526020016000905b8282101561118d578382906000526020600020906008020160405180610100016040529081600082015481526020016001820180546110389061436c565b80601f01602080910402602001604051908101604052809291908181526020018280546110649061436c565b80156110b15780601f10611086576101008083540402835291602001916110b1565b820191906000526020600020905b81548152906001019060200180831161109457829003601f168201915b505050505081526020016002820180546110ca9061436c565b80601f01602080910402602001604051908101604052809291908181526020018280546110f69061436c565b80156111435780601f1061111857610100808354040283529160200191611143565b820191906000526020600020905b81548152906001019060200180831161112657829003601f168201915b505050505081526020016003820154815260200160048201548152602001600582015481526020016006820154815260200160078201548152505081526020019060010190610ffa565b50505050905090565b6000806002600084815260200190815260200160002060009054906101000a900473ffffffffffffffffffffffffffffffffffffffff169050600073ffffffffffffffffffffffffffffffffffffffff168173ffffffffffffffffffffffffffffffffffffffff160361123e576040517f08c379a0000000000000000000000000000000000000000000000000000000008152600401611235906148ba565b60405180910390fd5b80915050919050565b601a5481565b600f818154811061125d57600080fd5b90600052602060002090600802016000915090508060000154908060010180546112869061436c565b80601f01602080910402602001604051908101604052809291908181526020018280546112b29061436c565b80156112ff5780601f106112d4576101008083540402835291602001916112ff565b820191906000526020600020905b8154815290600101906020018083116112e257829003601f168201915b5050505050908060020180546113149061436c565b80601f01602080910402602001604051908101604052809291908181526020018280546113409061436c565b801561138d5780601f106113625761010080835404028352916020019161138d565b820191906000526020600020905b81548152906001019060200180831161137057829003601f168201915b5050505050908060030154908060040154908060050154908060060154908060070154905088565b60008073ffffffffffffffffffffffffffffffffffffffff168273ffffffffffffffffffffffffffffffffffffffff1603611425576040517f08c379a000000000000000000000000000000000000000000000000000000000815260040161141c9061494c565b60405180910390fd5b600360008373ffffffffffffffffffffffffffffffffffffffff1673ffffffffffffffffffffffffffffffffffffffff168152602001908152602001600020549050919050565b6010602052816000526040600020818154811061148857600080fd5b90600052602060002001600091509150505481565b600660009054906101000a900473ffffffffffffffffffffffffffffffffffffffff1673ffffffffffffffffffffffffffffffffffffffff163373ffffffffffffffffffffffffffffffffffffffff161461152d576040517f08c379a00000000000000000000000000000000000000000000000000000000081526004016115249061476d565b60405180910390fd5b8060198190555050565b60138060000180546115489061436c565b80601f01602080910402602001604051908101604052809291908181526020018280546115749061436c565b80156115c15780601f10611596576101008083540402835291602001916115c1565b820191906000526020600020905b8154815290600101906020018083116115a457829003601f168201915b5050505050908060010180546115d69061436c565b80601f01602080910402602001604051908101604052809291908181526020018280546116029061436c565b801561164f5780601f106116245761010080835404028352916020019161164f565b820191906000526020600020905b81548152906001019060200180831161163257829003601f168201915b5050505050908060020154908060030154908060040154905085565b60185481565b600660009054906101000a900473ffffffffffffffffffffffffffffffffffffffff1681565b6060600180546116a69061436c565b80601f01602080910402602001604051908101604052809291908181526020018280546116d29061436c565b801561171f5780601f106116f45761010080835404028352916020019161171f565b820191906000526020600020905b81548152906001019060200180831161170257829003601f168201915b5050505050905090565b61173b6117346123b7565b83836127bc565b5050565b600660009054906101000a900473ffffffffffffffffffffffffffffffffffffffff1673ffffffffffffffffffffffffffffffffffffffff163373ffffffffffffffffffffffffffffffffffffffff16146117cf576040517f08c379a00000000000000000000000000000000000000000000000000000000081526004016117c69061476d565b60405180910390fd5b8060188190555050565b6117ea6117e46123b7565b83612478565b611829576040517f08c379a000000000000000000000000000000000000000000000000000000000815260040161182090614828565b60405180910390fd5b61183584848484612928565b50505050565b60195481565b600660009054906101000a900473ffffffffffffffffffffffffffffffffffffffff1673ffffffffffffffffffffffffffffffffffffffff163373ffffffffffffffffffffffffffffffffffffffff16146118d1576040517f08c379a00000000000000000000000000000000000000000000000000000000081526004016118c89061476d565b60405180910390fd5b600860009054906101000a900473ffffffffffffffffffffffffffffffffffffffff1673ffffffffffffffffffffffffffffffffffffffff16634000aea0600960009054906101000a900473ffffffffffffffffffffffffffffffffffffffff1683600c60009054906101000a900467ffffffffffffffff1660405160200161195a9190614553565b6040516020818303038152906040526040518463ffffffff1660e01b8152600401611987939291906149c1565b6020604051808303816000875af11580156119a6573d6000803e3d6000fd5b505050506040513d601f19601f820116820180604052508101906119ca9190614a14565b5050565b60606000601160008481526020019081526020016000206040518061010001604052908160008201548152602001600182018054611a0b9061436c565b80601f0160208091040260200160405190810160405280929190818152602001828054611a379061436c565b8015611a845780601f10611a5957610100808354040283529160200191611a84565b820191906000526020600020905b815481529060010190602001808311611a6757829003601f168201915b50505050508152602001600282018054611a9d9061436c565b80601f0160208091040260200160405190810160405280929190818152602001828054611ac99061436c565b8015611b165780601f10611aeb57610100808354040283529160200191611b16565b820191906000526020600020905b815481529060010190602001808311611af957829003601f168201915b505050505081526020016003820154815260200160048201548152602001600582015481526020016006820154815260200160078201548152505090506000611bf88260200151611b6686612984565b8460400151611b788660600151612984565b611b858760800151612984565b611b928860a00151612984565b611b9c6032612984565b611ba98a60c00151612984565b611bb36032612984565b611bc08c60e00151612984565b611bca6032612984565b604051602001611be49b9a99989796959493929190614e0d565b604051602081830303815290604052612ae4565b905080604051602001611c0b9190614f76565b60405160208183030381529060405292505050919050565b6011602052806000526040600020600091509050806000015490806001018054611c4c9061436c565b80601f0160208091040260200160405190810160405280929190818152602001828054611c789061436c565b8015611cc55780601f10611c9a57610100808354040283529160200191611cc5565b820191906000526020600020905b815481529060010190602001808311611ca857829003601f168201915b505050505090806002018054611cda9061436c565b80601f0160208091040260200160405190810160405280929190818152602001828054611d069061436c565b8015611d535780601f10611d2857610100808354040283529160200191611d53565b820191906000526020600020905b815481529060010190602001808311611d3657829003601f168201915b5050505050908060030154908060040154908060050154908060060154908060070154905088565b6000601060003373ffffffffffffffffffffffffffffffffffffffff1673ffffffffffffffffffffffffffffffffffffffff1681526020019081526020016000209050611e966040518060400160405280601b81526020017f426f73732025732068617320257320485020616e64202573204144000000000081525060136000018054611e079061436c565b80601f0160208091040260200160405190810160405280929190818152602001828054611e339061436c565b8015611e805780601f10611e5557610100808354040283529160200191611e80565b820191906000526020600020905b815481529060010190602001808311611e6357829003601f168201915b5050505050601360020154601360040154612c7b565b60005b818054905081101561202357600060116000848481548110611ebe57611ebd614f98565b5b906000526020600020015481526020019081526020016000209050611f916040518060600160405280602681526020016158dc60269139826001018054611f049061436c565b80601f0160208091040260200160405190810160405280929190818152602001828054611f309061436c565b8015611f7d5780601f10611f5257610100808354040283529160200191611f7d565b820191906000526020600020905b815481529060010190602001808311611f6057829003601f168201915b505050505083600301548460050154612c7b565b80600501546013600201541015611fb2576000601360020181905550611fd1565b8060050154601360020154611fc79190614ff6565b6013600201819055505b60136004015481600301541015611ff1576000816003018190555061200f565b60136004015481600301546120069190614ff6565b81600301819055505b50808061201b9061502a565b915050611e99565b5050565b6000601060003373ffffffffffffffffffffffffffffffffffffffff1673ffffffffffffffffffffffffffffffffffffffff16815260200190815260200160002090506018548180549050106120b2576040517f08c379a00000000000000000000000000000000000000000000000000000000081526004016120a9906150e4565b60405180910390fd5b60006019541115612102576019543414612101576040517f08c379a00000000000000000000000000000000000000000000000000000000081526004016120f890615150565b60405180910390fd5b5b600061210e600e612d1d565b905061211981612d2b565b612123600e6121bb565b5050565b6000600560008473ffffffffffffffffffffffffffffffffffffffff1673ffffffffffffffffffffffffffffffffffffffff16815260200190815260200160002060008373ffffffffffffffffffffffffffffffffffffffff1673ffffffffffffffffffffffffffffffffffffffff16815260200190815260200160002060009054906101000a900460ff16905092915050565b6001816000016000828254019250508190555050565b60007f01ffc9a7000000000000000000000000000000000000000000000000000000007bffffffffffffffffffffffffffffffffffffffffffffffffffffffff1916827bffffffffffffffffffffffffffffffffffffffffffffffffffffffff1916149050919050565b6000600d60008481526020019081526020016000206040518060400160405290816000820160009054906101000a900473ffffffffffffffffffffffffffffffffffffffff1673ffffffffffffffffffffffffffffffffffffffff1673ffffffffffffffffffffffffffffffffffffffff1681526020016001820154815250509050600d6000848152602001908152602001600020600080820160006101000a81549073ffffffffffffffffffffffffffffffffffffffff0219169055600182016000905550506000600f805490508360008151811061231e5761231d614f98565b5b6020026020010151612330919061519f565b90506123458260000151836020015183612e8f565b50505050565b60008073ffffffffffffffffffffffffffffffffffffffff166002600084815260200190815260200160002060009054906101000a900473ffffffffffffffffffffffffffffffffffffffff1673ffffffffffffffffffffffffffffffffffffffff1614159050919050565b600033905090565b816004600083815260200190815260200160002060006101000a81548173ffffffffffffffffffffffffffffffffffffffff021916908373ffffffffffffffffffffffffffffffffffffffff160217905550808273ffffffffffffffffffffffffffffffffffffffff1661243283611196565b73ffffffffffffffffffffffffffffffffffffffff167f8c5be1e5ebec7d5bd14f71427d1e84f3dd0314c0f7b2291e5b200ac8c7c3b92560405160405180910390a45050565b60006124838261234b565b6124c2576040517f08c379a00000000000000000000000000000000000000000000000000000000081526004016124b990615242565b60405180910390fd5b60006124cd83611196565b90508073ffffffffffffffffffffffffffffffffffffffff168473ffffffffffffffffffffffffffffffffffffffff16148061253c57508373ffffffffffffffffffffffffffffffffffffffff16612524846109b8565b73ffffffffffffffffffffffffffffffffffffffff16145b8061254d575061254c8185612127565b5b91505092915050565b8273ffffffffffffffffffffffffffffffffffffffff1661257682611196565b73ffffffffffffffffffffffffffffffffffffffff16146125cc576040517f08c379a00000000000000000000000000000000000000000000000000000000081526004016125c3906152d4565b60405180910390fd5b600073ffffffffffffffffffffffffffffffffffffffff168273ffffffffffffffffffffffffffffffffffffffff160361263b576040517f08c379a000000000000000000000000000000000000000000000000000000000815260040161263290615366565b60405180910390fd5b612646838383613200565b6126516000826123bf565b6001600360008573ffffffffffffffffffffffffffffffffffffffff1673ffffffffffffffffffffffffffffffffffffffff16815260200190815260200160002060008282546126a19190614ff6565b925050819055506001600360008473ffffffffffffffffffffffffffffffffffffffff1673ffffffffffffffffffffffffffffffffffffffff16815260200190815260200160002060008282546126f89190615386565b92505081905550816002600083815260200190815260200160002060006101000a81548173ffffffffffffffffffffffffffffffffffffffff021916908373ffffffffffffffffffffffffffffffffffffffff160217905550808273ffffffffffffffffffffffffffffffffffffffff168473ffffffffffffffffffffffffffffffffffffffff167fddf252ad1be2c89b69c2b068fc378daa952ba7f163c4a11628f55a4df523b3ef60405160405180910390a46127b7838383613205565b505050565b8173ffffffffffffffffffffffffffffffffffffffff168373ffffffffffffffffffffffffffffffffffffffff160361282a576040517f08c379a000000000000000000000000000000000000000000000000000000000815260040161282190615428565b60405180910390fd5b80600560008573ffffffffffffffffffffffffffffffffffffffff1673ffffffffffffffffffffffffffffffffffffffff16815260200190815260200160002060008473ffffffffffffffffffffffffffffffffffffffff1673ffffffffffffffffffffffffffffffffffffffff16815260200190815260200160002060006101000a81548160ff0219169083151502179055508173ffffffffffffffffffffffffffffffffffffffff168373ffffffffffffffffffffffffffffffffffffffff167f17307eab39ab6107e8899845ad3d59bd9653f200f220920489ca2b5937696c318360405161291b919061381f565b60405180910390a3505050565b612933848484612556565b61293f8484848461320a565b61297e576040517f08c379a0000000000000000000000000000000000000000000000000000000008152600401612975906154ba565b60405180910390fd5b50505050565b6060600082036129cb576040518060400160405280600181526020017f30000000000000000000000000000000000000000000000000000000000000008152509050612adf565b600082905060005b600082146129fd5780806129e69061502a565b915050600a826129f691906154da565b91506129d3565b60008167ffffffffffffffff811115612a1957612a18613886565b5b6040519080825280601f01601f191660200182016040528015612a4b5781602001600182028036833780820191505090505b5090505b60008514612ad857600182612a649190614ff6565b9150600a85612a73919061519f565b6030612a7f9190615386565b60f81b818381518110612a9557612a94614f98565b5b60200101907effffffffffffffffffffffffffffffffffffffffffffffffffffffffffffff1916908160001a905350600a85612ad191906154da565b9450612a4f565b8093505050505b919050565b606060008251905060008103612b0c5760405180602001604052806000815250915050612c76565b60006003600283612b1d9190615386565b612b2791906154da565b6004612b33919061550b565b90506000602082612b449190615386565b67ffffffffffffffff811115612b5d57612b5c613886565b5b6040519080825280601f01601f191660200182016040528015612b8f5781602001600182028036833780820191505090505b509050600060405180606001604052806040815260200161589c604091399050600181016020830160005b86811015612c335760038101905062ffffff818a015116603f8160121c168401518060081b905060ff603f83600c1c1686015116810190508060081b905060ff603f8360061c1686015116810190508060081b905060ff603f831686015116810190508060e01b90508084526004840193505050612bba565b506003860660018114612c4d5760028114612c5d57612c68565b613d3d60f01b6002830352612c68565b603d60f81b60018303525b508484525050819450505050505b919050565b612d1784848484604051602401612c959493929190615565565b6040516020818303038152906040527fd5cf17d0000000000000000000000000000000000000000000000000000000007bffffffffffffffffffffffffffffffffffffffffffffffffffffffff19166020820180517bffffffffffffffffffffffffffffffffffffffffffffffffffffffff8381831617835250505050613391565b50505050565b600081600001549050919050565b6000600760009054906101000a900473ffffffffffffffffffffffffffffffffffffffff1673ffffffffffffffffffffffffffffffffffffffff16635d3b1d30600b54600c60009054906101000a900467ffffffffffffffff1660036203d09060016040518663ffffffff1660e01b8152600401612dad9594939291906156a0565b6020604051808303816000875af1158015612dcc573d6000803e3d6000fd5b505050506040513d601f19601f82011682018060405250810190612df09190615708565b905080601a8190555060405180604001604052803373ffffffffffffffffffffffffffffffffffffffff16815260200183815250600d600083815260200190815260200160002060008201518160000160006101000a81548173ffffffffffffffffffffffffffffffffffffffff021916908373ffffffffffffffffffffffffffffffffffffffff160217905550602082015181600101559050505050565b612ecd6040518060400160405280600c81526020017f46756c66696c6c204d696e7400000000000000000000000000000000000000008152506133ba565b6000600f8281548110612ee357612ee2614f98565b5b90600052602060002090600802016040518061010001604052908160008201548152602001600182018054612f179061436c565b80601f0160208091040260200160405190810160405280929190818152602001828054612f439061436c565b8015612f905780601f10612f6557610100808354040283529160200191612f90565b820191906000526020600020905b815481529060010190602001808311612f7357829003601f168201915b50505050508152602001600282018054612fa99061436c565b80601f0160208091040260200160405190810160405280929190818152602001828054612fd59061436c565b80156130225780601f10612ff757610100808354040283529160200191613022565b820191906000526020600020905b81548152906001019060200180831161300557829003601f168201915b5050505050815260200160038201548152602001600482015481526020016005820154815260200160068201548152602001600782015481525050905060405180610100016040528082600001518152602001826020015181526020018260400151815260200182606001518152602001826060015181526020018260a0015181526020018260c0015181526020018260e00151815250601160008581526020019081526020016000206000820151816000015560208201518160010190805190602001906130f29291906136c8565b50604082015181600201908051906020019061310f9291906136c8565b50606082015181600301556080820151816004015560a0820151816005015560c0820151816006015560e08201518160070155905050601060008573ffffffffffffffffffffffffffffffffffffffff1673ffffffffffffffffffffffffffffffffffffffff1681526020019081526020016000208390806001815401808255809150506001900390600052602060002001600090919091909150556131b58484613453565b81838573ffffffffffffffffffffffffffffffffffffffff167f4c209b5fc8ad50758f13e2e1088ba56a560dff690a1c6fef26394f4c03821c4f60405160405180910390a450505050565b505050565b505050565b600061322b8473ffffffffffffffffffffffffffffffffffffffff16613471565b15613384578373ffffffffffffffffffffffffffffffffffffffff1663150b7a026132546123b7565b8786866040518563ffffffff1660e01b81526004016132769493929190615735565b6020604051808303816000875af19250505080156132b257506040513d601f19601f820116820180604052508101906132af9190615796565b60015b613334573d80600081146132e2576040519150601f19603f3d011682016040523d82523d6000602084013e6132e7565b606091505b50600081510361332c576040517f08c379a0000000000000000000000000000000000000000000000000000000008152600401613323906154ba565b60405180910390fd5b805181602001fd5b63150b7a0260e01b7bffffffffffffffffffffffffffffffffffffffffffffffffffffffff1916817bffffffffffffffffffffffffffffffffffffffffffffffffffffffff191614915050613389565b600190505b949350505050565b60008151905060006a636f6e736f6c652e6c6f679050602083016000808483855afa5050505050565b613450816040516024016133ce9190613aad565b6040516020818303038152906040527f41304fac000000000000000000000000000000000000000000000000000000007bffffffffffffffffffffffffffffffffffffffffffffffffffffffff19166020820180517bffffffffffffffffffffffffffffffffffffffffffffffffffffffff8381831617835250505050613391565b50565b61346d828260405180602001604052806000815250613494565b5050565b6000808273ffffffffffffffffffffffffffffffffffffffff163b119050919050565b61349e83836134ef565b6134ab600084848461320a565b6134ea576040517f08c379a00000000000000000000000000000000000000000000000000000000081526004016134e1906154ba565b60405180910390fd5b505050565b600073ffffffffffffffffffffffffffffffffffffffff168273ffffffffffffffffffffffffffffffffffffffff160361355e576040517f08c379a00000000000000000000000000000000000000000000000000000000081526004016135559061580f565b60405180910390fd5b6135678161234b565b156135a7576040517f08c379a000000000000000000000000000000000000000000000000000000000815260040161359e9061587b565b60405180910390fd5b6135b360008383613200565b6001600360008473ffffffffffffffffffffffffffffffffffffffff1673ffffffffffffffffffffffffffffffffffffffff16815260200190815260200160002060008282546136039190615386565b92505081905550816002600083815260200190815260200160002060006101000a81548173ffffffffffffffffffffffffffffffffffffffff021916908373ffffffffffffffffffffffffffffffffffffffff160217905550808273ffffffffffffffffffffffffffffffffffffffff16600073ffffffffffffffffffffffffffffffffffffffff167fddf252ad1be2c89b69c2b068fc378daa952ba7f163c4a11628f55a4df523b3ef60405160405180910390a46136c460008383613205565b5050565b8280546136d49061436c565b90600052602060002090601f0160209004810192826136f6576000855561373d565b82601f1061370f57805160ff191683800117855561373d565b8280016001018555821561373d579182015b8281111561373c578251825591602001919060010190613721565b5b50905061374a919061374e565b5090565b5b8082111561376757600081600090555060010161374f565b5090565b6000604051905090565b600080fd5b600080fd5b60007fffffffff0000000000000000000000000000000000000000000000000000000082169050919050565b6137b48161377f565b81146137bf57600080fd5b50565b6000813590506137d1816137ab565b92915050565b6000602082840312156137ed576137ec613775565b5b60006137fb848285016137c2565b91505092915050565b60008115159050919050565b61381981613804565b82525050565b60006020820190506138346000830184613810565b92915050565b6000819050919050565b61384d8161383a565b811461385857600080fd5b50565b60008135905061386a81613844565b92915050565b600080fd5b6000601f19601f8301169050919050565b7f4e487b7100000000000000000000000000000000000000000000000000000000600052604160045260246000fd5b6138be82613875565b810181811067ffffffffffffffff821117156138dd576138dc613886565b5b80604052505050565b60006138f061376b565b90506138fc82826138b5565b919050565b600067ffffffffffffffff82111561391c5761391b613886565b5b602082029050602081019050919050565b600080fd5b600061394561394084613901565b6138e6565b905080838252602082019050602084028301858111156139685761396761392d565b5b835b81811015613991578061397d888261385b565b84526020840193505060208101905061396a565b5050509392505050565b600082601f8301126139b0576139af613870565b5b81356139c0848260208601613932565b91505092915050565b600080604083850312156139e0576139df613775565b5b60006139ee8582860161385b565b925050602083013567ffffffffffffffff811115613a0f57613a0e61377a565b5b613a1b8582860161399b565b9150509250929050565b600081519050919050565b600082825260208201905092915050565b60005b83811015613a5f578082015181840152602081019050613a44565b83811115613a6e576000848401525b50505050565b6000613a7f82613a25565b613a898185613a30565b9350613a99818560208601613a41565b613aa281613875565b840191505092915050565b60006020820190508181036000830152613ac78184613a74565b905092915050565b600060208284031215613ae557613ae4613775565b5b6000613af38482850161385b565b91505092915050565b600073ffffffffffffffffffffffffffffffffffffffff82169050919050565b6000613b2782613afc565b9050919050565b613b3781613b1c565b82525050565b6000602082019050613b526000830184613b2e565b92915050565b613b6181613b1c565b8114613b6c57600080fd5b50565b600081359050613b7e81613b58565b92915050565b60008060408385031215613b9b57613b9a613775565b5b6000613ba985828601613b6f565b9250506020613bba8582860161385b565b9150509250929050565b6000819050919050565b6000613be9613be4613bdf84613afc565b613bc4565b613afc565b9050919050565b6000613bfb82613bce565b9050919050565b6000613c0d82613bf0565b9050919050565b613c1d81613c02565b82525050565b6000602082019050613c386000830184613c14565b92915050565b60006bffffffffffffffffffffffff82169050919050565b613c5f81613c3e565b82525050565b600067ffffffffffffffff82169050919050565b613c8281613c65565b82525050565b600081519050919050565b600082825260208201905092915050565b6000819050602082019050919050565b613cbd81613b1c565b82525050565b6000613ccf8383613cb4565b60208301905092915050565b6000602082019050919050565b6000613cf382613c88565b613cfd8185613c93565b9350613d0883613ca4565b8060005b83811015613d39578151613d208882613cc3565b9750613d2b83613cdb565b925050600181019050613d0c565b5085935050505092915050565b6000608082019050613d5b6000830187613c56565b613d686020830186613c79565b613d756040830185613b2e565b8181036060830152613d878184613ce8565b905095945050505050565b600060208284031215613da857613da7613775565b5b6000613db684828501613b6f565b91505092915050565b613dc88161383a565b82525050565b600060a0820190508181036000830152613de88188613a74565b90508181036020830152613dfc8187613a74565b9050613e0b6040830186613dbf565b613e186060830185613dbf565b613e256080830184613dbf565b9695505050505050565b600080600060608486031215613e4857613e47613775565b5b6000613e5686828701613b6f565b9350506020613e6786828701613b6f565b9250506040613e788682870161385b565b9150509250925092565b6000613e8d82613bf0565b9050919050565b613e9d81613e82565b82525050565b6000602082019050613eb86000830184613e94565b92915050565b600081519050919050565b600082825260208201905092915050565b6000819050602082019050919050565b613ef38161383a565b82525050565b600082825260208201905092915050565b6000613f1582613a25565b613f1f8185613ef9565b9350613f2f818560208601613a41565b613f3881613875565b840191505092915050565b600061010083016000830151613f5c6000860182613eea565b5060208301518482036020860152613f748282613f0a565b91505060408301518482036040860152613f8e8282613f0a565b9150506060830151613fa36060860182613eea565b506080830151613fb66080860182613eea565b5060a0830151613fc960a0860182613eea565b5060c0830151613fdc60c0860182613eea565b5060e0830151613fef60e0860182613eea565b508091505092915050565b60006140068383613f43565b905092915050565b6000602082019050919050565b600061402682613ebe565b6140308185613ec9565b93508360208202850161404285613eda565b8060005b8581101561407e578484038952815161405f8582613ffa565b945061406a8361400e565b925060208a01995050600181019050614046565b50829750879550505050505092915050565b600060208201905081810360008301526140aa818461401b565b905092915050565b60006020820190506140c76000830184613dbf565b92915050565b6000610100820190506140e3600083018b613dbf565b81810360208301526140f5818a613a74565b905081810360408301526141098189613a74565b90506141186060830188613dbf565b6141256080830187613dbf565b61413260a0830186613dbf565b61413f60c0830185613dbf565b61414c60e0830184613dbf565b9998505050505050505050565b61416281613804565b811461416d57600080fd5b50565b60008135905061417f81614159565b92915050565b6000806040838503121561419c5761419b613775565b5b60006141aa85828601613b6f565b92505060206141bb85828601614170565b9150509250929050565b600080fd5b600067ffffffffffffffff8211156141e5576141e4613886565b5b6141ee82613875565b9050602081019050919050565b82818337600083830152505050565b600061421d614218846141ca565b6138e6565b905082815260208101848484011115614239576142386141c5565b5b6142448482856141fb565b509392505050565b600082601f83011261426157614260613870565b5b813561427184826020860161420a565b91505092915050565b6000806000806080858703121561429457614293613775565b5b60006142a287828801613b6f565b94505060206142b387828801613b6f565b93505060406142c48782880161385b565b925050606085013567ffffffffffffffff8111156142e5576142e461377a565b5b6142f18782880161424c565b91505092959194509250565b6000806040838503121561431457614313613775565b5b600061432285828601613b6f565b925050602061433385828601613b6f565b9150509250929050565b7f4e487b7100000000000000000000000000000000000000000000000000000000600052602260045260246000fd5b6000600282049050600182168061438457607f821691505b6020821081036143975761439661433d565b5b50919050565b7f4552433732313a20617070726f76656420717565727920666f72206e6f6e657860008201527f697374656e7420746f6b656e0000000000000000000000000000000000000000602082015250565b60006143f9602c83613a30565b91506144048261439d565b604082019050919050565b60006020820190508181036000830152614428816143ec565b9050919050565b7f4552433732313a20617070726f76616c20746f2063757272656e74206f776e6560008201527f7200000000000000000000000000000000000000000000000000000000000000602082015250565b600061448b602183613a30565b91506144968261442f565b604082019050919050565b600060208201905081810360008301526144ba8161447e565b9050919050565b7f4552433732313a20617070726f76652063616c6c6572206973206e6f74206f7760008201527f6e6572206e6f7220617070726f76656420666f7220616c6c0000000000000000602082015250565b600061451d603883613a30565b9150614528826144c1565b604082019050919050565b6000602082019050818103600083015261454c81614510565b9050919050565b60006020820190506145686000830184613c79565b92915050565b61457781613c3e565b811461458257600080fd5b50565b6000815190506145948161456e565b92915050565b6145a381613c65565b81146145ae57600080fd5b50565b6000815190506145c08161459a565b92915050565b6000815190506145d581613b58565b92915050565b600067ffffffffffffffff8211156145f6576145f5613886565b5b602082029050602081019050919050565b600061461a614615846145db565b6138e6565b9050808382526020820190506020840283018581111561463d5761463c61392d565b5b835b81811015614666578061465288826145c6565b84526020840193505060208101905061463f565b5050509392505050565b600082601f83011261468557614684613870565b5b8151614695848260208601614607565b91505092915050565b600080600080608085870312156146b8576146b7613775565b5b60006146c687828801614585565b94505060206146d7878288016145b1565b93505060406146e8878288016145c6565b925050606085015167ffffffffffffffff8111156147095761470861377a565b5b61471587828801614670565b91505092959194509250565b7f43616c6c6572206d757374206265206f776e6572000000000000000000000000600082015250565b6000614757601483613a30565b915061476282614721565b602082019050919050565b600060208201905081810360008301526147868161474a565b9050919050565b60006040820190506147a26000830185613b2e565b6147af6020830184613b2e565b9392505050565b7f4552433732313a207472616e736665722063616c6c6572206973206e6f74206f60008201527f776e6572206e6f7220617070726f766564000000000000000000000000000000602082015250565b6000614812603183613a30565b915061481d826147b6565b604082019050919050565b6000602082019050818103600083015261484181614805565b9050919050565b7f4552433732313a206f776e657220717565727920666f72206e6f6e657869737460008201527f656e7420746f6b656e0000000000000000000000000000000000000000000000602082015250565b60006148a4602983613a30565b91506148af82614848565b604082019050919050565b600060208201905081810360008301526148d381614897565b9050919050565b7f4552433732313a2062616c616e636520717565727920666f7220746865207a6560008201527f726f206164647265737300000000000000000000000000000000000000000000602082015250565b6000614936602a83613a30565b9150614941826148da565b604082019050919050565b6000602082019050818103600083015261496581614929565b9050919050565b600081519050919050565b600082825260208201905092915050565b60006149938261496c565b61499d8185614977565b93506149ad818560208601613a41565b6149b681613875565b840191505092915050565b60006060820190506149d66000830186613b2e565b6149e36020830185613dbf565b81810360408301526149f58184614988565b9050949350505050565b600081519050614a0e81614159565b92915050565b600060208284031215614a2a57614a29613775565b5b6000614a38848285016149ff565b91505092915050565b600081905092915050565b7f7b226e616d65223a202200000000000000000000000000000000000000000000600082015250565b6000614a82600a83614a41565b9150614a8d82614a4c565b600a82019050919050565b6000614aa382613a25565b614aad8185614a41565b9350614abd818560208601613a41565b80840191505092915050565b7f202d2d204e465420233a20000000000000000000000000000000000000000000600082015250565b6000614aff600b83614a41565b9150614b0a82614ac9565b600b82019050919050565b7f222c20226465736372697074696f6e223a202241204865726f204e465420746860008201527f6174206c65747320796f7520706c6179204d6f6e7374657220536c617965722160208201527f222c2022696d616765223a202200000000000000000000000000000000000000604082015250565b6000614b97604d83614a41565b9150614ba282614b15565b604d82019050919050565b7f222c202261747472696275746573223a205b207b202274726169745f7479706560008201527f223a20224865616c746820506f696e7473222c202276616c7565223a20000000602082015250565b6000614c09603d83614a41565b9150614c1482614bad565b603d82019050919050565b7f2c20226d61785f76616c7565223a000000000000000000000000000000000000600082015250565b6000614c55600e83614a41565b9150614c6082614c1f565b600e82019050919050565b7f7d2c207b202274726169745f74797065223a202241747461636b2044616d616760008201527f65222c202276616c7565223a2000000000000000000000000000000000000000602082015250565b6000614cc7602d83614a41565b9150614cd282614c6b565b602d82019050919050565b7f7d2c207b202274726169745f74797065223a2022437269746963616c2044616d60008201527f616765204368616e6365222c202276616c7565223a2000000000000000000000602082015250565b6000614d39603683614a41565b9150614d4482614cdd565b603682019050919050565b7f7d2c207b202274726169745f74797065223a20224865616c696e6720506f776560008201527f72222c202276616c7565223a2000000000000000000000000000000000000000602082015250565b6000614dab602d83614a41565b9150614db682614d4f565b602d82019050919050565b7f7d205d7d00000000000000000000000000000000000000000000000000000000600082015250565b6000614df7600483614a41565b9150614e0282614dc1565b600482019050919050565b6000614e1882614a75565b9150614e24828e614a98565b9150614e2f82614af2565b9150614e3b828d614a98565b9150614e4682614b8a565b9150614e52828c614a98565b9150614e5d82614bfc565b9150614e69828b614a98565b9150614e7482614c48565b9150614e80828a614a98565b9150614e8b82614cba565b9150614e978289614a98565b9150614ea282614c48565b9150614eae8288614a98565b9150614eb982614d2c565b9150614ec58287614a98565b9150614ed082614c48565b9150614edc8286614a98565b9150614ee782614d9e565b9150614ef38285614a98565b9150614efe82614c48565b9150614f0a8284614a98565b9150614f1582614dea565b91508190509c9b505050505050505050505050565b7f646174613a6170706c69636174696f6e2f6a736f6e3b6261736536342c000000600082015250565b6000614f60601d83614a41565b9150614f6b82614f2a565b601d82019050919050565b6000614f8182614f53565b9150614f8d8284614a98565b915081905092915050565b7f4e487b7100000000000000000000000000000000000000000000000000000000600052603260045260246000fd5b7f4e487b7100000000000000000000000000000000000000000000000000000000600052601160045260246000fd5b60006150018261383a565b915061500c8361383a565b92508282101561501f5761501e614fc7565b5b828203905092915050565b60006150358261383a565b91507fffffffffffffffffffffffffffffffffffffffffffffffffffffffffffffffff820361506757615066614fc7565b5b600182019050919050565b7f546869732061646472657373206861732072656163686564206d6178696d756d60008201527f204e465420616d6f756e74000000000000000000000000000000000000000000602082015250565b60006150ce602b83613a30565b91506150d982615072565b604082019050919050565b600060208201905081810360008301526150fd816150c1565b9050919050565b7f5061796d656e74206973206e6f7420636f727265637400000000000000000000600082015250565b600061513a601683613a30565b915061514582615104565b602082019050919050565b600060208201905081810360008301526151698161512d565b9050919050565b7f4e487b7100000000000000000000000000000000000000000000000000000000600052601260045260246000fd5b60006151aa8261383a565b91506151b58361383a565b9250826151c5576151c4615170565b5b828206905092915050565b7f4552433732313a206f70657261746f7220717565727920666f72206e6f6e657860008201527f697374656e7420746f6b656e0000000000000000000000000000000000000000602082015250565b600061522c602c83613a30565b9150615237826151d0565b604082019050919050565b6000602082019050818103600083015261525b8161521f565b9050919050565b7f4552433732313a207472616e736665722066726f6d20696e636f72726563742060008201527f6f776e6572000000000000000000000000000000000000000000000000000000602082015250565b60006152be602583613a30565b91506152c982615262565b604082019050919050565b600060208201905081810360008301526152ed816152b1565b9050919050565b7f4552433732313a207472616e7366657220746f20746865207a65726f2061646460008201527f7265737300000000000000000000000000000000000000000000000000000000602082015250565b6000615350602483613a30565b915061535b826152f4565b604082019050919050565b6000602082019050818103600083015261537f81615343565b9050919050565b60006153918261383a565b915061539c8361383a565b9250827fffffffffffffffffffffffffffffffffffffffffffffffffffffffffffffffff038211156153d1576153d0614fc7565b5b828201905092915050565b7f4552433732313a20617070726f766520746f2063616c6c657200000000000000600082015250565b6000615412601983613a30565b915061541d826153dc565b602082019050919050565b6000602082019050818103600083015261544181615405565b9050919050565b7f4552433732313a207472616e7366657220746f206e6f6e20455243373231526560008201527f63656976657220696d706c656d656e7465720000000000000000000000000000602082015250565b60006154a4603283613a30565b91506154af82615448565b604082019050919050565b600060208201905081810360008301526154d381615497565b9050919050565b60006154e58261383a565b91506154f08361383a565b925082615500576154ff615170565b5b828204905092915050565b60006155168261383a565b91506155218361383a565b9250817fffffffffffffffffffffffffffffffffffffffffffffffffffffffffffffffff048311821515161561555a57615559614fc7565b5b828202905092915050565b6000608082019050818103600083015261557f8187613a74565b905081810360208301526155938186613a74565b90506155a26040830185613dbf565b6155af6060830184613dbf565b95945050505050565b6000819050919050565b6155cb816155b8565b82525050565b6000819050919050565b600061ffff82169050919050565b60006156046155ff6155fa846155d1565b613bc4565b6155db565b9050919050565b615614816155e9565b82525050565b6000819050919050565b600063ffffffff82169050919050565b600061564f61564a6156458461561a565b613bc4565b615624565b9050919050565b61565f81615634565b82525050565b6000819050919050565b600061568a61568561568084615665565b613bc4565b615624565b9050919050565b61569a8161566f565b82525050565b600060a0820190506156b560008301886155c2565b6156c26020830187613c79565b6156cf604083018661560b565b6156dc6060830185615656565b6156e96080830184615691565b9695505050505050565b60008151905061570281613844565b92915050565b60006020828403121561571e5761571d613775565b5b600061572c848285016156f3565b91505092915050565b600060808201905061574a6000830187613b2e565b6157576020830186613b2e565b6157646040830185613dbf565b81810360608301526157768184614988565b905095945050505050565b600081519050615790816137ab565b92915050565b6000602082840312156157ac576157ab613775565b5b60006157ba84828501615781565b91505092915050565b7f4552433732313a206d696e7420746f20746865207a65726f2061646472657373600082015250565b60006157f9602083613a30565b9150615804826157c3565b602082019050919050565b60006020820190508181036000830152615828816157ec565b9050919050565b7f4552433732313a20746f6b656e20616c7265616479206d696e74656400000000600082015250565b6000615865601c83613a30565b91506158708261582f565b602082019050919050565b6000602082019050818103600083015261589481615858565b905091905056fe4142434445464748494a4b4c4d4e4f505152535455565758595a6162636465666768696a6b6c6d6e6f707172737475767778797a303132333435363738392b2f4865726f2025732061747461636b696e672c2068617320257320485020616e64202573204144a2646970667358221220c10cdc1d12ef5af0786f363a6cb913a70062dfc197ab60edc7651ef2518e7c1264736f6c634300080d0033",
  "linkReferences": {},
  "deployedLinkReferences": {}
}