{
  "_format": "hh-sol-artifact-1",
  "contractName": "Game",
  "sourceName": "contracts/Game.sol",
  "abi": [
    {
      "inputs": [
        {
          "internalType": "address",
          "name": "_coordinatorAddress",
          "type": "address"
        }
      ],
      "stateMutability": "nonpayable",
      "type": "constructor"
    },
    {
      "inputs": [
        {
          "internalType": "address",
          "name": "have",
          "type": "address"
        },
        {
          "internalType": "address",
          "name": "want",
          "type": "address"
        }
      ],
      "name": "OnlyCoordinatorCanFulfill",
      "type": "error"
    },
    {
      "anonymous": false,
      "inputs": [
        {
          "indexed": true,
          "internalType": "address",
          "name": "owner",
          "type": "address"
        },
        {
          "indexed": true,
          "internalType": "address",
          "name": "approved",
          "type": "address"
        },
        {
          "indexed": true,
          "internalType": "uint256",
          "name": "tokenId",
          "type": "uint256"
        }
      ],
      "name": "Approval",
      "type": "event"
    },
    {
      "anonymous": false,
      "inputs": [
        {
          "indexed": true,
          "internalType": "address",
          "name": "owner",
          "type": "address"
        },
        {
          "indexed": true,
          "internalType": "address",
          "name": "operator",
          "type": "address"
        },
        {
          "indexed": false,
          "internalType": "bool",
          "name": "approved",
          "type": "bool"
        }
      ],
      "name": "ApprovalForAll",
      "type": "event"
    },
    {
      "anonymous": false,
      "inputs": [
        {
          "indexed": true,
          "internalType": "address",
          "name": "attacker",
          "type": "address"
        },
        {
          "indexed": true,
          "internalType": "uint256",
          "name": "tokenId",
          "type": "uint256"
        },
        {
          "indexed": true,
          "internalType": "uint256",
          "name": "bossIndex",
          "type": "uint256"
        },
        {
          "indexed": false,
          "internalType": "uint256",
          "name": "newHeroHp",
          "type": "uint256"
        },
        {
          "indexed": false,
          "internalType": "uint256",
          "name": "newBossHp",
          "type": "uint256"
        }
      ],
      "name": "BossAttack",
      "type": "event"
    },
    {
      "anonymous": false,
      "inputs": [
        {
          "indexed": true,
          "internalType": "address",
          "name": "attacker",
          "type": "address"
        },
        {
          "indexed": true,
          "internalType": "uint256",
          "name": "tokenId",
          "type": "uint256"
        },
        {
          "indexed": true,
          "internalType": "uint256",
          "name": "bossIndex",
          "type": "uint256"
        }
      ],
      "name": "BossDead",
      "type": "event"
    },
    {
      "anonymous": false,
      "inputs": [
        {
          "indexed": true,
          "internalType": "address",
          "name": "attacker",
          "type": "address"
        },
        {
          "indexed": true,
          "internalType": "uint256",
          "name": "tokenId",
          "type": "uint256"
        },
        {
          "indexed": true,
          "internalType": "uint256",
          "name": "bossIndex",
          "type": "uint256"
        },
        {
          "indexed": false,
          "internalType": "uint256",
          "name": "newHeroHp",
          "type": "uint256"
        },
        {
          "indexed": false,
          "internalType": "uint256",
          "name": "newBossHp",
          "type": "uint256"
        }
      ],
      "name": "HeroAttack",
      "type": "event"
    },
    {
      "anonymous": false,
      "inputs": [
        {
          "indexed": true,
          "internalType": "address",
          "name": "attacker",
          "type": "address"
        },
        {
          "indexed": true,
          "internalType": "uint256",
          "name": "tokenId",
          "type": "uint256"
        }
      ],
      "name": "HeroDead",
      "type": "event"
    },
    {
      "anonymous": false,
      "inputs": [
        {
          "indexed": true,
          "internalType": "address",
          "name": "owner",
          "type": "address"
        },
        {
          "indexed": true,
          "internalType": "uint256",
          "name": "tokenId",
          "type": "uint256"
        },
        {
          "indexed": false,
          "internalType": "uint256",
          "name": "defaultIndex",
          "type": "uint256"
        }
      ],
      "name": "Mint",
      "type": "event"
    },
    {
      "anonymous": false,
      "inputs": [
        {
          "indexed": true,
          "internalType": "uint256",
          "name": "bossIndex",
          "type": "uint256"
        }
      ],
      "name": "NewBoss",
      "type": "event"
    },
    {
      "anonymous": false,
      "inputs": [
        {
          "indexed": true,
          "internalType": "address",
          "name": "oldOwner",
          "type": "address"
        },
        {
          "indexed": true,
          "internalType": "address",
          "name": "newOwner",
          "type": "address"
        }
      ],
      "name": "OwnerChanged",
      "type": "event"
    },
    {
      "anonymous": false,
      "inputs": [
        {
          "indexed": true,
          "internalType": "address",
          "name": "from",
          "type": "address"
        },
        {
          "indexed": true,
          "internalType": "address",
          "name": "to",
          "type": "address"
        },
        {
          "indexed": true,
          "internalType": "uint256",
          "name": "tokenId",
          "type": "uint256"
        }
      ],
      "name": "Transfer",
      "type": "event"
    },
    {
      "inputs": [
        {
          "internalType": "address",
          "name": "to",
          "type": "address"
        },
        {
          "internalType": "uint256",
          "name": "tokenId",
          "type": "uint256"
        }
      ],
      "name": "approve",
      "outputs": [],
      "stateMutability": "nonpayable",
      "type": "function"
    },
    {
      "inputs": [],
      "name": "attackBoss",
      "outputs": [],
      "stateMutability": "nonpayable",
      "type": "function"
    },
    {
      "inputs": [
        {
          "internalType": "address",
          "name": "owner",
          "type": "address"
        }
      ],
      "name": "balanceOf",
      "outputs": [
        {
          "internalType": "uint256",
          "name": "",
          "type": "uint256"
        }
      ],
      "stateMutability": "view",
      "type": "function"
    },
    {
      "inputs": [],
      "name": "callbackGas",
      "outputs": [
        {
          "internalType": "uint32",
          "name": "",
          "type": "uint32"
        }
      ],
      "stateMutability": "view",
      "type": "function"
    },
    {
      "inputs": [],
      "name": "coordinator",
      "outputs": [
        {
          "internalType": "contract VRFCoordinatorV2Interface",
          "name": "",
          "type": "address"
        }
      ],
      "stateMutability": "view",
      "type": "function"
    },
    {
      "inputs": [],
      "name": "currentBoss",
      "outputs": [
        {
          "internalType": "uint256",
          "name": "index",
          "type": "uint256"
        },
        {
          "internalType": "string",
          "name": "name",
          "type": "string"
        },
        {
          "internalType": "string",
          "name": "imageUri",
          "type": "string"
        },
        {
          "internalType": "uint256",
          "name": "hp",
          "type": "uint256"
        },
        {
          "internalType": "uint256",
          "name": "maxHp",
          "type": "uint256"
        },
        {
          "internalType": "uint256",
          "name": "damage",
          "type": "uint256"
        }
      ],
      "stateMutability": "view",
      "type": "function"
    },
    {
      "inputs": [
        {
          "internalType": "uint256",
          "name": "",
          "type": "uint256"
        }
      ],
      "name": "defaultBosses",
      "outputs": [
        {
          "internalType": "uint256",
          "name": "index",
          "type": "uint256"
        },
        {
          "internalType": "string",
          "name": "name",
          "type": "string"
        },
        {
          "internalType": "string",
          "name": "imageUri",
          "type": "string"
        },
        {
          "internalType": "uint256",
          "name": "hp",
          "type": "uint256"
        },
        {
          "internalType": "uint256",
          "name": "maxHp",
          "type": "uint256"
        },
        {
          "internalType": "uint256",
          "name": "damage",
          "type": "uint256"
        }
      ],
      "stateMutability": "view",
      "type": "function"
    },
    {
      "inputs": [
        {
          "internalType": "uint256",
          "name": "",
          "type": "uint256"
        }
      ],
      "name": "defaultHeroes",
      "outputs": [
        {
          "internalType": "uint256",
          "name": "index",
          "type": "uint256"
        },
        {
          "internalType": "uint256",
          "name": "birthDate",
          "type": "uint256"
        },
        {
          "internalType": "string",
          "name": "name",
          "type": "string"
        },
        {
          "internalType": "string",
          "name": "imageUri",
          "type": "string"
        },
        {
          "internalType": "uint256",
          "name": "hp",
          "type": "uint256"
        },
        {
          "internalType": "uint256",
          "name": "maxHp",
          "type": "uint256"
        },
        {
          "internalType": "uint256",
          "name": "damage",
          "type": "uint256"
        },
        {
          "internalType": "uint256",
          "name": "crit",
          "type": "uint256"
        },
        {
          "internalType": "uint256",
          "name": "heal",
          "type": "uint256"
        }
      ],
      "stateMutability": "view",
      "type": "function"
    },
    {
      "inputs": [],
      "name": "fundSubscription",
      "outputs": [],
      "stateMutability": "nonpayable",
      "type": "function"
    },
    {
      "inputs": [
        {
          "internalType": "uint256",
          "name": "tokenId",
          "type": "uint256"
        }
      ],
      "name": "getApproved",
      "outputs": [
        {
          "internalType": "address",
          "name": "",
          "type": "address"
        }
      ],
      "stateMutability": "view",
      "type": "function"
    },
    {
      "inputs": [],
      "name": "getDefaultBosses",
      "outputs": [
        {
          "components": [
            {
              "internalType": "uint256",
              "name": "index",
              "type": "uint256"
            },
            {
              "internalType": "string",
              "name": "name",
              "type": "string"
            },
            {
              "internalType": "string",
              "name": "imageUri",
              "type": "string"
            },
            {
              "internalType": "uint256",
              "name": "hp",
              "type": "uint256"
            },
            {
              "internalType": "uint256",
              "name": "maxHp",
              "type": "uint256"
            },
            {
              "internalType": "uint256",
              "name": "damage",
              "type": "uint256"
            }
          ],
          "internalType": "struct Game.Boss[]",
          "name": "",
          "type": "tuple[]"
        }
      ],
      "stateMutability": "view",
      "type": "function"
    },
    {
      "inputs": [],
      "name": "getDefaultHeroes",
      "outputs": [
        {
          "components": [
            {
              "internalType": "uint256",
              "name": "index",
              "type": "uint256"
            },
            {
              "internalType": "uint256",
              "name": "birthDate",
              "type": "uint256"
            },
            {
              "internalType": "string",
              "name": "name",
              "type": "string"
            },
            {
              "internalType": "string",
              "name": "imageUri",
              "type": "string"
            },
            {
              "internalType": "uint256",
              "name": "hp",
              "type": "uint256"
            },
            {
              "internalType": "uint256",
              "name": "maxHp",
              "type": "uint256"
            },
            {
              "internalType": "uint256",
              "name": "damage",
              "type": "uint256"
            },
            {
              "internalType": "uint256",
              "name": "crit",
              "type": "uint256"
            },
            {
              "internalType": "uint256",
              "name": "heal",
              "type": "uint256"
            }
          ],
          "internalType": "struct Game.Hero[]",
          "name": "",
          "type": "tuple[]"
        }
      ],
      "stateMutability": "view",
      "type": "function"
    },
    {
      "inputs": [],
      "name": "getSubscriptionDetails",
      "outputs": [
        {
          "internalType": "uint96",
          "name": "",
          "type": "uint96"
        },
        {
          "internalType": "uint64",
          "name": "",
          "type": "uint64"
        },
        {
          "internalType": "address",
          "name": "",
          "type": "address"
        },
        {
          "internalType": "address[]",
          "name": "",
          "type": "address[]"
        }
      ],
      "stateMutability": "view",
      "type": "function"
    },
    {
      "inputs": [
        {
          "internalType": "address",
          "name": "user",
          "type": "address"
        }
      ],
      "name": "getUserHeroes",
      "outputs": [
        {
          "components": [
            {
              "internalType": "uint256",
              "name": "index",
              "type": "uint256"
            },
            {
              "internalType": "uint256",
              "name": "birthDate",
              "type": "uint256"
            },
            {
              "internalType": "string",
              "name": "name",
              "type": "string"
            },
            {
              "internalType": "string",
              "name": "imageUri",
              "type": "string"
            },
            {
              "internalType": "uint256",
              "name": "hp",
              "type": "uint256"
            },
            {
              "internalType": "uint256",
              "name": "maxHp",
              "type": "uint256"
            },
            {
              "internalType": "uint256",
              "name": "damage",
              "type": "uint256"
            },
            {
              "internalType": "uint256",
              "name": "crit",
              "type": "uint256"
            },
            {
              "internalType": "uint256",
              "name": "heal",
              "type": "uint256"
            }
          ],
          "internalType": "struct Game.Hero[]",
          "name": "",
          "type": "tuple[]"
        }
      ],
      "stateMutability": "view",
      "type": "function"
    },
    {
      "inputs": [
        {
          "internalType": "address",
          "name": "owner",
          "type": "address"
        },
        {
          "internalType": "address",
          "name": "operator",
          "type": "address"
        }
      ],
      "name": "isApprovedForAll",
      "outputs": [
        {
          "internalType": "bool",
          "name": "",
          "type": "bool"
        }
      ],
      "stateMutability": "view",
      "type": "function"
    },
    {
      "inputs": [
        {
          "internalType": "address",
          "name": "",
          "type": "address"
        }
      ],
      "name": "isMinting",
      "outputs": [
        {
          "internalType": "bool",
          "name": "",
          "type": "bool"
        }
      ],
      "stateMutability": "view",
      "type": "function"
    },
    {
      "inputs": [],
      "name": "linkToken",
      "outputs": [
        {
          "internalType": "contract LinkTokenInterface",
          "name": "",
          "type": "address"
        }
      ],
      "stateMutability": "view",
      "type": "function"
    },
    {
      "inputs": [],
      "name": "maxTokenAmount",
      "outputs": [
        {
          "internalType": "uint256",
          "name": "",
          "type": "uint256"
        }
      ],
      "stateMutability": "view",
      "type": "function"
    },
    {
      "inputs": [],
      "name": "minConfirmations",
      "outputs": [
        {
          "internalType": "uint16",
          "name": "",
          "type": "uint16"
        }
      ],
      "stateMutability": "view",
      "type": "function"
    },
    {
      "inputs": [],
      "name": "mintCost",
      "outputs": [
        {
          "internalType": "uint256",
          "name": "",
          "type": "uint256"
        }
      ],
      "stateMutability": "view",
      "type": "function"
    },
    {
      "inputs": [],
      "name": "mintHero",
      "outputs": [],
      "stateMutability": "payable",
      "type": "function"
    },
    {
      "inputs": [],
      "name": "name",
      "outputs": [
        {
          "internalType": "string",
          "name": "",
          "type": "string"
        }
      ],
      "stateMutability": "view",
      "type": "function"
    },
    {
      "inputs": [
        {
          "internalType": "uint256",
          "name": "",
          "type": "uint256"
        }
      ],
      "name": "nftHero",
      "outputs": [
        {
          "internalType": "uint256",
          "name": "index",
          "type": "uint256"
        },
        {
          "internalType": "uint256",
          "name": "birthDate",
          "type": "uint256"
        },
        {
          "internalType": "string",
          "name": "name",
          "type": "string"
        },
        {
          "internalType": "string",
          "name": "imageUri",
          "type": "string"
        },
        {
          "internalType": "uint256",
          "name": "hp",
          "type": "uint256"
        },
        {
          "internalType": "uint256",
          "name": "maxHp",
          "type": "uint256"
        },
        {
          "internalType": "uint256",
          "name": "damage",
          "type": "uint256"
        },
        {
          "internalType": "uint256",
          "name": "crit",
          "type": "uint256"
        },
        {
          "internalType": "uint256",
          "name": "heal",
          "type": "uint256"
        }
      ],
      "stateMutability": "view",
      "type": "function"
    },
    {
      "inputs": [
        {
          "internalType": "address",
          "name": "",
          "type": "address"
        },
        {
          "internalType": "uint256",
          "name": "",
          "type": "uint256"
        }
      ],
      "name": "nftHolders",
      "outputs": [
        {
          "internalType": "uint256",
          "name": "",
          "type": "uint256"
        }
      ],
      "stateMutability": "view",
      "type": "function"
    },
    {
      "inputs": [],
      "name": "numWords",
      "outputs": [
        {
          "internalType": "uint32",
          "name": "",
          "type": "uint32"
        }
      ],
      "stateMutability": "view",
      "type": "function"
    },
    {
      "inputs": [],
      "name": "owner",
      "outputs": [
        {
          "internalType": "address",
          "name": "",
          "type": "address"
        }
      ],
      "stateMutability": "view",
      "type": "function"
    },
    {
      "inputs": [
        {
          "internalType": "uint256",
          "name": "tokenId",
          "type": "uint256"
        }
      ],
      "name": "ownerOf",
      "outputs": [
        {
          "internalType": "address",
          "name": "",
          "type": "address"
        }
      ],
      "stateMutability": "view",
      "type": "function"
    },
    {
      "inputs": [
        {
          "internalType": "uint256",
          "name": "requestId",
          "type": "uint256"
        },
        {
          "internalType": "uint256[]",
          "name": "randomWords",
          "type": "uint256[]"
        }
      ],
      "name": "rawFulfillRandomWords",
      "outputs": [],
      "stateMutability": "nonpayable",
      "type": "function"
    },
    {
      "inputs": [
        {
          "internalType": "address",
          "name": "from",
          "type": "address"
        },
        {
          "internalType": "address",
          "name": "to",
          "type": "address"
        },
        {
          "internalType": "uint256",
          "name": "tokenId",
          "type": "uint256"
        }
      ],
      "name": "safeTransferFrom",
      "outputs": [],
      "stateMutability": "nonpayable",
      "type": "function"
    },
    {
      "inputs": [
        {
          "internalType": "address",
          "name": "from",
          "type": "address"
        },
        {
          "internalType": "address",
          "name": "to",
          "type": "address"
        },
        {
          "internalType": "uint256",
          "name": "tokenId",
          "type": "uint256"
        },
        {
          "internalType": "bytes",
          "name": "_data",
          "type": "bytes"
        }
      ],
      "name": "safeTransferFrom",
      "outputs": [],
      "stateMutability": "nonpayable",
      "type": "function"
    },
    {
      "inputs": [
        {
          "internalType": "address",
          "name": "operator",
          "type": "address"
        },
        {
          "internalType": "bool",
          "name": "approved",
          "type": "bool"
        }
      ],
      "name": "setApprovalForAll",
      "outputs": [],
      "stateMutability": "nonpayable",
      "type": "function"
    },
    {
      "inputs": [
        {
          "internalType": "string[]",
          "name": "bossNames",
          "type": "string[]"
        },
        {
          "internalType": "string[]",
          "name": "bossImageUris",
          "type": "string[]"
        },
        {
          "internalType": "uint256[]",
          "name": "bossHps",
          "type": "uint256[]"
        },
        {
          "internalType": "uint256[]",
          "name": "bossDamage",
          "type": "uint256[]"
        }
      ],
      "name": "setBosses",
      "outputs": [],
      "stateMutability": "nonpayable",
      "type": "function"
    },
    {
      "inputs": [
        {
          "internalType": "string",
          "name": "bossName",
          "type": "string"
        },
        {
          "internalType": "string",
          "name": "bossImageUri",
          "type": "string"
        },
        {
          "internalType": "uint256",
          "name": "bossHp",
          "type": "uint256"
        },
        {
          "internalType": "uint256",
          "name": "bossDamage",
          "type": "uint256"
        }
      ],
      "name": "setCurrentBoss",
      "outputs": [],
      "stateMutability": "nonpayable",
      "type": "function"
    },
    {
      "inputs": [
        {
          "internalType": "string[]",
          "name": "names",
          "type": "string[]"
        },
        {
          "internalType": "string[]",
          "name": "imageUris",
          "type": "string[]"
        },
        {
          "internalType": "uint256[]",
          "name": "hps",
          "type": "uint256[]"
        },
        {
          "internalType": "uint256[]",
          "name": "damages",
          "type": "uint256[]"
        },
        {
          "internalType": "uint256[]",
          "name": "crits",
          "type": "uint256[]"
        },
        {
          "internalType": "uint256[]",
          "name": "heals",
          "type": "uint256[]"
        }
      ],
      "name": "setHeroes",
      "outputs": [],
      "stateMutability": "nonpayable",
      "type": "function"
    },
    {
      "inputs": [],
      "name": "setInitialized",
      "outputs": [],
      "stateMutability": "nonpayable",
      "type": "function"
    },
    {
      "inputs": [
        {
          "internalType": "uint256",
          "name": "amount",
          "type": "uint256"
        }
      ],
      "name": "setMaxTokenAmount",
      "outputs": [],
      "stateMutability": "nonpayable",
      "type": "function"
    },
    {
      "inputs": [
        {
          "internalType": "uint256",
          "name": "cost",
          "type": "uint256"
        }
      ],
      "name": "setMintCost",
      "outputs": [],
      "stateMutability": "nonpayable",
      "type": "function"
    },
    {
      "inputs": [
        {
          "internalType": "address",
          "name": "newOwner",
          "type": "address"
        }
      ],
      "name": "setOwner",
      "outputs": [],
      "stateMutability": "nonpayable",
      "type": "function"
    },
    {
      "inputs": [
        {
          "internalType": "address",
          "name": "linkTokenAddress_",
          "type": "address"
        },
        {
          "internalType": "bytes32",
          "name": "keyHash_",
          "type": "bytes32"
        }
      ],
      "name": "setVRF",
      "outputs": [],
      "stateMutability": "nonpayable",
      "type": "function"
    },
    {
      "inputs": [
        {
          "internalType": "uint16",
          "name": "confirmations",
          "type": "uint16"
        },
        {
          "internalType": "uint32",
          "name": "gas",
          "type": "uint32"
        },
        {
          "internalType": "uint32",
          "name": "words",
          "type": "uint32"
        }
      ],
      "name": "setVRFSettings",
      "outputs": [],
      "stateMutability": "nonpayable",
      "type": "function"
    },
    {
      "inputs": [],
      "name": "spawnNewBoss",
      "outputs": [],
      "stateMutability": "nonpayable",
      "type": "function"
    },
    {
      "inputs": [
        {
          "internalType": "bytes4",
          "name": "interfaceId",
          "type": "bytes4"
        }
      ],
      "name": "supportsInterface",
      "outputs": [
        {
          "internalType": "bool",
          "name": "",
          "type": "bool"
        }
      ],
      "stateMutability": "view",
      "type": "function"
    },
    {
      "inputs": [],
      "name": "symbol",
      "outputs": [
        {
          "internalType": "string",
          "name": "",
          "type": "string"
        }
      ],
      "stateMutability": "view",
      "type": "function"
    },
    {
      "inputs": [
        {
          "internalType": "uint256",
          "name": "requestId",
          "type": "uint256"
        },
        {
          "internalType": "uint256[]",
          "name": "randomWords",
          "type": "uint256[]"
        }
      ],
      "name": "testFulfillRandomWords",
      "outputs": [],
      "stateMutability": "nonpayable",
      "type": "function"
    },
    {
      "inputs": [],
      "name": "testRequestId",
      "outputs": [
        {
          "internalType": "uint256",
          "name": "",
          "type": "uint256"
        }
      ],
      "stateMutability": "view",
      "type": "function"
    },
    {
      "inputs": [
        {
          "internalType": "uint256",
          "name": "tokenId",
          "type": "uint256"
        }
      ],
      "name": "tokenURI",
      "outputs": [
        {
          "internalType": "string",
          "name": "",
          "type": "string"
        }
      ],
      "stateMutability": "view",
      "type": "function"
    },
    {
      "inputs": [],
      "name": "totalSupply",
      "outputs": [
        {
          "internalType": "uint256",
          "name": "",
          "type": "uint256"
        }
      ],
      "stateMutability": "view",
      "type": "function"
    },
    {
      "inputs": [
        {
          "internalType": "address",
          "name": "from",
          "type": "address"
        },
        {
          "internalType": "address",
          "name": "to",
          "type": "address"
        },
        {
          "internalType": "uint256",
          "name": "tokenId",
          "type": "uint256"
        }
      ],
      "name": "transferFrom",
      "outputs": [],
      "stateMutability": "nonpayable",
      "type": "function"
    },
    {
      "inputs": [],
      "name": "withdrawEther",
      "outputs": [],
      "stateMutability": "nonpayable",
      "type": "function"
    },
    {
      "stateMutability": "payable",
      "type": "receive"
    }
  ],
  "bytecode": "0x60a060405260026007556000600855600980546001600160501b0319166601000f424000031790553480156200003457600080fd5b506040516200616938038062006169833981016040819052620000579162000207565b60408051808201825260068152654865726f657360d01b6020808301918252835180850190945260048452634865726f60e01b908401528151849391620000a2916000919062000127565b508051620000b890600190602084019062000127565b5050506001600160a01b039081166080528116620000f35760405162461bcd60e51b8152600401620000ea9062000234565b60405180910390fd5b60068054336001600160a01b031991821617909155601780549091166001600160a01b0392909216919091179055620002c0565b828054620001359062000290565b90600052602060002090601f016020900481019282620001595760008555620001a4565b82601f106200017457805160ff1916838001178555620001a4565b82800160010185558215620001a4579182015b82811115620001a457825182559160200191906001019062000187565b50620001b2929150620001b6565b5090565b5b80821115620001b25760008155600101620001b7565b60006001600160a01b0382165b92915050565b620001eb81620001cd565b8114620001f757600080fd5b50565b8051620001da81620001e0565b6000602082840312156200021e576200021e600080fd5b60006200022c8484620001fa565b949350505050565b60208082528101620001da81602181527f436f6f7264696e61746f722063616e2774206265207a65726f206164647265736020820152607360f81b604082015260600190565b634e487b7160e01b600052602260045260246000fd5b600281046001821680620002a557607f821691505b602082108103620002ba57620002ba6200027a565b50919050565b608051615e86620002e360003960008181610ef50152610f1d0152615e866000f3fe6080604052600436106103225760003560e01c80637ef7bf33116101a5578063b88d4fde116100ec578063cdf7d85611610095578063e7c4393e1161006f578063e7c4393e14610909578063e90f077c14610931578063e920033714610946578063e985e9c51461094e57600080fd5b8063cdf7d856146108a7578063d4f24c5b146108d4578063dfbb1543146108e957600080fd5b8063c2302e5e116100c6578063c2302e5e14610837578063c396baca14610867578063c87b56dd1461088757600080fd5b8063b88d4fde146107e1578063bdb4b84814610801578063bea173871461081757600080fd5b80638da5cb5b1161014e578063a22cb46511610128578063a22cb46514610781578063b839a80e146107a1578063b87cc46e146107c157600080fd5b80638da5cb5b1461072957806395d89b4114610749578063a10132ad1461075e57600080fd5b80638545f4ea1161017f5780638545f4ea146106de578063856f8c35146106fe5780638a926d0f1461071357600080fd5b80637ef7bf331461068757806380192821146106a9578063812bc25e146106be57600080fd5b80632e34ebf8116102695780636352211e116102125780637362377b116101ec5780637362377b1461061e578063775bb50e146106335780637ccfd7fc1461065357600080fd5b80636352211e146105c8578063657633ad146105e857806370a08231146105fe57600080fd5b80634ca59d77116102435780634ca59d771461055e57806357970e931461059357806357ace39b146105b357600080fd5b80632e34ebf8146104ec57806342842e0e1461051e578063438fb2b01461053e57600080fd5b80630a009097116102cb57806318160ddd116102a557806318160ddd1461048a5780631fe543e3146104ac57806323b872dd146104cc57600080fd5b80630a0090971461040a5780630d5de6df1461044557806313af40351461046a57600080fd5b806306fdde03116102fc57806306fdde031461039b578063081812fc146103bd578063095ea7b3146103ea57600080fd5b806301ffc9a71461032e57806302c4d72b14610364578063062c01651461038657600080fd5b3661032957005b600080fd5b34801561033a57600080fd5b5061034e610349366004613e10565b610997565b60405161035b9190613e3b565b60405180910390f35b34801561037057600080fd5b5061038461037f366004613f98565b610a7c565b005b34801561039257600080fd5b50610384610abd565b3480156103a757600080fd5b506103b0610bbf565b60405161035b919061406c565b3480156103c957600080fd5b506103dd6103d8366004614084565b610c51565b60405161035b91906140bf565b3480156103f657600080fd5b506103846104053660046140e1565b610ca1565b34801561041657600080fd5b50600954610438906a010000000000000000000090046001600160a01b031681565b60405161035b9190614133565b34801561045157600080fd5b5061045a610d44565b60405161035b94939291906141c2565b34801561047657600080fd5b50610384610485366004614206565b610e20565b34801561049657600080fd5b5061049f610eda565b60405161035b919061422d565b3480156104b857600080fd5b506103846104c7366004613f98565b610eea565b3480156104d857600080fd5b506103846104e736600461423b565b610f70565b3480156104f857600080fd5b5061050c610507366004614084565b610fa1565b60405161035b9695949392919061428b565b34801561052a57600080fd5b5061038461053936600461423b565b6110f9565b34801561054a57600080fd5b506103846105593660046143a8565b611114565b34801561056a57600080fd5b5061057e610579366004614084565b6111ce565b60405161035b99989796959493929190614441565b34801561059f57600080fd5b50600a54610438906001600160a01b031681565b3480156105bf57600080fd5b5061038461133c565b3480156105d457600080fd5b506103dd6105e3366004614084565b61152e565b3480156105f457600080fd5b5061049f601c5481565b34801561060a57600080fd5b5061049f610619366004614206565b611563565b34801561062a57600080fd5b506103846115a7565b34801561063f57600080fd5b5061049f61064e3660046140e1565b61164d565b34801561065f57600080fd5b5060095461067a906601000000000000900463ffffffff1681565b60405161035b91906144e1565b34801561069357600080fd5b5061069c61167e565b60405161035b91906145e2565b3480156106b557600080fd5b50610384611829565b3480156106ca57600080fd5b5061057e6106d9366004614084565b6118b7565b3480156106ea57600080fd5b506103846106f9366004614084565b6118df565b34801561070a57600080fd5b5061050c61190e565b34801561071f57600080fd5b5061049f60075481565b34801561073557600080fd5b506006546103dd906001600160a01b031681565b34801561075557600080fd5b506103b0611922565b34801561076a57600080fd5b5060095461067a9062010000900463ffffffff1681565b34801561078d57600080fd5b5061038461079c366004614606565b611931565b3480156107ad57600080fd5b506103846107bc366004614084565b61193c565b3480156107cd57600080fd5b506103846107dc366004614665565b61196b565b3480156107ed57600080fd5b506103846107fc3660046146ab565b611a0a565b34801561080d57600080fd5b5061049f60085481565b34801561082357600080fd5b506103846108323660046140e1565b611a42565b34801561084357600080fd5b5061034e610852366004614206565b600d6020526000908152604090205460ff1681565b34801561087357600080fd5b506103846108823660046147b0565b611b51565b34801561089357600080fd5b506103b06108a2366004614084565b611f14565b3480156108b357600080fd5b506108c76108c2366004614206565b611fff565b60405161035b9190614995565b3480156108e057600080fd5b506103846122a1565b3480156108f557600080fd5b506103846109043660046149a6565b612384565b34801561091557600080fd5b506009546109249061ffff1681565b60405161035b9190614adb565b34801561093d57600080fd5b506108c76125e2565b6103846127a3565b34801561095a57600080fd5b5061034e610969366004614ae9565b6001600160a01b03918216600090815260056020908152604080832093909416825291909152205460ff1690565b60007fffffffff0000000000000000000000000000000000000000000000000000000082167f80ac58cd000000000000000000000000000000000000000000000000000000001480610a2a57507fffffffff0000000000000000000000000000000000000000000000000000000082167f5b5e139f00000000000000000000000000000000000000000000000000000000145b80610a7657507f01ffc9a7000000000000000000000000000000000000000000000000000000007fffffffff000000000000000000000000000000000000000000000000000000008316145b92915050565b6006546001600160a01b03163314610aaf5760405162461bcd60e51b8152600401610aa690614b53565b60405180910390fd5b610ab98282612866565b5050565b60135415610add5760405162461bcd60e51b8152600401610aa690614b97565b601a80547fffffffffffffffffffffffffffffffffffffffffffff00ffffffffffffffffff1669010000000000000000001790556000610b1b6129d3565b601c819055604080516060810190915290915080600281523360208083019190915260006040928301819052848152601b9091522081518154829060ff19166001836002811115610b6e57610b6e614ba7565b0217905550602082015181546001600160a01b03909116610100027fffffffffffffffffffffff0000000000000000000000000000000000000000ff90911617815560409091015160019091015550565b606060008054610bce90614c05565b80601f0160208091040260200160405190810160405280929190818152602001828054610bfa90614c05565b8015610c475780601f10610c1c57610100808354040283529160200191610c47565b820191906000526020600020905b815481529060010190602001808311610c2a57829003601f168201915b5050505050905090565b6000818152600260205260408120546001600160a01b0316610c855760405162461bcd60e51b8152600401610aa690614c8e565b506000908152600460205260409020546001600160a01b031690565b6000610cac8261152e565b9050806001600160a01b0316836001600160a01b031603610cdf5760405162461bcd60e51b8152600401610aa690614cf8565b336001600160a01b0382161480610d1957506001600160a01b038116600090815260056020908152604080832033845290915290205460ff165b610d355760405162461bcd60e51b8152600401610aa690614d62565b610d3f8383612aa2565b505050565b600954601a546040517fa47c7696000000000000000000000000000000000000000000000000000000008152600092839283926060926a010000000000000000000090046001600160a01b03169163a47c769691610daf9167ffffffffffffffff1690600401614d72565b600060405180830381865afa158015610dcc573d6000803e3d6000fd5b505050506040513d6000823e601f3d9081017fffffffffffffffffffffffffffffffffffffffffffffffffffffffffffffffe0168201604052610e129190810190614e3a565b935093509350935090919293565b6006546001600160a01b03163314610e4a5760405162461bcd60e51b8152600401610aa690614b53565b6001600160a01b038116610e705760405162461bcd60e51b8152600401610aa690614f07565b600680546001600160a01b038381167fffffffffffffffffffffffff0000000000000000000000000000000000000000831681179093556040519116919082907fb532073b38c83145e3e5135377a08bf9aab55bc0fd7c1179cd4fb995d2a5159c90600090a35050565b6000610ee560165490565b905090565b336001600160a01b037f00000000000000000000000000000000000000000000000000000000000000001614610aaf57337f00000000000000000000000000000000000000000000000000000000000000006040517f1cf993f4000000000000000000000000000000000000000000000000000000008152600401610aa6929190614f17565b610f7a3382612b28565b610f965760405162461bcd60e51b8152600401610aa690614f8c565b610d3f838383612bda565b600f8181548110610fb157600080fd5b60009182526020909120600690910201805460018201805491935090610fd690614c05565b80601f016020809104026020016040519081016040528092919081815260200182805461100290614c05565b801561104f5780601f106110245761010080835404028352916020019161104f565b820191906000526020600020905b81548152906001019060200180831161103257829003601f168201915b50505050509080600201805461106490614c05565b80601f016020809104026020016040519081016040528092919081815260200182805461109090614c05565b80156110dd5780601f106110b2576101008083540402835291602001916110dd565b820191906000526020600020905b8154815290600101906020018083116110c057829003601f168201915b5050505050908060030154908060040154908060050154905086565b610d3f83838360405180602001604052806000815250611a0a565b6006546001600160a01b0316331461113e5760405162461bcd60e51b8152600401610aa690614b53565b6040805160c081018252600a8082526020808301889052928201869052606082018590526080820185905260a08201849052601090815586519192909161118b9160119190890190613d3d565b50604082015180516111a7916002840191602090910190613d3d565b50606082015160038201556080820151600482015560a09091015160059091015550505050565b600e81815481106111de57600080fd5b906000526020600020906009020160009150905080600001549080600101549080600201805461120d90614c05565b80601f016020809104026020016040519081016040528092919081815260200182805461123990614c05565b80156112865780601f1061125b57610100808354040283529160200191611286565b820191906000526020600020905b81548152906001019060200180831161126957829003601f168201915b50505050509080600301805461129b90614c05565b80601f01602080910402602001604051908101604052809291908181526020018280546112c790614c05565b80156113145780601f106112e957610100808354040283529160200191611314565b820191906000526020600020905b8154815290600101906020018083116112f757829003601f168201915b5050505050908060040154908060050154908060060154908060070154908060080154905089565b600a546040517f70a082310000000000000000000000000000000000000000000000000000000081526000916001600160a01b0316906370a08231906113869030906004016140bf565b602060405180830381865afa1580156113a3573d6000803e3d6000fd5b505050506040513d601f19601f820116820180604052508101906113c79190614fa7565b116113e45760405162461bcd60e51b8152600401610aa690614ffc565b600a546017546040517f70a082310000000000000000000000000000000000000000000000000000000081526000926001600160a01b0390811692634000aea09291169083906370a082319061143e9030906004016140bf565b602060405180830381865afa15801561145b573d6000803e3d6000fd5b505050506040513d601f19601f8201168201806040525081019061147f9190614fa7565b601a5460405161149c9167ffffffffffffffff1690602001614d72565b6040516020818303038152906040526040518463ffffffff1660e01b81526004016114c99392919061500c565b6020604051808303816000875af11580156114e8573d6000803e3d6000fd5b505050506040513d601f19601f8201168201806040525081019061150c919061504d565b90508061152b5760405162461bcd60e51b8152600401610aa6906150a2565b50565b6000818152600260205260408120546001600160a01b031680610a765760405162461bcd60e51b8152600401610aa69061510c565b60006001600160a01b03821661158b5760405162461bcd60e51b8152600401610aa690615176565b506001600160a01b031660009081526003602052604090205490565b6006546001600160a01b031633146115d15760405162461bcd60e51b8152600401610aa690614b53565b6000336001600160a01b0316476040516115ea90615186565b60006040518083038185875af1925050503d8060008114611627576040519150601f19603f3d011682016040523d82523d6000602084013e61162c565b606091505b505090508061152b5760405162461bcd60e51b8152600401610aa6906151c2565b600b602052816000526040600020818154811061166957600080fd5b90600052602060002001600091509150505481565b6060600f805480602002602001604051908101604052809291908181526020016000905b8282101561182057838290600052602060002090600602016040518060c0016040529081600082015481526020016001820180546116df90614c05565b80601f016020809104026020016040519081016040528092919081815260200182805461170b90614c05565b80156117585780601f1061172d57610100808354040283529160200191611758565b820191906000526020600020905b81548152906001019060200180831161173b57829003601f168201915b5050505050815260200160028201805461177190614c05565b80601f016020809104026020016040519081016040528092919081815260200182805461179d90614c05565b80156117ea5780601f106117bf576101008083540402835291602001916117ea565b820191906000526020600020905b8154815290600101906020018083116117cd57829003601f168201915b505050505081526020016003820154815260200160048201548152602001600582015481525050815260200190600101906116a2565b50505050905090565b6006546001600160a01b031633146118535760405162461bcd60e51b8152600401610aa690614b53565b601a5468010000000000000000900460ff16156118825760405162461bcd60e51b8152600401610aa69061522c565b601a80547fffffffffffffffffffffffffffffffffffffffffffffff00ffffffffffffffff1668010000000000000000179055565b600c602052600090815260409020805460018201546002830180549293919261120d90614c05565b6006546001600160a01b031633146119095760405162461bcd60e51b8152600401610aa690614b53565b600855565b6010805460118054919291610fd690614c05565b606060018054610bce90614c05565b610ab9338383612d14565b6006546001600160a01b031633146119665760405162461bcd60e51b8152600401610aa690614b53565b600755565b6006546001600160a01b031633146119955760405162461bcd60e51b8152600401610aa690614b53565b6009805461ffff949094167fffffffffffffffffffffffffffffffffffffffffffffffffffff000000000000909416939093176201000063ffffffff93841602177fffffffffffffffffffffffffffffffffffffffffffff00000000ffffffffffff1666010000000000009190921602179055565b611a143383612b28565b611a305760405162461bcd60e51b8152600401610aa690614f8c565b611a3c84848484612db6565b50505050565b6006546001600160a01b03163314611a6c5760405162461bcd60e51b8152600401610aa690614b53565b601a5468010000000000000000900460ff1615611a9b5760405162461bcd60e51b8152600401610aa69061522c565b6001600160a01b038216611ac15760405162461bcd60e51b8152600401610aa690614f07565b601880547fffffffffffffffffffffffff00000000000000000000000000000000000000009081166001600160a01b038581169182179093556019849055601754600980547fffff0000000000000000000000000000000000000000ffffffffffffffffffff16919094166a01000000000000000000000217909255600a80549091169091179055610ab9612de9565b6006546001600160a01b03163314611b7b5760405162461bcd60e51b8152600401610aa690614b53565b601a5468010000000000000000900460ff1615611baa5760405162461bcd60e51b8152600401610aa69061522c565b82518451148015611bbc575081518351145b8015611bc9575080518251145b611be55760405162461bcd60e51b8152600401610aa690615296565b60005b8451811015611d2957600f6040518060c00160405280838152602001878481518110611c1657611c166152a6565b60200260200101518152602001868481518110611c3557611c356152a6565b60200260200101518152602001858481518110611c5457611c546152a6565b60200260200101518152602001858481518110611c7357611c736152a6565b60200260200101518152602001848481518110611c9257611c926152a6565b602090810291909101810151909152825460018181018555600094855293829020835160069092020190815582820151805193949193611cda93928501929190910190613d3d565b5060408201518051611cf6916002840191602090910190613d3d565b50606082015160038201556080820151600482015560a09091015160059091015580611d2181615304565b915050611be8565b506000600f600081548110611d4057611d406152a6565b90600052602060002090600602016040518060c001604052908160008201548152602001600182018054611d7390614c05565b80601f0160208091040260200160405190810160405280929190818152602001828054611d9f90614c05565b8015611dec5780601f10611dc157610100808354040283529160200191611dec565b820191906000526020600020905b815481529060010190602001808311611dcf57829003601f168201915b50505050508152602001600282018054611e0590614c05565b80601f0160208091040260200160405190810160405280929190818152602001828054611e3190614c05565b8015611e7e5780601f10611e5357610100808354040283529160200191611e7e565b820191906000526020600020905b815481529060010190602001808311611e6157829003601f168201915b5050505050815260200160038201548152602001600482015481526020016005820154815250509050806010600082015181600001556020820151816001019080519060200190611ed0929190613d3d565b5060408201518051611eec916002840191602090910190613d3d565b50606082015160038201556080820151600482015560a0909101516005909101555050505050565b6000818152600c60205260408120606091611fd460028301611f3586612f1f565b84600301611f468660010154612f1f565b611f538760040154612f1f565b611f608860050154612f1f565b611f6d8960060154612f1f565b611f776032612f1f565b611f848b60070154612f1f565b611f8e6032612f1f565b611f9b8d60080154612f1f565b611fa56032612f1f565b604051602001611fc09c9b9a9998979695949392919061546f565b604051602081830303815290604052613054565b905080604051602001611fe791906157ad565b60405160208183030381529060405292505050919050565b6001600160a01b0381166000908152600b6020526040812080546060928167ffffffffffffffff81111561203557612035613e5a565b6040519080825280602002602001820160405280156120b557816020015b6120a26040518061012001604052806000815260200160008152602001606081526020016060815260200160008152602001600081526020016000815260200160008152602001600081525090565b8152602001906001900390816120535790505b50905060005b8281101561229857600c60008583815481106120d9576120d96152a6565b9060005260206000200154815260200190815260200160002060405180610120016040529081600082015481526020016001820154815260200160028201805461212290614c05565b80601f016020809104026020016040519081016040528092919081815260200182805461214e90614c05565b801561219b5780601f106121705761010080835404028352916020019161219b565b820191906000526020600020905b81548152906001019060200180831161217e57829003601f168201915b505050505081526020016003820180546121b490614c05565b80601f01602080910402602001604051908101604052809291908181526020018280546121e090614c05565b801561222d5780601f106122025761010080835404028352916020019161222d565b820191906000526020600020905b81548152906001019060200180831161221057829003601f168201915b505050505081526020016004820154815260200160058201548152602001600682015481526020016007820154815260200160088201548152505082828151811061227a5761227a6152a6565b6020026020010181905250808061229090615304565b9150506120bb565b50949350505050565b601a546901000000000000000000900460ff16156122d15760405162461bcd60e51b8152600401610aa690615813565b6013546122f05760405162461bcd60e51b8152600401610aa69061587d565b336000908152600b6020526040902080548061231e5760405162461bcd60e51b8152600401610aa6906158e7565b60005b81811015610d3f57600083828154811061233d5761233d6152a6565b6000918252602080832090910154808352600c90915260409091206004810154919250901561236f5761236f82613231565b5050808061237c90615304565b915050612321565b6006546001600160a01b031633146123ae5760405162461bcd60e51b8152600401610aa690614b53565b601a5468010000000000000000900460ff16156123dd5760405162461bcd60e51b8152600401610aa69061522c565b845186511480156123ef575083518551145b80156123fc575082518451145b8015612409575081518351145b8015612416575080518251145b6124325760405162461bcd60e51b8152600401610aa690615296565b60005b86518110156125d957600e60405180610120016040528083815260200142815260200189848151811061246a5761246a6152a6565b60200260200101518152602001888481518110612489576124896152a6565b602002602001015181526020018784815181106124a8576124a86152a6565b602002602001015181526020018784815181106124c7576124c76152a6565b602002602001015181526020018684815181106124e6576124e66152a6565b60200260200101518152602001858481518110612505576125056152a6565b60200260200101518152602001848481518110612524576125246152a6565b60209081029190910181015190915282546001818101855560009485529382902083516009909202019081558282015193810193909355604082015180519293926125759260028501920190613d3d565b5060608201518051612591916003840191602090910190613d3d565b506080820151600482015560a0820151600582015560c0820151600682015560e0820151600782015561010090910151600890910155806125d181615304565b915050612435565b50505050505050565b6060600e805480602002602001604051908101604052809291908181526020016000905b82821015611820578382906000526020600020906009020160405180610120016040529081600082015481526020016001820154815260200160028201805461264e90614c05565b80601f016020809104026020016040519081016040528092919081815260200182805461267a90614c05565b80156126c75780601f1061269c576101008083540402835291602001916126c7565b820191906000526020600020905b8154815290600101906020018083116126aa57829003601f168201915b505050505081526020016003820180546126e090614c05565b80601f016020809104026020016040519081016040528092919081815260200182805461270c90614c05565b80156127595780601f1061272e57610100808354040283529160200191612759565b820191906000526020600020905b81548152906001019060200180831161273c57829003601f168201915b505050505081526020016004820154815260200160058201548152602001600682015481526020016007820154815260200160088201548152505081526020019060010190612606565b336000908152600b602052604090206007548154106127d45760405162461bcd60e51b8152600401610aa690615951565b336000908152600d602052604090205460ff16156128045760405162461bcd60e51b8152600401610aa690615995565b6008541561282d57600854341461282d5760405162461bcd60e51b8152600401610aa6906159d9565b336000908152600d60205260409020805460ff1916600117905561285861285360165490565b6132e1565b61152b601680546001019055565b6000828152601b60205260408082208151606081019092528054829060ff16600281111561289657612896614ba7565b60028111156128a7576128a7614ba7565b8152815461010090046001600160a01b03166020808301919091526001928301546040928301526000878152601b90915290812080547fffffffffffffffffffffff0000000000000000000000000000000000000000001681559091018190559091508151600281111561291d5761291d614ba7565b0361294f57610d3f8160200151826040015184600081518110612942576129426152a6565b6020026020010151613306565b60018151600281111561296457612964614ba7565b0361299657610d3f8160200151826040015184600081518110612989576129896152a6565b60200260200101516135c3565b6002815160028111156129ab576129ab614ba7565b03610d3f57610d3f826000815181106129c6576129c66152a6565b602002602001015161378d565b600954601954601a546040517f5d3b1d300000000000000000000000000000000000000000000000000000000081526000936001600160a01b036a010000000000000000000082041693635d3b1d3093612a5f93919267ffffffffffffffff9091169161ffff82169163ffffffff620100008204811692660100000000000090920416906004016159e9565b6020604051808303816000875af1158015612a7e573d6000803e3d6000fd5b505050506040513d601f19601f82011682018060405250810190610ee59190614fa7565b600081815260046020526040902080547fffffffffffffffffffffffff0000000000000000000000000000000000000000166001600160a01b0384169081179091558190612aef8261152e565b6001600160a01b03167f8c5be1e5ebec7d5bd14f71427d1e84f3dd0314c0f7b2291e5b200ac8c7c3b92560405160405180910390a45050565b6000818152600260205260408120546001600160a01b0316612b5c5760405162461bcd60e51b8152600401610aa690615a85565b6000612b678361152e565b9050806001600160a01b0316846001600160a01b03161480612ba25750836001600160a01b0316612b9784610c51565b6001600160a01b0316145b80612bd257506001600160a01b0380821660009081526005602090815260408083209388168352929052205460ff165b949350505050565b826001600160a01b0316612bed8261152e565b6001600160a01b031614612c135760405162461bcd60e51b8152600401610aa690615aef565b6001600160a01b038216612c395760405162461bcd60e51b8152600401610aa690615b59565b612c44600082612aa2565b6001600160a01b0383166000908152600360205260408120805460019290612c6d908490615b69565b90915550506001600160a01b0382166000908152600360205260408120805460019290612c9b908490615b80565b909155505060008181526002602052604080822080547fffffffffffffffffffffffff0000000000000000000000000000000000000000166001600160a01b0386811691821790925591518493918716917fddf252ad1be2c89b69c2b068fc378daa952ba7f163c4a11628f55a4df523b3ef91a4505050565b816001600160a01b0316836001600160a01b031603612d455760405162461bcd60e51b8152600401610aa690615bcc565b6001600160a01b0383811660008181526005602090815260408083209487168084529490915290819020805460ff1916851515179055517f17307eab39ab6107e8899845ad3d59bd9653f200f220920489ca2b5937696c3190612da9908590613e3b565b60405180910390a3505050565b612dc1848484612bda565b612dcd848484846139da565b611a3c5760405162461bcd60e51b8152600401610aa690615c36565b6009600a9054906101000a90046001600160a01b03166001600160a01b031663a21a23e46040518163ffffffff1660e01b81526004016020604051808303816000875af1158015612e3e573d6000803e3d6000fd5b505050506040513d601f19601f82011682018060405250810190612e629190615c46565b601a80547fffffffffffffffffffffffffffffffffffffffffffffffff00000000000000001667ffffffffffffffff9290921691821790556009546040517f7341c10c0000000000000000000000000000000000000000000000000000000081526a01000000000000000000009091046001600160a01b031691637341c10c91612ef191903090600401615c67565b600060405180830381600087803b158015612f0b57600080fd5b505af1158015611a3c573d6000803e3d6000fd5b606081600003612f6257505060408051808201909152600181527f3000000000000000000000000000000000000000000000000000000000000000602082015290565b8160005b8115612f8c5780612f7681615304565b9150612f859050600a83615ca4565b9150612f66565b60008167ffffffffffffffff811115612fa757612fa7613e5a565b6040519080825280601f01601f191660200182016040528015612fd1576020820181803683370190505b5090505b8415612bd257612fe6600183615b69565b9150612ff3600a86615cb8565b612ffe906030615b80565b60f81b818381518110613013576130136152a6565b60200101907effffffffffffffffffffffffffffffffffffffffffffffffffffffffffffff1916908160001a90535061304d600a86615ca4565b9450612fd5565b80516060906000819003613078575050604080516020810190915260008152919050565b60006003613087836002615b80565b6130919190615ca4565b61309c906004615ccc565b905060006130ab826020615b80565b67ffffffffffffffff8111156130c3576130c3613e5a565b6040519080825280601f01601f1916602001820160405280156130ed576020820181803683370190505b5090506000604051806060016040528060408152602001615e11604091399050600181016020830160005b86811015613179576003818a01810151603f601282901c8116860151600c83901c8216870151600684901c831688015192909316870151600891821b60ff94851601821b92841692909201901b91160160e01b835260049092019101613118565b50600386066001811461319357600281146131dd57613223565b7f3d3d0000000000000000000000000000000000000000000000000000000000007ffffffffffffffffffffffffffffffffffffffffffffffffffffffffffffffffe830152613223565b7f3d000000000000000000000000000000000000000000000000000000000000007fffffffffffffffffffffffffffffffffffffffffffffffffffffffffffffffff8301525b505050918152949350505050565b600061323b6129d3565b601c81905560408051606081019091529091508060015b81523360208083019190915260409182018590526000848152601b9091522081518154829060ff1916600183600281111561328f5761328f614ba7565b0217905550602082015181546001600160a01b03909116610100027fffffffffffffffffffffff0000000000000000000000000000000000000000ff9091161781556040909101516001909101555050565b60006132eb6129d3565b601c8190556040805160608101909152909150806000613252565b600e546000906133169083615cb8565b90506000600e828154811061332d5761332d6152a6565b906000526020600020906009020190506040518061012001604052808260000154815260200142815260200182600201805461336890614c05565b80601f016020809104026020016040519081016040528092919081815260200182805461339490614c05565b80156133e15780601f106133b6576101008083540402835291602001916133e1565b820191906000526020600020905b8154815290600101906020018083116133c457829003601f168201915b505050505081526020018260030180546133fa90614c05565b80601f016020809104026020016040519081016040528092919081815260200182805461342690614c05565b80156134735780601f1061344857610100808354040283529160200191613473565b820191906000526020600020905b81548152906001019060200180831161345657829003601f168201915b5050509183525050600483015460208083018290526040808401929092526006850154606084015260078501546080840152600885015460a0909301929092526000878152600c83528190208351815583830151600182015590830151805191926134e692600285019290910190613d3d565b5060608201518051613502916003840191602090910190613d3d565b506080820151600482015560a0820151600582015560c0820151600682015560e08201516007820155610100909101516008909101556001600160a01b0385166000818152600b60209081526040808320805460018101825590845282842001889055338352600d90915290819020805460ff19169055518591907f4c209b5fc8ad50758f13e2e1088ba56a560dff690a1c6fef26394f4c03821c4f906135aa90869061422d565b60405180910390a36135bc8585613b43565b5050505050565b6000828152600c60205260408120906135dd600284615cb8565b9050806000036136b9576000826006015460106003015411613606575060006013556001613623565b60068301546013805460009061361d908490615b69565b90915550505b601054600484015460135460405188926001600160a01b038b16927fcbbd25d8689114f255cff58c414688a5973a068aa8165eb27a87e0160a09e5679261366b929190615d09565b60405180910390a480156136b35760105460405186906001600160a01b038916907fbfc95313db4fdbbfc0128ba08b176b2402de9ed8c303f4cecb6c5b61901a801490600090a45b506135bc565b601354156135bc5760155460048301541161371957600060048301556136de84613b5d565b60405184906001600160a01b038716907f0bc6b7c8240244e8d22671e4c923cd35b7b60ed732004b6e867b0e6ca7ab8fca90600090a3613736565b601554600483018054600090613730908490615b69565b90915550505b601054600483015460135460405187926001600160a01b038a16927fa2ec66708ea7725fc8a04094015c5b541baa668981ab20665300cee8575bd6389261377e929190615d09565b60405180910390a45050505050565b600f5460009061379d9083615cb8565b90506000600f82815481106137b4576137b46152a6565b90600052602060002090600602016040518060c0016040529081600082015481526020016001820180546137e790614c05565b80601f016020809104026020016040519081016040528092919081815260200182805461381390614c05565b80156138605780601f1061383557610100808354040283529160200191613860565b820191906000526020600020905b81548152906001019060200180831161384357829003601f168201915b5050505050815260200160028201805461387990614c05565b80601f01602080910402602001604051908101604052809291908181526020018280546138a590614c05565b80156138f25780601f106138c7576101008083540402835291602001916138f2565b820191906000526020600020905b8154815290600101906020018083116138d557829003601f168201915b5050505050815260200160038201548152602001600482015481526020016005820154815250509050806010600082015181600001556020820151816001019080519060200190613944929190613d3d565b5060408201518051613960916002840191602090910190613d3d565b50606082015160038201556080820151600482015560a090910151600590910155601a80547fffffffffffffffffffffffffffffffffffffffffffff00ffffffffffffffffff1690556010546040517f3a780abedaf4798b14708755924b855d6f9c27d7a7a30a08cc28e1b81d79f42490600090a2505050565b60006001600160a01b0384163b15613b38576040517f150b7a020000000000000000000000000000000000000000000000000000000081526001600160a01b0385169063150b7a0290613a37903390899088908890600401615d24565b6020604051808303816000875af1925050508015613a90575060408051601f3d9081017fffffffffffffffffffffffffffffffffffffffffffffffffffffffffffffffe0168201909252613a8d91810190615d69565b60015b613aed573d808015613abe576040519150601f19603f3d011682016040523d82523d6000602084013e613ac3565b606091505b508051600003613ae55760405162461bcd60e51b8152600401610aa690615c36565b805181602001fd5b7fffffffff00000000000000000000000000000000000000000000000000000000167f150b7a0200000000000000000000000000000000000000000000000000000000149050612bd2565b506001949350505050565b610ab9828260405180602001604052806000815250613c10565b6000613b688261152e565b9050613b75600083612aa2565b6001600160a01b0381166000908152600360205260408120805460019290613b9e908490615b69565b909155505060008281526002602052604080822080547fffffffffffffffffffffffff0000000000000000000000000000000000000000169055518391906001600160a01b038416907fddf252ad1be2c89b69c2b068fc378daa952ba7f163c4a11628f55a4df523b3ef908390a45050565b613c1a8383613c43565b613c2760008484846139da565b610d3f5760405162461bcd60e51b8152600401610aa690615c36565b6001600160a01b038216613c695760405162461bcd60e51b8152600401610aa690615dbc565b6000818152600260205260409020546001600160a01b031615613c9e5760405162461bcd60e51b8152600401610aa690615e00565b6001600160a01b0382166000908152600360205260408120805460019290613cc7908490615b80565b909155505060008181526002602052604080822080547fffffffffffffffffffffffff0000000000000000000000000000000000000000166001600160a01b03861690811790915590518392907fddf252ad1be2c89b69c2b068fc378daa952ba7f163c4a11628f55a4df523b3ef908290a45050565b828054613d4990614c05565b90600052602060002090601f016020900481019282613d6b5760008555613db1565b82601f10613d8457805160ff1916838001178555613db1565b82800160010185558215613db1579182015b82811115613db1578251825591602001919060010190613d96565b50613dbd929150613dc1565b5090565b5b80821115613dbd5760008155600101613dc2565b7fffffffff0000000000000000000000000000000000000000000000000000000081165b811461152b57600080fd5b8035610a7681613dd6565b600060208284031215613e2557613e25600080fd5b6000612bd28484613e05565b8015155b82525050565b60208101610a768284613e31565b80613dfa565b8035610a7681613e49565b7f4e487b7100000000000000000000000000000000000000000000000000000000600052604160045260246000fd5b7fffffffffffffffffffffffffffffffffffffffffffffffffffffffffffffffe0601f830116810181811067ffffffffffffffff82111715613ecd57613ecd613e5a565b6040525050565b6000613edf60405190565b9050613eeb8282613e89565b919050565b600067ffffffffffffffff821115613f0a57613f0a613e5a565b5060209081020190565b6000613f27613f2284613ef0565b613ed4565b83815290506020808201908402830185811115613f4657613f46600080fd5b835b81811015613f6a5780613f5b8882613e4f565b84525060209283019201613f48565b5050509392505050565b600082601f830112613f8857613f88600080fd5b8135612bd2848260208601613f14565b60008060408385031215613fae57613fae600080fd5b6000613fba8585613e4f565b925050602083013567ffffffffffffffff811115613fda57613fda600080fd5b613fe685828601613f74565b9150509250929050565b60005b8381101561400b578181015183820152602001613ff3565b83811115611a3c5750506000910152565b6000614026825190565b80845260208401935061403d818560208601613ff0565b601f017fffffffffffffffffffffffffffffffffffffffffffffffffffffffffffffffe0169290920192915050565b6020808252810161407d818461401c565b9392505050565b60006020828403121561409957614099600080fd5b6000612bd28484613e4f565b60006001600160a01b038216610a76565b613e35816140a5565b60208101610a7682846140b6565b613dfa816140a5565b8035610a76816140cd565b600080604083850312156140f7576140f7600080fd5b600061410385856140d6565b9250506020613fe685828601613e4f565b6000610a76826140a5565b6000610a7682614114565b613e358161411f565b60208101610a76828461412a565b6bffffffffffffffffffffffff8116613e35565b67ffffffffffffffff8116613e35565b600061417183836140b6565b505060200190565b6000614183825190565b80845260209384019383018060005b838110156141b75781516141a68882614165565b975060208301925050600101614192565b509495945050505050565b608081016141d08287614141565b6141dd6020830186614155565b6141ea60408301856140b6565b81810360608301526141fc8184614179565b9695505050505050565b60006020828403121561421b5761421b600080fd5b6000612bd284846140d6565b80613e35565b60208101610a768284614227565b60008060006060848603121561425357614253600080fd5b600061425f86866140d6565b9350506020614270868287016140d6565b925050604061428186828701613e4f565b9150509250925092565b60c081016142998289614227565b81810360208301526142ab818861401c565b905081810360408301526142bf818761401c565b90506142ce6060830186614227565b6142db6080830185614227565b6142e860a0830184614227565b979650505050505050565b600067ffffffffffffffff82111561430d5761430d613e5a565b7fffffffffffffffffffffffffffffffffffffffffffffffffffffffffffffffe0601f83011660200192915050565b82818337506000910152565b6000614356613f22846142f3565b90508281526020810184848401111561437157614371600080fd5b61437c84828561433c565b509392505050565b600082601f83011261439857614398600080fd5b8135612bd2848260208601614348565b600080600080608085870312156143c1576143c1600080fd5b843567ffffffffffffffff8111156143db576143db600080fd5b6143e787828801614384565b945050602085013567ffffffffffffffff81111561440757614407600080fd5b61441387828801614384565b935050604061442487828801613e4f565b925050606061443587828801613e4f565b91505092959194509250565b6101208101614450828c614227565b61445d602083018b614227565b818103604083015261446f818a61401c565b90508181036060830152614483818961401c565b90506144926080830188614227565b61449f60a0830187614227565b6144ac60c0830186614227565b6144b960e0830185614227565b6144c7610100830184614227565b9a9950505050505050505050565b63ffffffff8116613e35565b60208101610a7682846144d5565b805160009060c08401906145038582614227565b506020830151848203602086015261451b828261401c565b91505060408301518482036040860152614535828261401c565b915050606083015161454a6060860182614227565b50608083015161455d6080860182614227565b5060a083015161437c60a0860182614227565b600061407d83836144ef565b6000614586825190565b808452602084019350836020820285016145a08560200190565b8060005b858110156145d557848403895281516145bd8582614570565b94506020830160209a909a01999250506001016145a4565b5091979650505050505050565b6020808252810161407d818461457c565b801515613dfa565b8035610a76816145f3565b6000806040838503121561461c5761461c600080fd5b600061462885856140d6565b9250506020613fe6858286016145fb565b61ffff8116613dfa565b8035610a7681614639565b63ffffffff8116613dfa565b8035610a768161464e565b60008060006060848603121561467d5761467d600080fd5b60006146898686614643565b935050602061469a8682870161465a565b92505060406142818682870161465a565b600080600080608085870312156146c4576146c4600080fd5b60006146d087876140d6565b94505060206146e1878288016140d6565b93505060406146f287828801613e4f565b925050606085013567ffffffffffffffff81111561471257614712600080fd5b61443587828801614384565b600061472c613f2284613ef0565b8381529050602080820190840283018581111561474b5761474b600080fd5b835b81811015613f6a57803567ffffffffffffffff81111561476f5761476f600080fd5b80860161477c8982614384565b855250506020928301920161474d565b600082601f8301126147a0576147a0600080fd5b8135612bd284826020860161471e565b600080600080608085870312156147c9576147c9600080fd5b843567ffffffffffffffff8111156147e3576147e3600080fd5b6147ef8782880161478c565b945050602085013567ffffffffffffffff81111561480f5761480f600080fd5b61481b8782880161478c565b935050604085013567ffffffffffffffff81111561483b5761483b600080fd5b61484787828801613f74565b925050606085013567ffffffffffffffff81111561486757614867600080fd5b61443587828801613f74565b80516000906101208401906148888582614227565b50602083015161489b6020860182614227565b50604083015184820360408601526148b3828261401c565b915050606083015184820360608601526148cd828261401c565b91505060808301516148e26080860182614227565b5060a08301516148f560a0860182614227565b5060c083015161490860c0860182614227565b5060e083015161491b60e0860182614227565b5061010083015161437c610100860182614227565b600061407d8383614873565b6000614946825190565b808452602084019350836020820285016149608560200190565b8060005b858110156145d5578484038952815161497d8582614930565b94506020830160209a909a0199925050600101614964565b6020808252810161407d818461493c565b60008060008060008060c087890312156149c2576149c2600080fd5b863567ffffffffffffffff8111156149dc576149dc600080fd5b6149e889828a0161478c565b965050602087013567ffffffffffffffff811115614a0857614a08600080fd5b614a1489828a0161478c565b955050604087013567ffffffffffffffff811115614a3457614a34600080fd5b614a4089828a01613f74565b945050606087013567ffffffffffffffff811115614a6057614a60600080fd5b614a6c89828a01613f74565b935050608087013567ffffffffffffffff811115614a8c57614a8c600080fd5b614a9889828a01613f74565b92505060a087013567ffffffffffffffff811115614ab857614ab8600080fd5b614ac489828a01613f74565b9150509295509295509295565b61ffff8116613e35565b60208101610a768284614ad1565b60008060408385031215614aff57614aff600080fd5b6000614b0b85856140d6565b9250506020613fe6858286016140d6565b601481526000602082017f43616c6c6572206d757374206265206f776e6572000000000000000000000000815291505b5060200190565b60208082528101610a7681614b1c565b601c81526000602082017f43757272656e7420626f7373206973206e6f742064656164207965740000000081529150614b4c565b60208082528101610a7681614b63565b7f4e487b7100000000000000000000000000000000000000000000000000000000600052602160045260246000fd5b7f4e487b7100000000000000000000000000000000000000000000000000000000600052602260045260246000fd5b600281046001821680614c1957607f821691505b602082108103614c2b57614c2b614bd6565b50919050565b602c81526000602082017f4552433732313a20617070726f76656420717565727920666f72206e6f6e657881527f697374656e7420746f6b656e0000000000000000000000000000000000000000602082015291505b5060400190565b60208082528101610a7681614c31565b602181526000602082017f4552433732313a20617070726f76616c20746f2063757272656e74206f776e6581527f720000000000000000000000000000000000000000000000000000000000000060208201529150614c87565b60208082528101610a7681614c9e565b603881526000602082017f4552433732313a20617070726f76652063616c6c6572206973206e6f74206f7781527f6e6572206e6f7220617070726f76656420666f7220616c6c000000000000000060208201529150614c87565b60208082528101610a7681614d08565b60208101610a768284614155565b6bffffffffffffffffffffffff8116613dfa565b8051610a7681614d80565b67ffffffffffffffff8116613dfa565b8051610a7681614d9f565b8051610a76816140cd565b6000614dd3613f2284613ef0565b83815290506020808201908402830185811115614df257614df2600080fd5b835b81811015613f6a5780614e078882614dba565b84525060209283019201614df4565b600082601f830112614e2a57614e2a600080fd5b8151612bd2848260208601614dc5565b60008060008060808587031215614e5357614e53600080fd5b6000614e5f8787614d94565b9450506020614e7087828801614daf565b9350506040614e8187828801614dba565b925050606085015167ffffffffffffffff811115614ea157614ea1600080fd5b61443587828801614e16565b602881526000602082017f4c696e6b20746f6b656e20616464726573732063616e2774206265207a65726f81527f206164647265737300000000000000000000000000000000000000000000000060208201529150614c87565b60208082528101610a7681614ead565b60408101614f2582856140b6565b61407d60208301846140b6565b603181526000602082017f4552433732313a207472616e736665722063616c6c6572206973206e6f74206f81527f776e6572206e6f7220617070726f76656400000000000000000000000000000060208201529150614c87565b60208082528101610a7681614f32565b8051610a7681613e49565b600060208284031215614fbc57614fbc600080fd5b6000612bd28484614f9c565b601581526000602082017f4e6f206c696e6b20746f6b656e2062616c616e6365000000000000000000000081529150614b4c565b60208082528101610a7681614fc8565b6060810161501a82866140b6565b6150276020830185614227565b8181036040830152615039818461401c565b95945050505050565b8051610a76816145f3565b60006020828403121561506257615062600080fd5b6000612bd28484615042565b601b81526000602082017f436f756c64206e6f742066756e6420737562736372697074696f6e000000000081529150614b4c565b60208082528101610a768161506e565b602981526000602082017f4552433732313a206f776e657220717565727920666f72206e6f6e657869737481527f656e7420746f6b656e000000000000000000000000000000000000000000000060208201529150614c87565b60208082528101610a76816150b2565b602a81526000602082017f4552433732313a2062616c616e636520717565727920666f7220746865207a6581527f726f20616464726573730000000000000000000000000000000000000000000060208201529150614c87565b60208082528101610a768161511c565b600081610a76565b601581526000602082017f5472616e7366657220756e7375636365737366756c000000000000000000000081529150614b4c565b60208082528101610a768161518e565b602581526000602082017f436f6e74726163742068617320616c7265616479206265656e20696e6974696181527f6c697a656400000000000000000000000000000000000000000000000000000060208201529150614c87565b60208082528101610a76816151d2565b602d81526000602082017f4f6e65206f662074686520676976656e2064656661756c74206172726179732081527f6973206f6464206c656e6774680000000000000000000000000000000000000060208201529150614c87565b60208082528101610a768161523c565b7f4e487b7100000000000000000000000000000000000000000000000000000000600052603260045260246000fd5b7f4e487b7100000000000000000000000000000000000000000000000000000000600052601160045260246000fd5b60007fffffffffffffffffffffffffffffffffffffffffffffffffffffffffffffffff8203615335576153356152d5565b5060010190565b6000815461534981614c05565b6001821680156153605760018114615371576153a1565b60ff198316865281860193506153a1565b60008581526020902060005b838110156153995781548882015260019091019060200161537d565b838801955050505b50505092915050565b60006153b4825190565b6153c2818560208601613ff0565b9290920192915050565b7f7d2c207b202274726169745f74797065223a202241747461636b2044616d616781527f65222c202276616c7565223a2000000000000000000000000000000000000000602082015260005b50602d0190565b7f7d2c207b202274726169745f74797065223a20224865616c696e6720506f776581527f72222c202276616c7565223a200000000000000000000000000000000000000060208201526000615418565b7f7b226e616d65223a2022000000000000000000000000000000000000000000008152600a0160006154a1828f61533c565b7f202d2d204e465420233a200000000000000000000000000000000000000000008152600b0191506154d3828e6153aa565b7f222c20226465736372697074696f6e223a202241204865726f204e465420746881527f6174206c65747320796f7520706c6179204d6f6e7374657220536c617965722160208201527f222c2022696d616765223a2022000000000000000000000000000000000000006040820152604d019150615551828d61533c565b7f222c202261747472696275746573223a205b207b202274726169745f7479706581527f223a202242697274682044617465222c202276616c7565223a200000000000006020820152603a0191506155a9828c6153aa565b7f7d2c207b2022646973706c61795f74797065223a202264617465222c2022747281527f6169745f74797065223a20224865616c746820506f696e7473222c202276616c60208201527f7565223a2000000000000000000000000000000000000000000000000000000060408201526045019150615627828b6153aa565b7f2c20226d61785f76616c7565223a0000000000000000000000000000000000008152600e019150615659828a6153aa565b9150615664826153cc565b915061567082896153aa565b7f2c20226d61785f76616c7565223a0000000000000000000000000000000000008152600e0191506156a282886153aa565b7f7d2c207b202274726169745f74797065223a2022437269746963616c2044616d81527f616765204368616e6365222c202276616c7565223a2000000000000000000000602082015260360191506156fa82876153aa565b7f2c20226d61785f76616c7565223a0000000000000000000000000000000000008152600e01915061572c82866153aa565b91506157378261541f565b915061574382856153aa565b7f2c20226d61785f76616c7565223a0000000000000000000000000000000000008152600e01915061577582846153aa565b7f7d205d7d0000000000000000000000000000000000000000000000000000000081526004019e9d5050505050505050505050505050565b7f646174613a6170706c69636174696f6e2f6a736f6e3b6261736536342c0000008152601d01600061407d82846153aa565b601d81526000602082017f43757272656e746c7920737061776e696e672061206e657720626f737300000081529150614b4c565b60208082528101610a76816157df565b602f81526000602082017f43757272656e7420626f737320697320646561642c20796f75206d757374207381527f7061776e2061206e657720626f7373000000000000000000000000000000000060208201529150614c87565b60208082528101610a7681615823565b602281526000602082017f41747461636b6572206d7573742068617665206174206c65617374203120686581527f726f00000000000000000000000000000000000000000000000000000000000060208201529150614c87565b60208082528101610a768161588d565b602d81526000602082017f546869732061646472657373206861732072656163686564206d6178696d756d81527f20746f6b656e20616d6f756e740000000000000000000000000000000000000060208201529150614c87565b60208082528101610a76816158f7565b601d81526000602082017f43616e2774206d696e74206d756c7469706c6520617420612074696d6500000081529150614b4c565b60208082528101610a7681615961565b601d81526000602082017f5061796d656e74206973206e6f7420636f727265637420616d6f756e7400000081529150614b4c565b60208082528101610a76816159a5565b60a081016159f78288614227565b615a046020830187614155565b615a116040830186614ad1565b615a1e60608301856144d5565b6141fc60808301846144d5565b602c81526000602082017f4552433732313a206f70657261746f7220717565727920666f72206e6f6e657881527f697374656e7420746f6b656e000000000000000000000000000000000000000060208201529150614c87565b60208082528101610a7681615a2b565b602581526000602082017f4552433732313a207472616e736665722066726f6d20696e636f72726563742081527f6f776e657200000000000000000000000000000000000000000000000000000060208201529150614c87565b60208082528101610a7681615a95565b602481526000602082017f4552433732313a207472616e7366657220746f20746865207a65726f2061646481527f726573730000000000000000000000000000000000000000000000000000000060208201529150614c87565b60208082528101610a7681615aff565b600082821015615b7b57615b7b6152d5565b500390565b60008219821115615b9357615b936152d5565b500190565b601981526000602082017f4552433732313a20617070726f766520746f2063616c6c65720000000000000081529150614b4c565b60208082528101610a7681615b98565b603281526000602082017f4552433732313a207472616e7366657220746f206e6f6e20455243373231526581527f63656976657220696d706c656d656e746572000000000000000000000000000060208201529150614c87565b60208082528101610a7681615bdc565b600060208284031215615c5b57615c5b600080fd5b6000612bd28484614daf565b60408101614f258285614155565b7f4e487b7100000000000000000000000000000000000000000000000000000000600052601260045260246000fd5b600082615cb357615cb3615c75565b500490565b600082615cc757615cc7615c75565b500690565b6000817fffffffffffffffffffffffffffffffffffffffffffffffffffffffffffffffff0483118215151615615d0457615d046152d5565b500290565b60408101615d178285614227565b61407d6020830184614227565b60808101615d3282876140b6565b615d3f60208301866140b6565b615d4c6040830185614227565b81810360608301526141fc818461401c565b8051610a7681613dd6565b600060208284031215615d7e57615d7e600080fd5b6000612bd28484615d5e565b60208082527f4552433732313a206d696e7420746f20746865207a65726f206164647265737391019081526000614b4c565b60208082528101610a7681615d8a565b601c81526000602082017f4552433732313a20746f6b656e20616c7265616479206d696e7465640000000081529150614b4c565b60208082528101610a7681615dcc56fe4142434445464748494a4b4c4d4e4f505152535455565758595a6162636465666768696a6b6c6d6e6f707172737475767778797a303132333435363738392b2fa2646970667358221220dd04713d81b8f2978643a517fa676988a5feb1051c88919f746b668837eba9db64736f6c634300080d0033",
  "linkReferences": {},
  "deployedLinkReferences": {}
}