{
  "_format": "hh-sol-artifact-1",
  "contractName": "Game",
  "sourceName": "contracts/Game.sol",
  "abi": [
    {
      "inputs": [
        {
          "internalType": "address",
          "name": "_coordinatorAddress",
          "type": "address"
        }
      ],
      "stateMutability": "nonpayable",
      "type": "constructor"
    },
    {
      "inputs": [
        {
          "internalType": "address",
          "name": "have",
          "type": "address"
        },
        {
          "internalType": "address",
          "name": "want",
          "type": "address"
        }
      ],
      "name": "OnlyCoordinatorCanFulfill",
      "type": "error"
    },
    {
      "anonymous": false,
      "inputs": [
        {
          "indexed": true,
          "internalType": "address",
          "name": "owner",
          "type": "address"
        },
        {
          "indexed": true,
          "internalType": "address",
          "name": "approved",
          "type": "address"
        },
        {
          "indexed": true,
          "internalType": "uint256",
          "name": "tokenId",
          "type": "uint256"
        }
      ],
      "name": "Approval",
      "type": "event"
    },
    {
      "anonymous": false,
      "inputs": [
        {
          "indexed": true,
          "internalType": "address",
          "name": "owner",
          "type": "address"
        },
        {
          "indexed": true,
          "internalType": "address",
          "name": "operator",
          "type": "address"
        },
        {
          "indexed": false,
          "internalType": "bool",
          "name": "approved",
          "type": "bool"
        }
      ],
      "name": "ApprovalForAll",
      "type": "event"
    },
    {
      "anonymous": false,
      "inputs": [
        {
          "indexed": true,
          "internalType": "address",
          "name": "attacker",
          "type": "address"
        },
        {
          "indexed": true,
          "internalType": "uint256",
          "name": "tokenId",
          "type": "uint256"
        },
        {
          "indexed": true,
          "internalType": "uint256",
          "name": "bossIndex",
          "type": "uint256"
        },
        {
          "indexed": false,
          "internalType": "uint256",
          "name": "newHeroHp",
          "type": "uint256"
        },
        {
          "indexed": false,
          "internalType": "uint256",
          "name": "newBossHp",
          "type": "uint256"
        }
      ],
      "name": "BossAttack",
      "type": "event"
    },
    {
      "anonymous": false,
      "inputs": [
        {
          "indexed": true,
          "internalType": "address",
          "name": "attacker",
          "type": "address"
        },
        {
          "indexed": true,
          "internalType": "uint256",
          "name": "tokenId",
          "type": "uint256"
        },
        {
          "indexed": true,
          "internalType": "uint256",
          "name": "bossIndex",
          "type": "uint256"
        }
      ],
      "name": "BossDead",
      "type": "event"
    },
    {
      "anonymous": false,
      "inputs": [
        {
          "indexed": true,
          "internalType": "address",
          "name": "attacker",
          "type": "address"
        },
        {
          "indexed": true,
          "internalType": "uint256",
          "name": "tokenId",
          "type": "uint256"
        },
        {
          "indexed": true,
          "internalType": "uint256",
          "name": "bossIndex",
          "type": "uint256"
        },
        {
          "indexed": false,
          "internalType": "uint256",
          "name": "newHeroHp",
          "type": "uint256"
        },
        {
          "indexed": false,
          "internalType": "uint256",
          "name": "newBossHp",
          "type": "uint256"
        }
      ],
      "name": "HeroAttack",
      "type": "event"
    },
    {
      "anonymous": false,
      "inputs": [
        {
          "indexed": true,
          "internalType": "address",
          "name": "attacker",
          "type": "address"
        },
        {
          "indexed": true,
          "internalType": "uint256",
          "name": "tokenId",
          "type": "uint256"
        }
      ],
      "name": "HeroDead",
      "type": "event"
    },
    {
      "anonymous": false,
      "inputs": [
        {
          "indexed": true,
          "internalType": "address",
          "name": "owner",
          "type": "address"
        },
        {
          "indexed": true,
          "internalType": "uint256",
          "name": "tokenId",
          "type": "uint256"
        },
        {
          "indexed": false,
          "internalType": "uint256",
          "name": "defaultIndex",
          "type": "uint256"
        }
      ],
      "name": "Mint",
      "type": "event"
    },
    {
      "anonymous": false,
      "inputs": [
        {
          "indexed": true,
          "internalType": "uint256",
          "name": "bossIndex",
          "type": "uint256"
        }
      ],
      "name": "NewBoss",
      "type": "event"
    },
    {
      "anonymous": false,
      "inputs": [
        {
          "indexed": true,
          "internalType": "address",
          "name": "oldOwner",
          "type": "address"
        },
        {
          "indexed": true,
          "internalType": "address",
          "name": "newOwner",
          "type": "address"
        }
      ],
      "name": "OwnerChanged",
      "type": "event"
    },
    {
      "anonymous": false,
      "inputs": [
        {
          "indexed": true,
          "internalType": "address",
          "name": "from",
          "type": "address"
        },
        {
          "indexed": true,
          "internalType": "address",
          "name": "to",
          "type": "address"
        },
        {
          "indexed": true,
          "internalType": "uint256",
          "name": "tokenId",
          "type": "uint256"
        }
      ],
      "name": "Transfer",
      "type": "event"
    },
    {
      "inputs": [
        {
          "internalType": "address",
          "name": "to",
          "type": "address"
        },
        {
          "internalType": "uint256",
          "name": "tokenId",
          "type": "uint256"
        }
      ],
      "name": "approve",
      "outputs": [],
      "stateMutability": "nonpayable",
      "type": "function"
    },
    {
      "inputs": [],
      "name": "attackBoss",
      "outputs": [],
      "stateMutability": "nonpayable",
      "type": "function"
    },
    {
      "inputs": [
        {
          "internalType": "address",
          "name": "owner",
          "type": "address"
        }
      ],
      "name": "balanceOf",
      "outputs": [
        {
          "internalType": "uint256",
          "name": "",
          "type": "uint256"
        }
      ],
      "stateMutability": "view",
      "type": "function"
    },
    {
      "inputs": [],
      "name": "callbackGas",
      "outputs": [
        {
          "internalType": "uint32",
          "name": "",
          "type": "uint32"
        }
      ],
      "stateMutability": "view",
      "type": "function"
    },
    {
      "inputs": [],
      "name": "coordinator",
      "outputs": [
        {
          "internalType": "contract VRFCoordinatorV2Interface",
          "name": "",
          "type": "address"
        }
      ],
      "stateMutability": "view",
      "type": "function"
    },
    {
      "inputs": [],
      "name": "currentBoss",
      "outputs": [
        {
          "internalType": "uint256",
          "name": "index",
          "type": "uint256"
        },
        {
          "internalType": "string",
          "name": "name",
          "type": "string"
        },
        {
          "internalType": "string",
          "name": "imageUri",
          "type": "string"
        },
        {
          "internalType": "uint256",
          "name": "hp",
          "type": "uint256"
        },
        {
          "internalType": "uint256",
          "name": "maxHp",
          "type": "uint256"
        },
        {
          "internalType": "uint256",
          "name": "damage",
          "type": "uint256"
        }
      ],
      "stateMutability": "view",
      "type": "function"
    },
    {
      "inputs": [
        {
          "internalType": "uint256",
          "name": "",
          "type": "uint256"
        }
      ],
      "name": "defaultBosses",
      "outputs": [
        {
          "internalType": "uint256",
          "name": "index",
          "type": "uint256"
        },
        {
          "internalType": "string",
          "name": "name",
          "type": "string"
        },
        {
          "internalType": "string",
          "name": "imageUri",
          "type": "string"
        },
        {
          "internalType": "uint256",
          "name": "hp",
          "type": "uint256"
        },
        {
          "internalType": "uint256",
          "name": "maxHp",
          "type": "uint256"
        },
        {
          "internalType": "uint256",
          "name": "damage",
          "type": "uint256"
        }
      ],
      "stateMutability": "view",
      "type": "function"
    },
    {
      "inputs": [
        {
          "internalType": "uint256",
          "name": "",
          "type": "uint256"
        }
      ],
      "name": "defaultHeroes",
      "outputs": [
        {
          "internalType": "uint256",
          "name": "index",
          "type": "uint256"
        },
        {
          "internalType": "uint256",
          "name": "birthDate",
          "type": "uint256"
        },
        {
          "internalType": "string",
          "name": "name",
          "type": "string"
        },
        {
          "internalType": "string",
          "name": "imageUri",
          "type": "string"
        },
        {
          "internalType": "uint256",
          "name": "hp",
          "type": "uint256"
        },
        {
          "internalType": "uint256",
          "name": "maxHp",
          "type": "uint256"
        },
        {
          "internalType": "uint256",
          "name": "damage",
          "type": "uint256"
        },
        {
          "internalType": "uint256",
          "name": "crit",
          "type": "uint256"
        },
        {
          "internalType": "uint256",
          "name": "heal",
          "type": "uint256"
        }
      ],
      "stateMutability": "view",
      "type": "function"
    },
    {
      "inputs": [],
      "name": "fundSubscription",
      "outputs": [],
      "stateMutability": "nonpayable",
      "type": "function"
    },
    {
      "inputs": [
        {
          "internalType": "uint256",
          "name": "tokenId",
          "type": "uint256"
        }
      ],
      "name": "getApproved",
      "outputs": [
        {
          "internalType": "address",
          "name": "",
          "type": "address"
        }
      ],
      "stateMutability": "view",
      "type": "function"
    },
    {
      "inputs": [],
      "name": "getDefaultBosses",
      "outputs": [
        {
          "components": [
            {
              "internalType": "uint256",
              "name": "index",
              "type": "uint256"
            },
            {
              "internalType": "string",
              "name": "name",
              "type": "string"
            },
            {
              "internalType": "string",
              "name": "imageUri",
              "type": "string"
            },
            {
              "internalType": "uint256",
              "name": "hp",
              "type": "uint256"
            },
            {
              "internalType": "uint256",
              "name": "maxHp",
              "type": "uint256"
            },
            {
              "internalType": "uint256",
              "name": "damage",
              "type": "uint256"
            }
          ],
          "internalType": "struct Game.Boss[]",
          "name": "",
          "type": "tuple[]"
        }
      ],
      "stateMutability": "view",
      "type": "function"
    },
    {
      "inputs": [],
      "name": "getDefaultHeroes",
      "outputs": [
        {
          "components": [
            {
              "internalType": "uint256",
              "name": "index",
              "type": "uint256"
            },
            {
              "internalType": "uint256",
              "name": "birthDate",
              "type": "uint256"
            },
            {
              "internalType": "string",
              "name": "name",
              "type": "string"
            },
            {
              "internalType": "string",
              "name": "imageUri",
              "type": "string"
            },
            {
              "internalType": "uint256",
              "name": "hp",
              "type": "uint256"
            },
            {
              "internalType": "uint256",
              "name": "maxHp",
              "type": "uint256"
            },
            {
              "internalType": "uint256",
              "name": "damage",
              "type": "uint256"
            },
            {
              "internalType": "uint256",
              "name": "crit",
              "type": "uint256"
            },
            {
              "internalType": "uint256",
              "name": "heal",
              "type": "uint256"
            }
          ],
          "internalType": "struct Game.Hero[]",
          "name": "",
          "type": "tuple[]"
        }
      ],
      "stateMutability": "view",
      "type": "function"
    },
    {
      "inputs": [],
      "name": "getSubscriptionDetails",
      "outputs": [
        {
          "internalType": "uint96",
          "name": "",
          "type": "uint96"
        },
        {
          "internalType": "uint64",
          "name": "",
          "type": "uint64"
        },
        {
          "internalType": "address",
          "name": "",
          "type": "address"
        },
        {
          "internalType": "address[]",
          "name": "",
          "type": "address[]"
        }
      ],
      "stateMutability": "view",
      "type": "function"
    },
    {
      "inputs": [
        {
          "internalType": "address",
          "name": "user",
          "type": "address"
        }
      ],
      "name": "getUserHeroes",
      "outputs": [
        {
          "components": [
            {
              "internalType": "uint256",
              "name": "index",
              "type": "uint256"
            },
            {
              "internalType": "uint256",
              "name": "birthDate",
              "type": "uint256"
            },
            {
              "internalType": "string",
              "name": "name",
              "type": "string"
            },
            {
              "internalType": "string",
              "name": "imageUri",
              "type": "string"
            },
            {
              "internalType": "uint256",
              "name": "hp",
              "type": "uint256"
            },
            {
              "internalType": "uint256",
              "name": "maxHp",
              "type": "uint256"
            },
            {
              "internalType": "uint256",
              "name": "damage",
              "type": "uint256"
            },
            {
              "internalType": "uint256",
              "name": "crit",
              "type": "uint256"
            },
            {
              "internalType": "uint256",
              "name": "heal",
              "type": "uint256"
            }
          ],
          "internalType": "struct Game.Hero[]",
          "name": "",
          "type": "tuple[]"
        }
      ],
      "stateMutability": "view",
      "type": "function"
    },
    {
      "inputs": [
        {
          "internalType": "address",
          "name": "owner",
          "type": "address"
        },
        {
          "internalType": "address",
          "name": "operator",
          "type": "address"
        }
      ],
      "name": "isApprovedForAll",
      "outputs": [
        {
          "internalType": "bool",
          "name": "",
          "type": "bool"
        }
      ],
      "stateMutability": "view",
      "type": "function"
    },
    {
      "inputs": [
        {
          "internalType": "address",
          "name": "",
          "type": "address"
        }
      ],
      "name": "isMinting",
      "outputs": [
        {
          "internalType": "bool",
          "name": "",
          "type": "bool"
        }
      ],
      "stateMutability": "view",
      "type": "function"
    },
    {
      "inputs": [],
      "name": "linkToken",
      "outputs": [
        {
          "internalType": "contract LinkTokenInterface",
          "name": "",
          "type": "address"
        }
      ],
      "stateMutability": "view",
      "type": "function"
    },
    {
      "inputs": [],
      "name": "maxTokenAmount",
      "outputs": [
        {
          "internalType": "uint256",
          "name": "",
          "type": "uint256"
        }
      ],
      "stateMutability": "view",
      "type": "function"
    },
    {
      "inputs": [],
      "name": "minConfirmations",
      "outputs": [
        {
          "internalType": "uint16",
          "name": "",
          "type": "uint16"
        }
      ],
      "stateMutability": "view",
      "type": "function"
    },
    {
      "inputs": [],
      "name": "mintCost",
      "outputs": [
        {
          "internalType": "uint256",
          "name": "",
          "type": "uint256"
        }
      ],
      "stateMutability": "view",
      "type": "function"
    },
    {
      "inputs": [],
      "name": "mintHero",
      "outputs": [],
      "stateMutability": "payable",
      "type": "function"
    },
    {
      "inputs": [],
      "name": "mintHeroTest",
      "outputs": [],
      "stateMutability": "nonpayable",
      "type": "function"
    },
    {
      "inputs": [],
      "name": "name",
      "outputs": [
        {
          "internalType": "string",
          "name": "",
          "type": "string"
        }
      ],
      "stateMutability": "view",
      "type": "function"
    },
    {
      "inputs": [
        {
          "internalType": "uint256",
          "name": "",
          "type": "uint256"
        }
      ],
      "name": "nftHero",
      "outputs": [
        {
          "internalType": "uint256",
          "name": "index",
          "type": "uint256"
        },
        {
          "internalType": "uint256",
          "name": "birthDate",
          "type": "uint256"
        },
        {
          "internalType": "string",
          "name": "name",
          "type": "string"
        },
        {
          "internalType": "string",
          "name": "imageUri",
          "type": "string"
        },
        {
          "internalType": "uint256",
          "name": "hp",
          "type": "uint256"
        },
        {
          "internalType": "uint256",
          "name": "maxHp",
          "type": "uint256"
        },
        {
          "internalType": "uint256",
          "name": "damage",
          "type": "uint256"
        },
        {
          "internalType": "uint256",
          "name": "crit",
          "type": "uint256"
        },
        {
          "internalType": "uint256",
          "name": "heal",
          "type": "uint256"
        }
      ],
      "stateMutability": "view",
      "type": "function"
    },
    {
      "inputs": [
        {
          "internalType": "address",
          "name": "",
          "type": "address"
        },
        {
          "internalType": "uint256",
          "name": "",
          "type": "uint256"
        }
      ],
      "name": "nftHolders",
      "outputs": [
        {
          "internalType": "uint256",
          "name": "",
          "type": "uint256"
        }
      ],
      "stateMutability": "view",
      "type": "function"
    },
    {
      "inputs": [],
      "name": "numWords",
      "outputs": [
        {
          "internalType": "uint32",
          "name": "",
          "type": "uint32"
        }
      ],
      "stateMutability": "view",
      "type": "function"
    },
    {
      "inputs": [],
      "name": "owner",
      "outputs": [
        {
          "internalType": "address",
          "name": "",
          "type": "address"
        }
      ],
      "stateMutability": "view",
      "type": "function"
    },
    {
      "inputs": [
        {
          "internalType": "uint256",
          "name": "tokenId",
          "type": "uint256"
        }
      ],
      "name": "ownerOf",
      "outputs": [
        {
          "internalType": "address",
          "name": "",
          "type": "address"
        }
      ],
      "stateMutability": "view",
      "type": "function"
    },
    {
      "inputs": [
        {
          "internalType": "uint256",
          "name": "requestId",
          "type": "uint256"
        },
        {
          "internalType": "uint256[]",
          "name": "randomWords",
          "type": "uint256[]"
        }
      ],
      "name": "rawFulfillRandomWords",
      "outputs": [],
      "stateMutability": "nonpayable",
      "type": "function"
    },
    {
      "inputs": [
        {
          "internalType": "address",
          "name": "from",
          "type": "address"
        },
        {
          "internalType": "address",
          "name": "to",
          "type": "address"
        },
        {
          "internalType": "uint256",
          "name": "tokenId",
          "type": "uint256"
        }
      ],
      "name": "safeTransferFrom",
      "outputs": [],
      "stateMutability": "nonpayable",
      "type": "function"
    },
    {
      "inputs": [
        {
          "internalType": "address",
          "name": "from",
          "type": "address"
        },
        {
          "internalType": "address",
          "name": "to",
          "type": "address"
        },
        {
          "internalType": "uint256",
          "name": "tokenId",
          "type": "uint256"
        },
        {
          "internalType": "bytes",
          "name": "_data",
          "type": "bytes"
        }
      ],
      "name": "safeTransferFrom",
      "outputs": [],
      "stateMutability": "nonpayable",
      "type": "function"
    },
    {
      "inputs": [
        {
          "internalType": "address",
          "name": "operator",
          "type": "address"
        },
        {
          "internalType": "bool",
          "name": "approved",
          "type": "bool"
        }
      ],
      "name": "setApprovalForAll",
      "outputs": [],
      "stateMutability": "nonpayable",
      "type": "function"
    },
    {
      "inputs": [
        {
          "internalType": "string[]",
          "name": "bossNames",
          "type": "string[]"
        },
        {
          "internalType": "string[]",
          "name": "bossImageUris",
          "type": "string[]"
        },
        {
          "internalType": "uint256[]",
          "name": "bossHps",
          "type": "uint256[]"
        },
        {
          "internalType": "uint256[]",
          "name": "bossDamage",
          "type": "uint256[]"
        }
      ],
      "name": "setBosses",
      "outputs": [],
      "stateMutability": "nonpayable",
      "type": "function"
    },
    {
      "inputs": [
        {
          "internalType": "string",
          "name": "bossName",
          "type": "string"
        },
        {
          "internalType": "string",
          "name": "bossImageUri",
          "type": "string"
        },
        {
          "internalType": "uint256",
          "name": "bossHp",
          "type": "uint256"
        },
        {
          "internalType": "uint256",
          "name": "bossDamage",
          "type": "uint256"
        }
      ],
      "name": "setCurrentBoss",
      "outputs": [],
      "stateMutability": "nonpayable",
      "type": "function"
    },
    {
      "inputs": [
        {
          "internalType": "string[]",
          "name": "names",
          "type": "string[]"
        },
        {
          "internalType": "string[]",
          "name": "imageUris",
          "type": "string[]"
        },
        {
          "internalType": "uint256[]",
          "name": "hps",
          "type": "uint256[]"
        },
        {
          "internalType": "uint256[]",
          "name": "damages",
          "type": "uint256[]"
        },
        {
          "internalType": "uint256[]",
          "name": "crits",
          "type": "uint256[]"
        },
        {
          "internalType": "uint256[]",
          "name": "heals",
          "type": "uint256[]"
        }
      ],
      "name": "setHeroes",
      "outputs": [],
      "stateMutability": "nonpayable",
      "type": "function"
    },
    {
      "inputs": [],
      "name": "setInitialized",
      "outputs": [],
      "stateMutability": "nonpayable",
      "type": "function"
    },
    {
      "inputs": [
        {
          "internalType": "uint256",
          "name": "amount",
          "type": "uint256"
        }
      ],
      "name": "setMaxTokenAmount",
      "outputs": [],
      "stateMutability": "nonpayable",
      "type": "function"
    },
    {
      "inputs": [
        {
          "internalType": "uint256",
          "name": "cost",
          "type": "uint256"
        }
      ],
      "name": "setMintCost",
      "outputs": [],
      "stateMutability": "nonpayable",
      "type": "function"
    },
    {
      "inputs": [
        {
          "internalType": "address",
          "name": "newOwner",
          "type": "address"
        }
      ],
      "name": "setOwner",
      "outputs": [],
      "stateMutability": "nonpayable",
      "type": "function"
    },
    {
      "inputs": [
        {
          "internalType": "address",
          "name": "linkTokenAddress_",
          "type": "address"
        },
        {
          "internalType": "bytes32",
          "name": "keyHash_",
          "type": "bytes32"
        }
      ],
      "name": "setVRF",
      "outputs": [],
      "stateMutability": "nonpayable",
      "type": "function"
    },
    {
      "inputs": [
        {
          "internalType": "uint16",
          "name": "confirmations",
          "type": "uint16"
        },
        {
          "internalType": "uint32",
          "name": "gas",
          "type": "uint32"
        },
        {
          "internalType": "uint32",
          "name": "words",
          "type": "uint32"
        }
      ],
      "name": "setVRFSettings",
      "outputs": [],
      "stateMutability": "nonpayable",
      "type": "function"
    },
    {
      "inputs": [],
      "name": "spawnNewBoss",
      "outputs": [],
      "stateMutability": "nonpayable",
      "type": "function"
    },
    {
      "inputs": [
        {
          "internalType": "bytes4",
          "name": "interfaceId",
          "type": "bytes4"
        }
      ],
      "name": "supportsInterface",
      "outputs": [
        {
          "internalType": "bool",
          "name": "",
          "type": "bool"
        }
      ],
      "stateMutability": "view",
      "type": "function"
    },
    {
      "inputs": [],
      "name": "symbol",
      "outputs": [
        {
          "internalType": "string",
          "name": "",
          "type": "string"
        }
      ],
      "stateMutability": "view",
      "type": "function"
    },
    {
      "inputs": [
        {
          "internalType": "uint256",
          "name": "requestId",
          "type": "uint256"
        },
        {
          "internalType": "uint256[]",
          "name": "randomWords",
          "type": "uint256[]"
        }
      ],
      "name": "testFulfillRandomWords",
      "outputs": [],
      "stateMutability": "nonpayable",
      "type": "function"
    },
    {
      "inputs": [],
      "name": "testRequestId",
      "outputs": [
        {
          "internalType": "uint256",
          "name": "",
          "type": "uint256"
        }
      ],
      "stateMutability": "view",
      "type": "function"
    },
    {
      "inputs": [
        {
          "internalType": "uint256",
          "name": "tokenId",
          "type": "uint256"
        }
      ],
      "name": "tokenURI",
      "outputs": [
        {
          "internalType": "string",
          "name": "",
          "type": "string"
        }
      ],
      "stateMutability": "view",
      "type": "function"
    },
    {
      "inputs": [],
      "name": "totalSupply",
      "outputs": [
        {
          "internalType": "uint256",
          "name": "",
          "type": "uint256"
        }
      ],
      "stateMutability": "view",
      "type": "function"
    },
    {
      "inputs": [
        {
          "internalType": "address",
          "name": "from",
          "type": "address"
        },
        {
          "internalType": "address",
          "name": "to",
          "type": "address"
        },
        {
          "internalType": "uint256",
          "name": "tokenId",
          "type": "uint256"
        }
      ],
      "name": "transferFrom",
      "outputs": [],
      "stateMutability": "nonpayable",
      "type": "function"
    },
    {
      "inputs": [],
      "name": "withdrawEther",
      "outputs": [],
      "stateMutability": "nonpayable",
      "type": "function"
    },
    {
      "stateMutability": "payable",
      "type": "receive"
    }
  ],
  "bytecode": "0x60a060405260026007556000600855600980546001600160501b0319166601000f424000031790553480156200003457600080fd5b5060405162005c0c38038062005c0c833981016040819052620000579162000207565b60408051808201825260068152654865726f657360d01b6020808301918252835180850190945260048452634865726f60e01b908401528151849391620000a2916000919062000127565b508051620000b890600190602084019062000127565b5050506001600160a01b039081166080528116620000f35760405162461bcd60e51b8152600401620000ea9062000234565b60405180910390fd5b60068054336001600160a01b031991821617909155601780549091166001600160a01b0392909216919091179055620002c0565b828054620001359062000290565b90600052602060002090601f016020900481019282620001595760008555620001a4565b82601f106200017457805160ff1916838001178555620001a4565b82800160010185558215620001a4579182015b82811115620001a457825182559160200191906001019062000187565b50620001b2929150620001b6565b5090565b5b80821115620001b25760008155600101620001b7565b60006001600160a01b0382165b92915050565b620001eb81620001cd565b8114620001f757600080fd5b50565b8051620001da81620001e0565b6000602082840312156200021e576200021e600080fd5b60006200022c8484620001fa565b949350505050565b60208082528101620001da81602181527f436f6f7264696e61746f722063616e2774206265207a65726f206164647265736020820152607360f81b604082015260600190565b634e487b7160e01b600052602260045260246000fd5b600281046001821680620002a557607f821691505b602082108103620002ba57620002ba6200027a565b50919050565b608051615929620002e360003960008181610d150152610d3d01526159296000f3fe6080604052600436106102ad5760003560e01c80637ef7bf3311610165578063b88d4fde116100cc578063cdf7d85611610085578063cdf7d8561461083d578063d4f24c5b1461086a578063dfbb15431461087f578063e7c4393e1461089f578063e90f077c146108c7578063e9200337146108dc578063e985e9c5146108e457600080fd5b8063b88d4fde14610777578063bdb4b84814610797578063bea17387146107ad578063c2302e5e146107cd578063c396baca146107fd578063c87b56dd1461081d57600080fd5b80638da5cb5b1161011e5780638da5cb5b146106bf57806395d89b41146106df578063a10132ad146106f4578063a22cb46514610717578063b839a80e14610737578063b87cc46e1461075757600080fd5b80637ef7bf331461061d578063801928211461063f578063812bc25e146106545780638545f4ea14610674578063856f8c35146106945780638a926d0f146106a957600080fd5b80632a67a0af1161021457806357ace39b116101cd57806357ace39b1461054c5780636352211e14610561578063657633ad1461058157806370a08231146105975780637362377b146105b7578063775bb50e146105cc5780637ccfd7fc146105ec57600080fd5b80632a67a0af146104705780632e34ebf81461048557806342842e0e146104b7578063438fb2b0146104d75780634ca59d77146104f757806357970e931461052c57600080fd5b80630a009097116102665780630a009097146103955780630d5de6df146103c957806313af4035146103ee57806318160ddd1461040e5780631fe543e31461043057806323b872dd1461045057600080fd5b806301ffc9a7146102b957806302c4d72b146102ef578063062c01651461031157806306fdde0314610326578063081812fc14610348578063095ea7b31461037557600080fd5b366102b457005b600080fd5b3480156102c557600080fd5b506102d96102d4366004613bce565b610904565b6040516102e69190613bf9565b60405180910390f35b3480156102fb57600080fd5b5061030f61030a366004613d28565b610956565b005b34801561031d57600080fd5b5061030f610997565b34801561033257600080fd5b5061033b610a61565b6040516102e69190613ddf565b34801561035457600080fd5b50610368610363366004613df7565b610af3565b6040516102e69190613e32565b34801561038157600080fd5b5061030f610390366004613e54565b610b36565b3480156103a157600080fd5b506009546103bc90600160501b90046001600160a01b031681565b6040516102e69190613ea6565b3480156103d557600080fd5b506103de610bbb565b6040516102e69493929190613f2f565b3480156103fa57600080fd5b5061030f610409366004613f73565b610c58565b34801561041a57600080fd5b50610423610cfa565b6040516102e69190613f9a565b34801561043c57600080fd5b5061030f61044b366004613d28565b610d0a565b34801561045c57600080fd5b5061030f61046b366004613fa8565b610d77565b34801561047c57600080fd5b5061030f610da8565b34801561049157600080fd5b506104a56104a0366004613df7565b611095565b6040516102e696959493929190613ff8565b3480156104c357600080fd5b5061030f6104d2366004613fa8565b6111ed565b3480156104e357600080fd5b5061030f6104f23660046140f7565b611208565b34801561050357600080fd5b50610517610512366004613df7565b6112c2565b6040516102e69998979695949392919061418e565b34801561053857600080fd5b50600a546103bc906001600160a01b031681565b34801561055857600080fd5b5061030f611430565b34801561056d57600080fd5b5061036861057c366004613df7565b6115ef565b34801561058d57600080fd5b50610423601c5481565b3480156105a357600080fd5b506104236105b2366004613f73565b611624565b3480156105c357600080fd5b5061030f611668565b3480156105d857600080fd5b506104236105e7366004613e54565b61170e565b3480156105f857600080fd5b5060095461061090600160301b900463ffffffff1681565b6040516102e6919061422e565b34801561062957600080fd5b5061063261173f565b6040516102e6919061432f565b34801561064b57600080fd5b5061030f6118ea565b34801561066057600080fd5b5061051761066f366004613df7565b611953565b34801561068057600080fd5b5061030f61068f366004613df7565b61197b565b3480156106a057600080fd5b506104a56119aa565b3480156106b557600080fd5b5061042360075481565b3480156106cb57600080fd5b50600654610368906001600160a01b031681565b3480156106eb57600080fd5b5061033b6119be565b34801561070057600080fd5b506009546106109062010000900463ffffffff1681565b34801561072357600080fd5b5061030f610732366004614353565b6119cd565b34801561074357600080fd5b5061030f610752366004613df7565b6119d8565b34801561076357600080fd5b5061030f6107723660046143b2565b611a07565b34801561078357600080fd5b5061030f6107923660046143f8565b611a75565b3480156107a357600080fd5b5061042360085481565b3480156107b957600080fd5b5061030f6107c8366004613e54565b611aad565b3480156107d957600080fd5b506102d96107e8366004613f73565b600d6020526000908152604090205460ff1681565b34801561080957600080fd5b5061030f6108183660046144fb565b611b83565b34801561082957600080fd5b5061033b610838366004613df7565b611f41565b34801561084957600080fd5b5061085d610858366004613f73565b61202c565b6040516102e691906146dc565b34801561087657600080fd5b5061030f6122cd565b34801561088b57600080fd5b5061030f61089a3660046146ed565b6123aa565b3480156108ab57600080fd5b506009546108ba9061ffff1681565b6040516102e6919061481c565b3480156108d357600080fd5b5061085d612603565b61030f6127c4565b3480156108f057600080fd5b506102d96108ff36600461482a565b612887565b60006001600160e01b031982166380ac58cd60e01b148061093557506001600160e01b03198216635b5e139f60e01b145b8061095057506301ffc9a760e01b6001600160e01b03198316145b92915050565b6006546001600160a01b031633146109895760405162461bcd60e51b81526004016109809061488b565b60405180910390fd5b61099382826128b5565b5050565b601354156109b75760405162461bcd60e51b8152600401610980906148cf565b601a805460ff60481b1916600160481b17905560006109d4612a0a565b601c819055604080516060810190915290915080600281523360208083019190915260006040928301819052848152601b9091522081518154829060ff19166001836002811115610a2757610a276148df565b0217905550602082015181546001600160a01b0390911661010002610100600160a81b031990911617815560409091015160019091015550565b606060008054610a709061490b565b80601f0160208091040260200160405190810160405280929190818152602001828054610a9c9061490b565b8015610ae95780601f10610abe57610100808354040283529160200191610ae9565b820191906000526020600020905b815481529060010190602001808311610acc57829003601f168201915b5050505050905090565b6000610afe82612ab5565b610b1a5760405162461bcd60e51b815260040161098090614983565b506000908152600460205260409020546001600160a01b031690565b6000610b41826115ef565b9050806001600160a01b0316836001600160a01b031603610b745760405162461bcd60e51b8152600401610980906149d1565b336001600160a01b0382161480610b905750610b908133612887565b610bac5760405162461bcd60e51b815260040161098090614a36565b610bb68383612ad2565b505050565b600954601a5460405163523e3b4b60e11b815260009283928392606092600160501b90046001600160a01b03169163a47c769691610c05916001600160401b031690600401614a46565b600060405180830381865afa158015610c22573d6000803e3d6000fd5b505050506040513d6000823e601f3d908101601f19168201604052610c4a9190810190614b08565b935093509350935090919293565b6006546001600160a01b03163314610c825760405162461bcd60e51b81526004016109809061488b565b6001600160a01b038116610ca85760405162461bcd60e51b815260040161098090614bbf565b600680546001600160a01b038381166001600160a01b0319831681179093556040519116919082907fb532073b38c83145e3e5135377a08bf9aab55bc0fd7c1179cd4fb995d2a5159c90600090a35050565b6000610d0560165490565b905090565b336001600160a01b037f0000000000000000000000000000000000000000000000000000000000000000161461098957337f000000000000000000000000000000000000000000000000000000000000000060405163073e64fd60e21b8152600401610980929190614bcf565b610d813382612b40565b610d9d5760405162461bcd60e51b815260040161098090614c38565b610bb6838383612bc5565b600e5460405160009190610dc29044904290602001614c48565b6040516020818303038152906040528051906020012060001c610de59190614c84565b90506000600e8281548110610dfc57610dfc614c98565b906000526020600020906009020190506000610e1760165490565b905060405180610120016040528083600001548152602001428152602001836002018054610e449061490b565b80601f0160208091040260200160405190810160405280929190818152602001828054610e709061490b565b8015610ebd5780601f10610e9257610100808354040283529160200191610ebd565b820191906000526020600020905b815481529060010190602001808311610ea057829003601f168201915b50505050508152602001836003018054610ed69061490b565b80601f0160208091040260200160405190810160405280929190818152602001828054610f029061490b565b8015610f4f5780601f10610f2457610100808354040283529160200191610f4f565b820191906000526020600020905b815481529060010190602001808311610f3257829003601f168201915b5050509183525050600484015460208083018290526040808401929092526006860154606084015260078601546080840152600886015460a0909301929092526000848152600c8352819020835181558383015160018201559083015180519192610fc292600285019290910190613b13565b5060608201518051610fde916003840191602090910190613b13565b506080820151600482015560a0820151600582015560c0820151600682015560e0820151600782015561010090910151600890910155336000818152600b60209081526040822080546001810182559083529120018290556110409082612cd5565b61104e601680546001019055565b80336001600160a01b03167f4c209b5fc8ad50758f13e2e1088ba56a560dff690a1c6fef26394f4c03821c4f856040516110889190613f9a565b60405180910390a3505050565b600f81815481106110a557600080fd5b600091825260209091206006909102018054600182018054919350906110ca9061490b565b80601f01602080910402602001604051908101604052809291908181526020018280546110f69061490b565b80156111435780601f1061111857610100808354040283529160200191611143565b820191906000526020600020905b81548152906001019060200180831161112657829003601f168201915b5050505050908060020180546111589061490b565b80601f01602080910402602001604051908101604052809291908181526020018280546111849061490b565b80156111d15780601f106111a6576101008083540402835291602001916111d1565b820191906000526020600020905b8154815290600101906020018083116111b457829003601f168201915b5050505050908060030154908060040154908060050154905086565b610bb683838360405180602001604052806000815250611a75565b6006546001600160a01b031633146112325760405162461bcd60e51b81526004016109809061488b565b6040805160c081018252600a8082526020808301889052928201869052606082018590526080820185905260a08201849052601090815586519192909161127f9160119190890190613b13565b506040820151805161129b916002840191602090910190613b13565b50606082015160038201556080820151600482015560a09091015160059091015550505050565b600e81815481106112d257600080fd5b90600052602060002090600902016000915090508060000154908060010154908060020180546113019061490b565b80601f016020809104026020016040519081016040528092919081815260200182805461132d9061490b565b801561137a5780601f1061134f5761010080835404028352916020019161137a565b820191906000526020600020905b81548152906001019060200180831161135d57829003601f168201915b50505050509080600301805461138f9061490b565b80601f01602080910402602001604051908101604052809291908181526020018280546113bb9061490b565b80156114085780601f106113dd57610100808354040283529160200191611408565b820191906000526020600020905b8154815290600101906020018083116113eb57829003601f168201915b5050505050908060040154908060050154908060060154908060070154908060080154905089565b600a546040516370a0823160e01b81526000916001600160a01b0316906370a0823190611461903090600401613e32565b602060405180830381865afa15801561147e573d6000803e3d6000fd5b505050506040513d601f19601f820116820180604052508101906114a29190614cb9565b116114bf5760405162461bcd60e51b815260040161098090614d06565b600a546017546040516370a0823160e01b81526000926001600160a01b0390811692634000aea09291169083906370a0823190611500903090600401613e32565b602060405180830381865afa15801561151d573d6000803e3d6000fd5b505050506040513d601f19601f820116820180604052508101906115419190614cb9565b601a5460405161155d916001600160401b031690602001614a46565b6040516020818303038152906040526040518463ffffffff1660e01b815260040161158a93929190614d16565b6020604051808303816000875af11580156115a9573d6000803e3d6000fd5b505050506040513d601f19601f820116820180604052508101906115cd9190614d57565b9050806115ec5760405162461bcd60e51b815260040161098090614dac565b50565b6000818152600260205260408120546001600160a01b0316806109505760405162461bcd60e51b815260040161098090614e02565b60006001600160a01b03821661164c5760405162461bcd60e51b815260040161098090614e59565b506001600160a01b031660009081526003602052604090205490565b6006546001600160a01b031633146116925760405162461bcd60e51b81526004016109809061488b565b6000336001600160a01b0316476040516116ab90614e69565b60006040518083038185875af1925050503d80600081146116e8576040519150601f19603f3d011682016040523d82523d6000602084013e6116ed565b606091505b50509050806115ec5760405162461bcd60e51b815260040161098090614e9d565b600b602052816000526040600020818154811061172a57600080fd5b90600052602060002001600091509150505481565b6060600f805480602002602001604051908101604052809291908181526020016000905b828210156118e157838290600052602060002090600602016040518060c0016040529081600082015481526020016001820180546117a09061490b565b80601f01602080910402602001604051908101604052809291908181526020018280546117cc9061490b565b80156118195780601f106117ee57610100808354040283529160200191611819565b820191906000526020600020905b8154815290600101906020018083116117fc57829003601f168201915b505050505081526020016002820180546118329061490b565b80601f016020809104026020016040519081016040528092919081815260200182805461185e9061490b565b80156118ab5780601f10611880576101008083540402835291602001916118ab565b820191906000526020600020905b81548152906001019060200180831161188e57829003601f168201915b50505050508152602001600382015481526020016004820154815260200160058201548152505081526020019060010190611763565b50505050905090565b6006546001600160a01b031633146119145760405162461bcd60e51b81526004016109809061488b565b601a54600160401b900460ff161561193e5760405162461bcd60e51b815260040161098090614eef565b601a805460ff60401b1916600160401b179055565b600c60205260009081526040902080546001820154600283018054929391926113019061490b565b6006546001600160a01b031633146119a55760405162461bcd60e51b81526004016109809061488b565b600855565b60108054601180549192916110ca9061490b565b606060018054610a709061490b565b610993338383612cef565b6006546001600160a01b03163314611a025760405162461bcd60e51b81526004016109809061488b565b600755565b6006546001600160a01b03163314611a315760405162461bcd60e51b81526004016109809061488b565b6009805461ffff9490941665ffffffffffff19909416939093176201000063ffffffff938416021769ffffffff0000000000001916600160301b9190921602179055565b611a7f3383612b40565b611a9b5760405162461bcd60e51b815260040161098090614c38565b611aa784848484612d84565b50505050565b6006546001600160a01b03163314611ad75760405162461bcd60e51b81526004016109809061488b565b601a54600160401b900460ff1615611b015760405162461bcd60e51b815260040161098090614eef565b6001600160a01b038216611b275760405162461bcd60e51b815260040161098090614bbf565b601880546001600160a01b03199081166001600160a01b03858116918217909355601984905560175460098054600160501b600160f01b03191691909416600160501b0217909255600a80549091169091179055610993612db7565b6006546001600160a01b03163314611bad5760405162461bcd60e51b81526004016109809061488b565b601a54600160401b900460ff1615611bd75760405162461bcd60e51b815260040161098090614eef565b82518451148015611be9575081518351145b8015611bf6575080518251145b611c125760405162461bcd60e51b815260040161098090614f49565b60005b8451811015611d5657600f6040518060c00160405280838152602001878481518110611c4357611c43614c98565b60200260200101518152602001868481518110611c6257611c62614c98565b60200260200101518152602001858481518110611c8157611c81614c98565b60200260200101518152602001858481518110611ca057611ca0614c98565b60200260200101518152602001848481518110611cbf57611cbf614c98565b602090810291909101810151909152825460018181018555600094855293829020835160069092020190815582820151805193949193611d0793928501929190910190613b13565b5060408201518051611d23916002840191602090910190613b13565b50606082015160038201556080820151600482015560a09091015160059091015580611d4e81614f6f565b915050611c15565b506000600f600081548110611d6d57611d6d614c98565b90600052602060002090600602016040518060c001604052908160008201548152602001600182018054611da09061490b565b80601f0160208091040260200160405190810160405280929190818152602001828054611dcc9061490b565b8015611e195780601f10611dee57610100808354040283529160200191611e19565b820191906000526020600020905b815481529060010190602001808311611dfc57829003601f168201915b50505050508152602001600282018054611e329061490b565b80601f0160208091040260200160405190810160405280929190818152602001828054611e5e9061490b565b8015611eab5780601f10611e8057610100808354040283529160200191611eab565b820191906000526020600020905b815481529060010190602001808311611e8e57829003601f168201915b5050505050815260200160038201548152602001600482015481526020016005820154815250509050806010600082015181600001556020820151816001019080519060200190611efd929190613b13565b5060408201518051611f19916002840191602090910190613b13565b50606082015160038201556080820151600482015560a0909101516005909101555050505050565b6000818152600c6020526040812060609161200160028301611f6286612eb5565b84600301611f738660010154612eb5565b611f808760040154612eb5565b611f8d8860050154612eb5565b611f9a8960060154612eb5565b611fa46032612eb5565b611fb18b60070154612eb5565b611fbb6032612eb5565b611fc88d60080154612eb5565b611fd26032612eb5565b604051602001611fed9c9b9a999897969594939291906150b6565b604051602081830303815290604052612fb5565b905080604051602001612014919061531b565b60405160208183030381529060405292505050919050565b6001600160a01b0381166000908152600b602052604081208054606092816001600160401b0381111561206157612061613c22565b6040519080825280602002602001820160405280156120e157816020015b6120ce6040518061012001604052806000815260200160008152602001606081526020016060815260200160008152602001600081526020016000815260200160008152602001600081525090565b81526020019060019003908161207f5790505b50905060005b828110156122c457600c600085838154811061210557612105614c98565b9060005260206000200154815260200190815260200160002060405180610120016040529081600082015481526020016001820154815260200160028201805461214e9061490b565b80601f016020809104026020016040519081016040528092919081815260200182805461217a9061490b565b80156121c75780601f1061219c576101008083540402835291602001916121c7565b820191906000526020600020905b8154815290600101906020018083116121aa57829003601f168201915b505050505081526020016003820180546121e09061490b565b80601f016020809104026020016040519081016040528092919081815260200182805461220c9061490b565b80156122595780601f1061222e57610100808354040283529160200191612259565b820191906000526020600020905b81548152906001019060200180831161223c57829003601f168201915b50505050508152602001600482015481526020016005820154815260200160068201548152602001600782015481526020016008820154815250508282815181106122a6576122a6614c98565b602002602001018190525080806122bc90614f6f565b9150506120e7565b50949350505050565b601a54600160481b900460ff16156122f75760405162461bcd60e51b815260040161098090615381565b6013546123165760405162461bcd60e51b8152600401610980906153dd565b336000908152600b602052604090208054806123445760405162461bcd60e51b81526004016109809061542c565b60005b81811015610bb657600083828154811061236357612363614c98565b6000918252602080832090910154808352600c909152604090912060048101549192509015612395576123958261311e565b505080806123a290614f6f565b915050612347565b6006546001600160a01b031633146123d45760405162461bcd60e51b81526004016109809061488b565b601a54600160401b900460ff16156123fe5760405162461bcd60e51b815260040161098090614eef565b84518651148015612410575083518551145b801561241d575082518451145b801561242a575081518351145b8015612437575080518251145b6124535760405162461bcd60e51b815260040161098090614f49565b60005b86518110156125fa57600e60405180610120016040528083815260200142815260200189848151811061248b5761248b614c98565b602002602001015181526020018884815181106124aa576124aa614c98565b602002602001015181526020018784815181106124c9576124c9614c98565b602002602001015181526020018784815181106124e8576124e8614c98565b6020026020010151815260200186848151811061250757612507614c98565b6020026020010151815260200185848151811061252657612526614c98565b6020026020010151815260200184848151811061254557612545614c98565b60209081029190910181015190915282546001818101855560009485529382902083516009909202019081558282015193810193909355604082015180519293926125969260028501920190613b13565b50606082015180516125b2916003840191602090910190613b13565b506080820151600482015560a0820151600582015560c0820151600682015560e0820151600782015561010090910151600890910155806125f281614f6f565b915050612456565b50505050505050565b6060600e805480602002602001604051908101604052809291908181526020016000905b828210156118e1578382906000526020600020906009020160405180610120016040529081600082015481526020016001820154815260200160028201805461266f9061490b565b80601f016020809104026020016040519081016040528092919081815260200182805461269b9061490b565b80156126e85780601f106126bd576101008083540402835291602001916126e8565b820191906000526020600020905b8154815290600101906020018083116126cb57829003601f168201915b505050505081526020016003820180546127019061490b565b80601f016020809104026020016040519081016040528092919081815260200182805461272d9061490b565b801561277a5780601f1061274f5761010080835404028352916020019161277a565b820191906000526020600020905b81548152906001019060200180831161275d57829003601f168201915b505050505081526020016004820154815260200160058201548152602001600682015481526020016007820154815260200160088201548152505081526020019060010190612627565b336000908152600b602052604090206007548154106127f55760405162461bcd60e51b815260040161098090615486565b336000908152600d602052604090205460ff16156128255760405162461bcd60e51b8152600401610980906154ca565b6008541561284e57600854341461284e5760405162461bcd60e51b81526004016109809061550e565b336000908152600d60205260409020805460ff1916600117905561287961287460165490565b6131b7565b6115ec601680546001019055565b6001600160a01b03918216600090815260056020908152604080832093909416825291909152205460ff1690565b6000828152601b60205260408082208151606081019092528054829060ff1660028111156128e5576128e56148df565b60028111156128f6576128f66148df565b8152815461010090046001600160a01b03166020808301919091526001928301546040928301526000878152601b90915290812080546001600160a81b031916815590910181905590915081516002811115612954576129546148df565b0361298657610bb6816020015182604001518460008151811061297957612979614c98565b60200260200101516131dc565b60018151600281111561299b5761299b6148df565b036129cd57610bb681602001518260400151846000815181106129c0576129c0614c98565b6020026020010151613499565b6002815160028111156129e2576129e26148df565b03610bb657610bb6826000815181106129fd576129fd614c98565b6020026020010151613663565b600954601954601a546040516305d3b1d360e41b81526000936001600160a01b03600160501b82041693635d3b1d3093612a729391926001600160401b039091169161ffff82169163ffffffff620100008204811692600160301b909204169060040161551e565b6020604051808303816000875af1158015612a91573d6000803e3d6000fd5b505050506040513d601f19601f82011682018060405250810190610d059190614cb9565b6000908152600260205260409020546001600160a01b0316151590565b600081815260046020526040902080546001600160a01b0319166001600160a01b0384169081179091558190612b07826115ef565b6001600160a01b03167f8c5be1e5ebec7d5bd14f71427d1e84f3dd0314c0f7b2291e5b200ac8c7c3b92560405160405180910390a45050565b6000612b4b82612ab5565b612b675760405162461bcd60e51b8152600401610980906155a9565b6000612b72836115ef565b9050806001600160a01b0316846001600160a01b03161480612bad5750836001600160a01b0316612ba284610af3565b6001600160a01b0316145b80612bbd5750612bbd8185612887565b949350505050565b826001600160a01b0316612bd8826115ef565b6001600160a01b031614612bfe5760405162461bcd60e51b8152600401610980906155fb565b6001600160a01b038216612c245760405162461bcd60e51b81526004016109809061564c565b612c2f600082612ad2565b6001600160a01b0383166000908152600360205260408120805460019290612c5890849061565c565b90915550506001600160a01b0382166000908152600360205260408120805460019290612c86908490615673565b909155505060008181526002602052604080822080546001600160a01b0319166001600160a01b0386811691821790925591518493918716916000805160206158d483398151915291a4505050565b610993828260405180602001604052806000815250613895565b816001600160a01b0316836001600160a01b031603612d205760405162461bcd60e51b8152600401610980906156bb565b6001600160a01b0383811660008181526005602090815260408083209487168084529490915290819020805460ff1916851515179055517f17307eab39ab6107e8899845ad3d59bd9653f200f220920489ca2b5937696c3190611088908590613bf9565b612d8f848484612bc5565b612d9b848484846138c8565b611aa75760405162461bcd60e51b81526004016109809061571a565b6009600a9054906101000a90046001600160a01b03166001600160a01b031663a21a23e46040518163ffffffff1660e01b81526004016020604051808303816000875af1158015612e0c573d6000803e3d6000fd5b505050506040513d601f19601f82011682018060405250810190612e30919061572a565b601a805467ffffffffffffffff19166001600160401b03929092169182179055600954604051631cd0704360e21b8152600160501b9091046001600160a01b031691637341c10c91612e879190309060040161574b565b600060405180830381600087803b158015612ea157600080fd5b505af1158015611aa7573d6000803e3d6000fd5b606081600003612edc5750506040805180820190915260018152600360fc1b602082015290565b8160005b8115612f065780612ef081614f6f565b9150612eff9050600a83615759565b9150612ee0565b6000816001600160401b03811115612f2057612f20613c22565b6040519080825280601f01601f191660200182016040528015612f4a576020820181803683370190505b5090505b8415612bbd57612f5f60018361565c565b9150612f6c600a86614c84565b612f77906030615673565b60f81b818381518110612f8c57612f8c614c98565b60200101906001600160f81b031916908160001a905350612fae600a86615759565b9450612f4e565b80516060906000819003612fd9575050604080516020810190915260008152919050565b60006003612fe8836002615673565b612ff29190615759565b612ffd90600461576d565b9050600061300c826020615673565b6001600160401b0381111561302357613023613c22565b6040519080825280601f01601f19166020018201604052801561304d576020820181803683370190505b5090506000604051806060016040528060408152602001615894604091399050600181016020830160005b868110156130d9576003818a01810151603f601282901c8116860151600c83901c8216870151600684901c831688015192909316870151600891821b60ff94851601821b92841692909201901b91160160e01b835260049092019101613078565b5060038606600181146130f3576002811461310457613110565b613d3d60f01b600119830152613110565b603d60f81b6000198301525b505050918152949350505050565b6000613128612a0a565b601c81905560408051606081019091529091508060015b81523360208083019190915260409182018590526000848152601b9091522081518154829060ff1916600183600281111561317c5761317c6148df565b0217905550602082015181546001600160a01b0390911661010002610100600160a81b03199091161781556040909101516001909101555050565b60006131c1612a0a565b601c819055604080516060810190915290915080600061313f565b600e546000906131ec9083614c84565b90506000600e828154811061320357613203614c98565b906000526020600020906009020190506040518061012001604052808260000154815260200142815260200182600201805461323e9061490b565b80601f016020809104026020016040519081016040528092919081815260200182805461326a9061490b565b80156132b75780601f1061328c576101008083540402835291602001916132b7565b820191906000526020600020905b81548152906001019060200180831161329a57829003601f168201915b505050505081526020018260030180546132d09061490b565b80601f01602080910402602001604051908101604052809291908181526020018280546132fc9061490b565b80156133495780601f1061331e57610100808354040283529160200191613349565b820191906000526020600020905b81548152906001019060200180831161332c57829003601f168201915b5050509183525050600483015460208083018290526040808401929092526006850154606084015260078501546080840152600885015460a0909301929092526000878152600c83528190208351815583830151600182015590830151805191926133bc92600285019290910190613b13565b50606082015180516133d8916003840191602090910190613b13565b506080820151600482015560a0820151600582015560c0820151600682015560e08201516007820155610100909101516008909101556001600160a01b0385166000818152600b60209081526040808320805460018101825590845282842001889055338352600d90915290819020805460ff19169055518591907f4c209b5fc8ad50758f13e2e1088ba56a560dff690a1c6fef26394f4c03821c4f90613480908690613f9a565b60405180910390a36134928585612cd5565b5050505050565b6000828152600c60205260408120906134b3600284614c84565b90508060000361358f5760008260060154601060030154116134dc5750600060135560016134f9565b6006830154601380546000906134f390849061565c565b90915550505b601054600484015460135460405188926001600160a01b038b16927fcbbd25d8689114f255cff58c414688a5973a068aa8165eb27a87e0160a09e5679261354192919061578c565b60405180910390a480156135895760105460405186906001600160a01b038916907fbfc95313db4fdbbfc0128ba08b176b2402de9ed8c303f4cecb6c5b61901a801490600090a45b50613492565b60135415613492576015546004830154116135ef57600060048301556135b4846139c9565b60405184906001600160a01b038716907f0bc6b7c8240244e8d22671e4c923cd35b7b60ed732004b6e867b0e6ca7ab8fca90600090a361360c565b60155460048301805460009061360690849061565c565b90915550505b601054600483015460135460405187926001600160a01b038a16927fa2ec66708ea7725fc8a04094015c5b541baa668981ab20665300cee8575bd6389261365492919061578c565b60405180910390a45050505050565b600f546000906136739083614c84565b90506000600f828154811061368a5761368a614c98565b90600052602060002090600602016040518060c0016040529081600082015481526020016001820180546136bd9061490b565b80601f01602080910402602001604051908101604052809291908181526020018280546136e99061490b565b80156137365780601f1061370b57610100808354040283529160200191613736565b820191906000526020600020905b81548152906001019060200180831161371957829003601f168201915b5050505050815260200160028201805461374f9061490b565b80601f016020809104026020016040519081016040528092919081815260200182805461377b9061490b565b80156137c85780601f1061379d576101008083540402835291602001916137c8565b820191906000526020600020905b8154815290600101906020018083116137ab57829003601f168201915b505050505081526020016003820154815260200160048201548152602001600582015481525050905080601060008201518160000155602082015181600101908051906020019061381a929190613b13565b5060408201518051613836916002840191602090910190613b13565b50606082015160038201556080820151600482015560a090910151600590910155601a805460ff60481b191690556010546040517f3a780abedaf4798b14708755924b855d6f9c27d7a7a30a08cc28e1b81d79f42490600090a2505050565b61389f8383613a52565b6138ac60008484846138c8565b610bb65760405162461bcd60e51b81526004016109809061571a565b60006001600160a01b0384163b156139be57604051630a85bd0160e11b81526001600160a01b0385169063150b7a029061390c9033908990889088906004016157a7565b6020604051808303816000875af1925050508015613947575060408051601f3d908101601f19168201909252613944918101906157ec565b60015b6139a4573d808015613975576040519150601f19603f3d011682016040523d82523d6000602084013e61397a565b606091505b50805160000361399c5760405162461bcd60e51b81526004016109809061571a565b805181602001fd5b6001600160e01b031916630a85bd0160e11b149050612bbd565b506001949350505050565b60006139d4826115ef565b90506139e1600083612ad2565b6001600160a01b0381166000908152600360205260408120805460019290613a0a90849061565c565b909155505060008281526002602052604080822080546001600160a01b0319169055518391906001600160a01b038416906000805160206158d4833981519152908390a45050565b6001600160a01b038216613a785760405162461bcd60e51b81526004016109809061583f565b613a8181612ab5565b15613a9e5760405162461bcd60e51b815260040161098090615883565b6001600160a01b0382166000908152600360205260408120805460019290613ac7908490615673565b909155505060008181526002602052604080822080546001600160a01b0319166001600160a01b03861690811790915590518392906000805160206158d4833981519152908290a45050565b828054613b1f9061490b565b90600052602060002090601f016020900481019282613b415760008555613b87565b82601f10613b5a57805160ff1916838001178555613b87565b82800160010185558215613b87579182015b82811115613b87578251825591602001919060010190613b6c565b50613b93929150613b97565b5090565b5b80821115613b935760008155600101613b98565b6001600160e01b031981165b81146115ec57600080fd5b803561095081613bac565b600060208284031215613be357613be3600080fd5b6000612bbd8484613bc3565b8015155b82525050565b602081016109508284613bef565b80613bb8565b803561095081613c07565b601f01601f191690565b634e487b7160e01b600052604160045260246000fd5b613c4182613c18565b81018181106001600160401b0382111715613c5e57613c5e613c22565b6040525050565b6000613c7060405190565b9050613c7c8282613c38565b919050565b60006001600160401b03821115613c9a57613c9a613c22565b5060209081020190565b6000613cb7613cb284613c81565b613c65565b83815290506020808201908402830185811115613cd657613cd6600080fd5b835b81811015613cfa5780613ceb8882613c0d565b84525060209283019201613cd8565b5050509392505050565b600082601f830112613d1857613d18600080fd5b8135612bbd848260208601613ca4565b60008060408385031215613d3e57613d3e600080fd5b6000613d4a8585613c0d565b92505060208301356001600160401b03811115613d6957613d69600080fd5b613d7585828601613d04565b9150509250929050565b60005b83811015613d9a578181015183820152602001613d82565b83811115611aa75750506000910152565b6000613db5825190565b808452602084019350613dcc818560208601613d7f565b613dd581613c18565b9093019392505050565b60208082528101613df08184613dab565b9392505050565b600060208284031215613e0c57613e0c600080fd5b6000612bbd8484613c0d565b60006001600160a01b038216610950565b613bf381613e18565b602081016109508284613e29565b613bb881613e18565b803561095081613e40565b60008060408385031215613e6a57613e6a600080fd5b6000613e768585613e49565b9250506020613d7585828601613c0d565b600061095082613e18565b600061095082613e87565b613bf381613e92565b602081016109508284613e9d565b6001600160601b038116613bf3565b6001600160401b038116613bf3565b6000613ede8383613e29565b505060200190565b6000613ef0825190565b80845260209384019383018060005b83811015613f24578151613f138882613ed2565b975060208301925050600101613eff565b509495945050505050565b60808101613f3d8287613eb4565b613f4a6020830186613ec3565b613f576040830185613e29565b8181036060830152613f698184613ee6565b9695505050505050565b600060208284031215613f8857613f88600080fd5b6000612bbd8484613e49565b80613bf3565b602081016109508284613f94565b600080600060608486031215613fc057613fc0600080fd5b6000613fcc8686613e49565b9350506020613fdd86828701613e49565b9250506040613fee86828701613c0d565b9150509250925092565b60c081016140068289613f94565b81810360208301526140188188613dab565b9050818103604083015261402c8187613dab565b905061403b6060830186613f94565b6140486080830185613f94565b61405560a0830184613f94565b979650505050505050565b60006001600160401b0382111561407957614079613c22565b61408282613c18565b60200192915050565b82818337506000910152565b60006140a5613cb284614060565b9050828152602081018484840111156140c0576140c0600080fd5b6140cb84828561408b565b509392505050565b600082601f8301126140e7576140e7600080fd5b8135612bbd848260208601614097565b6000806000806080858703121561411057614110600080fd5b84356001600160401b0381111561412957614129600080fd5b614135878288016140d3565b94505060208501356001600160401b0381111561415457614154600080fd5b614160878288016140d3565b935050604061417187828801613c0d565b925050606061418287828801613c0d565b91505092959194509250565b610120810161419d828c613f94565b6141aa602083018b613f94565b81810360408301526141bc818a613dab565b905081810360608301526141d08189613dab565b90506141df6080830188613f94565b6141ec60a0830187613f94565b6141f960c0830186613f94565b61420660e0830185613f94565b614214610100830184613f94565b9a9950505050505050505050565b63ffffffff8116613bf3565b602081016109508284614222565b805160009060c08401906142508582613f94565b50602083015184820360208601526142688282613dab565b915050604083015184820360408601526142828282613dab565b91505060608301516142976060860182613f94565b5060808301516142aa6080860182613f94565b5060a08301516140cb60a0860182613f94565b6000613df0838361423c565b60006142d3825190565b808452602084019350836020820285016142ed8560200190565b8060005b85811015614322578484038952815161430a85826142bd565b94506020830160209a909a01999250506001016142f1565b5091979650505050505050565b60208082528101613df081846142c9565b801515613bb8565b803561095081614340565b6000806040838503121561436957614369600080fd5b60006143758585613e49565b9250506020613d7585828601614348565b61ffff8116613bb8565b803561095081614386565b63ffffffff8116613bb8565b80356109508161439b565b6000806000606084860312156143ca576143ca600080fd5b60006143d68686614390565b93505060206143e7868287016143a7565b9250506040613fee868287016143a7565b6000806000806080858703121561441157614411600080fd5b600061441d8787613e49565b945050602061442e87828801613e49565b935050604061443f87828801613c0d565b92505060608501356001600160401b0381111561445e5761445e600080fd5b614182878288016140d3565b6000614478613cb284613c81565b8381529050602080820190840283018581111561449757614497600080fd5b835b81811015613cfa5780356001600160401b038111156144ba576144ba600080fd5b8086016144c789826140d3565b8552505060209283019201614499565b600082601f8301126144eb576144eb600080fd5b8135612bbd84826020860161446a565b6000806000806080858703121561451457614514600080fd5b84356001600160401b0381111561452d5761452d600080fd5b614539878288016144d7565b94505060208501356001600160401b0381111561455857614558600080fd5b614564878288016144d7565b93505060408501356001600160401b0381111561458357614583600080fd5b61458f87828801613d04565b92505060608501356001600160401b038111156145ae576145ae600080fd5b61418287828801613d04565b80516000906101208401906145cf8582613f94565b5060208301516145e26020860182613f94565b50604083015184820360408601526145fa8282613dab565b915050606083015184820360608601526146148282613dab565b91505060808301516146296080860182613f94565b5060a083015161463c60a0860182613f94565b5060c083015161464f60c0860182613f94565b5060e083015161466260e0860182613f94565b506101008301516140cb610100860182613f94565b6000613df083836145ba565b600061468d825190565b808452602084019350836020820285016146a78560200190565b8060005b8581101561432257848403895281516146c48582614677565b94506020830160209a909a01999250506001016146ab565b60208082528101613df08184614683565b60008060008060008060c0878903121561470957614709600080fd5b86356001600160401b0381111561472257614722600080fd5b61472e89828a016144d7565b96505060208701356001600160401b0381111561474d5761474d600080fd5b61475989828a016144d7565b95505060408701356001600160401b0381111561477857614778600080fd5b61478489828a01613d04565b94505060608701356001600160401b038111156147a3576147a3600080fd5b6147af89828a01613d04565b93505060808701356001600160401b038111156147ce576147ce600080fd5b6147da89828a01613d04565b92505060a08701356001600160401b038111156147f9576147f9600080fd5b61480589828a01613d04565b9150509295509295509295565b61ffff8116613bf3565b602081016109508284614812565b6000806040838503121561484057614840600080fd5b600061484c8585613e49565b9250506020613d7585828601613e49565b601481526000602082017321b0b63632b91036bab9ba1031329037bbb732b960611b815291505b5060200190565b602080825281016109508161485d565b601c81526000602082017f43757272656e7420626f7373206973206e6f742064656164207965740000000081529150614884565b602080825281016109508161489b565b634e487b7160e01b600052602160045260246000fd5b634e487b7160e01b600052602260045260246000fd5b60028104600182168061491f57607f821691505b602082108103614931576149316148f5565b50919050565b602c81526000602082017f4552433732313a20617070726f76656420717565727920666f72206e6f6e657881526b34b9ba32b73a103a37b5b2b760a11b602082015291505b5060400190565b6020808252810161095081614937565b602181526000602082017f4552433732313a20617070726f76616c20746f2063757272656e74206f776e658152603960f91b6020820152915061497c565b6020808252810161095081614993565b603881526000602082017f4552433732313a20617070726f76652063616c6c6572206973206e6f74206f778152771b995c881b9bdc88185c1c1c9bdd995908199bdc88185b1b60421b6020820152915061497c565b60208082528101610950816149e1565b602081016109508284613ec3565b6001600160601b038116613bb8565b805161095081614a54565b6001600160401b038116613bb8565b805161095081614a6e565b805161095081613e40565b6000614aa1613cb284613c81565b83815290506020808201908402830185811115614ac057614ac0600080fd5b835b81811015613cfa5780614ad58882614a88565b84525060209283019201614ac2565b600082601f830112614af857614af8600080fd5b8151612bbd848260208601614a93565b60008060008060808587031215614b2157614b21600080fd5b6000614b2d8787614a63565b9450506020614b3e87828801614a7d565b9350506040614b4f87828801614a88565b92505060608501516001600160401b03811115614b6e57614b6e600080fd5b61418287828801614ae4565b602881526000602082017f4c696e6b20746f6b656e20616464726573732063616e2774206265207a65726f815267206164647265737360c01b6020820152915061497c565b6020808252810161095081614b7a565b60408101614bdd8285613e29565b613df06020830184613e29565b603181526000602082017f4552433732313a207472616e736665722063616c6c6572206973206e6f74206f8152701ddb995c881b9bdc88185c1c1c9bdd9959607a1b6020820152915061497c565b6020808252810161095081614bea565b6000614c548285613f94565b602082019150614c648284613f94565b5060200192915050565b634e487b7160e01b600052601260045260246000fd5b600082614c9357614c93614c6e565b500690565b634e487b7160e01b600052603260045260246000fd5b805161095081613c07565b600060208284031215614cce57614cce600080fd5b6000612bbd8484614cae565b60158152600060208201744e6f206c696e6b20746f6b656e2062616c616e636560581b81529150614884565b6020808252810161095081614cda565b60608101614d248286613e29565b614d316020830185613f94565b8181036040830152614d438184613dab565b95945050505050565b805161095081614340565b600060208284031215614d6c57614d6c600080fd5b6000612bbd8484614d4c565b601b81526000602082017f436f756c64206e6f742066756e6420737562736372697074696f6e000000000081529150614884565b6020808252810161095081614d78565b602981526000602082017f4552433732313a206f776e657220717565727920666f72206e6f6e657869737481526832b73a103a37b5b2b760b91b6020820152915061497c565b6020808252810161095081614dbc565b602a81526000602082017f4552433732313a2062616c616e636520717565727920666f7220746865207a65815269726f206164647265737360b01b6020820152915061497c565b6020808252810161095081614e12565b600081610950565b6015815260006020820174151c985b9cd9995c881d5b9cdd58d8d95cdcd99d5b605a1b81529150614884565b6020808252810161095081614e71565b602581526000602082017f436f6e74726163742068617320616c7265616479206265656e20696e697469618152641b1a5e995960da1b6020820152915061497c565b6020808252810161095081614ead565b602d81526000602082017f4f6e65206f662074686520676976656e2064656661756c74206172726179732081526c0d2e640dec8c840d8cadccee8d609b1b6020820152915061497c565b6020808252810161095081614eff565b634e487b7160e01b600052601160045260246000fd5b60006000198203614f8257614f82614f59565b5060010190565b60008154614f968161490b565b600182168015614fad5760018114614fbe57614fee565b60ff19831686528186019350614fee565b60008581526020902060005b83811015614fe657815488820152600190910190602001614fca565b838801955050505b50505092915050565b6000615001825190565b61500f818560208601613d7f565b9290920192915050565b6d16101136b0bc2fbb30b63ab2911d60911b8152600e0190565b7f7d2c207b202274726169745f74797065223a202241747461636b2044616d616781526c032911610113b30b63ab2911d1609d1b602082015260005b50602d0190565b7f7d2c207b202274726169745f74797065223a20224865616c696e6720506f776581526c039111610113b30b63ab2911d1609d1b6020820152600061506f565b693d913730b6b2911d101160b11b8152600a0160006150d5828f614f89565b6a01016969027232a10119d160ad1b8152600b0191506150f5828e614ff7565b7f222c20226465736372697074696f6e223a202241204865726f204e465420746881527f6174206c65747320796f7520706c6179204d6f6e7374657220536c617965722160208201526c1116101134b6b0b3b2911d101160991b6040820152604d019150615163828d614f89565b7f222c202261747472696275746573223a205b207b202274726169745f7479706581527f223a202242697274682044617465222c202276616c7565223a200000000000006020820152603a0191506151bb828c614ff7565b7f7d2c207b2022646973706c61795f74797065223a202264617465222c2022747281527f6169745f74797065223a20224865616c746820506f696e7473222c202276616c60208201526403ab2911d160dd1b60408201526045019150615221828b614ff7565b915061522c82615019565b9150615238828a614ff7565b915061524382615033565b915061524f8289614ff7565b915061525a82615019565b91506152668288614ff7565b7f7d2c207b202274726169745f74797065223a2022437269746963616c2044616d815275030b3b29021b430b731b2911610113b30b63ab2911d160551b602082015260360191506152b78287614ff7565b91506152c282615019565b91506152ce8286614ff7565b91506152d982615076565b91506152e58285614ff7565b91506152f082615019565b91506152fc8284614ff7565b637d205d7d60e01b81526004019e9d5050505050505050505050505050565b7f646174613a6170706c69636174696f6e2f6a736f6e3b6261736536342c0000008152601d016000613df08284614ff7565b601d81526000602082017f43757272656e746c7920737061776e696e672061206e657720626f737300000081529150614884565b602080825281016109508161534d565b602f81526000602082017f43757272656e7420626f737320697320646561642c20796f75206d757374207381526e7061776e2061206e657720626f737360881b6020820152915061497c565b6020808252810161095081615391565b602281526000602082017f41747461636b6572206d7573742068617665206174206c656173742031206865815261726f60f01b6020820152915061497c565b60208082528101610950816153ed565b602d81526000602082017f546869732061646472657373206861732072656163686564206d6178696d756d81526c081d1bdad95b88185b5bdd5b9d609a1b6020820152915061497c565b602080825281016109508161543c565b601d81526000602082017f43616e2774206d696e74206d756c7469706c6520617420612074696d6500000081529150614884565b6020808252810161095081615496565b601d81526000602082017f5061796d656e74206973206e6f7420636f727265637420616d6f756e7400000081529150614884565b60208082528101610950816154da565b60a0810161552c8288613f94565b6155396020830187613ec3565b6155466040830186614812565b6155536060830185614222565b613f696080830184614222565b602c81526000602082017f4552433732313a206f70657261746f7220717565727920666f72206e6f6e657881526b34b9ba32b73a103a37b5b2b760a11b6020820152915061497c565b6020808252810161095081615560565b602581526000602082017f4552433732313a207472616e736665722066726f6d20696e636f72726563742081526437bbb732b960d91b6020820152915061497c565b60208082528101610950816155b9565b602481526000602082017f4552433732313a207472616e7366657220746f20746865207a65726f206164648152637265737360e01b6020820152915061497c565b602080825281016109508161560b565b60008282101561566e5761566e614f59565b500390565b6000821982111561568657615686614f59565b500190565b601981526000602082017822a9219b99189d1030b8383937bb32903a379031b0b63632b960391b81529150614884565b602080825281016109508161568b565b603281526000602082017f4552433732313a207472616e7366657220746f206e6f6e20455243373231526581527131b2b4bb32b91034b6b83632b6b2b73a32b960711b6020820152915061497c565b60208082528101610950816156cb565b60006020828403121561573f5761573f600080fd5b6000612bbd8484614a7d565b60408101614bdd8285613ec3565b60008261576857615768614c6e565b500490565b600081600019048311821515161561578757615787614f59565b500290565b6040810161579a8285613f94565b613df06020830184613f94565b608081016157b58287613e29565b6157c26020830186613e29565b6157cf6040830185613f94565b8181036060830152613f698184613dab565b805161095081613bac565b60006020828403121561580157615801600080fd5b6000612bbd84846157e1565b60208082527f4552433732313a206d696e7420746f20746865207a65726f206164647265737391019081526000614884565b602080825281016109508161580d565b601c81526000602082017f4552433732313a20746f6b656e20616c7265616479206d696e7465640000000081529150614884565b602080825281016109508161584f56fe4142434445464748494a4b4c4d4e4f505152535455565758595a6162636465666768696a6b6c6d6e6f707172737475767778797a303132333435363738392b2fddf252ad1be2c89b69c2b068fc378daa952ba7f163c4a11628f55a4df523b3efa2646970667358221220536b149185c4c2d824dfe3a673dee92952eb653f314c4db99b5d9c10bc6cba3e64736f6c634300080d0033",
  "linkReferences": {},
  "deployedLinkReferences": {}
}